{
	"contracts/Blockoffice.sol": {
		"Blockoffice": {
			"abi": [
				{
					"inputs": [
						{
							"internalType": "string",
							"name": "_nome",
							"type": "string"
						},
						{
							"internalType": "uint256",
							"name": "_rg",
							"type": "uint256"
						},
						{
							"internalType": "uint256",
							"name": "_cpf",
							"type": "uint256"
						},
						{
							"internalType": "uint256",
							"name": "_data",
							"type": "uint256"
						}
					],
					"name": "criaPessoa",
					"outputs": [],
					"stateMutability": "nonpayable",
					"type": "function"
				},
				{
					"inputs": [
						{
							"internalType": "uint256",
							"name": "id",
							"type": "uint256"
						}
					],
					"name": "pegaPessoa",
					"outputs": [
						{
							"internalType": "string",
							"name": "",
							"type": "string"
						},
						{
							"internalType": "uint256",
							"name": "",
							"type": "uint256"
						},
						{
							"internalType": "uint256",
							"name": "",
							"type": "uint256"
						},
						{
							"internalType": "uint256",
							"name": "",
							"type": "uint256"
						}
					],
					"stateMutability": "view",
					"type": "function"
				},
				{
					"inputs": [
						{
							"internalType": "uint256",
							"name": "",
							"type": "uint256"
						}
					],
					"name": "pessoas",
					"outputs": [
						{
							"internalType": "string",
							"name": "nome",
							"type": "string"
						},
						{
							"internalType": "uint256",
							"name": "rg",
							"type": "uint256"
						},
						{
							"internalType": "uint256",
							"name": "cpf",
							"type": "uint256"
						},
						{
							"internalType": "uint256",
							"name": "data",
							"type": "uint256"
						}
					],
					"stateMutability": "view",
					"type": "function"
				}
			],
			"devdoc": {
				"kind": "dev",
				"methods": {},
				"version": 1
			},
			"evm": {
				"assembly": "    /* \"contracts/Blockoffice.sol\":70:702  contract Blockoffice{\r... */\n  mstore(0x40, 0x80)\n  callvalue\n  dup1\n  iszero\n  tag_1\n  jumpi\n  0x00\n  dup1\n  revert\ntag_1:\n  pop\n  dataSize(sub_0)\n  dup1\n  dataOffset(sub_0)\n  0x00\n  codecopy\n  0x00\n  return\nstop\n\nsub_0: assembly {\n        /* \"contracts/Blockoffice.sol\":70:702  contract Blockoffice{\r... */\n      mstore(0x40, 0x80)\n      callvalue\n      dup1\n      iszero\n      tag_1\n      jumpi\n      0x00\n      dup1\n      revert\n    tag_1:\n      pop\n      jumpi(tag_2, lt(calldatasize, 0x04))\n      shr(0xe0, calldataload(0x00))\n      dup1\n      0xa60fc052\n      eq\n      tag_3\n      jumpi\n      dup1\n      0xa7047396\n      eq\n      tag_4\n      jumpi\n      dup1\n      0xe1da5632\n      eq\n      tag_5\n      jumpi\n    tag_2:\n      0x00\n      dup1\n      revert\n        /* \"contracts/Blockoffice.sol\":547:688  function pegaPessoa (uint id) external view returns (string memory, uint, uint, uint) {\r... */\n    tag_3:\n      tag_6\n      0x04\n      dup1\n      calldatasize\n      sub\n      dup2\n      add\n      swap1\n      tag_7\n      swap2\n      swap1\n      tag_8\n      jump\t// in\n    tag_7:\n      tag_9\n      jump\t// in\n    tag_6:\n      mload(0x40)\n      tag_10\n      swap5\n      swap4\n      swap3\n      swap2\n      swap1\n      tag_11\n      jump\t// in\n    tag_10:\n      mload(0x40)\n      dup1\n      swap2\n      sub\n      swap1\n      return\n        /* \"contracts/Blockoffice.sol\":243:539  function  criaPessoa(string memory _nome, uint _rg, uint _cpf, uint _data) external{\r... */\n    tag_4:\n      tag_12\n      0x04\n      dup1\n      calldatasize\n      sub\n      dup2\n      add\n      swap1\n      tag_13\n      swap2\n      swap1\n      tag_14\n      jump\t// in\n    tag_13:\n      tag_15\n      jump\t// in\n    tag_12:\n      stop\n        /* \"contracts/Blockoffice.sol\":210:234  Pessoa [] public pessoas */\n    tag_5:\n      tag_16\n      0x04\n      dup1\n      calldatasize\n      sub\n      dup2\n      add\n      swap1\n      tag_17\n      swap2\n      swap1\n      tag_8\n      jump\t// in\n    tag_17:\n      tag_18\n      jump\t// in\n    tag_16:\n      mload(0x40)\n      tag_19\n      swap5\n      swap4\n      swap3\n      swap2\n      swap1\n      tag_11\n      jump\t// in\n    tag_19:\n      mload(0x40)\n      dup1\n      swap2\n      sub\n      swap1\n      return\n        /* \"contracts/Blockoffice.sol\":547:688  function pegaPessoa (uint id) external view returns (string memory, uint, uint, uint) {\r... */\n    tag_9:\n        /* \"contracts/Blockoffice.sol\":600:613  string memory */\n      0x60\n        /* \"contracts/Blockoffice.sol\":615:619  uint */\n      0x00\n        /* \"contracts/Blockoffice.sol\":621:625  uint */\n      dup1\n        /* \"contracts/Blockoffice.sol\":627:631  uint */\n      0x00\n        /* \"contracts/Blockoffice.sol\":644:664  Pessoa memory pessoa */\n      dup1\n        /* \"contracts/Blockoffice.sol\":667:674  pessoas */\n      0x00\n        /* \"contracts/Blockoffice.sol\":675:677  id */\n      dup7\n        /* \"contracts/Blockoffice.sol\":667:678  pessoas[id] */\n      dup2\n      sload\n      dup2\n      lt\n      tag_21\n      jumpi\n      tag_22\n      tag_23\n      jump\t// in\n    tag_22:\n    tag_21:\n      swap1\n      0x00\n      mstore\n      keccak256(0x00, 0x20)\n      swap1\n      0x04\n      mul\n      add\n        /* \"contracts/Blockoffice.sol\":644:678  Pessoa memory pessoa = pessoas[id] */\n      mload(0x40)\n      dup1\n      0x80\n      add\n      0x40\n      mstore\n      swap1\n      dup2\n      0x00\n      dup3\n      add\n      dup1\n      sload\n      tag_25\n      swap1\n      tag_26\n      jump\t// in\n    tag_25:\n      dup1\n      0x1f\n      add\n      0x20\n      dup1\n      swap2\n      div\n      mul\n      0x20\n      add\n      mload(0x40)\n      swap1\n      dup2\n      add\n      0x40\n      mstore\n      dup1\n      swap3\n      swap2\n      swap1\n      dup2\n      dup2\n      mstore\n      0x20\n      add\n      dup3\n      dup1\n      sload\n      tag_27\n      swap1\n      tag_26\n      jump\t// in\n    tag_27:\n      dup1\n      iszero\n      tag_28\n      jumpi\n      dup1\n      0x1f\n      lt\n      tag_29\n      jumpi\n      0x0100\n      dup1\n      dup4\n      sload\n      div\n      mul\n      dup4\n      mstore\n      swap2\n      0x20\n      add\n      swap2\n      jump(tag_28)\n    tag_29:\n      dup3\n      add\n      swap2\n      swap1\n      0x00\n      mstore\n      keccak256(0x00, 0x20)\n      swap1\n    tag_30:\n      dup2\n      sload\n      dup2\n      mstore\n      swap1\n      0x01\n      add\n      swap1\n      0x20\n      add\n      dup1\n      dup4\n      gt\n      tag_30\n      jumpi\n      dup3\n      swap1\n      sub\n      0x1f\n      and\n      dup3\n      add\n      swap2\n    tag_28:\n      pop\n      pop\n      pop\n      pop\n      pop\n      dup2\n      mstore\n      0x20\n      add\n      0x01\n      dup3\n      add\n      sload\n      dup2\n      mstore\n      0x20\n      add\n      0x02\n      dup3\n      add\n      sload\n      dup2\n      mstore\n      0x20\n      add\n      0x03\n      dup3\n      add\n      sload\n      dup2\n      mstore\n      pop\n      pop\n      swap1\n      pop\n        /* \"contracts/Blockoffice.sol\":633:688  {\r... */\n      pop\n        /* \"contracts/Blockoffice.sol\":547:688  function pegaPessoa (uint id) external view returns (string memory, uint, uint, uint) {\r... */\n      swap2\n      swap4\n      pop\n      swap2\n      swap4\n      jump\t// out\n        /* \"contracts/Blockoffice.sol\":243:539  function  criaPessoa(string memory _nome, uint _rg, uint _cpf, uint _data) external{\r... */\n    tag_15:\n        /* \"contracts/Blockoffice.sol\":337:361  Pessoa memory novaPessoa */\n      tag_32\n      tag_33\n      jump\t// in\n    tag_32:\n        /* \"contracts/Blockoffice.sol\":390:395  _nome */\n      dup5\n        /* \"contracts/Blockoffice.sol\":372:382  novaPessoa */\n      dup2\n        /* \"contracts/Blockoffice.sol\":372:387  novaPessoa.nome */\n      0x00\n      add\n        /* \"contracts/Blockoffice.sol\":372:395  novaPessoa.nome = _nome */\n      dup2\n      swap1\n      mstore\n      pop\n        /* \"contracts/Blockoffice.sol\":422:425  _rg */\n      dup4\n        /* \"contracts/Blockoffice.sol\":406:416  novaPessoa */\n      dup2\n        /* \"contracts/Blockoffice.sol\":406:419  novaPessoa.rg */\n      0x20\n      add\n        /* \"contracts/Blockoffice.sol\":406:425  novaPessoa.rg = _rg */\n      dup2\n      dup2\n      mstore\n      pop\n      pop\n        /* \"contracts/Blockoffice.sol\":453:457  _cpf */\n      dup3\n        /* \"contracts/Blockoffice.sol\":436:446  novaPessoa */\n      dup2\n        /* \"contracts/Blockoffice.sol\":436:450  novaPessoa.cpf */\n      0x40\n      add\n        /* \"contracts/Blockoffice.sol\":436:457  novaPessoa.cpf = _cpf */\n      dup2\n      dup2\n      mstore\n      pop\n      pop\n        /* \"contracts/Blockoffice.sol\":487:492  _data */\n      dup2\n        /* \"contracts/Blockoffice.sol\":469:479  novaPessoa */\n      dup2\n        /* \"contracts/Blockoffice.sol\":469:484  novaPessoa.data */\n      0x60\n      add\n        /* \"contracts/Blockoffice.sol\":469:492  novaPessoa.data = _data */\n      dup2\n      dup2\n      mstore\n      pop\n      pop\n        /* \"contracts/Blockoffice.sol\":505:512  pessoas */\n      0x00\n        /* \"contracts/Blockoffice.sol\":518:528  novaPessoa */\n      dup2\n        /* \"contracts/Blockoffice.sol\":505:529  pessoas.push(novaPessoa) */\n      swap1\n      dup1\n      0x01\n      dup2\n      sload\n      add\n      dup1\n      dup3\n      sstore\n      dup1\n      swap2\n      pop\n      pop\n      0x01\n      swap1\n      sub\n      swap1\n      0x00\n      mstore\n      keccak256(0x00, 0x20)\n      swap1\n      0x04\n      mul\n      add\n      0x00\n      swap1\n      swap2\n      swap1\n      swap2\n      swap1\n      swap2\n      pop\n      0x00\n      dup3\n      add\n      mload\n      dup2\n      0x00\n      add\n      swap1\n      dup1\n      mload\n      swap1\n      0x20\n      add\n      swap1\n      tag_35\n      swap3\n      swap2\n      swap1\n      tag_36\n      jump\t// in\n    tag_35:\n      pop\n      0x20\n      dup3\n      add\n      mload\n      dup2\n      0x01\n      add\n      sstore\n      0x40\n      dup3\n      add\n      mload\n      dup2\n      0x02\n      add\n      sstore\n      0x60\n      dup3\n      add\n      mload\n      dup2\n      0x03\n      add\n      sstore\n      pop\n      pop\n        /* \"contracts/Blockoffice.sol\":326:539  {\r... */\n      pop\n        /* \"contracts/Blockoffice.sol\":243:539  function  criaPessoa(string memory _nome, uint _rg, uint _cpf, uint _data) external{\r... */\n      pop\n      pop\n      pop\n      pop\n      jump\t// out\n        /* \"contracts/Blockoffice.sol\":210:234  Pessoa [] public pessoas */\n    tag_18:\n      0x00\n      dup2\n      dup2\n      sload\n      dup2\n      lt\n      tag_37\n      jumpi\n      0x00\n      dup1\n      revert\n    tag_37:\n      swap1\n      0x00\n      mstore\n      keccak256(0x00, 0x20)\n      swap1\n      0x04\n      mul\n      add\n      0x00\n      swap2\n      pop\n      swap1\n      pop\n      dup1\n      0x00\n      add\n      dup1\n      sload\n      tag_39\n      swap1\n      tag_26\n      jump\t// in\n    tag_39:\n      dup1\n      0x1f\n      add\n      0x20\n      dup1\n      swap2\n      div\n      mul\n      0x20\n      add\n      mload(0x40)\n      swap1\n      dup2\n      add\n      0x40\n      mstore\n      dup1\n      swap3\n      swap2\n      swap1\n      dup2\n      dup2\n      mstore\n      0x20\n      add\n      dup3\n      dup1\n      sload\n      tag_40\n      swap1\n      tag_26\n      jump\t// in\n    tag_40:\n      dup1\n      iszero\n      tag_41\n      jumpi\n      dup1\n      0x1f\n      lt\n      tag_42\n      jumpi\n      0x0100\n      dup1\n      dup4\n      sload\n      div\n      mul\n      dup4\n      mstore\n      swap2\n      0x20\n      add\n      swap2\n      jump(tag_41)\n    tag_42:\n      dup3\n      add\n      swap2\n      swap1\n      0x00\n      mstore\n      keccak256(0x00, 0x20)\n      swap1\n    tag_43:\n      dup2\n      sload\n      dup2\n      mstore\n      swap1\n      0x01\n      add\n      swap1\n      0x20\n      add\n      dup1\n      dup4\n      gt\n      tag_43\n      jumpi\n      dup3\n      swap1\n      sub\n      0x1f\n      and\n      dup3\n      add\n      swap2\n    tag_41:\n      pop\n      pop\n      pop\n      pop\n      pop\n      swap1\n      dup1\n      0x01\n      add\n      sload\n      swap1\n      dup1\n      0x02\n      add\n      sload\n      swap1\n      dup1\n      0x03\n      add\n      sload\n      swap1\n      pop\n      dup5\n      jump\t// out\n    tag_33:\n      mload(0x40)\n      dup1\n      0x80\n      add\n      0x40\n      mstore\n      dup1\n      0x60\n      dup2\n      mstore\n      0x20\n      add\n      0x00\n      dup2\n      mstore\n      0x20\n      add\n      0x00\n      dup2\n      mstore\n      0x20\n      add\n      0x00\n      dup2\n      mstore\n      pop\n      swap1\n      jump\t// out\n    tag_36:\n      dup3\n      dup1\n      sload\n      tag_44\n      swap1\n      tag_26\n      jump\t// in\n    tag_44:\n      swap1\n      0x00\n      mstore\n      keccak256(0x00, 0x20)\n      swap1\n      0x1f\n      add\n      0x20\n      swap1\n      div\n      dup2\n      add\n      swap3\n      dup3\n      tag_46\n      jumpi\n      0x00\n      dup6\n      sstore\n      jump(tag_45)\n    tag_46:\n      dup3\n      0x1f\n      lt\n      tag_47\n      jumpi\n      dup1\n      mload\n      not(0xff)\n      and\n      dup4\n      dup1\n      add\n      or\n      dup6\n      sstore\n      jump(tag_45)\n    tag_47:\n      dup3\n      dup1\n      add\n      0x01\n      add\n      dup6\n      sstore\n      dup3\n      iszero\n      tag_45\n      jumpi\n      swap2\n      dup3\n      add\n    tag_48:\n      dup3\n      dup2\n      gt\n      iszero\n      tag_49\n      jumpi\n      dup3\n      mload\n      dup3\n      sstore\n      swap2\n      0x20\n      add\n      swap2\n      swap1\n      0x01\n      add\n      swap1\n      jump(tag_48)\n    tag_49:\n    tag_45:\n      pop\n      swap1\n      pop\n      tag_50\n      swap2\n      swap1\n      tag_51\n      jump\t// in\n    tag_50:\n      pop\n      swap1\n      jump\t// out\n    tag_51:\n    tag_52:\n      dup1\n      dup3\n      gt\n      iszero\n      tag_53\n      jumpi\n      0x00\n      dup2\n      0x00\n      swap1\n      sstore\n      pop\n      0x01\n      add\n      jump(tag_52)\n    tag_53:\n      pop\n      swap1\n      jump\t// out\n        /* \"#utility.yul\":7:419   */\n    tag_55:\n        /* \"#utility.yul\":85:90   */\n      0x00\n        /* \"#utility.yul\":110:176   */\n      tag_57\n        /* \"#utility.yul\":126:175   */\n      tag_58\n        /* \"#utility.yul\":168:174   */\n      dup5\n        /* \"#utility.yul\":126:175   */\n      tag_59\n      jump\t// in\n    tag_58:\n        /* \"#utility.yul\":110:176   */\n      tag_60\n      jump\t// in\n    tag_57:\n        /* \"#utility.yul\":101:176   */\n      swap1\n      pop\n        /* \"#utility.yul\":199:205   */\n      dup3\n        /* \"#utility.yul\":192:197   */\n      dup2\n        /* \"#utility.yul\":185:206   */\n      mstore\n        /* \"#utility.yul\":237:241   */\n      0x20\n        /* \"#utility.yul\":230:235   */\n      dup2\n        /* \"#utility.yul\":226:242   */\n      add\n        /* \"#utility.yul\":275:278   */\n      dup5\n        /* \"#utility.yul\":266:272   */\n      dup5\n        /* \"#utility.yul\":261:264   */\n      dup5\n        /* \"#utility.yul\":257:273   */\n      add\n        /* \"#utility.yul\":254:279   */\n      gt\n        /* \"#utility.yul\":251:363   */\n      iszero\n      tag_61\n      jumpi\n        /* \"#utility.yul\":282:361   */\n      tag_62\n      tag_63\n      jump\t// in\n    tag_62:\n        /* \"#utility.yul\":251:363   */\n    tag_61:\n        /* \"#utility.yul\":372:413   */\n      tag_64\n        /* \"#utility.yul\":406:412   */\n      dup5\n        /* \"#utility.yul\":401:404   */\n      dup3\n        /* \"#utility.yul\":396:399   */\n      dup6\n        /* \"#utility.yul\":372:413   */\n      tag_65\n      jump\t// in\n    tag_64:\n        /* \"#utility.yul\":91:419   */\n      pop\n        /* \"#utility.yul\":7:419   */\n      swap4\n      swap3\n      pop\n      pop\n      pop\n      jump\t// out\n        /* \"#utility.yul\":439:779   */\n    tag_66:\n        /* \"#utility.yul\":495:500   */\n      0x00\n        /* \"#utility.yul\":544:547   */\n      dup3\n        /* \"#utility.yul\":537:541   */\n      0x1f\n        /* \"#utility.yul\":529:535   */\n      dup4\n        /* \"#utility.yul\":525:542   */\n      add\n        /* \"#utility.yul\":521:548   */\n      slt\n        /* \"#utility.yul\":511:633   */\n      tag_68\n      jumpi\n        /* \"#utility.yul\":552:631   */\n      tag_69\n      tag_70\n      jump\t// in\n    tag_69:\n        /* \"#utility.yul\":511:633   */\n    tag_68:\n        /* \"#utility.yul\":669:675   */\n      dup2\n        /* \"#utility.yul\":656:676   */\n      calldataload\n        /* \"#utility.yul\":694:773   */\n      tag_71\n        /* \"#utility.yul\":769:772   */\n      dup5\n        /* \"#utility.yul\":761:767   */\n      dup3\n        /* \"#utility.yul\":754:758   */\n      0x20\n        /* \"#utility.yul\":746:752   */\n      dup7\n        /* \"#utility.yul\":742:759   */\n      add\n        /* \"#utility.yul\":694:773   */\n      tag_55\n      jump\t// in\n    tag_71:\n        /* \"#utility.yul\":685:773   */\n      swap2\n      pop\n        /* \"#utility.yul\":501:779   */\n      pop\n        /* \"#utility.yul\":439:779   */\n      swap3\n      swap2\n      pop\n      pop\n      jump\t// out\n        /* \"#utility.yul\":785:924   */\n    tag_72:\n        /* \"#utility.yul\":831:836   */\n      0x00\n        /* \"#utility.yul\":869:875   */\n      dup2\n        /* \"#utility.yul\":856:876   */\n      calldataload\n        /* \"#utility.yul\":847:876   */\n      swap1\n      pop\n        /* \"#utility.yul\":885:918   */\n      tag_74\n        /* \"#utility.yul\":912:917   */\n      dup2\n        /* \"#utility.yul\":885:918   */\n      tag_75\n      jump\t// in\n    tag_74:\n        /* \"#utility.yul\":785:924   */\n      swap3\n      swap2\n      pop\n      pop\n      jump\t// out\n        /* \"#utility.yul\":930:1875   */\n    tag_14:\n        /* \"#utility.yul\":1026:1032   */\n      0x00\n        /* \"#utility.yul\":1034:1040   */\n      dup1\n        /* \"#utility.yul\":1042:1048   */\n      0x00\n        /* \"#utility.yul\":1050:1056   */\n      dup1\n        /* \"#utility.yul\":1099:1102   */\n      0x80\n        /* \"#utility.yul\":1087:1096   */\n      dup6\n        /* \"#utility.yul\":1078:1085   */\n      dup8\n        /* \"#utility.yul\":1074:1097   */\n      sub\n        /* \"#utility.yul\":1070:1103   */\n      slt\n        /* \"#utility.yul\":1067:1187   */\n      iszero\n      tag_77\n      jumpi\n        /* \"#utility.yul\":1106:1185   */\n      tag_78\n      tag_79\n      jump\t// in\n    tag_78:\n        /* \"#utility.yul\":1067:1187   */\n    tag_77:\n        /* \"#utility.yul\":1254:1255   */\n      0x00\n        /* \"#utility.yul\":1243:1252   */\n      dup6\n        /* \"#utility.yul\":1239:1256   */\n      add\n        /* \"#utility.yul\":1226:1257   */\n      calldataload\n        /* \"#utility.yul\":1284:1302   */\n      0xffffffffffffffff\n        /* \"#utility.yul\":1276:1282   */\n      dup2\n        /* \"#utility.yul\":1273:1303   */\n      gt\n        /* \"#utility.yul\":1270:1387   */\n      iszero\n      tag_80\n      jumpi\n        /* \"#utility.yul\":1306:1385   */\n      tag_81\n      tag_82\n      jump\t// in\n    tag_81:\n        /* \"#utility.yul\":1270:1387   */\n    tag_80:\n        /* \"#utility.yul\":1411:1474   */\n      tag_83\n        /* \"#utility.yul\":1466:1473   */\n      dup8\n        /* \"#utility.yul\":1457:1463   */\n      dup3\n        /* \"#utility.yul\":1446:1455   */\n      dup9\n        /* \"#utility.yul\":1442:1464   */\n      add\n        /* \"#utility.yul\":1411:1474   */\n      tag_66\n      jump\t// in\n    tag_83:\n        /* \"#utility.yul\":1401:1474   */\n      swap5\n      pop\n        /* \"#utility.yul\":1197:1484   */\n      pop\n        /* \"#utility.yul\":1523:1525   */\n      0x20\n        /* \"#utility.yul\":1549:1602   */\n      tag_84\n        /* \"#utility.yul\":1594:1601   */\n      dup8\n        /* \"#utility.yul\":1585:1591   */\n      dup3\n        /* \"#utility.yul\":1574:1583   */\n      dup9\n        /* \"#utility.yul\":1570:1592   */\n      add\n        /* \"#utility.yul\":1549:1602   */\n      tag_72\n      jump\t// in\n    tag_84:\n        /* \"#utility.yul\":1539:1602   */\n      swap4\n      pop\n        /* \"#utility.yul\":1494:1612   */\n      pop\n        /* \"#utility.yul\":1651:1653   */\n      0x40\n        /* \"#utility.yul\":1677:1730   */\n      tag_85\n        /* \"#utility.yul\":1722:1729   */\n      dup8\n        /* \"#utility.yul\":1713:1719   */\n      dup3\n        /* \"#utility.yul\":1702:1711   */\n      dup9\n        /* \"#utility.yul\":1698:1720   */\n      add\n        /* \"#utility.yul\":1677:1730   */\n      tag_72\n      jump\t// in\n    tag_85:\n        /* \"#utility.yul\":1667:1730   */\n      swap3\n      pop\n        /* \"#utility.yul\":1622:1740   */\n      pop\n        /* \"#utility.yul\":1779:1781   */\n      0x60\n        /* \"#utility.yul\":1805:1858   */\n      tag_86\n        /* \"#utility.yul\":1850:1857   */\n      dup8\n        /* \"#utility.yul\":1841:1847   */\n      dup3\n        /* \"#utility.yul\":1830:1839   */\n      dup9\n        /* \"#utility.yul\":1826:1848   */\n      add\n        /* \"#utility.yul\":1805:1858   */\n      tag_72\n      jump\t// in\n    tag_86:\n        /* \"#utility.yul\":1795:1858   */\n      swap2\n      pop\n        /* \"#utility.yul\":1750:1868   */\n      pop\n        /* \"#utility.yul\":930:1875   */\n      swap3\n      swap6\n      swap2\n      swap5\n      pop\n      swap3\n      pop\n      jump\t// out\n        /* \"#utility.yul\":1881:2210   */\n    tag_8:\n        /* \"#utility.yul\":1940:1946   */\n      0x00\n        /* \"#utility.yul\":1989:1991   */\n      0x20\n        /* \"#utility.yul\":1977:1986   */\n      dup3\n        /* \"#utility.yul\":1968:1975   */\n      dup5\n        /* \"#utility.yul\":1964:1987   */\n      sub\n        /* \"#utility.yul\":1960:1992   */\n      slt\n        /* \"#utility.yul\":1957:2076   */\n      iszero\n      tag_88\n      jumpi\n        /* \"#utility.yul\":1995:2074   */\n      tag_89\n      tag_79\n      jump\t// in\n    tag_89:\n        /* \"#utility.yul\":1957:2076   */\n    tag_88:\n        /* \"#utility.yul\":2115:2116   */\n      0x00\n        /* \"#utility.yul\":2140:2193   */\n      tag_90\n        /* \"#utility.yul\":2185:2192   */\n      dup5\n        /* \"#utility.yul\":2176:2182   */\n      dup3\n        /* \"#utility.yul\":2165:2174   */\n      dup6\n        /* \"#utility.yul\":2161:2183   */\n      add\n        /* \"#utility.yul\":2140:2193   */\n      tag_72\n      jump\t// in\n    tag_90:\n        /* \"#utility.yul\":2130:2193   */\n      swap2\n      pop\n        /* \"#utility.yul\":2086:2203   */\n      pop\n        /* \"#utility.yul\":1881:2210   */\n      swap3\n      swap2\n      pop\n      pop\n      jump\t// out\n        /* \"#utility.yul\":2216:2580   */\n    tag_91:\n        /* \"#utility.yul\":2304:2307   */\n      0x00\n        /* \"#utility.yul\":2332:2371   */\n      tag_93\n        /* \"#utility.yul\":2365:2370   */\n      dup3\n        /* \"#utility.yul\":2332:2371   */\n      tag_94\n      jump\t// in\n    tag_93:\n        /* \"#utility.yul\":2387:2458   */\n      tag_95\n        /* \"#utility.yul\":2451:2457   */\n      dup2\n        /* \"#utility.yul\":2446:2449   */\n      dup6\n        /* \"#utility.yul\":2387:2458   */\n      tag_96\n      jump\t// in\n    tag_95:\n        /* \"#utility.yul\":2380:2458   */\n      swap4\n      pop\n        /* \"#utility.yul\":2467:2519   */\n      tag_97\n        /* \"#utility.yul\":2512:2518   */\n      dup2\n        /* \"#utility.yul\":2507:2510   */\n      dup6\n        /* \"#utility.yul\":2500:2504   */\n      0x20\n        /* \"#utility.yul\":2493:2498   */\n      dup7\n        /* \"#utility.yul\":2489:2505   */\n      add\n        /* \"#utility.yul\":2467:2519   */\n      tag_98\n      jump\t// in\n    tag_97:\n        /* \"#utility.yul\":2544:2573   */\n      tag_99\n        /* \"#utility.yul\":2566:2572   */\n      dup2\n        /* \"#utility.yul\":2544:2573   */\n      tag_100\n      jump\t// in\n    tag_99:\n        /* \"#utility.yul\":2539:2542   */\n      dup5\n        /* \"#utility.yul\":2535:2574   */\n      add\n        /* \"#utility.yul\":2528:2574   */\n      swap2\n      pop\n        /* \"#utility.yul\":2308:2580   */\n      pop\n        /* \"#utility.yul\":2216:2580   */\n      swap3\n      swap2\n      pop\n      pop\n      jump\t// out\n        /* \"#utility.yul\":2586:2704   */\n    tag_101:\n        /* \"#utility.yul\":2673:2697   */\n      tag_103\n        /* \"#utility.yul\":2691:2696   */\n      dup2\n        /* \"#utility.yul\":2673:2697   */\n      tag_104\n      jump\t// in\n    tag_103:\n        /* \"#utility.yul\":2668:2671   */\n      dup3\n        /* \"#utility.yul\":2661:2698   */\n      mstore\n        /* \"#utility.yul\":2586:2704   */\n      pop\n      pop\n      jump\t// out\n        /* \"#utility.yul\":2710:3354   */\n    tag_11:\n        /* \"#utility.yul\":2907:2911   */\n      0x00\n        /* \"#utility.yul\":2945:2948   */\n      0x80\n        /* \"#utility.yul\":2934:2943   */\n      dup3\n        /* \"#utility.yul\":2930:2949   */\n      add\n        /* \"#utility.yul\":2922:2949   */\n      swap1\n      pop\n        /* \"#utility.yul\":2995:3004   */\n      dup2\n        /* \"#utility.yul\":2989:2993   */\n      dup2\n        /* \"#utility.yul\":2985:3005   */\n      sub\n        /* \"#utility.yul\":2981:2982   */\n      0x00\n        /* \"#utility.yul\":2970:2979   */\n      dup4\n        /* \"#utility.yul\":2966:2983   */\n      add\n        /* \"#utility.yul\":2959:3006   */\n      mstore\n        /* \"#utility.yul\":3023:3101   */\n      tag_106\n        /* \"#utility.yul\":3096:3100   */\n      dup2\n        /* \"#utility.yul\":3087:3093   */\n      dup8\n        /* \"#utility.yul\":3023:3101   */\n      tag_91\n      jump\t// in\n    tag_106:\n        /* \"#utility.yul\":3015:3101   */\n      swap1\n      pop\n        /* \"#utility.yul\":3111:3183   */\n      tag_107\n        /* \"#utility.yul\":3179:3181   */\n      0x20\n        /* \"#utility.yul\":3168:3177   */\n      dup4\n        /* \"#utility.yul\":3164:3182   */\n      add\n        /* \"#utility.yul\":3155:3161   */\n      dup7\n        /* \"#utility.yul\":3111:3183   */\n      tag_101\n      jump\t// in\n    tag_107:\n        /* \"#utility.yul\":3193:3265   */\n      tag_108\n        /* \"#utility.yul\":3261:3263   */\n      0x40\n        /* \"#utility.yul\":3250:3259   */\n      dup4\n        /* \"#utility.yul\":3246:3264   */\n      add\n        /* \"#utility.yul\":3237:3243   */\n      dup6\n        /* \"#utility.yul\":3193:3265   */\n      tag_101\n      jump\t// in\n    tag_108:\n        /* \"#utility.yul\":3275:3347   */\n      tag_109\n        /* \"#utility.yul\":3343:3345   */\n      0x60\n        /* \"#utility.yul\":3332:3341   */\n      dup4\n        /* \"#utility.yul\":3328:3346   */\n      add\n        /* \"#utility.yul\":3319:3325   */\n      dup5\n        /* \"#utility.yul\":3275:3347   */\n      tag_101\n      jump\t// in\n    tag_109:\n        /* \"#utility.yul\":2710:3354   */\n      swap6\n      swap5\n      pop\n      pop\n      pop\n      pop\n      pop\n      jump\t// out\n        /* \"#utility.yul\":3360:3489   */\n    tag_60:\n        /* \"#utility.yul\":3394:3400   */\n      0x00\n        /* \"#utility.yul\":3421:3441   */\n      tag_111\n      tag_112\n      jump\t// in\n    tag_111:\n        /* \"#utility.yul\":3411:3441   */\n      swap1\n      pop\n        /* \"#utility.yul\":3450:3483   */\n      tag_113\n        /* \"#utility.yul\":3478:3482   */\n      dup3\n        /* \"#utility.yul\":3470:3476   */\n      dup3\n        /* \"#utility.yul\":3450:3483   */\n      tag_114\n      jump\t// in\n    tag_113:\n        /* \"#utility.yul\":3360:3489   */\n      swap2\n      swap1\n      pop\n      jump\t// out\n        /* \"#utility.yul\":3495:3570   */\n    tag_112:\n        /* \"#utility.yul\":3528:3534   */\n      0x00\n        /* \"#utility.yul\":3561:3563   */\n      0x40\n        /* \"#utility.yul\":3555:3564   */\n      mload\n        /* \"#utility.yul\":3545:3564   */\n      swap1\n      pop\n        /* \"#utility.yul\":3495:3570   */\n      swap1\n      jump\t// out\n        /* \"#utility.yul\":3576:3884   */\n    tag_59:\n        /* \"#utility.yul\":3638:3642   */\n      0x00\n        /* \"#utility.yul\":3728:3746   */\n      0xffffffffffffffff\n        /* \"#utility.yul\":3720:3726   */\n      dup3\n        /* \"#utility.yul\":3717:3747   */\n      gt\n        /* \"#utility.yul\":3714:3770   */\n      iszero\n      tag_117\n      jumpi\n        /* \"#utility.yul\":3750:3768   */\n      tag_118\n      tag_119\n      jump\t// in\n    tag_118:\n        /* \"#utility.yul\":3714:3770   */\n    tag_117:\n        /* \"#utility.yul\":3788:3817   */\n      tag_120\n        /* \"#utility.yul\":3810:3816   */\n      dup3\n        /* \"#utility.yul\":3788:3817   */\n      tag_100\n      jump\t// in\n    tag_120:\n        /* \"#utility.yul\":3780:3817   */\n      swap1\n      pop\n        /* \"#utility.yul\":3872:3876   */\n      0x20\n        /* \"#utility.yul\":3866:3870   */\n      dup2\n        /* \"#utility.yul\":3862:3877   */\n      add\n        /* \"#utility.yul\":3854:3877   */\n      swap1\n      pop\n        /* \"#utility.yul\":3576:3884   */\n      swap2\n      swap1\n      pop\n      jump\t// out\n        /* \"#utility.yul\":3890:3989   */\n    tag_94:\n        /* \"#utility.yul\":3942:3948   */\n      0x00\n        /* \"#utility.yul\":3976:3981   */\n      dup2\n        /* \"#utility.yul\":3970:3982   */\n      mload\n        /* \"#utility.yul\":3960:3982   */\n      swap1\n      pop\n        /* \"#utility.yul\":3890:3989   */\n      swap2\n      swap1\n      pop\n      jump\t// out\n        /* \"#utility.yul\":3995:4164   */\n    tag_96:\n        /* \"#utility.yul\":4079:4090   */\n      0x00\n        /* \"#utility.yul\":4113:4119   */\n      dup3\n        /* \"#utility.yul\":4108:4111   */\n      dup3\n        /* \"#utility.yul\":4101:4120   */\n      mstore\n        /* \"#utility.yul\":4153:4157   */\n      0x20\n        /* \"#utility.yul\":4148:4151   */\n      dup3\n        /* \"#utility.yul\":4144:4158   */\n      add\n        /* \"#utility.yul\":4129:4158   */\n      swap1\n      pop\n        /* \"#utility.yul\":3995:4164   */\n      swap3\n      swap2\n      pop\n      pop\n      jump\t// out\n        /* \"#utility.yul\":4170:4247   */\n    tag_104:\n        /* \"#utility.yul\":4207:4214   */\n      0x00\n        /* \"#utility.yul\":4236:4241   */\n      dup2\n        /* \"#utility.yul\":4225:4241   */\n      swap1\n      pop\n        /* \"#utility.yul\":4170:4247   */\n      swap2\n      swap1\n      pop\n      jump\t// out\n        /* \"#utility.yul\":4253:4407   */\n    tag_65:\n        /* \"#utility.yul\":4337:4343   */\n      dup3\n        /* \"#utility.yul\":4332:4335   */\n      dup2\n        /* \"#utility.yul\":4327:4330   */\n      dup4\n        /* \"#utility.yul\":4314:4344   */\n      calldatacopy\n        /* \"#utility.yul\":4399:4400   */\n      0x00\n        /* \"#utility.yul\":4390:4396   */\n      dup4\n        /* \"#utility.yul\":4385:4388   */\n      dup4\n        /* \"#utility.yul\":4381:4397   */\n      add\n        /* \"#utility.yul\":4374:4401   */\n      mstore\n        /* \"#utility.yul\":4253:4407   */\n      pop\n      pop\n      pop\n      jump\t// out\n        /* \"#utility.yul\":4413:4720   */\n    tag_98:\n        /* \"#utility.yul\":4481:4482   */\n      0x00\n        /* \"#utility.yul\":4491:4604   */\n    tag_126:\n        /* \"#utility.yul\":4505:4511   */\n      dup4\n        /* \"#utility.yul\":4502:4503   */\n      dup2\n        /* \"#utility.yul\":4499:4512   */\n      lt\n        /* \"#utility.yul\":4491:4604   */\n      iszero\n      tag_128\n      jumpi\n        /* \"#utility.yul\":4590:4591   */\n      dup1\n        /* \"#utility.yul\":4585:4588   */\n      dup3\n        /* \"#utility.yul\":4581:4592   */\n      add\n        /* \"#utility.yul\":4575:4593   */\n      mload\n        /* \"#utility.yul\":4571:4572   */\n      dup2\n        /* \"#utility.yul\":4566:4569   */\n      dup5\n        /* \"#utility.yul\":4562:4573   */\n      add\n        /* \"#utility.yul\":4555:4594   */\n      mstore\n        /* \"#utility.yul\":4527:4529   */\n      0x20\n        /* \"#utility.yul\":4524:4525   */\n      dup2\n        /* \"#utility.yul\":4520:4530   */\n      add\n        /* \"#utility.yul\":4515:4530   */\n      swap1\n      pop\n        /* \"#utility.yul\":4491:4604   */\n      jump(tag_126)\n    tag_128:\n        /* \"#utility.yul\":4622:4628   */\n      dup4\n        /* \"#utility.yul\":4619:4620   */\n      dup2\n        /* \"#utility.yul\":4616:4629   */\n      gt\n        /* \"#utility.yul\":4613:4714   */\n      iszero\n      tag_129\n      jumpi\n        /* \"#utility.yul\":4702:4703   */\n      0x00\n        /* \"#utility.yul\":4693:4699   */\n      dup5\n        /* \"#utility.yul\":4688:4691   */\n      dup5\n        /* \"#utility.yul\":4684:4700   */\n      add\n        /* \"#utility.yul\":4677:4704   */\n      mstore\n        /* \"#utility.yul\":4613:4714   */\n    tag_129:\n        /* \"#utility.yul\":4462:4720   */\n      pop\n        /* \"#utility.yul\":4413:4720   */\n      pop\n      pop\n      pop\n      jump\t// out\n        /* \"#utility.yul\":4726:5046   */\n    tag_26:\n        /* \"#utility.yul\":4770:4776   */\n      0x00\n        /* \"#utility.yul\":4807:4808   */\n      0x02\n        /* \"#utility.yul\":4801:4805   */\n      dup3\n        /* \"#utility.yul\":4797:4809   */\n      div\n        /* \"#utility.yul\":4787:4809   */\n      swap1\n      pop\n        /* \"#utility.yul\":4854:4855   */\n      0x01\n        /* \"#utility.yul\":4848:4852   */\n      dup3\n        /* \"#utility.yul\":4844:4856   */\n      and\n        /* \"#utility.yul\":4875:4893   */\n      dup1\n        /* \"#utility.yul\":4865:4946   */\n      tag_131\n      jumpi\n        /* \"#utility.yul\":4931:4935   */\n      0x7f\n        /* \"#utility.yul\":4923:4929   */\n      dup3\n        /* \"#utility.yul\":4919:4936   */\n      and\n        /* \"#utility.yul\":4909:4936   */\n      swap2\n      pop\n        /* \"#utility.yul\":4865:4946   */\n    tag_131:\n        /* \"#utility.yul\":4993:4995   */\n      0x20\n        /* \"#utility.yul\":4985:4991   */\n      dup3\n        /* \"#utility.yul\":4982:4996   */\n      lt\n        /* \"#utility.yul\":4962:4980   */\n      dup2\n        /* \"#utility.yul\":4959:4997   */\n      eq\n        /* \"#utility.yul\":4956:5040   */\n      iszero\n      tag_132\n      jumpi\n        /* \"#utility.yul\":5012:5030   */\n      tag_133\n      tag_134\n      jump\t// in\n    tag_133:\n        /* \"#utility.yul\":4956:5040   */\n    tag_132:\n        /* \"#utility.yul\":4777:5046   */\n      pop\n        /* \"#utility.yul\":4726:5046   */\n      swap2\n      swap1\n      pop\n      jump\t// out\n        /* \"#utility.yul\":5052:5333   */\n    tag_114:\n        /* \"#utility.yul\":5135:5162   */\n      tag_136\n        /* \"#utility.yul\":5157:5161   */\n      dup3\n        /* \"#utility.yul\":5135:5162   */\n      tag_100\n      jump\t// in\n    tag_136:\n        /* \"#utility.yul\":5127:5133   */\n      dup2\n        /* \"#utility.yul\":5123:5163   */\n      add\n        /* \"#utility.yul\":5265:5271   */\n      dup2\n        /* \"#utility.yul\":5253:5263   */\n      dup2\n        /* \"#utility.yul\":5250:5272   */\n      lt\n        /* \"#utility.yul\":5229:5247   */\n      0xffffffffffffffff\n        /* \"#utility.yul\":5217:5227   */\n      dup3\n        /* \"#utility.yul\":5214:5248   */\n      gt\n        /* \"#utility.yul\":5211:5273   */\n      or\n        /* \"#utility.yul\":5208:5296   */\n      iszero\n      tag_137\n      jumpi\n        /* \"#utility.yul\":5276:5294   */\n      tag_138\n      tag_119\n      jump\t// in\n    tag_138:\n        /* \"#utility.yul\":5208:5296   */\n    tag_137:\n        /* \"#utility.yul\":5316:5326   */\n      dup1\n        /* \"#utility.yul\":5312:5314   */\n      0x40\n        /* \"#utility.yul\":5305:5327   */\n      mstore\n        /* \"#utility.yul\":5095:5333   */\n      pop\n        /* \"#utility.yul\":5052:5333   */\n      pop\n      pop\n      jump\t// out\n        /* \"#utility.yul\":5339:5519   */\n    tag_134:\n        /* \"#utility.yul\":5387:5464   */\n      0x4e487b7100000000000000000000000000000000000000000000000000000000\n        /* \"#utility.yul\":5384:5385   */\n      0x00\n        /* \"#utility.yul\":5377:5465   */\n      mstore\n        /* \"#utility.yul\":5484:5488   */\n      0x22\n        /* \"#utility.yul\":5481:5482   */\n      0x04\n        /* \"#utility.yul\":5474:5489   */\n      mstore\n        /* \"#utility.yul\":5508:5512   */\n      0x24\n        /* \"#utility.yul\":5505:5506   */\n      0x00\n        /* \"#utility.yul\":5498:5513   */\n      revert\n        /* \"#utility.yul\":5525:5705   */\n    tag_23:\n        /* \"#utility.yul\":5573:5650   */\n      0x4e487b7100000000000000000000000000000000000000000000000000000000\n        /* \"#utility.yul\":5570:5571   */\n      0x00\n        /* \"#utility.yul\":5563:5651   */\n      mstore\n        /* \"#utility.yul\":5670:5674   */\n      0x32\n        /* \"#utility.yul\":5667:5668   */\n      0x04\n        /* \"#utility.yul\":5660:5675   */\n      mstore\n        /* \"#utility.yul\":5694:5698   */\n      0x24\n        /* \"#utility.yul\":5691:5692   */\n      0x00\n        /* \"#utility.yul\":5684:5699   */\n      revert\n        /* \"#utility.yul\":5711:5891   */\n    tag_119:\n        /* \"#utility.yul\":5759:5836   */\n      0x4e487b7100000000000000000000000000000000000000000000000000000000\n        /* \"#utility.yul\":5756:5757   */\n      0x00\n        /* \"#utility.yul\":5749:5837   */\n      mstore\n        /* \"#utility.yul\":5856:5860   */\n      0x41\n        /* \"#utility.yul\":5853:5854   */\n      0x04\n        /* \"#utility.yul\":5846:5861   */\n      mstore\n        /* \"#utility.yul\":5880:5884   */\n      0x24\n        /* \"#utility.yul\":5877:5878   */\n      0x00\n        /* \"#utility.yul\":5870:5885   */\n      revert\n        /* \"#utility.yul\":5897:6014   */\n    tag_70:\n        /* \"#utility.yul\":6006:6007   */\n      0x00\n        /* \"#utility.yul\":6003:6004   */\n      dup1\n        /* \"#utility.yul\":5996:6008   */\n      revert\n        /* \"#utility.yul\":6020:6137   */\n    tag_63:\n        /* \"#utility.yul\":6129:6130   */\n      0x00\n        /* \"#utility.yul\":6126:6127   */\n      dup1\n        /* \"#utility.yul\":6119:6131   */\n      revert\n        /* \"#utility.yul\":6143:6260   */\n    tag_82:\n        /* \"#utility.yul\":6252:6253   */\n      0x00\n        /* \"#utility.yul\":6249:6250   */\n      dup1\n        /* \"#utility.yul\":6242:6254   */\n      revert\n        /* \"#utility.yul\":6266:6383   */\n    tag_79:\n        /* \"#utility.yul\":6375:6376   */\n      0x00\n        /* \"#utility.yul\":6372:6373   */\n      dup1\n        /* \"#utility.yul\":6365:6377   */\n      revert\n        /* \"#utility.yul\":6389:6491   */\n    tag_100:\n        /* \"#utility.yul\":6430:6436   */\n      0x00\n        /* \"#utility.yul\":6481:6483   */\n      0x1f\n        /* \"#utility.yul\":6477:6484   */\n      not\n        /* \"#utility.yul\":6472:6474   */\n      0x1f\n        /* \"#utility.yul\":6465:6470   */\n      dup4\n        /* \"#utility.yul\":6461:6475   */\n      add\n        /* \"#utility.yul\":6457:6485   */\n      and\n        /* \"#utility.yul\":6447:6485   */\n      swap1\n      pop\n        /* \"#utility.yul\":6389:6491   */\n      swap2\n      swap1\n      pop\n      jump\t// out\n        /* \"#utility.yul\":6497:6619   */\n    tag_75:\n        /* \"#utility.yul\":6570:6594   */\n      tag_148\n        /* \"#utility.yul\":6588:6593   */\n      dup2\n        /* \"#utility.yul\":6570:6594   */\n      tag_104\n      jump\t// in\n    tag_148:\n        /* \"#utility.yul\":6563:6568   */\n      dup2\n        /* \"#utility.yul\":6560:6595   */\n      eq\n        /* \"#utility.yul\":6550:6613   */\n      tag_149\n      jumpi\n        /* \"#utility.yul\":6609:6610   */\n      0x00\n        /* \"#utility.yul\":6606:6607   */\n      dup1\n        /* \"#utility.yul\":6599:6611   */\n      revert\n        /* \"#utility.yul\":6550:6613   */\n    tag_149:\n        /* \"#utility.yul\":6497:6619   */\n      pop\n      jump\t// out\n\n    auxdata: 0xa2646970667358221220972c07ebc01e7d7e08afb0b2991f4bca9bc31a26af95c8ef32fc9b29d749cc7264736f6c63430008070033\n}\n",
				"bytecode": {
					"linkReferences": {},
					"object": "608060405234801561001057600080fd5b506107d2806100206000396000f3fe608060405234801561001057600080fd5b50600436106100415760003560e01c8063a60fc05214610046578063a704739614610079578063e1da563214610095575b600080fd5b610060600480360381019061005b91906104f1565b6100c8565b6040516100709493929190610566565b60405180910390f35b610093600480360381019061008e919061046e565b6101b7565b005b6100af60048036038101906100aa91906104f1565b610256565b6040516100bf9493929190610566565b60405180910390f35b6060600080600080600086815481106100e4576100e3610702565b5b906000526020600020906004020160405180608001604052908160008201805461010d90610670565b80601f016020809104026020016040519081016040528092919081815260200182805461013990610670565b80156101865780601f1061015b57610100808354040283529160200191610186565b820191906000526020600020905b81548152906001019060200180831161016957829003601f168201915b5050505050815260200160018201548152602001600282015481526020016003820154815250509050509193509193565b6101bf61031e565b8481600001819052508381602001818152505082816040018181525050818160600181815250506000819080600181540180825580915050600190039060005260206000209060040201600090919091909150600082015181600001908051906020019061022e929190610346565b5060208201518160010155604082015181600201556060820151816003015550505050505050565b6000818154811061026657600080fd5b906000526020600020906004020160009150905080600001805461028990610670565b80601f01602080910402602001604051908101604052809291908181526020018280546102b590610670565b80156103025780601f106102d757610100808354040283529160200191610302565b820191906000526020600020905b8154815290600101906020018083116102e557829003601f168201915b5050505050908060010154908060020154908060030154905084565b6040518060800160405280606081526020016000815260200160008152602001600081525090565b82805461035290610670565b90600052602060002090601f01602090048101928261037457600085556103bb565b82601f1061038d57805160ff19168380011785556103bb565b828001600101855582156103bb579182015b828111156103ba57825182559160200191906001019061039f565b5b5090506103c891906103cc565b5090565b5b808211156103e55760008160009055506001016103cd565b5090565b60006103fc6103f7846105d7565b6105b2565b90508281526020810184848401111561041857610417610765565b5b61042384828561062e565b509392505050565b600082601f8301126104405761043f610760565b5b81356104508482602086016103e9565b91505092915050565b60008135905061046881610785565b92915050565b600080600080608085870312156104885761048761076f565b5b600085013567ffffffffffffffff8111156104a6576104a561076a565b5b6104b28782880161042b565b94505060206104c387828801610459565b93505060406104d487828801610459565b92505060606104e587828801610459565b91505092959194509250565b6000602082840312156105075761050661076f565b5b600061051584828501610459565b91505092915050565b600061052982610608565b6105338185610613565b935061054381856020860161063d565b61054c81610774565b840191505092915050565b61056081610624565b82525050565b60006080820190508181036000830152610580818761051e565b905061058f6020830186610557565b61059c6040830185610557565b6105a96060830184610557565b95945050505050565b60006105bc6105cd565b90506105c882826106a2565b919050565b6000604051905090565b600067ffffffffffffffff8211156105f2576105f1610731565b5b6105fb82610774565b9050602081019050919050565b600081519050919050565b600082825260208201905092915050565b6000819050919050565b82818337600083830152505050565b60005b8381101561065b578082015181840152602081019050610640565b8381111561066a576000848401525b50505050565b6000600282049050600182168061068857607f821691505b6020821081141561069c5761069b6106d3565b5b50919050565b6106ab82610774565b810181811067ffffffffffffffff821117156106ca576106c9610731565b5b80604052505050565b7f4e487b7100000000000000000000000000000000000000000000000000000000600052602260045260246000fd5b7f4e487b7100000000000000000000000000000000000000000000000000000000600052603260045260246000fd5b7f4e487b7100000000000000000000000000000000000000000000000000000000600052604160045260246000fd5b600080fd5b600080fd5b600080fd5b600080fd5b6000601f19601f8301169050919050565b61078e81610624565b811461079957600080fd5b5056fea2646970667358221220972c07ebc01e7d7e08afb0b2991f4bca9bc31a26af95c8ef32fc9b29d749cc7264736f6c63430008070033",
					"opcodes": "PUSH1 0x80 PUSH1 0x40 MSTORE CALLVALUE DUP1 ISZERO PUSH2 0x10 JUMPI PUSH1 0x0 DUP1 REVERT JUMPDEST POP PUSH2 0x7D2 DUP1 PUSH2 0x20 PUSH1 0x0 CODECOPY PUSH1 0x0 RETURN INVALID PUSH1 0x80 PUSH1 0x40 MSTORE CALLVALUE DUP1 ISZERO PUSH2 0x10 JUMPI PUSH1 0x0 DUP1 REVERT JUMPDEST POP PUSH1 0x4 CALLDATASIZE LT PUSH2 0x41 JUMPI PUSH1 0x0 CALLDATALOAD PUSH1 0xE0 SHR DUP1 PUSH4 0xA60FC052 EQ PUSH2 0x46 JUMPI DUP1 PUSH4 0xA7047396 EQ PUSH2 0x79 JUMPI DUP1 PUSH4 0xE1DA5632 EQ PUSH2 0x95 JUMPI JUMPDEST PUSH1 0x0 DUP1 REVERT JUMPDEST PUSH2 0x60 PUSH1 0x4 DUP1 CALLDATASIZE SUB DUP2 ADD SWAP1 PUSH2 0x5B SWAP2 SWAP1 PUSH2 0x4F1 JUMP JUMPDEST PUSH2 0xC8 JUMP JUMPDEST PUSH1 0x40 MLOAD PUSH2 0x70 SWAP5 SWAP4 SWAP3 SWAP2 SWAP1 PUSH2 0x566 JUMP JUMPDEST PUSH1 0x40 MLOAD DUP1 SWAP2 SUB SWAP1 RETURN JUMPDEST PUSH2 0x93 PUSH1 0x4 DUP1 CALLDATASIZE SUB DUP2 ADD SWAP1 PUSH2 0x8E SWAP2 SWAP1 PUSH2 0x46E JUMP JUMPDEST PUSH2 0x1B7 JUMP JUMPDEST STOP JUMPDEST PUSH2 0xAF PUSH1 0x4 DUP1 CALLDATASIZE SUB DUP2 ADD SWAP1 PUSH2 0xAA SWAP2 SWAP1 PUSH2 0x4F1 JUMP JUMPDEST PUSH2 0x256 JUMP JUMPDEST PUSH1 0x40 MLOAD PUSH2 0xBF SWAP5 SWAP4 SWAP3 SWAP2 SWAP1 PUSH2 0x566 JUMP JUMPDEST PUSH1 0x40 MLOAD DUP1 SWAP2 SUB SWAP1 RETURN JUMPDEST PUSH1 0x60 PUSH1 0x0 DUP1 PUSH1 0x0 DUP1 PUSH1 0x0 DUP7 DUP2 SLOAD DUP2 LT PUSH2 0xE4 JUMPI PUSH2 0xE3 PUSH2 0x702 JUMP JUMPDEST JUMPDEST SWAP1 PUSH1 0x0 MSTORE PUSH1 0x20 PUSH1 0x0 KECCAK256 SWAP1 PUSH1 0x4 MUL ADD PUSH1 0x40 MLOAD DUP1 PUSH1 0x80 ADD PUSH1 0x40 MSTORE SWAP1 DUP2 PUSH1 0x0 DUP3 ADD DUP1 SLOAD PUSH2 0x10D SWAP1 PUSH2 0x670 JUMP JUMPDEST DUP1 PUSH1 0x1F ADD PUSH1 0x20 DUP1 SWAP2 DIV MUL PUSH1 0x20 ADD PUSH1 0x40 MLOAD SWAP1 DUP2 ADD PUSH1 0x40 MSTORE DUP1 SWAP3 SWAP2 SWAP1 DUP2 DUP2 MSTORE PUSH1 0x20 ADD DUP3 DUP1 SLOAD PUSH2 0x139 SWAP1 PUSH2 0x670 JUMP JUMPDEST DUP1 ISZERO PUSH2 0x186 JUMPI DUP1 PUSH1 0x1F LT PUSH2 0x15B JUMPI PUSH2 0x100 DUP1 DUP4 SLOAD DIV MUL DUP4 MSTORE SWAP2 PUSH1 0x20 ADD SWAP2 PUSH2 0x186 JUMP JUMPDEST DUP3 ADD SWAP2 SWAP1 PUSH1 0x0 MSTORE PUSH1 0x20 PUSH1 0x0 KECCAK256 SWAP1 JUMPDEST DUP2 SLOAD DUP2 MSTORE SWAP1 PUSH1 0x1 ADD SWAP1 PUSH1 0x20 ADD DUP1 DUP4 GT PUSH2 0x169 JUMPI DUP3 SWAP1 SUB PUSH1 0x1F AND DUP3 ADD SWAP2 JUMPDEST POP POP POP POP POP DUP2 MSTORE PUSH1 0x20 ADD PUSH1 0x1 DUP3 ADD SLOAD DUP2 MSTORE PUSH1 0x20 ADD PUSH1 0x2 DUP3 ADD SLOAD DUP2 MSTORE PUSH1 0x20 ADD PUSH1 0x3 DUP3 ADD SLOAD DUP2 MSTORE POP POP SWAP1 POP POP SWAP2 SWAP4 POP SWAP2 SWAP4 JUMP JUMPDEST PUSH2 0x1BF PUSH2 0x31E JUMP JUMPDEST DUP5 DUP2 PUSH1 0x0 ADD DUP2 SWAP1 MSTORE POP DUP4 DUP2 PUSH1 0x20 ADD DUP2 DUP2 MSTORE POP POP DUP3 DUP2 PUSH1 0x40 ADD DUP2 DUP2 MSTORE POP POP DUP2 DUP2 PUSH1 0x60 ADD DUP2 DUP2 MSTORE POP POP PUSH1 0x0 DUP2 SWAP1 DUP1 PUSH1 0x1 DUP2 SLOAD ADD DUP1 DUP3 SSTORE DUP1 SWAP2 POP POP PUSH1 0x1 SWAP1 SUB SWAP1 PUSH1 0x0 MSTORE PUSH1 0x20 PUSH1 0x0 KECCAK256 SWAP1 PUSH1 0x4 MUL ADD PUSH1 0x0 SWAP1 SWAP2 SWAP1 SWAP2 SWAP1 SWAP2 POP PUSH1 0x0 DUP3 ADD MLOAD DUP2 PUSH1 0x0 ADD SWAP1 DUP1 MLOAD SWAP1 PUSH1 0x20 ADD SWAP1 PUSH2 0x22E SWAP3 SWAP2 SWAP1 PUSH2 0x346 JUMP JUMPDEST POP PUSH1 0x20 DUP3 ADD MLOAD DUP2 PUSH1 0x1 ADD SSTORE PUSH1 0x40 DUP3 ADD MLOAD DUP2 PUSH1 0x2 ADD SSTORE PUSH1 0x60 DUP3 ADD MLOAD DUP2 PUSH1 0x3 ADD SSTORE POP POP POP POP POP POP POP JUMP JUMPDEST PUSH1 0x0 DUP2 DUP2 SLOAD DUP2 LT PUSH2 0x266 JUMPI PUSH1 0x0 DUP1 REVERT JUMPDEST SWAP1 PUSH1 0x0 MSTORE PUSH1 0x20 PUSH1 0x0 KECCAK256 SWAP1 PUSH1 0x4 MUL ADD PUSH1 0x0 SWAP2 POP SWAP1 POP DUP1 PUSH1 0x0 ADD DUP1 SLOAD PUSH2 0x289 SWAP1 PUSH2 0x670 JUMP JUMPDEST DUP1 PUSH1 0x1F ADD PUSH1 0x20 DUP1 SWAP2 DIV MUL PUSH1 0x20 ADD PUSH1 0x40 MLOAD SWAP1 DUP2 ADD PUSH1 0x40 MSTORE DUP1 SWAP3 SWAP2 SWAP1 DUP2 DUP2 MSTORE PUSH1 0x20 ADD DUP3 DUP1 SLOAD PUSH2 0x2B5 SWAP1 PUSH2 0x670 JUMP JUMPDEST DUP1 ISZERO PUSH2 0x302 JUMPI DUP1 PUSH1 0x1F LT PUSH2 0x2D7 JUMPI PUSH2 0x100 DUP1 DUP4 SLOAD DIV MUL DUP4 MSTORE SWAP2 PUSH1 0x20 ADD SWAP2 PUSH2 0x302 JUMP JUMPDEST DUP3 ADD SWAP2 SWAP1 PUSH1 0x0 MSTORE PUSH1 0x20 PUSH1 0x0 KECCAK256 SWAP1 JUMPDEST DUP2 SLOAD DUP2 MSTORE SWAP1 PUSH1 0x1 ADD SWAP1 PUSH1 0x20 ADD DUP1 DUP4 GT PUSH2 0x2E5 JUMPI DUP3 SWAP1 SUB PUSH1 0x1F AND DUP3 ADD SWAP2 JUMPDEST POP POP POP POP POP SWAP1 DUP1 PUSH1 0x1 ADD SLOAD SWAP1 DUP1 PUSH1 0x2 ADD SLOAD SWAP1 DUP1 PUSH1 0x3 ADD SLOAD SWAP1 POP DUP5 JUMP JUMPDEST PUSH1 0x40 MLOAD DUP1 PUSH1 0x80 ADD PUSH1 0x40 MSTORE DUP1 PUSH1 0x60 DUP2 MSTORE PUSH1 0x20 ADD PUSH1 0x0 DUP2 MSTORE PUSH1 0x20 ADD PUSH1 0x0 DUP2 MSTORE PUSH1 0x20 ADD PUSH1 0x0 DUP2 MSTORE POP SWAP1 JUMP JUMPDEST DUP3 DUP1 SLOAD PUSH2 0x352 SWAP1 PUSH2 0x670 JUMP JUMPDEST SWAP1 PUSH1 0x0 MSTORE PUSH1 0x20 PUSH1 0x0 KECCAK256 SWAP1 PUSH1 0x1F ADD PUSH1 0x20 SWAP1 DIV DUP2 ADD SWAP3 DUP3 PUSH2 0x374 JUMPI PUSH1 0x0 DUP6 SSTORE PUSH2 0x3BB JUMP JUMPDEST DUP3 PUSH1 0x1F LT PUSH2 0x38D JUMPI DUP1 MLOAD PUSH1 0xFF NOT AND DUP4 DUP1 ADD OR DUP6 SSTORE PUSH2 0x3BB JUMP JUMPDEST DUP3 DUP1 ADD PUSH1 0x1 ADD DUP6 SSTORE DUP3 ISZERO PUSH2 0x3BB JUMPI SWAP2 DUP3 ADD JUMPDEST DUP3 DUP2 GT ISZERO PUSH2 0x3BA JUMPI DUP3 MLOAD DUP3 SSTORE SWAP2 PUSH1 0x20 ADD SWAP2 SWAP1 PUSH1 0x1 ADD SWAP1 PUSH2 0x39F JUMP JUMPDEST JUMPDEST POP SWAP1 POP PUSH2 0x3C8 SWAP2 SWAP1 PUSH2 0x3CC JUMP JUMPDEST POP SWAP1 JUMP JUMPDEST JUMPDEST DUP1 DUP3 GT ISZERO PUSH2 0x3E5 JUMPI PUSH1 0x0 DUP2 PUSH1 0x0 SWAP1 SSTORE POP PUSH1 0x1 ADD PUSH2 0x3CD JUMP JUMPDEST POP SWAP1 JUMP JUMPDEST PUSH1 0x0 PUSH2 0x3FC PUSH2 0x3F7 DUP5 PUSH2 0x5D7 JUMP JUMPDEST PUSH2 0x5B2 JUMP JUMPDEST SWAP1 POP DUP3 DUP2 MSTORE PUSH1 0x20 DUP2 ADD DUP5 DUP5 DUP5 ADD GT ISZERO PUSH2 0x418 JUMPI PUSH2 0x417 PUSH2 0x765 JUMP JUMPDEST JUMPDEST PUSH2 0x423 DUP5 DUP3 DUP6 PUSH2 0x62E JUMP JUMPDEST POP SWAP4 SWAP3 POP POP POP JUMP JUMPDEST PUSH1 0x0 DUP3 PUSH1 0x1F DUP4 ADD SLT PUSH2 0x440 JUMPI PUSH2 0x43F PUSH2 0x760 JUMP JUMPDEST JUMPDEST DUP2 CALLDATALOAD PUSH2 0x450 DUP5 DUP3 PUSH1 0x20 DUP7 ADD PUSH2 0x3E9 JUMP JUMPDEST SWAP2 POP POP SWAP3 SWAP2 POP POP JUMP JUMPDEST PUSH1 0x0 DUP2 CALLDATALOAD SWAP1 POP PUSH2 0x468 DUP2 PUSH2 0x785 JUMP JUMPDEST SWAP3 SWAP2 POP POP JUMP JUMPDEST PUSH1 0x0 DUP1 PUSH1 0x0 DUP1 PUSH1 0x80 DUP6 DUP8 SUB SLT ISZERO PUSH2 0x488 JUMPI PUSH2 0x487 PUSH2 0x76F JUMP JUMPDEST JUMPDEST PUSH1 0x0 DUP6 ADD CALLDATALOAD PUSH8 0xFFFFFFFFFFFFFFFF DUP2 GT ISZERO PUSH2 0x4A6 JUMPI PUSH2 0x4A5 PUSH2 0x76A JUMP JUMPDEST JUMPDEST PUSH2 0x4B2 DUP8 DUP3 DUP9 ADD PUSH2 0x42B JUMP JUMPDEST SWAP5 POP POP PUSH1 0x20 PUSH2 0x4C3 DUP8 DUP3 DUP9 ADD PUSH2 0x459 JUMP JUMPDEST SWAP4 POP POP PUSH1 0x40 PUSH2 0x4D4 DUP8 DUP3 DUP9 ADD PUSH2 0x459 JUMP JUMPDEST SWAP3 POP POP PUSH1 0x60 PUSH2 0x4E5 DUP8 DUP3 DUP9 ADD PUSH2 0x459 JUMP JUMPDEST SWAP2 POP POP SWAP3 SWAP6 SWAP2 SWAP5 POP SWAP3 POP JUMP JUMPDEST PUSH1 0x0 PUSH1 0x20 DUP3 DUP5 SUB SLT ISZERO PUSH2 0x507 JUMPI PUSH2 0x506 PUSH2 0x76F JUMP JUMPDEST JUMPDEST PUSH1 0x0 PUSH2 0x515 DUP5 DUP3 DUP6 ADD PUSH2 0x459 JUMP JUMPDEST SWAP2 POP POP SWAP3 SWAP2 POP POP JUMP JUMPDEST PUSH1 0x0 PUSH2 0x529 DUP3 PUSH2 0x608 JUMP JUMPDEST PUSH2 0x533 DUP2 DUP6 PUSH2 0x613 JUMP JUMPDEST SWAP4 POP PUSH2 0x543 DUP2 DUP6 PUSH1 0x20 DUP7 ADD PUSH2 0x63D JUMP JUMPDEST PUSH2 0x54C DUP2 PUSH2 0x774 JUMP JUMPDEST DUP5 ADD SWAP2 POP POP SWAP3 SWAP2 POP POP JUMP JUMPDEST PUSH2 0x560 DUP2 PUSH2 0x624 JUMP JUMPDEST DUP3 MSTORE POP POP JUMP JUMPDEST PUSH1 0x0 PUSH1 0x80 DUP3 ADD SWAP1 POP DUP2 DUP2 SUB PUSH1 0x0 DUP4 ADD MSTORE PUSH2 0x580 DUP2 DUP8 PUSH2 0x51E JUMP JUMPDEST SWAP1 POP PUSH2 0x58F PUSH1 0x20 DUP4 ADD DUP7 PUSH2 0x557 JUMP JUMPDEST PUSH2 0x59C PUSH1 0x40 DUP4 ADD DUP6 PUSH2 0x557 JUMP JUMPDEST PUSH2 0x5A9 PUSH1 0x60 DUP4 ADD DUP5 PUSH2 0x557 JUMP JUMPDEST SWAP6 SWAP5 POP POP POP POP POP JUMP JUMPDEST PUSH1 0x0 PUSH2 0x5BC PUSH2 0x5CD JUMP JUMPDEST SWAP1 POP PUSH2 0x5C8 DUP3 DUP3 PUSH2 0x6A2 JUMP JUMPDEST SWAP2 SWAP1 POP JUMP JUMPDEST PUSH1 0x0 PUSH1 0x40 MLOAD SWAP1 POP SWAP1 JUMP JUMPDEST PUSH1 0x0 PUSH8 0xFFFFFFFFFFFFFFFF DUP3 GT ISZERO PUSH2 0x5F2 JUMPI PUSH2 0x5F1 PUSH2 0x731 JUMP JUMPDEST JUMPDEST PUSH2 0x5FB DUP3 PUSH2 0x774 JUMP JUMPDEST SWAP1 POP PUSH1 0x20 DUP2 ADD SWAP1 POP SWAP2 SWAP1 POP JUMP JUMPDEST PUSH1 0x0 DUP2 MLOAD SWAP1 POP SWAP2 SWAP1 POP JUMP JUMPDEST PUSH1 0x0 DUP3 DUP3 MSTORE PUSH1 0x20 DUP3 ADD SWAP1 POP SWAP3 SWAP2 POP POP JUMP JUMPDEST PUSH1 0x0 DUP2 SWAP1 POP SWAP2 SWAP1 POP JUMP JUMPDEST DUP3 DUP2 DUP4 CALLDATACOPY PUSH1 0x0 DUP4 DUP4 ADD MSTORE POP POP POP JUMP JUMPDEST PUSH1 0x0 JUMPDEST DUP4 DUP2 LT ISZERO PUSH2 0x65B JUMPI DUP1 DUP3 ADD MLOAD DUP2 DUP5 ADD MSTORE PUSH1 0x20 DUP2 ADD SWAP1 POP PUSH2 0x640 JUMP JUMPDEST DUP4 DUP2 GT ISZERO PUSH2 0x66A JUMPI PUSH1 0x0 DUP5 DUP5 ADD MSTORE JUMPDEST POP POP POP POP JUMP JUMPDEST PUSH1 0x0 PUSH1 0x2 DUP3 DIV SWAP1 POP PUSH1 0x1 DUP3 AND DUP1 PUSH2 0x688 JUMPI PUSH1 0x7F DUP3 AND SWAP2 POP JUMPDEST PUSH1 0x20 DUP3 LT DUP2 EQ ISZERO PUSH2 0x69C JUMPI PUSH2 0x69B PUSH2 0x6D3 JUMP JUMPDEST JUMPDEST POP SWAP2 SWAP1 POP JUMP JUMPDEST PUSH2 0x6AB DUP3 PUSH2 0x774 JUMP JUMPDEST DUP2 ADD DUP2 DUP2 LT PUSH8 0xFFFFFFFFFFFFFFFF DUP3 GT OR ISZERO PUSH2 0x6CA JUMPI PUSH2 0x6C9 PUSH2 0x731 JUMP JUMPDEST JUMPDEST DUP1 PUSH1 0x40 MSTORE POP POP POP JUMP JUMPDEST PUSH32 0x4E487B7100000000000000000000000000000000000000000000000000000000 PUSH1 0x0 MSTORE PUSH1 0x22 PUSH1 0x4 MSTORE PUSH1 0x24 PUSH1 0x0 REVERT JUMPDEST PUSH32 0x4E487B7100000000000000000000000000000000000000000000000000000000 PUSH1 0x0 MSTORE PUSH1 0x32 PUSH1 0x4 MSTORE PUSH1 0x24 PUSH1 0x0 REVERT JUMPDEST PUSH32 0x4E487B7100000000000000000000000000000000000000000000000000000000 PUSH1 0x0 MSTORE PUSH1 0x41 PUSH1 0x4 MSTORE PUSH1 0x24 PUSH1 0x0 REVERT JUMPDEST PUSH1 0x0 DUP1 REVERT JUMPDEST PUSH1 0x0 DUP1 REVERT JUMPDEST PUSH1 0x0 DUP1 REVERT JUMPDEST PUSH1 0x0 DUP1 REVERT JUMPDEST PUSH1 0x0 PUSH1 0x1F NOT PUSH1 0x1F DUP4 ADD AND SWAP1 POP SWAP2 SWAP1 POP JUMP JUMPDEST PUSH2 0x78E DUP2 PUSH2 0x624 JUMP JUMPDEST DUP2 EQ PUSH2 0x799 JUMPI PUSH1 0x0 DUP1 REVERT JUMPDEST POP JUMP INVALID LOG2 PUSH5 0x6970667358 0x22 SLT KECCAK256 SWAP8 0x2C SMOD 0xEB 0xC0 0x1E PUSH30 0x7E08AFB0B2991F4BCA9BC31A26AF95C8EF32FC9B29D749CC7264736F6C63 NUMBER STOP ADDMOD SMOD STOP CALLER "
				},
				"gasEstimates": {
					"creation": {
						"codeDepositCost": "400400",
						"executionCost": "436",
						"totalCost": "400836"
					},
					"external": {
						"criaPessoa(string,uint256,uint256,uint256)": "infinite",
						"pegaPessoa(uint256)": "infinite",
						"pessoas(uint256)": "infinite"
					}
				},
				"methodIdentifiers": {
					"criaPessoa(string,uint256,uint256,uint256)": "a7047396",
					"pegaPessoa(uint256)": "a60fc052",
					"pessoas(uint256)": "e1da5632"
				}
			},
			"storageLayout": {
				"storage": [
					{
						"astId": 14,
						"contract": "contracts/Blockoffice.sol:Blockoffice",
						"label": "pessoas",
						"offset": 0,
						"slot": "0",
						"type": "t_array(t_struct(Pessoa)10_storage)dyn_storage"
					}
				],
				"types": {
					"t_array(t_struct(Pessoa)10_storage)dyn_storage": {
						"base": "t_struct(Pessoa)10_storage",
						"encoding": "dynamic_array",
						"label": "struct Blockoffice.Pessoa[]",
						"numberOfBytes": "32"
					},
					"t_string_storage": {
						"encoding": "bytes",
						"label": "string",
						"numberOfBytes": "32"
					},
					"t_struct(Pessoa)10_storage": {
						"encoding": "inplace",
						"label": "struct Blockoffice.Pessoa",
						"members": [
							{
								"astId": 3,
								"contract": "contracts/Blockoffice.sol:Blockoffice",
								"label": "nome",
								"offset": 0,
								"slot": "0",
								"type": "t_string_storage"
							},
							{
								"astId": 5,
								"contract": "contracts/Blockoffice.sol:Blockoffice",
								"label": "rg",
								"offset": 0,
								"slot": "1",
								"type": "t_uint256"
							},
							{
								"astId": 7,
								"contract": "contracts/Blockoffice.sol:Blockoffice",
								"label": "cpf",
								"offset": 0,
								"slot": "2",
								"type": "t_uint256"
							},
							{
								"astId": 9,
								"contract": "contracts/Blockoffice.sol:Blockoffice",
								"label": "data",
								"offset": 0,
								"slot": "3",
								"type": "t_uint256"
							}
						],
						"numberOfBytes": "128"
					},
					"t_uint256": {
						"encoding": "inplace",
						"label": "uint256",
						"numberOfBytes": "32"
					}
				}
			},
			"userdoc": {
				"kind": "user",
				"methods": {},
				"version": 1
			}
		}
	}
}