{
	"contracts/Blockoffice.sol": {
		"Blockoffice": {
			"abi": [
				{
					"inputs": [],
					"name": "owner",
					"outputs": [
						{
							"internalType": "address",
							"name": "",
							"type": "address"
						}
					],
					"stateMutability": "view",
					"type": "function"
				},
				{
					"inputs": [
						{
							"internalType": "string",
							"name": "_nome",
							"type": "string"
						},
						{
							"internalType": "uint256",
							"name": "valor",
							"type": "uint256"
						}
					],
					"name": "registro",
					"outputs": [],
					"stateMutability": "nonpayable",
					"type": "function"
				},
				{
					"inputs": [
						{
							"internalType": "string",
							"name": "",
							"type": "string"
						}
					],
					"name": "rg",
					"outputs": [
						{
							"internalType": "uint256",
							"name": "",
							"type": "uint256"
						}
					],
					"stateMutability": "view",
					"type": "function"
				}
			],
			"devdoc": {
				"kind": "dev",
				"methods": {},
				"version": 1
			},
			"evm": {
				"assembly": "    /* \"contracts/Blockoffice.sol\":70:380  contract Blockoffice{\r... */\n  mstore(0x40, 0x80)\n    /* \"contracts/Blockoffice.sol\":164:174  msg.sender */\n  caller\n    /* \"contracts/Blockoffice.sol\":141:174  address public owner = msg.sender */\n  0x01\n  exp(0x0100, 0x00)\n  dup2\n  sload\n  dup2\n  0xffffffffffffffffffffffffffffffffffffffff\n  mul\n  not\n  and\n  swap1\n  dup4\n  0xffffffffffffffffffffffffffffffffffffffff\n  and\n  mul\n  or\n  swap1\n  sstore\n  pop\n    /* \"contracts/Blockoffice.sol\":70:380  contract Blockoffice{\r... */\n  callvalue\n  dup1\n  iszero\n  tag_1\n  jumpi\n  0x00\n  dup1\n  revert\ntag_1:\n  pop\n  dataSize(sub_0)\n  dup1\n  dataOffset(sub_0)\n  0x00\n  codecopy\n  0x00\n  return\nstop\n\nsub_0: assembly {\n        /* \"contracts/Blockoffice.sol\":70:380  contract Blockoffice{\r... */\n      mstore(0x40, 0x80)\n      callvalue\n      dup1\n      iszero\n      tag_1\n      jumpi\n      0x00\n      dup1\n      revert\n    tag_1:\n      pop\n      jumpi(tag_2, lt(calldatasize, 0x04))\n      shr(0xe0, calldataload(0x00))\n      dup1\n      0x638caf8f\n      eq\n      tag_3\n      jumpi\n      dup1\n      0x8da5cb5b\n      eq\n      tag_4\n      jumpi\n      dup1\n      0xd74ad8ab\n      eq\n      tag_5\n      jumpi\n    tag_2:\n      0x00\n      dup1\n      revert\n        /* \"contracts/Blockoffice.sol\":99:134  mapping (string => uint ) public rg */\n    tag_3:\n      tag_6\n      0x04\n      dup1\n      calldatasize\n      sub\n      dup2\n      add\n      swap1\n      tag_7\n      swap2\n      swap1\n      tag_8\n      jump\t// in\n    tag_7:\n      tag_9\n      jump\t// in\n    tag_6:\n      mload(0x40)\n      tag_10\n      swap2\n      swap1\n      tag_11\n      jump\t// in\n    tag_10:\n      mload(0x40)\n      dup1\n      swap2\n      sub\n      swap1\n      return\n        /* \"contracts/Blockoffice.sol\":141:174  address public owner = msg.sender */\n    tag_4:\n      tag_12\n      tag_13\n      jump\t// in\n    tag_12:\n      mload(0x40)\n      tag_14\n      swap2\n      swap1\n      tag_15\n      jump\t// in\n    tag_14:\n      mload(0x40)\n      dup1\n      swap2\n      sub\n      swap1\n      return\n        /* \"contracts/Blockoffice.sol\":235:368  function registro(string memory _nome, uint valor) public{\r... */\n    tag_5:\n      tag_16\n      0x04\n      dup1\n      calldatasize\n      sub\n      dup2\n      add\n      swap1\n      tag_17\n      swap2\n      swap1\n      tag_18\n      jump\t// in\n    tag_17:\n      tag_19\n      jump\t// in\n    tag_16:\n      stop\n        /* \"contracts/Blockoffice.sol\":99:134  mapping (string => uint ) public rg */\n    tag_9:\n      0x00\n      dup2\n      dup1\n      mload\n      0x20\n      dup2\n      add\n      dup3\n      add\n      dup1\n      mload\n      dup5\n      dup3\n      mstore\n      0x20\n      dup4\n      add\n      0x20\n      dup6\n      add\n      keccak256\n      dup2\n      dup4\n      mstore\n      dup1\n      swap6\n      pop\n      pop\n      pop\n      pop\n      pop\n      pop\n      0x00\n      swap2\n      pop\n      swap1\n      pop\n      sload\n      dup2\n      jump\t// out\n        /* \"contracts/Blockoffice.sol\":141:174  address public owner = msg.sender */\n    tag_13:\n      0x01\n      0x00\n      swap1\n      sload\n      swap1\n      0x0100\n      exp\n      swap1\n      div\n      0xffffffffffffffffffffffffffffffffffffffff\n      and\n      dup2\n      jump\t// out\n        /* \"contracts/Blockoffice.sol\":235:368  function registro(string memory _nome, uint valor) public{\r... */\n    tag_19:\n        /* \"contracts/Blockoffice.sol\":325:330  owner */\n      0x01\n      0x00\n      swap1\n      sload\n      swap1\n      0x0100\n      exp\n      swap1\n      div\n      0xffffffffffffffffffffffffffffffffffffffff\n      and\n        /* \"contracts/Blockoffice.sol\":311:330  msg.sender == owner */\n      0xffffffffffffffffffffffffffffffffffffffff\n      and\n        /* \"contracts/Blockoffice.sol\":311:321  msg.sender */\n      caller\n        /* \"contracts/Blockoffice.sol\":311:330  msg.sender == owner */\n      0xffffffffffffffffffffffffffffffffffffffff\n      and\n      eq\n        /* \"contracts/Blockoffice.sol\":303:331  require(msg.sender == owner) */\n      tag_21\n      jumpi\n      0x00\n      dup1\n      revert\n    tag_21:\n        /* \"contracts/Blockoffice.sol\":355:360  valor */\n      dup1\n        /* \"contracts/Blockoffice.sol\":342:344  rg */\n      0x00\n        /* \"contracts/Blockoffice.sol\":346:351  _nome */\n      dup4\n        /* \"contracts/Blockoffice.sol\":342:352  rg [_nome] */\n      mload(0x40)\n      tag_22\n      swap2\n      swap1\n      tag_23\n      jump\t// in\n    tag_22:\n      swap1\n      dup2\n      mstore\n      0x20\n      add\n      mload(0x40)\n      dup1\n      swap2\n      sub\n      swap1\n      keccak256\n        /* \"contracts/Blockoffice.sol\":342:360  rg [_nome] = valor */\n      dup2\n      swap1\n      sstore\n      pop\n        /* \"contracts/Blockoffice.sol\":235:368  function registro(string memory _nome, uint valor) public{\r... */\n      pop\n      pop\n      jump\t// out\n        /* \"#utility.yul\":7:419   */\n    tag_25:\n        /* \"#utility.yul\":85:90   */\n      0x00\n        /* \"#utility.yul\":110:176   */\n      tag_27\n        /* \"#utility.yul\":126:175   */\n      tag_28\n        /* \"#utility.yul\":168:174   */\n      dup5\n        /* \"#utility.yul\":126:175   */\n      tag_29\n      jump\t// in\n    tag_28:\n        /* \"#utility.yul\":110:176   */\n      tag_30\n      jump\t// in\n    tag_27:\n        /* \"#utility.yul\":101:176   */\n      swap1\n      pop\n        /* \"#utility.yul\":199:205   */\n      dup3\n        /* \"#utility.yul\":192:197   */\n      dup2\n        /* \"#utility.yul\":185:206   */\n      mstore\n        /* \"#utility.yul\":237:241   */\n      0x20\n        /* \"#utility.yul\":230:235   */\n      dup2\n        /* \"#utility.yul\":226:242   */\n      add\n        /* \"#utility.yul\":275:278   */\n      dup5\n        /* \"#utility.yul\":266:272   */\n      dup5\n        /* \"#utility.yul\":261:264   */\n      dup5\n        /* \"#utility.yul\":257:273   */\n      add\n        /* \"#utility.yul\":254:279   */\n      gt\n        /* \"#utility.yul\":251:363   */\n      iszero\n      tag_31\n      jumpi\n        /* \"#utility.yul\":282:361   */\n      tag_32\n      tag_33\n      jump\t// in\n    tag_32:\n        /* \"#utility.yul\":251:363   */\n    tag_31:\n        /* \"#utility.yul\":372:413   */\n      tag_34\n        /* \"#utility.yul\":406:412   */\n      dup5\n        /* \"#utility.yul\":401:404   */\n      dup3\n        /* \"#utility.yul\":396:399   */\n      dup6\n        /* \"#utility.yul\":372:413   */\n      tag_35\n      jump\t// in\n    tag_34:\n        /* \"#utility.yul\":91:419   */\n      pop\n        /* \"#utility.yul\":7:419   */\n      swap4\n      swap3\n      pop\n      pop\n      pop\n      jump\t// out\n        /* \"#utility.yul\":439:779   */\n    tag_36:\n        /* \"#utility.yul\":495:500   */\n      0x00\n        /* \"#utility.yul\":544:547   */\n      dup3\n        /* \"#utility.yul\":537:541   */\n      0x1f\n        /* \"#utility.yul\":529:535   */\n      dup4\n        /* \"#utility.yul\":525:542   */\n      add\n        /* \"#utility.yul\":521:548   */\n      slt\n        /* \"#utility.yul\":511:633   */\n      tag_38\n      jumpi\n        /* \"#utility.yul\":552:631   */\n      tag_39\n      tag_40\n      jump\t// in\n    tag_39:\n        /* \"#utility.yul\":511:633   */\n    tag_38:\n        /* \"#utility.yul\":669:675   */\n      dup2\n        /* \"#utility.yul\":656:676   */\n      calldataload\n        /* \"#utility.yul\":694:773   */\n      tag_41\n        /* \"#utility.yul\":769:772   */\n      dup5\n        /* \"#utility.yul\":761:767   */\n      dup3\n        /* \"#utility.yul\":754:758   */\n      0x20\n        /* \"#utility.yul\":746:752   */\n      dup7\n        /* \"#utility.yul\":742:759   */\n      add\n        /* \"#utility.yul\":694:773   */\n      tag_25\n      jump\t// in\n    tag_41:\n        /* \"#utility.yul\":685:773   */\n      swap2\n      pop\n        /* \"#utility.yul\":501:779   */\n      pop\n        /* \"#utility.yul\":439:779   */\n      swap3\n      swap2\n      pop\n      pop\n      jump\t// out\n        /* \"#utility.yul\":785:924   */\n    tag_42:\n        /* \"#utility.yul\":831:836   */\n      0x00\n        /* \"#utility.yul\":869:875   */\n      dup2\n        /* \"#utility.yul\":856:876   */\n      calldataload\n        /* \"#utility.yul\":847:876   */\n      swap1\n      pop\n        /* \"#utility.yul\":885:918   */\n      tag_44\n        /* \"#utility.yul\":912:917   */\n      dup2\n        /* \"#utility.yul\":885:918   */\n      tag_45\n      jump\t// in\n    tag_44:\n        /* \"#utility.yul\":785:924   */\n      swap3\n      swap2\n      pop\n      pop\n      jump\t// out\n        /* \"#utility.yul\":930:1439   */\n    tag_8:\n        /* \"#utility.yul\":999:1005   */\n      0x00\n        /* \"#utility.yul\":1048:1050   */\n      0x20\n        /* \"#utility.yul\":1036:1045   */\n      dup3\n        /* \"#utility.yul\":1027:1034   */\n      dup5\n        /* \"#utility.yul\":1023:1046   */\n      sub\n        /* \"#utility.yul\":1019:1051   */\n      slt\n        /* \"#utility.yul\":1016:1135   */\n      iszero\n      tag_47\n      jumpi\n        /* \"#utility.yul\":1054:1133   */\n      tag_48\n      tag_49\n      jump\t// in\n    tag_48:\n        /* \"#utility.yul\":1016:1135   */\n    tag_47:\n        /* \"#utility.yul\":1202:1203   */\n      0x00\n        /* \"#utility.yul\":1191:1200   */\n      dup3\n        /* \"#utility.yul\":1187:1204   */\n      add\n        /* \"#utility.yul\":1174:1205   */\n      calldataload\n        /* \"#utility.yul\":1232:1250   */\n      0xffffffffffffffff\n        /* \"#utility.yul\":1224:1230   */\n      dup2\n        /* \"#utility.yul\":1221:1251   */\n      gt\n        /* \"#utility.yul\":1218:1335   */\n      iszero\n      tag_50\n      jumpi\n        /* \"#utility.yul\":1254:1333   */\n      tag_51\n      tag_52\n      jump\t// in\n    tag_51:\n        /* \"#utility.yul\":1218:1335   */\n    tag_50:\n        /* \"#utility.yul\":1359:1422   */\n      tag_53\n        /* \"#utility.yul\":1414:1421   */\n      dup5\n        /* \"#utility.yul\":1405:1411   */\n      dup3\n        /* \"#utility.yul\":1394:1403   */\n      dup6\n        /* \"#utility.yul\":1390:1412   */\n      add\n        /* \"#utility.yul\":1359:1422   */\n      tag_36\n      jump\t// in\n    tag_53:\n        /* \"#utility.yul\":1349:1422   */\n      swap2\n      pop\n        /* \"#utility.yul\":1145:1432   */\n      pop\n        /* \"#utility.yul\":930:1439   */\n      swap3\n      swap2\n      pop\n      pop\n      jump\t// out\n        /* \"#utility.yul\":1445:2099   */\n    tag_18:\n        /* \"#utility.yul\":1523:1529   */\n      0x00\n        /* \"#utility.yul\":1531:1537   */\n      dup1\n        /* \"#utility.yul\":1580:1582   */\n      0x40\n        /* \"#utility.yul\":1568:1577   */\n      dup4\n        /* \"#utility.yul\":1559:1566   */\n      dup6\n        /* \"#utility.yul\":1555:1578   */\n      sub\n        /* \"#utility.yul\":1551:1583   */\n      slt\n        /* \"#utility.yul\":1548:1667   */\n      iszero\n      tag_55\n      jumpi\n        /* \"#utility.yul\":1586:1665   */\n      tag_56\n      tag_49\n      jump\t// in\n    tag_56:\n        /* \"#utility.yul\":1548:1667   */\n    tag_55:\n        /* \"#utility.yul\":1734:1735   */\n      0x00\n        /* \"#utility.yul\":1723:1732   */\n      dup4\n        /* \"#utility.yul\":1719:1736   */\n      add\n        /* \"#utility.yul\":1706:1737   */\n      calldataload\n        /* \"#utility.yul\":1764:1782   */\n      0xffffffffffffffff\n        /* \"#utility.yul\":1756:1762   */\n      dup2\n        /* \"#utility.yul\":1753:1783   */\n      gt\n        /* \"#utility.yul\":1750:1867   */\n      iszero\n      tag_57\n      jumpi\n        /* \"#utility.yul\":1786:1865   */\n      tag_58\n      tag_52\n      jump\t// in\n    tag_58:\n        /* \"#utility.yul\":1750:1867   */\n    tag_57:\n        /* \"#utility.yul\":1891:1954   */\n      tag_59\n        /* \"#utility.yul\":1946:1953   */\n      dup6\n        /* \"#utility.yul\":1937:1943   */\n      dup3\n        /* \"#utility.yul\":1926:1935   */\n      dup7\n        /* \"#utility.yul\":1922:1944   */\n      add\n        /* \"#utility.yul\":1891:1954   */\n      tag_36\n      jump\t// in\n    tag_59:\n        /* \"#utility.yul\":1881:1954   */\n      swap3\n      pop\n        /* \"#utility.yul\":1677:1964   */\n      pop\n        /* \"#utility.yul\":2003:2005   */\n      0x20\n        /* \"#utility.yul\":2029:2082   */\n      tag_60\n        /* \"#utility.yul\":2074:2081   */\n      dup6\n        /* \"#utility.yul\":2065:2071   */\n      dup3\n        /* \"#utility.yul\":2054:2063   */\n      dup7\n        /* \"#utility.yul\":2050:2072   */\n      add\n        /* \"#utility.yul\":2029:2082   */\n      tag_42\n      jump\t// in\n    tag_60:\n        /* \"#utility.yul\":2019:2082   */\n      swap2\n      pop\n        /* \"#utility.yul\":1974:2092   */\n      pop\n        /* \"#utility.yul\":1445:2099   */\n      swap3\n      pop\n      swap3\n      swap1\n      pop\n      jump\t// out\n        /* \"#utility.yul\":2105:2223   */\n    tag_61:\n        /* \"#utility.yul\":2192:2216   */\n      tag_63\n        /* \"#utility.yul\":2210:2215   */\n      dup2\n        /* \"#utility.yul\":2192:2216   */\n      tag_64\n      jump\t// in\n    tag_63:\n        /* \"#utility.yul\":2187:2190   */\n      dup3\n        /* \"#utility.yul\":2180:2217   */\n      mstore\n        /* \"#utility.yul\":2105:2223   */\n      pop\n      pop\n      jump\t// out\n        /* \"#utility.yul\":2229:2606   */\n    tag_65:\n        /* \"#utility.yul\":2335:2338   */\n      0x00\n        /* \"#utility.yul\":2363:2402   */\n      tag_67\n        /* \"#utility.yul\":2396:2401   */\n      dup3\n        /* \"#utility.yul\":2363:2402   */\n      tag_68\n      jump\t// in\n    tag_67:\n        /* \"#utility.yul\":2418:2507   */\n      tag_69\n        /* \"#utility.yul\":2500:2506   */\n      dup2\n        /* \"#utility.yul\":2495:2498   */\n      dup6\n        /* \"#utility.yul\":2418:2507   */\n      tag_70\n      jump\t// in\n    tag_69:\n        /* \"#utility.yul\":2411:2507   */\n      swap4\n      pop\n        /* \"#utility.yul\":2516:2568   */\n      tag_71\n        /* \"#utility.yul\":2561:2567   */\n      dup2\n        /* \"#utility.yul\":2556:2559   */\n      dup6\n        /* \"#utility.yul\":2549:2553   */\n      0x20\n        /* \"#utility.yul\":2542:2547   */\n      dup7\n        /* \"#utility.yul\":2538:2554   */\n      add\n        /* \"#utility.yul\":2516:2568   */\n      tag_72\n      jump\t// in\n    tag_71:\n        /* \"#utility.yul\":2593:2599   */\n      dup1\n        /* \"#utility.yul\":2588:2591   */\n      dup5\n        /* \"#utility.yul\":2584:2600   */\n      add\n        /* \"#utility.yul\":2577:2600   */\n      swap2\n      pop\n        /* \"#utility.yul\":2339:2606   */\n      pop\n        /* \"#utility.yul\":2229:2606   */\n      swap3\n      swap2\n      pop\n      pop\n      jump\t// out\n        /* \"#utility.yul\":2612:2730   */\n    tag_73:\n        /* \"#utility.yul\":2699:2723   */\n      tag_75\n        /* \"#utility.yul\":2717:2722   */\n      dup2\n        /* \"#utility.yul\":2699:2723   */\n      tag_76\n      jump\t// in\n    tag_75:\n        /* \"#utility.yul\":2694:2697   */\n      dup3\n        /* \"#utility.yul\":2687:2724   */\n      mstore\n        /* \"#utility.yul\":2612:2730   */\n      pop\n      pop\n      jump\t// out\n        /* \"#utility.yul\":2736:3011   */\n    tag_23:\n        /* \"#utility.yul\":2868:2871   */\n      0x00\n        /* \"#utility.yul\":2890:2985   */\n      tag_78\n        /* \"#utility.yul\":2981:2984   */\n      dup3\n        /* \"#utility.yul\":2972:2978   */\n      dup5\n        /* \"#utility.yul\":2890:2985   */\n      tag_65\n      jump\t// in\n    tag_78:\n        /* \"#utility.yul\":2883:2985   */\n      swap2\n      pop\n        /* \"#utility.yul\":3002:3005   */\n      dup2\n        /* \"#utility.yul\":2995:3005   */\n      swap1\n      pop\n        /* \"#utility.yul\":2736:3011   */\n      swap3\n      swap2\n      pop\n      pop\n      jump\t// out\n        /* \"#utility.yul\":3017:3239   */\n    tag_15:\n        /* \"#utility.yul\":3110:3114   */\n      0x00\n        /* \"#utility.yul\":3148:3150   */\n      0x20\n        /* \"#utility.yul\":3137:3146   */\n      dup3\n        /* \"#utility.yul\":3133:3151   */\n      add\n        /* \"#utility.yul\":3125:3151   */\n      swap1\n      pop\n        /* \"#utility.yul\":3161:3232   */\n      tag_80\n        /* \"#utility.yul\":3229:3230   */\n      0x00\n        /* \"#utility.yul\":3218:3227   */\n      dup4\n        /* \"#utility.yul\":3214:3231   */\n      add\n        /* \"#utility.yul\":3205:3211   */\n      dup5\n        /* \"#utility.yul\":3161:3232   */\n      tag_61\n      jump\t// in\n    tag_80:\n        /* \"#utility.yul\":3017:3239   */\n      swap3\n      swap2\n      pop\n      pop\n      jump\t// out\n        /* \"#utility.yul\":3245:3467   */\n    tag_11:\n        /* \"#utility.yul\":3338:3342   */\n      0x00\n        /* \"#utility.yul\":3376:3378   */\n      0x20\n        /* \"#utility.yul\":3365:3374   */\n      dup3\n        /* \"#utility.yul\":3361:3379   */\n      add\n        /* \"#utility.yul\":3353:3379   */\n      swap1\n      pop\n        /* \"#utility.yul\":3389:3460   */\n      tag_82\n        /* \"#utility.yul\":3457:3458   */\n      0x00\n        /* \"#utility.yul\":3446:3455   */\n      dup4\n        /* \"#utility.yul\":3442:3459   */\n      add\n        /* \"#utility.yul\":3433:3439   */\n      dup5\n        /* \"#utility.yul\":3389:3460   */\n      tag_73\n      jump\t// in\n    tag_82:\n        /* \"#utility.yul\":3245:3467   */\n      swap3\n      swap2\n      pop\n      pop\n      jump\t// out\n        /* \"#utility.yul\":3473:3602   */\n    tag_30:\n        /* \"#utility.yul\":3507:3513   */\n      0x00\n        /* \"#utility.yul\":3534:3554   */\n      tag_84\n      tag_85\n      jump\t// in\n    tag_84:\n        /* \"#utility.yul\":3524:3554   */\n      swap1\n      pop\n        /* \"#utility.yul\":3563:3596   */\n      tag_86\n        /* \"#utility.yul\":3591:3595   */\n      dup3\n        /* \"#utility.yul\":3583:3589   */\n      dup3\n        /* \"#utility.yul\":3563:3596   */\n      tag_87\n      jump\t// in\n    tag_86:\n        /* \"#utility.yul\":3473:3602   */\n      swap2\n      swap1\n      pop\n      jump\t// out\n        /* \"#utility.yul\":3608:3683   */\n    tag_85:\n        /* \"#utility.yul\":3641:3647   */\n      0x00\n        /* \"#utility.yul\":3674:3676   */\n      0x40\n        /* \"#utility.yul\":3668:3677   */\n      mload\n        /* \"#utility.yul\":3658:3677   */\n      swap1\n      pop\n        /* \"#utility.yul\":3608:3683   */\n      swap1\n      jump\t// out\n        /* \"#utility.yul\":3689:3997   */\n    tag_29:\n        /* \"#utility.yul\":3751:3755   */\n      0x00\n        /* \"#utility.yul\":3841:3859   */\n      0xffffffffffffffff\n        /* \"#utility.yul\":3833:3839   */\n      dup3\n        /* \"#utility.yul\":3830:3860   */\n      gt\n        /* \"#utility.yul\":3827:3883   */\n      iszero\n      tag_90\n      jumpi\n        /* \"#utility.yul\":3863:3881   */\n      tag_91\n      tag_92\n      jump\t// in\n    tag_91:\n        /* \"#utility.yul\":3827:3883   */\n    tag_90:\n        /* \"#utility.yul\":3901:3930   */\n      tag_93\n        /* \"#utility.yul\":3923:3929   */\n      dup3\n        /* \"#utility.yul\":3901:3930   */\n      tag_94\n      jump\t// in\n    tag_93:\n        /* \"#utility.yul\":3893:3930   */\n      swap1\n      pop\n        /* \"#utility.yul\":3985:3989   */\n      0x20\n        /* \"#utility.yul\":3979:3983   */\n      dup2\n        /* \"#utility.yul\":3975:3990   */\n      add\n        /* \"#utility.yul\":3967:3990   */\n      swap1\n      pop\n        /* \"#utility.yul\":3689:3997   */\n      swap2\n      swap1\n      pop\n      jump\t// out\n        /* \"#utility.yul\":4003:4102   */\n    tag_68:\n        /* \"#utility.yul\":4055:4061   */\n      0x00\n        /* \"#utility.yul\":4089:4094   */\n      dup2\n        /* \"#utility.yul\":4083:4095   */\n      mload\n        /* \"#utility.yul\":4073:4095   */\n      swap1\n      pop\n        /* \"#utility.yul\":4003:4102   */\n      swap2\n      swap1\n      pop\n      jump\t// out\n        /* \"#utility.yul\":4108:4256   */\n    tag_70:\n        /* \"#utility.yul\":4210:4221   */\n      0x00\n        /* \"#utility.yul\":4247:4250   */\n      dup2\n        /* \"#utility.yul\":4232:4250   */\n      swap1\n      pop\n        /* \"#utility.yul\":4108:4256   */\n      swap3\n      swap2\n      pop\n      pop\n      jump\t// out\n        /* \"#utility.yul\":4262:4358   */\n    tag_64:\n        /* \"#utility.yul\":4299:4306   */\n      0x00\n        /* \"#utility.yul\":4328:4352   */\n      tag_98\n        /* \"#utility.yul\":4346:4351   */\n      dup3\n        /* \"#utility.yul\":4328:4352   */\n      tag_99\n      jump\t// in\n    tag_98:\n        /* \"#utility.yul\":4317:4352   */\n      swap1\n      pop\n        /* \"#utility.yul\":4262:4358   */\n      swap2\n      swap1\n      pop\n      jump\t// out\n        /* \"#utility.yul\":4364:4490   */\n    tag_99:\n        /* \"#utility.yul\":4401:4408   */\n      0x00\n        /* \"#utility.yul\":4441:4483   */\n      0xffffffffffffffffffffffffffffffffffffffff\n        /* \"#utility.yul\":4434:4439   */\n      dup3\n        /* \"#utility.yul\":4430:4484   */\n      and\n        /* \"#utility.yul\":4419:4484   */\n      swap1\n      pop\n        /* \"#utility.yul\":4364:4490   */\n      swap2\n      swap1\n      pop\n      jump\t// out\n        /* \"#utility.yul\":4496:4573   */\n    tag_76:\n        /* \"#utility.yul\":4533:4540   */\n      0x00\n        /* \"#utility.yul\":4562:4567   */\n      dup2\n        /* \"#utility.yul\":4551:4567   */\n      swap1\n      pop\n        /* \"#utility.yul\":4496:4573   */\n      swap2\n      swap1\n      pop\n      jump\t// out\n        /* \"#utility.yul\":4579:4733   */\n    tag_35:\n        /* \"#utility.yul\":4663:4669   */\n      dup3\n        /* \"#utility.yul\":4658:4661   */\n      dup2\n        /* \"#utility.yul\":4653:4656   */\n      dup4\n        /* \"#utility.yul\":4640:4670   */\n      calldatacopy\n        /* \"#utility.yul\":4725:4726   */\n      0x00\n        /* \"#utility.yul\":4716:4722   */\n      dup4\n        /* \"#utility.yul\":4711:4714   */\n      dup4\n        /* \"#utility.yul\":4707:4723   */\n      add\n        /* \"#utility.yul\":4700:4727   */\n      mstore\n        /* \"#utility.yul\":4579:4733   */\n      pop\n      pop\n      pop\n      jump\t// out\n        /* \"#utility.yul\":4739:5046   */\n    tag_72:\n        /* \"#utility.yul\":4807:4808   */\n      0x00\n        /* \"#utility.yul\":4817:4930   */\n    tag_104:\n        /* \"#utility.yul\":4831:4837   */\n      dup4\n        /* \"#utility.yul\":4828:4829   */\n      dup2\n        /* \"#utility.yul\":4825:4838   */\n      lt\n        /* \"#utility.yul\":4817:4930   */\n      iszero\n      tag_106\n      jumpi\n        /* \"#utility.yul\":4916:4917   */\n      dup1\n        /* \"#utility.yul\":4911:4914   */\n      dup3\n        /* \"#utility.yul\":4907:4918   */\n      add\n        /* \"#utility.yul\":4901:4919   */\n      mload\n        /* \"#utility.yul\":4897:4898   */\n      dup2\n        /* \"#utility.yul\":4892:4895   */\n      dup5\n        /* \"#utility.yul\":4888:4899   */\n      add\n        /* \"#utility.yul\":4881:4920   */\n      mstore\n        /* \"#utility.yul\":4853:4855   */\n      0x20\n        /* \"#utility.yul\":4850:4851   */\n      dup2\n        /* \"#utility.yul\":4846:4856   */\n      add\n        /* \"#utility.yul\":4841:4856   */\n      swap1\n      pop\n        /* \"#utility.yul\":4817:4930   */\n      jump(tag_104)\n    tag_106:\n        /* \"#utility.yul\":4948:4954   */\n      dup4\n        /* \"#utility.yul\":4945:4946   */\n      dup2\n        /* \"#utility.yul\":4942:4955   */\n      gt\n        /* \"#utility.yul\":4939:5040   */\n      iszero\n      tag_107\n      jumpi\n        /* \"#utility.yul\":5028:5029   */\n      0x00\n        /* \"#utility.yul\":5019:5025   */\n      dup5\n        /* \"#utility.yul\":5014:5017   */\n      dup5\n        /* \"#utility.yul\":5010:5026   */\n      add\n        /* \"#utility.yul\":5003:5030   */\n      mstore\n        /* \"#utility.yul\":4939:5040   */\n    tag_107:\n        /* \"#utility.yul\":4788:5046   */\n      pop\n        /* \"#utility.yul\":4739:5046   */\n      pop\n      pop\n      pop\n      jump\t// out\n        /* \"#utility.yul\":5052:5333   */\n    tag_87:\n        /* \"#utility.yul\":5135:5162   */\n      tag_109\n        /* \"#utility.yul\":5157:5161   */\n      dup3\n        /* \"#utility.yul\":5135:5162   */\n      tag_94\n      jump\t// in\n    tag_109:\n        /* \"#utility.yul\":5127:5133   */\n      dup2\n        /* \"#utility.yul\":5123:5163   */\n      add\n        /* \"#utility.yul\":5265:5271   */\n      dup2\n        /* \"#utility.yul\":5253:5263   */\n      dup2\n        /* \"#utility.yul\":5250:5272   */\n      lt\n        /* \"#utility.yul\":5229:5247   */\n      0xffffffffffffffff\n        /* \"#utility.yul\":5217:5227   */\n      dup3\n        /* \"#utility.yul\":5214:5248   */\n      gt\n        /* \"#utility.yul\":5211:5273   */\n      or\n        /* \"#utility.yul\":5208:5296   */\n      iszero\n      tag_110\n      jumpi\n        /* \"#utility.yul\":5276:5294   */\n      tag_111\n      tag_92\n      jump\t// in\n    tag_111:\n        /* \"#utility.yul\":5208:5296   */\n    tag_110:\n        /* \"#utility.yul\":5316:5326   */\n      dup1\n        /* \"#utility.yul\":5312:5314   */\n      0x40\n        /* \"#utility.yul\":5305:5327   */\n      mstore\n        /* \"#utility.yul\":5095:5333   */\n      pop\n        /* \"#utility.yul\":5052:5333   */\n      pop\n      pop\n      jump\t// out\n        /* \"#utility.yul\":5339:5519   */\n    tag_92:\n        /* \"#utility.yul\":5387:5464   */\n      0x4e487b7100000000000000000000000000000000000000000000000000000000\n        /* \"#utility.yul\":5384:5385   */\n      0x00\n        /* \"#utility.yul\":5377:5465   */\n      mstore\n        /* \"#utility.yul\":5484:5488   */\n      0x41\n        /* \"#utility.yul\":5481:5482   */\n      0x04\n        /* \"#utility.yul\":5474:5489   */\n      mstore\n        /* \"#utility.yul\":5508:5512   */\n      0x24\n        /* \"#utility.yul\":5505:5506   */\n      0x00\n        /* \"#utility.yul\":5498:5513   */\n      revert\n        /* \"#utility.yul\":5525:5642   */\n    tag_40:\n        /* \"#utility.yul\":5634:5635   */\n      0x00\n        /* \"#utility.yul\":5631:5632   */\n      dup1\n        /* \"#utility.yul\":5624:5636   */\n      revert\n        /* \"#utility.yul\":5648:5765   */\n    tag_33:\n        /* \"#utility.yul\":5757:5758   */\n      0x00\n        /* \"#utility.yul\":5754:5755   */\n      dup1\n        /* \"#utility.yul\":5747:5759   */\n      revert\n        /* \"#utility.yul\":5771:5888   */\n    tag_52:\n        /* \"#utility.yul\":5880:5881   */\n      0x00\n        /* \"#utility.yul\":5877:5878   */\n      dup1\n        /* \"#utility.yul\":5870:5882   */\n      revert\n        /* \"#utility.yul\":5894:6011   */\n    tag_49:\n        /* \"#utility.yul\":6003:6004   */\n      0x00\n        /* \"#utility.yul\":6000:6001   */\n      dup1\n        /* \"#utility.yul\":5993:6005   */\n      revert\n        /* \"#utility.yul\":6017:6119   */\n    tag_94:\n        /* \"#utility.yul\":6058:6064   */\n      0x00\n        /* \"#utility.yul\":6109:6111   */\n      0x1f\n        /* \"#utility.yul\":6105:6112   */\n      not\n        /* \"#utility.yul\":6100:6102   */\n      0x1f\n        /* \"#utility.yul\":6093:6098   */\n      dup4\n        /* \"#utility.yul\":6089:6103   */\n      add\n        /* \"#utility.yul\":6085:6113   */\n      and\n        /* \"#utility.yul\":6075:6113   */\n      swap1\n      pop\n        /* \"#utility.yul\":6017:6119   */\n      swap2\n      swap1\n      pop\n      jump\t// out\n        /* \"#utility.yul\":6125:6247   */\n    tag_45:\n        /* \"#utility.yul\":6198:6222   */\n      tag_119\n        /* \"#utility.yul\":6216:6221   */\n      dup2\n        /* \"#utility.yul\":6198:6222   */\n      tag_76\n      jump\t// in\n    tag_119:\n        /* \"#utility.yul\":6191:6196   */\n      dup2\n        /* \"#utility.yul\":6188:6223   */\n      eq\n        /* \"#utility.yul\":6178:6241   */\n      tag_120\n      jumpi\n        /* \"#utility.yul\":6237:6238   */\n      0x00\n        /* \"#utility.yul\":6234:6235   */\n      dup1\n        /* \"#utility.yul\":6227:6239   */\n      revert\n        /* \"#utility.yul\":6178:6241   */\n    tag_120:\n        /* \"#utility.yul\":6125:6247   */\n      pop\n      jump\t// out\n\n    auxdata: 0xa2646970667358221220782f986d90ae3df9602f6e9c90b5508099b3ddde23a8658c2de12e64991c3cf064736f6c63430008070033\n}\n",
				"bytecode": {
					"linkReferences": {},
					"object": "608060405233600160006101000a81548173ffffffffffffffffffffffffffffffffffffffff021916908373ffffffffffffffffffffffffffffffffffffffff16021790555034801561005157600080fd5b50610507806100616000396000f3fe608060405234801561001057600080fd5b50600436106100415760003560e01c8063638caf8f146100465780638da5cb5b14610076578063d74ad8ab14610094575b600080fd5b610060600480360381019061005b919061020a565b6100b0565b60405161006d9190610330565b60405180910390f35b61007e6100de565b60405161008b9190610315565b60405180910390f35b6100ae60048036038101906100a99190610253565b610104565b005b6000818051602081018201805184825260208301602085012081835280955050505050506000915090505481565b600160009054906101000a900473ffffffffffffffffffffffffffffffffffffffff1681565b600160009054906101000a900473ffffffffffffffffffffffffffffffffffffffff1673ffffffffffffffffffffffffffffffffffffffff163373ffffffffffffffffffffffffffffffffffffffff161461015e57600080fd5b8060008360405161016f91906102fe565b9081526020016040518091039020819055505050565b600061019861019384610370565b61034b565b9050828152602081018484840111156101b4576101b361049a565b5b6101bf8482856103f3565b509392505050565b600082601f8301126101dc576101db610495565b5b81356101ec848260208601610185565b91505092915050565b600081359050610204816104ba565b92915050565b6000602082840312156102205761021f6104a4565b5b600082013567ffffffffffffffff81111561023e5761023d61049f565b5b61024a848285016101c7565b91505092915050565b6000806040838503121561026a576102696104a4565b5b600083013567ffffffffffffffff8111156102885761028761049f565b5b610294858286016101c7565b92505060206102a5858286016101f5565b9150509250929050565b6102b8816103b7565b82525050565b60006102c9826103a1565b6102d381856103ac565b93506102e3818560208601610402565b80840191505092915050565b6102f8816103e9565b82525050565b600061030a82846102be565b915081905092915050565b600060208201905061032a60008301846102af565b92915050565b600060208201905061034560008301846102ef565b92915050565b6000610355610366565b90506103618282610435565b919050565b6000604051905090565b600067ffffffffffffffff82111561038b5761038a610466565b5b610394826104a9565b9050602081019050919050565b600081519050919050565b600081905092915050565b60006103c2826103c9565b9050919050565b600073ffffffffffffffffffffffffffffffffffffffff82169050919050565b6000819050919050565b82818337600083830152505050565b60005b83811015610420578082015181840152602081019050610405565b8381111561042f576000848401525b50505050565b61043e826104a9565b810181811067ffffffffffffffff8211171561045d5761045c610466565b5b80604052505050565b7f4e487b7100000000000000000000000000000000000000000000000000000000600052604160045260246000fd5b600080fd5b600080fd5b600080fd5b600080fd5b6000601f19601f8301169050919050565b6104c3816103e9565b81146104ce57600080fd5b5056fea2646970667358221220782f986d90ae3df9602f6e9c90b5508099b3ddde23a8658c2de12e64991c3cf064736f6c63430008070033",
					"opcodes": "PUSH1 0x80 PUSH1 0x40 MSTORE CALLER PUSH1 0x1 PUSH1 0x0 PUSH2 0x100 EXP DUP2 SLOAD DUP2 PUSH20 0xFFFFFFFFFFFFFFFFFFFFFFFFFFFFFFFFFFFFFFFF MUL NOT AND SWAP1 DUP4 PUSH20 0xFFFFFFFFFFFFFFFFFFFFFFFFFFFFFFFFFFFFFFFF AND MUL OR SWAP1 SSTORE POP CALLVALUE DUP1 ISZERO PUSH2 0x51 JUMPI PUSH1 0x0 DUP1 REVERT JUMPDEST POP PUSH2 0x507 DUP1 PUSH2 0x61 PUSH1 0x0 CODECOPY PUSH1 0x0 RETURN INVALID PUSH1 0x80 PUSH1 0x40 MSTORE CALLVALUE DUP1 ISZERO PUSH2 0x10 JUMPI PUSH1 0x0 DUP1 REVERT JUMPDEST POP PUSH1 0x4 CALLDATASIZE LT PUSH2 0x41 JUMPI PUSH1 0x0 CALLDATALOAD PUSH1 0xE0 SHR DUP1 PUSH4 0x638CAF8F EQ PUSH2 0x46 JUMPI DUP1 PUSH4 0x8DA5CB5B EQ PUSH2 0x76 JUMPI DUP1 PUSH4 0xD74AD8AB EQ PUSH2 0x94 JUMPI JUMPDEST PUSH1 0x0 DUP1 REVERT JUMPDEST PUSH2 0x60 PUSH1 0x4 DUP1 CALLDATASIZE SUB DUP2 ADD SWAP1 PUSH2 0x5B SWAP2 SWAP1 PUSH2 0x20A JUMP JUMPDEST PUSH2 0xB0 JUMP JUMPDEST PUSH1 0x40 MLOAD PUSH2 0x6D SWAP2 SWAP1 PUSH2 0x330 JUMP JUMPDEST PUSH1 0x40 MLOAD DUP1 SWAP2 SUB SWAP1 RETURN JUMPDEST PUSH2 0x7E PUSH2 0xDE JUMP JUMPDEST PUSH1 0x40 MLOAD PUSH2 0x8B SWAP2 SWAP1 PUSH2 0x315 JUMP JUMPDEST PUSH1 0x40 MLOAD DUP1 SWAP2 SUB SWAP1 RETURN JUMPDEST PUSH2 0xAE PUSH1 0x4 DUP1 CALLDATASIZE SUB DUP2 ADD SWAP1 PUSH2 0xA9 SWAP2 SWAP1 PUSH2 0x253 JUMP JUMPDEST PUSH2 0x104 JUMP JUMPDEST STOP JUMPDEST PUSH1 0x0 DUP2 DUP1 MLOAD PUSH1 0x20 DUP2 ADD DUP3 ADD DUP1 MLOAD DUP5 DUP3 MSTORE PUSH1 0x20 DUP4 ADD PUSH1 0x20 DUP6 ADD KECCAK256 DUP2 DUP4 MSTORE DUP1 SWAP6 POP POP POP POP POP POP PUSH1 0x0 SWAP2 POP SWAP1 POP SLOAD DUP2 JUMP JUMPDEST PUSH1 0x1 PUSH1 0x0 SWAP1 SLOAD SWAP1 PUSH2 0x100 EXP SWAP1 DIV PUSH20 0xFFFFFFFFFFFFFFFFFFFFFFFFFFFFFFFFFFFFFFFF AND DUP2 JUMP JUMPDEST PUSH1 0x1 PUSH1 0x0 SWAP1 SLOAD SWAP1 PUSH2 0x100 EXP SWAP1 DIV PUSH20 0xFFFFFFFFFFFFFFFFFFFFFFFFFFFFFFFFFFFFFFFF AND PUSH20 0xFFFFFFFFFFFFFFFFFFFFFFFFFFFFFFFFFFFFFFFF AND CALLER PUSH20 0xFFFFFFFFFFFFFFFFFFFFFFFFFFFFFFFFFFFFFFFF AND EQ PUSH2 0x15E JUMPI PUSH1 0x0 DUP1 REVERT JUMPDEST DUP1 PUSH1 0x0 DUP4 PUSH1 0x40 MLOAD PUSH2 0x16F SWAP2 SWAP1 PUSH2 0x2FE JUMP JUMPDEST SWAP1 DUP2 MSTORE PUSH1 0x20 ADD PUSH1 0x40 MLOAD DUP1 SWAP2 SUB SWAP1 KECCAK256 DUP2 SWAP1 SSTORE POP POP POP JUMP JUMPDEST PUSH1 0x0 PUSH2 0x198 PUSH2 0x193 DUP5 PUSH2 0x370 JUMP JUMPDEST PUSH2 0x34B JUMP JUMPDEST SWAP1 POP DUP3 DUP2 MSTORE PUSH1 0x20 DUP2 ADD DUP5 DUP5 DUP5 ADD GT ISZERO PUSH2 0x1B4 JUMPI PUSH2 0x1B3 PUSH2 0x49A JUMP JUMPDEST JUMPDEST PUSH2 0x1BF DUP5 DUP3 DUP6 PUSH2 0x3F3 JUMP JUMPDEST POP SWAP4 SWAP3 POP POP POP JUMP JUMPDEST PUSH1 0x0 DUP3 PUSH1 0x1F DUP4 ADD SLT PUSH2 0x1DC JUMPI PUSH2 0x1DB PUSH2 0x495 JUMP JUMPDEST JUMPDEST DUP2 CALLDATALOAD PUSH2 0x1EC DUP5 DUP3 PUSH1 0x20 DUP7 ADD PUSH2 0x185 JUMP JUMPDEST SWAP2 POP POP SWAP3 SWAP2 POP POP JUMP JUMPDEST PUSH1 0x0 DUP2 CALLDATALOAD SWAP1 POP PUSH2 0x204 DUP2 PUSH2 0x4BA JUMP JUMPDEST SWAP3 SWAP2 POP POP JUMP JUMPDEST PUSH1 0x0 PUSH1 0x20 DUP3 DUP5 SUB SLT ISZERO PUSH2 0x220 JUMPI PUSH2 0x21F PUSH2 0x4A4 JUMP JUMPDEST JUMPDEST PUSH1 0x0 DUP3 ADD CALLDATALOAD PUSH8 0xFFFFFFFFFFFFFFFF DUP2 GT ISZERO PUSH2 0x23E JUMPI PUSH2 0x23D PUSH2 0x49F JUMP JUMPDEST JUMPDEST PUSH2 0x24A DUP5 DUP3 DUP6 ADD PUSH2 0x1C7 JUMP JUMPDEST SWAP2 POP POP SWAP3 SWAP2 POP POP JUMP JUMPDEST PUSH1 0x0 DUP1 PUSH1 0x40 DUP4 DUP6 SUB SLT ISZERO PUSH2 0x26A JUMPI PUSH2 0x269 PUSH2 0x4A4 JUMP JUMPDEST JUMPDEST PUSH1 0x0 DUP4 ADD CALLDATALOAD PUSH8 0xFFFFFFFFFFFFFFFF DUP2 GT ISZERO PUSH2 0x288 JUMPI PUSH2 0x287 PUSH2 0x49F JUMP JUMPDEST JUMPDEST PUSH2 0x294 DUP6 DUP3 DUP7 ADD PUSH2 0x1C7 JUMP JUMPDEST SWAP3 POP POP PUSH1 0x20 PUSH2 0x2A5 DUP6 DUP3 DUP7 ADD PUSH2 0x1F5 JUMP JUMPDEST SWAP2 POP POP SWAP3 POP SWAP3 SWAP1 POP JUMP JUMPDEST PUSH2 0x2B8 DUP2 PUSH2 0x3B7 JUMP JUMPDEST DUP3 MSTORE POP POP JUMP JUMPDEST PUSH1 0x0 PUSH2 0x2C9 DUP3 PUSH2 0x3A1 JUMP JUMPDEST PUSH2 0x2D3 DUP2 DUP6 PUSH2 0x3AC JUMP JUMPDEST SWAP4 POP PUSH2 0x2E3 DUP2 DUP6 PUSH1 0x20 DUP7 ADD PUSH2 0x402 JUMP JUMPDEST DUP1 DUP5 ADD SWAP2 POP POP SWAP3 SWAP2 POP POP JUMP JUMPDEST PUSH2 0x2F8 DUP2 PUSH2 0x3E9 JUMP JUMPDEST DUP3 MSTORE POP POP JUMP JUMPDEST PUSH1 0x0 PUSH2 0x30A DUP3 DUP5 PUSH2 0x2BE JUMP JUMPDEST SWAP2 POP DUP2 SWAP1 POP SWAP3 SWAP2 POP POP JUMP JUMPDEST PUSH1 0x0 PUSH1 0x20 DUP3 ADD SWAP1 POP PUSH2 0x32A PUSH1 0x0 DUP4 ADD DUP5 PUSH2 0x2AF JUMP JUMPDEST SWAP3 SWAP2 POP POP JUMP JUMPDEST PUSH1 0x0 PUSH1 0x20 DUP3 ADD SWAP1 POP PUSH2 0x345 PUSH1 0x0 DUP4 ADD DUP5 PUSH2 0x2EF JUMP JUMPDEST SWAP3 SWAP2 POP POP JUMP JUMPDEST PUSH1 0x0 PUSH2 0x355 PUSH2 0x366 JUMP JUMPDEST SWAP1 POP PUSH2 0x361 DUP3 DUP3 PUSH2 0x435 JUMP JUMPDEST SWAP2 SWAP1 POP JUMP JUMPDEST PUSH1 0x0 PUSH1 0x40 MLOAD SWAP1 POP SWAP1 JUMP JUMPDEST PUSH1 0x0 PUSH8 0xFFFFFFFFFFFFFFFF DUP3 GT ISZERO PUSH2 0x38B JUMPI PUSH2 0x38A PUSH2 0x466 JUMP JUMPDEST JUMPDEST PUSH2 0x394 DUP3 PUSH2 0x4A9 JUMP JUMPDEST SWAP1 POP PUSH1 0x20 DUP2 ADD SWAP1 POP SWAP2 SWAP1 POP JUMP JUMPDEST PUSH1 0x0 DUP2 MLOAD SWAP1 POP SWAP2 SWAP1 POP JUMP JUMPDEST PUSH1 0x0 DUP2 SWAP1 POP SWAP3 SWAP2 POP POP JUMP JUMPDEST PUSH1 0x0 PUSH2 0x3C2 DUP3 PUSH2 0x3C9 JUMP JUMPDEST SWAP1 POP SWAP2 SWAP1 POP JUMP JUMPDEST PUSH1 0x0 PUSH20 0xFFFFFFFFFFFFFFFFFFFFFFFFFFFFFFFFFFFFFFFF DUP3 AND SWAP1 POP SWAP2 SWAP1 POP JUMP JUMPDEST PUSH1 0x0 DUP2 SWAP1 POP SWAP2 SWAP1 POP JUMP JUMPDEST DUP3 DUP2 DUP4 CALLDATACOPY PUSH1 0x0 DUP4 DUP4 ADD MSTORE POP POP POP JUMP JUMPDEST PUSH1 0x0 JUMPDEST DUP4 DUP2 LT ISZERO PUSH2 0x420 JUMPI DUP1 DUP3 ADD MLOAD DUP2 DUP5 ADD MSTORE PUSH1 0x20 DUP2 ADD SWAP1 POP PUSH2 0x405 JUMP JUMPDEST DUP4 DUP2 GT ISZERO PUSH2 0x42F JUMPI PUSH1 0x0 DUP5 DUP5 ADD MSTORE JUMPDEST POP POP POP POP JUMP JUMPDEST PUSH2 0x43E DUP3 PUSH2 0x4A9 JUMP JUMPDEST DUP2 ADD DUP2 DUP2 LT PUSH8 0xFFFFFFFFFFFFFFFF DUP3 GT OR ISZERO PUSH2 0x45D JUMPI PUSH2 0x45C PUSH2 0x466 JUMP JUMPDEST JUMPDEST DUP1 PUSH1 0x40 MSTORE POP POP POP JUMP JUMPDEST PUSH32 0x4E487B7100000000000000000000000000000000000000000000000000000000 PUSH1 0x0 MSTORE PUSH1 0x41 PUSH1 0x4 MSTORE PUSH1 0x24 PUSH1 0x0 REVERT JUMPDEST PUSH1 0x0 DUP1 REVERT JUMPDEST PUSH1 0x0 DUP1 REVERT JUMPDEST PUSH1 0x0 DUP1 REVERT JUMPDEST PUSH1 0x0 DUP1 REVERT JUMPDEST PUSH1 0x0 PUSH1 0x1F NOT PUSH1 0x1F DUP4 ADD AND SWAP1 POP SWAP2 SWAP1 POP JUMP JUMPDEST PUSH2 0x4C3 DUP2 PUSH2 0x3E9 JUMP JUMPDEST DUP2 EQ PUSH2 0x4CE JUMPI PUSH1 0x0 DUP1 REVERT JUMPDEST POP JUMP INVALID LOG2 PUSH5 0x6970667358 0x22 SLT KECCAK256 PUSH25 0x2F986D90AE3DF9602F6E9C90B5508099B3DDDE23A8658C2DE1 0x2E PUSH5 0x991C3CF064 PUSH20 0x6F6C634300080700330000000000000000000000 "
				},
				"gasEstimates": {
					"creation": {
						"codeDepositCost": "257400",
						"executionCost": "24566",
						"totalCost": "281966"
					},
					"external": {
						"owner()": "2514",
						"registro(string,uint256)": "infinite",
						"rg(string)": "infinite"
					}
				},
				"methodIdentifiers": {
					"owner()": "8da5cb5b",
					"registro(string,uint256)": "d74ad8ab",
					"rg(string)": "638caf8f"
				}
			},
			"storageLayout": {
				"storage": [
					{
						"astId": 5,
						"contract": "contracts/Blockoffice.sol:Blockoffice",
						"label": "rg",
						"offset": 0,
						"slot": "0",
						"type": "t_mapping(t_string_memory_ptr,t_uint256)"
					},
					{
						"astId": 9,
						"contract": "contracts/Blockoffice.sol:Blockoffice",
						"label": "owner",
						"offset": 0,
						"slot": "1",
						"type": "t_address"
					}
				],
				"types": {
					"t_address": {
						"encoding": "inplace",
						"label": "address",
						"numberOfBytes": "20"
					},
					"t_mapping(t_string_memory_ptr,t_uint256)": {
						"encoding": "mapping",
						"key": "t_string_memory_ptr",
						"label": "mapping(string => uint256)",
						"numberOfBytes": "32",
						"value": "t_uint256"
					},
					"t_string_memory_ptr": {
						"encoding": "bytes",
						"label": "string",
						"numberOfBytes": "32"
					},
					"t_uint256": {
						"encoding": "inplace",
						"label": "uint256",
						"numberOfBytes": "32"
					}
				}
			},
			"userdoc": {
				"kind": "user",
				"methods": {},
				"version": 1
			}
		}
	}
}