{
	"contracts/Blockoffice.sol": {
		"Blockoffice": {
			"abi": [
				{
					"inputs": [
						{
							"internalType": "uint256",
							"name": "id",
							"type": "uint256"
						}
					],
					"name": "ConsultaPessoa",
					"outputs": [
						{
							"internalType": "string",
							"name": "",
							"type": "string"
						},
						{
							"internalType": "uint256",
							"name": "",
							"type": "uint256"
						},
						{
							"internalType": "uint256",
							"name": "",
							"type": "uint256"
						},
						{
							"internalType": "uint256",
							"name": "",
							"type": "uint256"
						}
					],
					"stateMutability": "view",
					"type": "function"
				},
				{
					"inputs": [
						{
							"internalType": "string",
							"name": "_nome",
							"type": "string"
						},
						{
							"internalType": "uint256",
							"name": "_rg",
							"type": "uint256"
						},
						{
							"internalType": "uint256",
							"name": "_cpf",
							"type": "uint256"
						},
						{
							"internalType": "uint256",
							"name": "_data",
							"type": "uint256"
						}
					],
					"name": "CriarPessoa",
					"outputs": [],
					"stateMutability": "nonpayable",
					"type": "function"
				}
			],
			"devdoc": {
				"kind": "dev",
				"methods": {},
				"version": 1
			},
			"evm": {
				"assembly": "    /* \"contracts/Blockoffice.sol\":70:769  contract Blockoffice{\r... */\n  mstore(0x40, 0x80)\n  callvalue\n  dup1\n  iszero\n  tag_1\n  jumpi\n  0x00\n  dup1\n  revert\ntag_1:\n  pop\n  dataSize(sub_0)\n  dup1\n  dataOffset(sub_0)\n  0x00\n  codecopy\n  0x00\n  return\nstop\n\nsub_0: assembly {\n        /* \"contracts/Blockoffice.sol\":70:769  contract Blockoffice{\r... */\n      mstore(0x40, 0x80)\n      callvalue\n      dup1\n      iszero\n      tag_1\n      jumpi\n      0x00\n      dup1\n      revert\n    tag_1:\n      pop\n      jumpi(tag_2, lt(calldatasize, 0x04))\n      shr(0xe0, calldataload(0x00))\n      dup1\n      0x07d5115d\n      eq\n      tag_3\n      jumpi\n      dup1\n      0x544378bb\n      eq\n      tag_4\n      jumpi\n    tag_2:\n      0x00\n      dup1\n      revert\n        /* \"contracts/Blockoffice.sol\":541:755  function ConsultaPessoa (uint id) external view returns (string memory, uint, uint, uint) {\r... */\n    tag_3:\n      tag_5\n      0x04\n      dup1\n      calldatasize\n      sub\n      dup2\n      add\n      swap1\n      tag_6\n      swap2\n      swap1\n      tag_7\n      jump\t// in\n    tag_6:\n      tag_8\n      jump\t// in\n    tag_5:\n      mload(0x40)\n      tag_9\n      swap5\n      swap4\n      swap3\n      swap2\n      swap1\n      tag_10\n      jump\t// in\n    tag_9:\n      mload(0x40)\n      dup1\n      swap2\n      sub\n      swap1\n      return\n        /* \"contracts/Blockoffice.sol\":236:533  function  CriarPessoa(string memory _nome, uint _rg, uint _cpf, uint _data) external{\r... */\n    tag_4:\n      tag_11\n      0x04\n      dup1\n      calldatasize\n      sub\n      dup2\n      add\n      swap1\n      tag_12\n      swap2\n      swap1\n      tag_13\n      jump\t// in\n    tag_12:\n      tag_14\n      jump\t// in\n    tag_11:\n      stop\n        /* \"contracts/Blockoffice.sol\":541:755  function ConsultaPessoa (uint id) external view returns (string memory, uint, uint, uint) {\r... */\n    tag_8:\n        /* \"contracts/Blockoffice.sol\":598:611  string memory */\n      0x60\n        /* \"contracts/Blockoffice.sol\":613:617  uint */\n      0x00\n        /* \"contracts/Blockoffice.sol\":619:623  uint */\n      dup1\n        /* \"contracts/Blockoffice.sol\":625:629  uint */\n      0x00\n        /* \"contracts/Blockoffice.sol\":642:662  Pessoa memory pessoa */\n      dup1\n        /* \"contracts/Blockoffice.sol\":665:672  pessoas */\n      0x00\n        /* \"contracts/Blockoffice.sol\":673:675  id */\n      dup7\n        /* \"contracts/Blockoffice.sol\":665:676  pessoas[id] */\n      dup2\n      sload\n      dup2\n      lt\n      tag_16\n      jumpi\n      tag_17\n      tag_18\n      jump\t// in\n    tag_17:\n    tag_16:\n      swap1\n      0x00\n      mstore\n      keccak256(0x00, 0x20)\n      swap1\n      0x04\n      mul\n      add\n        /* \"contracts/Blockoffice.sol\":642:676  Pessoa memory pessoa = pessoas[id] */\n      mload(0x40)\n      dup1\n      0x80\n      add\n      0x40\n      mstore\n      swap1\n      dup2\n      0x00\n      dup3\n      add\n      dup1\n      sload\n      tag_20\n      swap1\n      tag_21\n      jump\t// in\n    tag_20:\n      dup1\n      0x1f\n      add\n      0x20\n      dup1\n      swap2\n      div\n      mul\n      0x20\n      add\n      mload(0x40)\n      swap1\n      dup2\n      add\n      0x40\n      mstore\n      dup1\n      swap3\n      swap2\n      swap1\n      dup2\n      dup2\n      mstore\n      0x20\n      add\n      dup3\n      dup1\n      sload\n      tag_22\n      swap1\n      tag_21\n      jump\t// in\n    tag_22:\n      dup1\n      iszero\n      tag_23\n      jumpi\n      dup1\n      0x1f\n      lt\n      tag_24\n      jumpi\n      0x0100\n      dup1\n      dup4\n      sload\n      div\n      mul\n      dup4\n      mstore\n      swap2\n      0x20\n      add\n      swap2\n      jump(tag_23)\n    tag_24:\n      dup3\n      add\n      swap2\n      swap1\n      0x00\n      mstore\n      keccak256(0x00, 0x20)\n      swap1\n    tag_25:\n      dup2\n      sload\n      dup2\n      mstore\n      swap1\n      0x01\n      add\n      swap1\n      0x20\n      add\n      dup1\n      dup4\n      gt\n      tag_25\n      jumpi\n      dup3\n      swap1\n      sub\n      0x1f\n      and\n      dup3\n      add\n      swap2\n    tag_23:\n      pop\n      pop\n      pop\n      pop\n      pop\n      dup2\n      mstore\n      0x20\n      add\n      0x01\n      dup3\n      add\n      sload\n      dup2\n      mstore\n      0x20\n      add\n      0x02\n      dup3\n      add\n      sload\n      dup2\n      mstore\n      0x20\n      add\n      0x03\n      dup3\n      add\n      sload\n      dup2\n      mstore\n      pop\n      pop\n      swap1\n      pop\n        /* \"contracts/Blockoffice.sol\":695:701  pessoa */\n      dup1\n        /* \"contracts/Blockoffice.sol\":695:706  pessoa.nome */\n      0x00\n      add\n      mload\n        /* \"contracts/Blockoffice.sol\":708:714  pessoa */\n      dup2\n        /* \"contracts/Blockoffice.sol\":708:717  pessoa.rg */\n      0x20\n      add\n      mload\n        /* \"contracts/Blockoffice.sol\":719:725  pessoa */\n      dup3\n        /* \"contracts/Blockoffice.sol\":719:729  pessoa.cpf */\n      0x40\n      add\n      mload\n        /* \"contracts/Blockoffice.sol\":731:737  pessoa */\n      dup4\n        /* \"contracts/Blockoffice.sol\":731:742  pessoa.data */\n      0x60\n      add\n      mload\n        /* \"contracts/Blockoffice.sol\":687:743  return (pessoa.nome, pessoa.rg, pessoa.cpf, pessoa.data) */\n      swap5\n      pop\n      swap5\n      pop\n      swap5\n      pop\n      swap5\n      pop\n      pop\n        /* \"contracts/Blockoffice.sol\":541:755  function ConsultaPessoa (uint id) external view returns (string memory, uint, uint, uint) {\r... */\n      swap2\n      swap4\n      pop\n      swap2\n      swap4\n      jump\t// out\n        /* \"contracts/Blockoffice.sol\":236:533  function  CriarPessoa(string memory _nome, uint _rg, uint _cpf, uint _data) external{\r... */\n    tag_14:\n        /* \"contracts/Blockoffice.sol\":331:355  Pessoa memory novaPessoa */\n      tag_27\n      tag_28\n      jump\t// in\n    tag_27:\n        /* \"contracts/Blockoffice.sol\":384:389  _nome */\n      dup5\n        /* \"contracts/Blockoffice.sol\":366:376  novaPessoa */\n      dup2\n        /* \"contracts/Blockoffice.sol\":366:381  novaPessoa.nome */\n      0x00\n      add\n        /* \"contracts/Blockoffice.sol\":366:389  novaPessoa.nome = _nome */\n      dup2\n      swap1\n      mstore\n      pop\n        /* \"contracts/Blockoffice.sol\":416:419  _rg */\n      dup4\n        /* \"contracts/Blockoffice.sol\":400:410  novaPessoa */\n      dup2\n        /* \"contracts/Blockoffice.sol\":400:413  novaPessoa.rg */\n      0x20\n      add\n        /* \"contracts/Blockoffice.sol\":400:419  novaPessoa.rg = _rg */\n      dup2\n      dup2\n      mstore\n      pop\n      pop\n        /* \"contracts/Blockoffice.sol\":447:451  _cpf */\n      dup3\n        /* \"contracts/Blockoffice.sol\":430:440  novaPessoa */\n      dup2\n        /* \"contracts/Blockoffice.sol\":430:444  novaPessoa.cpf */\n      0x40\n      add\n        /* \"contracts/Blockoffice.sol\":430:451  novaPessoa.cpf = _cpf */\n      dup2\n      dup2\n      mstore\n      pop\n      pop\n        /* \"contracts/Blockoffice.sol\":481:486  _data */\n      dup2\n        /* \"contracts/Blockoffice.sol\":463:473  novaPessoa */\n      dup2\n        /* \"contracts/Blockoffice.sol\":463:478  novaPessoa.data */\n      0x60\n      add\n        /* \"contracts/Blockoffice.sol\":463:486  novaPessoa.data = _data */\n      dup2\n      dup2\n      mstore\n      pop\n      pop\n        /* \"contracts/Blockoffice.sol\":499:506  pessoas */\n      0x00\n        /* \"contracts/Blockoffice.sol\":512:522  novaPessoa */\n      dup2\n        /* \"contracts/Blockoffice.sol\":499:523  pessoas.push(novaPessoa) */\n      swap1\n      dup1\n      0x01\n      dup2\n      sload\n      add\n      dup1\n      dup3\n      sstore\n      dup1\n      swap2\n      pop\n      pop\n      0x01\n      swap1\n      sub\n      swap1\n      0x00\n      mstore\n      keccak256(0x00, 0x20)\n      swap1\n      0x04\n      mul\n      add\n      0x00\n      swap1\n      swap2\n      swap1\n      swap2\n      swap1\n      swap2\n      pop\n      0x00\n      dup3\n      add\n      mload\n      dup2\n      0x00\n      add\n      swap1\n      dup1\n      mload\n      swap1\n      0x20\n      add\n      swap1\n      tag_30\n      swap3\n      swap2\n      swap1\n      tag_31\n      jump\t// in\n    tag_30:\n      pop\n      0x20\n      dup3\n      add\n      mload\n      dup2\n      0x01\n      add\n      sstore\n      0x40\n      dup3\n      add\n      mload\n      dup2\n      0x02\n      add\n      sstore\n      0x60\n      dup3\n      add\n      mload\n      dup2\n      0x03\n      add\n      sstore\n      pop\n      pop\n        /* \"contracts/Blockoffice.sol\":320:533  {\r... */\n      pop\n        /* \"contracts/Blockoffice.sol\":236:533  function  CriarPessoa(string memory _nome, uint _rg, uint _cpf, uint _data) external{\r... */\n      pop\n      pop\n      pop\n      pop\n      jump\t// out\n    tag_28:\n      mload(0x40)\n      dup1\n      0x80\n      add\n      0x40\n      mstore\n      dup1\n      0x60\n      dup2\n      mstore\n      0x20\n      add\n      0x00\n      dup2\n      mstore\n      0x20\n      add\n      0x00\n      dup2\n      mstore\n      0x20\n      add\n      0x00\n      dup2\n      mstore\n      pop\n      swap1\n      jump\t// out\n    tag_31:\n      dup3\n      dup1\n      sload\n      tag_32\n      swap1\n      tag_21\n      jump\t// in\n    tag_32:\n      swap1\n      0x00\n      mstore\n      keccak256(0x00, 0x20)\n      swap1\n      0x1f\n      add\n      0x20\n      swap1\n      div\n      dup2\n      add\n      swap3\n      dup3\n      tag_34\n      jumpi\n      0x00\n      dup6\n      sstore\n      jump(tag_33)\n    tag_34:\n      dup3\n      0x1f\n      lt\n      tag_35\n      jumpi\n      dup1\n      mload\n      not(0xff)\n      and\n      dup4\n      dup1\n      add\n      or\n      dup6\n      sstore\n      jump(tag_33)\n    tag_35:\n      dup3\n      dup1\n      add\n      0x01\n      add\n      dup6\n      sstore\n      dup3\n      iszero\n      tag_33\n      jumpi\n      swap2\n      dup3\n      add\n    tag_36:\n      dup3\n      dup2\n      gt\n      iszero\n      tag_37\n      jumpi\n      dup3\n      mload\n      dup3\n      sstore\n      swap2\n      0x20\n      add\n      swap2\n      swap1\n      0x01\n      add\n      swap1\n      jump(tag_36)\n    tag_37:\n    tag_33:\n      pop\n      swap1\n      pop\n      tag_38\n      swap2\n      swap1\n      tag_39\n      jump\t// in\n    tag_38:\n      pop\n      swap1\n      jump\t// out\n    tag_39:\n    tag_40:\n      dup1\n      dup3\n      gt\n      iszero\n      tag_41\n      jumpi\n      0x00\n      dup2\n      0x00\n      swap1\n      sstore\n      pop\n      0x01\n      add\n      jump(tag_40)\n    tag_41:\n      pop\n      swap1\n      jump\t// out\n        /* \"#utility.yul\":7:419   */\n    tag_43:\n        /* \"#utility.yul\":85:90   */\n      0x00\n        /* \"#utility.yul\":110:176   */\n      tag_45\n        /* \"#utility.yul\":126:175   */\n      tag_46\n        /* \"#utility.yul\":168:174   */\n      dup5\n        /* \"#utility.yul\":126:175   */\n      tag_47\n      jump\t// in\n    tag_46:\n        /* \"#utility.yul\":110:176   */\n      tag_48\n      jump\t// in\n    tag_45:\n        /* \"#utility.yul\":101:176   */\n      swap1\n      pop\n        /* \"#utility.yul\":199:205   */\n      dup3\n        /* \"#utility.yul\":192:197   */\n      dup2\n        /* \"#utility.yul\":185:206   */\n      mstore\n        /* \"#utility.yul\":237:241   */\n      0x20\n        /* \"#utility.yul\":230:235   */\n      dup2\n        /* \"#utility.yul\":226:242   */\n      add\n        /* \"#utility.yul\":275:278   */\n      dup5\n        /* \"#utility.yul\":266:272   */\n      dup5\n        /* \"#utility.yul\":261:264   */\n      dup5\n        /* \"#utility.yul\":257:273   */\n      add\n        /* \"#utility.yul\":254:279   */\n      gt\n        /* \"#utility.yul\":251:363   */\n      iszero\n      tag_49\n      jumpi\n        /* \"#utility.yul\":282:361   */\n      tag_50\n      tag_51\n      jump\t// in\n    tag_50:\n        /* \"#utility.yul\":251:363   */\n    tag_49:\n        /* \"#utility.yul\":372:413   */\n      tag_52\n        /* \"#utility.yul\":406:412   */\n      dup5\n        /* \"#utility.yul\":401:404   */\n      dup3\n        /* \"#utility.yul\":396:399   */\n      dup6\n        /* \"#utility.yul\":372:413   */\n      tag_53\n      jump\t// in\n    tag_52:\n        /* \"#utility.yul\":91:419   */\n      pop\n        /* \"#utility.yul\":7:419   */\n      swap4\n      swap3\n      pop\n      pop\n      pop\n      jump\t// out\n        /* \"#utility.yul\":439:779   */\n    tag_54:\n        /* \"#utility.yul\":495:500   */\n      0x00\n        /* \"#utility.yul\":544:547   */\n      dup3\n        /* \"#utility.yul\":537:541   */\n      0x1f\n        /* \"#utility.yul\":529:535   */\n      dup4\n        /* \"#utility.yul\":525:542   */\n      add\n        /* \"#utility.yul\":521:548   */\n      slt\n        /* \"#utility.yul\":511:633   */\n      tag_56\n      jumpi\n        /* \"#utility.yul\":552:631   */\n      tag_57\n      tag_58\n      jump\t// in\n    tag_57:\n        /* \"#utility.yul\":511:633   */\n    tag_56:\n        /* \"#utility.yul\":669:675   */\n      dup2\n        /* \"#utility.yul\":656:676   */\n      calldataload\n        /* \"#utility.yul\":694:773   */\n      tag_59\n        /* \"#utility.yul\":769:772   */\n      dup5\n        /* \"#utility.yul\":761:767   */\n      dup3\n        /* \"#utility.yul\":754:758   */\n      0x20\n        /* \"#utility.yul\":746:752   */\n      dup7\n        /* \"#utility.yul\":742:759   */\n      add\n        /* \"#utility.yul\":694:773   */\n      tag_43\n      jump\t// in\n    tag_59:\n        /* \"#utility.yul\":685:773   */\n      swap2\n      pop\n        /* \"#utility.yul\":501:779   */\n      pop\n        /* \"#utility.yul\":439:779   */\n      swap3\n      swap2\n      pop\n      pop\n      jump\t// out\n        /* \"#utility.yul\":785:924   */\n    tag_60:\n        /* \"#utility.yul\":831:836   */\n      0x00\n        /* \"#utility.yul\":869:875   */\n      dup2\n        /* \"#utility.yul\":856:876   */\n      calldataload\n        /* \"#utility.yul\":847:876   */\n      swap1\n      pop\n        /* \"#utility.yul\":885:918   */\n      tag_62\n        /* \"#utility.yul\":912:917   */\n      dup2\n        /* \"#utility.yul\":885:918   */\n      tag_63\n      jump\t// in\n    tag_62:\n        /* \"#utility.yul\":785:924   */\n      swap3\n      swap2\n      pop\n      pop\n      jump\t// out\n        /* \"#utility.yul\":930:1875   */\n    tag_13:\n        /* \"#utility.yul\":1026:1032   */\n      0x00\n        /* \"#utility.yul\":1034:1040   */\n      dup1\n        /* \"#utility.yul\":1042:1048   */\n      0x00\n        /* \"#utility.yul\":1050:1056   */\n      dup1\n        /* \"#utility.yul\":1099:1102   */\n      0x80\n        /* \"#utility.yul\":1087:1096   */\n      dup6\n        /* \"#utility.yul\":1078:1085   */\n      dup8\n        /* \"#utility.yul\":1074:1097   */\n      sub\n        /* \"#utility.yul\":1070:1103   */\n      slt\n        /* \"#utility.yul\":1067:1187   */\n      iszero\n      tag_65\n      jumpi\n        /* \"#utility.yul\":1106:1185   */\n      tag_66\n      tag_67\n      jump\t// in\n    tag_66:\n        /* \"#utility.yul\":1067:1187   */\n    tag_65:\n        /* \"#utility.yul\":1254:1255   */\n      0x00\n        /* \"#utility.yul\":1243:1252   */\n      dup6\n        /* \"#utility.yul\":1239:1256   */\n      add\n        /* \"#utility.yul\":1226:1257   */\n      calldataload\n        /* \"#utility.yul\":1284:1302   */\n      0xffffffffffffffff\n        /* \"#utility.yul\":1276:1282   */\n      dup2\n        /* \"#utility.yul\":1273:1303   */\n      gt\n        /* \"#utility.yul\":1270:1387   */\n      iszero\n      tag_68\n      jumpi\n        /* \"#utility.yul\":1306:1385   */\n      tag_69\n      tag_70\n      jump\t// in\n    tag_69:\n        /* \"#utility.yul\":1270:1387   */\n    tag_68:\n        /* \"#utility.yul\":1411:1474   */\n      tag_71\n        /* \"#utility.yul\":1466:1473   */\n      dup8\n        /* \"#utility.yul\":1457:1463   */\n      dup3\n        /* \"#utility.yul\":1446:1455   */\n      dup9\n        /* \"#utility.yul\":1442:1464   */\n      add\n        /* \"#utility.yul\":1411:1474   */\n      tag_54\n      jump\t// in\n    tag_71:\n        /* \"#utility.yul\":1401:1474   */\n      swap5\n      pop\n        /* \"#utility.yul\":1197:1484   */\n      pop\n        /* \"#utility.yul\":1523:1525   */\n      0x20\n        /* \"#utility.yul\":1549:1602   */\n      tag_72\n        /* \"#utility.yul\":1594:1601   */\n      dup8\n        /* \"#utility.yul\":1585:1591   */\n      dup3\n        /* \"#utility.yul\":1574:1583   */\n      dup9\n        /* \"#utility.yul\":1570:1592   */\n      add\n        /* \"#utility.yul\":1549:1602   */\n      tag_60\n      jump\t// in\n    tag_72:\n        /* \"#utility.yul\":1539:1602   */\n      swap4\n      pop\n        /* \"#utility.yul\":1494:1612   */\n      pop\n        /* \"#utility.yul\":1651:1653   */\n      0x40\n        /* \"#utility.yul\":1677:1730   */\n      tag_73\n        /* \"#utility.yul\":1722:1729   */\n      dup8\n        /* \"#utility.yul\":1713:1719   */\n      dup3\n        /* \"#utility.yul\":1702:1711   */\n      dup9\n        /* \"#utility.yul\":1698:1720   */\n      add\n        /* \"#utility.yul\":1677:1730   */\n      tag_60\n      jump\t// in\n    tag_73:\n        /* \"#utility.yul\":1667:1730   */\n      swap3\n      pop\n        /* \"#utility.yul\":1622:1740   */\n      pop\n        /* \"#utility.yul\":1779:1781   */\n      0x60\n        /* \"#utility.yul\":1805:1858   */\n      tag_74\n        /* \"#utility.yul\":1850:1857   */\n      dup8\n        /* \"#utility.yul\":1841:1847   */\n      dup3\n        /* \"#utility.yul\":1830:1839   */\n      dup9\n        /* \"#utility.yul\":1826:1848   */\n      add\n        /* \"#utility.yul\":1805:1858   */\n      tag_60\n      jump\t// in\n    tag_74:\n        /* \"#utility.yul\":1795:1858   */\n      swap2\n      pop\n        /* \"#utility.yul\":1750:1868   */\n      pop\n        /* \"#utility.yul\":930:1875   */\n      swap3\n      swap6\n      swap2\n      swap5\n      pop\n      swap3\n      pop\n      jump\t// out\n        /* \"#utility.yul\":1881:2210   */\n    tag_7:\n        /* \"#utility.yul\":1940:1946   */\n      0x00\n        /* \"#utility.yul\":1989:1991   */\n      0x20\n        /* \"#utility.yul\":1977:1986   */\n      dup3\n        /* \"#utility.yul\":1968:1975   */\n      dup5\n        /* \"#utility.yul\":1964:1987   */\n      sub\n        /* \"#utility.yul\":1960:1992   */\n      slt\n        /* \"#utility.yul\":1957:2076   */\n      iszero\n      tag_76\n      jumpi\n        /* \"#utility.yul\":1995:2074   */\n      tag_77\n      tag_67\n      jump\t// in\n    tag_77:\n        /* \"#utility.yul\":1957:2076   */\n    tag_76:\n        /* \"#utility.yul\":2115:2116   */\n      0x00\n        /* \"#utility.yul\":2140:2193   */\n      tag_78\n        /* \"#utility.yul\":2185:2192   */\n      dup5\n        /* \"#utility.yul\":2176:2182   */\n      dup3\n        /* \"#utility.yul\":2165:2174   */\n      dup6\n        /* \"#utility.yul\":2161:2183   */\n      add\n        /* \"#utility.yul\":2140:2193   */\n      tag_60\n      jump\t// in\n    tag_78:\n        /* \"#utility.yul\":2130:2193   */\n      swap2\n      pop\n        /* \"#utility.yul\":2086:2203   */\n      pop\n        /* \"#utility.yul\":1881:2210   */\n      swap3\n      swap2\n      pop\n      pop\n      jump\t// out\n        /* \"#utility.yul\":2216:2580   */\n    tag_79:\n        /* \"#utility.yul\":2304:2307   */\n      0x00\n        /* \"#utility.yul\":2332:2371   */\n      tag_81\n        /* \"#utility.yul\":2365:2370   */\n      dup3\n        /* \"#utility.yul\":2332:2371   */\n      tag_82\n      jump\t// in\n    tag_81:\n        /* \"#utility.yul\":2387:2458   */\n      tag_83\n        /* \"#utility.yul\":2451:2457   */\n      dup2\n        /* \"#utility.yul\":2446:2449   */\n      dup6\n        /* \"#utility.yul\":2387:2458   */\n      tag_84\n      jump\t// in\n    tag_83:\n        /* \"#utility.yul\":2380:2458   */\n      swap4\n      pop\n        /* \"#utility.yul\":2467:2519   */\n      tag_85\n        /* \"#utility.yul\":2512:2518   */\n      dup2\n        /* \"#utility.yul\":2507:2510   */\n      dup6\n        /* \"#utility.yul\":2500:2504   */\n      0x20\n        /* \"#utility.yul\":2493:2498   */\n      dup7\n        /* \"#utility.yul\":2489:2505   */\n      add\n        /* \"#utility.yul\":2467:2519   */\n      tag_86\n      jump\t// in\n    tag_85:\n        /* \"#utility.yul\":2544:2573   */\n      tag_87\n        /* \"#utility.yul\":2566:2572   */\n      dup2\n        /* \"#utility.yul\":2544:2573   */\n      tag_88\n      jump\t// in\n    tag_87:\n        /* \"#utility.yul\":2539:2542   */\n      dup5\n        /* \"#utility.yul\":2535:2574   */\n      add\n        /* \"#utility.yul\":2528:2574   */\n      swap2\n      pop\n        /* \"#utility.yul\":2308:2580   */\n      pop\n        /* \"#utility.yul\":2216:2580   */\n      swap3\n      swap2\n      pop\n      pop\n      jump\t// out\n        /* \"#utility.yul\":2586:2704   */\n    tag_89:\n        /* \"#utility.yul\":2673:2697   */\n      tag_91\n        /* \"#utility.yul\":2691:2696   */\n      dup2\n        /* \"#utility.yul\":2673:2697   */\n      tag_92\n      jump\t// in\n    tag_91:\n        /* \"#utility.yul\":2668:2671   */\n      dup3\n        /* \"#utility.yul\":2661:2698   */\n      mstore\n        /* \"#utility.yul\":2586:2704   */\n      pop\n      pop\n      jump\t// out\n        /* \"#utility.yul\":2710:3354   */\n    tag_10:\n        /* \"#utility.yul\":2907:2911   */\n      0x00\n        /* \"#utility.yul\":2945:2948   */\n      0x80\n        /* \"#utility.yul\":2934:2943   */\n      dup3\n        /* \"#utility.yul\":2930:2949   */\n      add\n        /* \"#utility.yul\":2922:2949   */\n      swap1\n      pop\n        /* \"#utility.yul\":2995:3004   */\n      dup2\n        /* \"#utility.yul\":2989:2993   */\n      dup2\n        /* \"#utility.yul\":2985:3005   */\n      sub\n        /* \"#utility.yul\":2981:2982   */\n      0x00\n        /* \"#utility.yul\":2970:2979   */\n      dup4\n        /* \"#utility.yul\":2966:2983   */\n      add\n        /* \"#utility.yul\":2959:3006   */\n      mstore\n        /* \"#utility.yul\":3023:3101   */\n      tag_94\n        /* \"#utility.yul\":3096:3100   */\n      dup2\n        /* \"#utility.yul\":3087:3093   */\n      dup8\n        /* \"#utility.yul\":3023:3101   */\n      tag_79\n      jump\t// in\n    tag_94:\n        /* \"#utility.yul\":3015:3101   */\n      swap1\n      pop\n        /* \"#utility.yul\":3111:3183   */\n      tag_95\n        /* \"#utility.yul\":3179:3181   */\n      0x20\n        /* \"#utility.yul\":3168:3177   */\n      dup4\n        /* \"#utility.yul\":3164:3182   */\n      add\n        /* \"#utility.yul\":3155:3161   */\n      dup7\n        /* \"#utility.yul\":3111:3183   */\n      tag_89\n      jump\t// in\n    tag_95:\n        /* \"#utility.yul\":3193:3265   */\n      tag_96\n        /* \"#utility.yul\":3261:3263   */\n      0x40\n        /* \"#utility.yul\":3250:3259   */\n      dup4\n        /* \"#utility.yul\":3246:3264   */\n      add\n        /* \"#utility.yul\":3237:3243   */\n      dup6\n        /* \"#utility.yul\":3193:3265   */\n      tag_89\n      jump\t// in\n    tag_96:\n        /* \"#utility.yul\":3275:3347   */\n      tag_97\n        /* \"#utility.yul\":3343:3345   */\n      0x60\n        /* \"#utility.yul\":3332:3341   */\n      dup4\n        /* \"#utility.yul\":3328:3346   */\n      add\n        /* \"#utility.yul\":3319:3325   */\n      dup5\n        /* \"#utility.yul\":3275:3347   */\n      tag_89\n      jump\t// in\n    tag_97:\n        /* \"#utility.yul\":2710:3354   */\n      swap6\n      swap5\n      pop\n      pop\n      pop\n      pop\n      pop\n      jump\t// out\n        /* \"#utility.yul\":3360:3489   */\n    tag_48:\n        /* \"#utility.yul\":3394:3400   */\n      0x00\n        /* \"#utility.yul\":3421:3441   */\n      tag_99\n      tag_100\n      jump\t// in\n    tag_99:\n        /* \"#utility.yul\":3411:3441   */\n      swap1\n      pop\n        /* \"#utility.yul\":3450:3483   */\n      tag_101\n        /* \"#utility.yul\":3478:3482   */\n      dup3\n        /* \"#utility.yul\":3470:3476   */\n      dup3\n        /* \"#utility.yul\":3450:3483   */\n      tag_102\n      jump\t// in\n    tag_101:\n        /* \"#utility.yul\":3360:3489   */\n      swap2\n      swap1\n      pop\n      jump\t// out\n        /* \"#utility.yul\":3495:3570   */\n    tag_100:\n        /* \"#utility.yul\":3528:3534   */\n      0x00\n        /* \"#utility.yul\":3561:3563   */\n      0x40\n        /* \"#utility.yul\":3555:3564   */\n      mload\n        /* \"#utility.yul\":3545:3564   */\n      swap1\n      pop\n        /* \"#utility.yul\":3495:3570   */\n      swap1\n      jump\t// out\n        /* \"#utility.yul\":3576:3884   */\n    tag_47:\n        /* \"#utility.yul\":3638:3642   */\n      0x00\n        /* \"#utility.yul\":3728:3746   */\n      0xffffffffffffffff\n        /* \"#utility.yul\":3720:3726   */\n      dup3\n        /* \"#utility.yul\":3717:3747   */\n      gt\n        /* \"#utility.yul\":3714:3770   */\n      iszero\n      tag_105\n      jumpi\n        /* \"#utility.yul\":3750:3768   */\n      tag_106\n      tag_107\n      jump\t// in\n    tag_106:\n        /* \"#utility.yul\":3714:3770   */\n    tag_105:\n        /* \"#utility.yul\":3788:3817   */\n      tag_108\n        /* \"#utility.yul\":3810:3816   */\n      dup3\n        /* \"#utility.yul\":3788:3817   */\n      tag_88\n      jump\t// in\n    tag_108:\n        /* \"#utility.yul\":3780:3817   */\n      swap1\n      pop\n        /* \"#utility.yul\":3872:3876   */\n      0x20\n        /* \"#utility.yul\":3866:3870   */\n      dup2\n        /* \"#utility.yul\":3862:3877   */\n      add\n        /* \"#utility.yul\":3854:3877   */\n      swap1\n      pop\n        /* \"#utility.yul\":3576:3884   */\n      swap2\n      swap1\n      pop\n      jump\t// out\n        /* \"#utility.yul\":3890:3989   */\n    tag_82:\n        /* \"#utility.yul\":3942:3948   */\n      0x00\n        /* \"#utility.yul\":3976:3981   */\n      dup2\n        /* \"#utility.yul\":3970:3982   */\n      mload\n        /* \"#utility.yul\":3960:3982   */\n      swap1\n      pop\n        /* \"#utility.yul\":3890:3989   */\n      swap2\n      swap1\n      pop\n      jump\t// out\n        /* \"#utility.yul\":3995:4164   */\n    tag_84:\n        /* \"#utility.yul\":4079:4090   */\n      0x00\n        /* \"#utility.yul\":4113:4119   */\n      dup3\n        /* \"#utility.yul\":4108:4111   */\n      dup3\n        /* \"#utility.yul\":4101:4120   */\n      mstore\n        /* \"#utility.yul\":4153:4157   */\n      0x20\n        /* \"#utility.yul\":4148:4151   */\n      dup3\n        /* \"#utility.yul\":4144:4158   */\n      add\n        /* \"#utility.yul\":4129:4158   */\n      swap1\n      pop\n        /* \"#utility.yul\":3995:4164   */\n      swap3\n      swap2\n      pop\n      pop\n      jump\t// out\n        /* \"#utility.yul\":4170:4247   */\n    tag_92:\n        /* \"#utility.yul\":4207:4214   */\n      0x00\n        /* \"#utility.yul\":4236:4241   */\n      dup2\n        /* \"#utility.yul\":4225:4241   */\n      swap1\n      pop\n        /* \"#utility.yul\":4170:4247   */\n      swap2\n      swap1\n      pop\n      jump\t// out\n        /* \"#utility.yul\":4253:4407   */\n    tag_53:\n        /* \"#utility.yul\":4337:4343   */\n      dup3\n        /* \"#utility.yul\":4332:4335   */\n      dup2\n        /* \"#utility.yul\":4327:4330   */\n      dup4\n        /* \"#utility.yul\":4314:4344   */\n      calldatacopy\n        /* \"#utility.yul\":4399:4400   */\n      0x00\n        /* \"#utility.yul\":4390:4396   */\n      dup4\n        /* \"#utility.yul\":4385:4388   */\n      dup4\n        /* \"#utility.yul\":4381:4397   */\n      add\n        /* \"#utility.yul\":4374:4401   */\n      mstore\n        /* \"#utility.yul\":4253:4407   */\n      pop\n      pop\n      pop\n      jump\t// out\n        /* \"#utility.yul\":4413:4720   */\n    tag_86:\n        /* \"#utility.yul\":4481:4482   */\n      0x00\n        /* \"#utility.yul\":4491:4604   */\n    tag_114:\n        /* \"#utility.yul\":4505:4511   */\n      dup4\n        /* \"#utility.yul\":4502:4503   */\n      dup2\n        /* \"#utility.yul\":4499:4512   */\n      lt\n        /* \"#utility.yul\":4491:4604   */\n      iszero\n      tag_116\n      jumpi\n        /* \"#utility.yul\":4590:4591   */\n      dup1\n        /* \"#utility.yul\":4585:4588   */\n      dup3\n        /* \"#utility.yul\":4581:4592   */\n      add\n        /* \"#utility.yul\":4575:4593   */\n      mload\n        /* \"#utility.yul\":4571:4572   */\n      dup2\n        /* \"#utility.yul\":4566:4569   */\n      dup5\n        /* \"#utility.yul\":4562:4573   */\n      add\n        /* \"#utility.yul\":4555:4594   */\n      mstore\n        /* \"#utility.yul\":4527:4529   */\n      0x20\n        /* \"#utility.yul\":4524:4525   */\n      dup2\n        /* \"#utility.yul\":4520:4530   */\n      add\n        /* \"#utility.yul\":4515:4530   */\n      swap1\n      pop\n        /* \"#utility.yul\":4491:4604   */\n      jump(tag_114)\n    tag_116:\n        /* \"#utility.yul\":4622:4628   */\n      dup4\n        /* \"#utility.yul\":4619:4620   */\n      dup2\n        /* \"#utility.yul\":4616:4629   */\n      gt\n        /* \"#utility.yul\":4613:4714   */\n      iszero\n      tag_117\n      jumpi\n        /* \"#utility.yul\":4702:4703   */\n      0x00\n        /* \"#utility.yul\":4693:4699   */\n      dup5\n        /* \"#utility.yul\":4688:4691   */\n      dup5\n        /* \"#utility.yul\":4684:4700   */\n      add\n        /* \"#utility.yul\":4677:4704   */\n      mstore\n        /* \"#utility.yul\":4613:4714   */\n    tag_117:\n        /* \"#utility.yul\":4462:4720   */\n      pop\n        /* \"#utility.yul\":4413:4720   */\n      pop\n      pop\n      pop\n      jump\t// out\n        /* \"#utility.yul\":4726:5046   */\n    tag_21:\n        /* \"#utility.yul\":4770:4776   */\n      0x00\n        /* \"#utility.yul\":4807:4808   */\n      0x02\n        /* \"#utility.yul\":4801:4805   */\n      dup3\n        /* \"#utility.yul\":4797:4809   */\n      div\n        /* \"#utility.yul\":4787:4809   */\n      swap1\n      pop\n        /* \"#utility.yul\":4854:4855   */\n      0x01\n        /* \"#utility.yul\":4848:4852   */\n      dup3\n        /* \"#utility.yul\":4844:4856   */\n      and\n        /* \"#utility.yul\":4875:4893   */\n      dup1\n        /* \"#utility.yul\":4865:4946   */\n      tag_119\n      jumpi\n        /* \"#utility.yul\":4931:4935   */\n      0x7f\n        /* \"#utility.yul\":4923:4929   */\n      dup3\n        /* \"#utility.yul\":4919:4936   */\n      and\n        /* \"#utility.yul\":4909:4936   */\n      swap2\n      pop\n        /* \"#utility.yul\":4865:4946   */\n    tag_119:\n        /* \"#utility.yul\":4993:4995   */\n      0x20\n        /* \"#utility.yul\":4985:4991   */\n      dup3\n        /* \"#utility.yul\":4982:4996   */\n      lt\n        /* \"#utility.yul\":4962:4980   */\n      dup2\n        /* \"#utility.yul\":4959:4997   */\n      eq\n        /* \"#utility.yul\":4956:5040   */\n      iszero\n      tag_120\n      jumpi\n        /* \"#utility.yul\":5012:5030   */\n      tag_121\n      tag_122\n      jump\t// in\n    tag_121:\n        /* \"#utility.yul\":4956:5040   */\n    tag_120:\n        /* \"#utility.yul\":4777:5046   */\n      pop\n        /* \"#utility.yul\":4726:5046   */\n      swap2\n      swap1\n      pop\n      jump\t// out\n        /* \"#utility.yul\":5052:5333   */\n    tag_102:\n        /* \"#utility.yul\":5135:5162   */\n      tag_124\n        /* \"#utility.yul\":5157:5161   */\n      dup3\n        /* \"#utility.yul\":5135:5162   */\n      tag_88\n      jump\t// in\n    tag_124:\n        /* \"#utility.yul\":5127:5133   */\n      dup2\n        /* \"#utility.yul\":5123:5163   */\n      add\n        /* \"#utility.yul\":5265:5271   */\n      dup2\n        /* \"#utility.yul\":5253:5263   */\n      dup2\n        /* \"#utility.yul\":5250:5272   */\n      lt\n        /* \"#utility.yul\":5229:5247   */\n      0xffffffffffffffff\n        /* \"#utility.yul\":5217:5227   */\n      dup3\n        /* \"#utility.yul\":5214:5248   */\n      gt\n        /* \"#utility.yul\":5211:5273   */\n      or\n        /* \"#utility.yul\":5208:5296   */\n      iszero\n      tag_125\n      jumpi\n        /* \"#utility.yul\":5276:5294   */\n      tag_126\n      tag_107\n      jump\t// in\n    tag_126:\n        /* \"#utility.yul\":5208:5296   */\n    tag_125:\n        /* \"#utility.yul\":5316:5326   */\n      dup1\n        /* \"#utility.yul\":5312:5314   */\n      0x40\n        /* \"#utility.yul\":5305:5327   */\n      mstore\n        /* \"#utility.yul\":5095:5333   */\n      pop\n        /* \"#utility.yul\":5052:5333   */\n      pop\n      pop\n      jump\t// out\n        /* \"#utility.yul\":5339:5519   */\n    tag_122:\n        /* \"#utility.yul\":5387:5464   */\n      0x4e487b7100000000000000000000000000000000000000000000000000000000\n        /* \"#utility.yul\":5384:5385   */\n      0x00\n        /* \"#utility.yul\":5377:5465   */\n      mstore\n        /* \"#utility.yul\":5484:5488   */\n      0x22\n        /* \"#utility.yul\":5481:5482   */\n      0x04\n        /* \"#utility.yul\":5474:5489   */\n      mstore\n        /* \"#utility.yul\":5508:5512   */\n      0x24\n        /* \"#utility.yul\":5505:5506   */\n      0x00\n        /* \"#utility.yul\":5498:5513   */\n      revert\n        /* \"#utility.yul\":5525:5705   */\n    tag_18:\n        /* \"#utility.yul\":5573:5650   */\n      0x4e487b7100000000000000000000000000000000000000000000000000000000\n        /* \"#utility.yul\":5570:5571   */\n      0x00\n        /* \"#utility.yul\":5563:5651   */\n      mstore\n        /* \"#utility.yul\":5670:5674   */\n      0x32\n        /* \"#utility.yul\":5667:5668   */\n      0x04\n        /* \"#utility.yul\":5660:5675   */\n      mstore\n        /* \"#utility.yul\":5694:5698   */\n      0x24\n        /* \"#utility.yul\":5691:5692   */\n      0x00\n        /* \"#utility.yul\":5684:5699   */\n      revert\n        /* \"#utility.yul\":5711:5891   */\n    tag_107:\n        /* \"#utility.yul\":5759:5836   */\n      0x4e487b7100000000000000000000000000000000000000000000000000000000\n        /* \"#utility.yul\":5756:5757   */\n      0x00\n        /* \"#utility.yul\":5749:5837   */\n      mstore\n        /* \"#utility.yul\":5856:5860   */\n      0x41\n        /* \"#utility.yul\":5853:5854   */\n      0x04\n        /* \"#utility.yul\":5846:5861   */\n      mstore\n        /* \"#utility.yul\":5880:5884   */\n      0x24\n        /* \"#utility.yul\":5877:5878   */\n      0x00\n        /* \"#utility.yul\":5870:5885   */\n      revert\n        /* \"#utility.yul\":5897:6014   */\n    tag_58:\n        /* \"#utility.yul\":6006:6007   */\n      0x00\n        /* \"#utility.yul\":6003:6004   */\n      dup1\n        /* \"#utility.yul\":5996:6008   */\n      revert\n        /* \"#utility.yul\":6020:6137   */\n    tag_51:\n        /* \"#utility.yul\":6129:6130   */\n      0x00\n        /* \"#utility.yul\":6126:6127   */\n      dup1\n        /* \"#utility.yul\":6119:6131   */\n      revert\n        /* \"#utility.yul\":6143:6260   */\n    tag_70:\n        /* \"#utility.yul\":6252:6253   */\n      0x00\n        /* \"#utility.yul\":6249:6250   */\n      dup1\n        /* \"#utility.yul\":6242:6254   */\n      revert\n        /* \"#utility.yul\":6266:6383   */\n    tag_67:\n        /* \"#utility.yul\":6375:6376   */\n      0x00\n        /* \"#utility.yul\":6372:6373   */\n      dup1\n        /* \"#utility.yul\":6365:6377   */\n      revert\n        /* \"#utility.yul\":6389:6491   */\n    tag_88:\n        /* \"#utility.yul\":6430:6436   */\n      0x00\n        /* \"#utility.yul\":6481:6483   */\n      0x1f\n        /* \"#utility.yul\":6477:6484   */\n      not\n        /* \"#utility.yul\":6472:6474   */\n      0x1f\n        /* \"#utility.yul\":6465:6470   */\n      dup4\n        /* \"#utility.yul\":6461:6475   */\n      add\n        /* \"#utility.yul\":6457:6485   */\n      and\n        /* \"#utility.yul\":6447:6485   */\n      swap1\n      pop\n        /* \"#utility.yul\":6389:6491   */\n      swap2\n      swap1\n      pop\n      jump\t// out\n        /* \"#utility.yul\":6497:6619   */\n    tag_63:\n        /* \"#utility.yul\":6570:6594   */\n      tag_136\n        /* \"#utility.yul\":6588:6593   */\n      dup2\n        /* \"#utility.yul\":6570:6594   */\n      tag_92\n      jump\t// in\n    tag_136:\n        /* \"#utility.yul\":6563:6568   */\n      dup2\n        /* \"#utility.yul\":6560:6595   */\n      eq\n        /* \"#utility.yul\":6550:6613   */\n      tag_137\n      jumpi\n        /* \"#utility.yul\":6609:6610   */\n      0x00\n        /* \"#utility.yul\":6606:6607   */\n      dup1\n        /* \"#utility.yul\":6599:6611   */\n      revert\n        /* \"#utility.yul\":6550:6613   */\n    tag_137:\n        /* \"#utility.yul\":6497:6619   */\n      pop\n      jump\t// out\n\n    auxdata: 0xa26469706673582212208cefd4e89a23e3d651494a9435e564df967d7e8d7cb0ccbd0343248cf852e27664736f6c63430008070033\n}\n",
				"bytecode": {
					"linkReferences": {},
					"object": "608060405234801561001057600080fd5b506106e8806100206000396000f3fe608060405234801561001057600080fd5b50600436106100365760003560e01c806307d5115d1461003b578063544378bb1461006e575b600080fd5b61005560048036038101906100509190610407565b61008a565b604051610065949392919061047c565b60405180910390f35b61008860048036038101906100839190610384565b610195565b005b6060600080600080600086815481106100a6576100a5610618565b5b90600052602060002090600402016040518060800160405290816000820180546100cf90610586565b80601f01602080910402602001604051908101604052809291908181526020018280546100fb90610586565b80156101485780601f1061011d57610100808354040283529160200191610148565b820191906000526020600020905b81548152906001019060200180831161012b57829003601f168201915b505050505081526020016001820154815260200160028201548152602001600382015481525050905080600001518160200151826040015183606001519450945094509450509193509193565b61019d610234565b8481600001819052508381602001818152505082816040018181525050818160600181815250506000819080600181540180825580915050600190039060005260206000209060040201600090919091909150600082015181600001908051906020019061020c92919061025c565b5060208201518160010155604082015181600201556060820151816003015550505050505050565b6040518060800160405280606081526020016000815260200160008152602001600081525090565b82805461026890610586565b90600052602060002090601f01602090048101928261028a57600085556102d1565b82601f106102a357805160ff19168380011785556102d1565b828001600101855582156102d1579182015b828111156102d05782518255916020019190600101906102b5565b5b5090506102de91906102e2565b5090565b5b808211156102fb5760008160009055506001016102e3565b5090565b600061031261030d846104ed565b6104c8565b90508281526020810184848401111561032e5761032d61067b565b5b610339848285610544565b509392505050565b600082601f83011261035657610355610676565b5b81356103668482602086016102ff565b91505092915050565b60008135905061037e8161069b565b92915050565b6000806000806080858703121561039e5761039d610685565b5b600085013567ffffffffffffffff8111156103bc576103bb610680565b5b6103c887828801610341565b94505060206103d98782880161036f565b93505060406103ea8782880161036f565b92505060606103fb8782880161036f565b91505092959194509250565b60006020828403121561041d5761041c610685565b5b600061042b8482850161036f565b91505092915050565b600061043f8261051e565b6104498185610529565b9350610459818560208601610553565b6104628161068a565b840191505092915050565b6104768161053a565b82525050565b600060808201905081810360008301526104968187610434565b90506104a5602083018661046d565b6104b2604083018561046d565b6104bf606083018461046d565b95945050505050565b60006104d26104e3565b90506104de82826105b8565b919050565b6000604051905090565b600067ffffffffffffffff82111561050857610507610647565b5b6105118261068a565b9050602081019050919050565b600081519050919050565b600082825260208201905092915050565b6000819050919050565b82818337600083830152505050565b60005b83811015610571578082015181840152602081019050610556565b83811115610580576000848401525b50505050565b6000600282049050600182168061059e57607f821691505b602082108114156105b2576105b16105e9565b5b50919050565b6105c18261068a565b810181811067ffffffffffffffff821117156105e0576105df610647565b5b80604052505050565b7f4e487b7100000000000000000000000000000000000000000000000000000000600052602260045260246000fd5b7f4e487b7100000000000000000000000000000000000000000000000000000000600052603260045260246000fd5b7f4e487b7100000000000000000000000000000000000000000000000000000000600052604160045260246000fd5b600080fd5b600080fd5b600080fd5b600080fd5b6000601f19601f8301169050919050565b6106a48161053a565b81146106af57600080fd5b5056fea26469706673582212208cefd4e89a23e3d651494a9435e564df967d7e8d7cb0ccbd0343248cf852e27664736f6c63430008070033",
					"opcodes": "PUSH1 0x80 PUSH1 0x40 MSTORE CALLVALUE DUP1 ISZERO PUSH2 0x10 JUMPI PUSH1 0x0 DUP1 REVERT JUMPDEST POP PUSH2 0x6E8 DUP1 PUSH2 0x20 PUSH1 0x0 CODECOPY PUSH1 0x0 RETURN INVALID PUSH1 0x80 PUSH1 0x40 MSTORE CALLVALUE DUP1 ISZERO PUSH2 0x10 JUMPI PUSH1 0x0 DUP1 REVERT JUMPDEST POP PUSH1 0x4 CALLDATASIZE LT PUSH2 0x36 JUMPI PUSH1 0x0 CALLDATALOAD PUSH1 0xE0 SHR DUP1 PUSH4 0x7D5115D EQ PUSH2 0x3B JUMPI DUP1 PUSH4 0x544378BB EQ PUSH2 0x6E JUMPI JUMPDEST PUSH1 0x0 DUP1 REVERT JUMPDEST PUSH2 0x55 PUSH1 0x4 DUP1 CALLDATASIZE SUB DUP2 ADD SWAP1 PUSH2 0x50 SWAP2 SWAP1 PUSH2 0x407 JUMP JUMPDEST PUSH2 0x8A JUMP JUMPDEST PUSH1 0x40 MLOAD PUSH2 0x65 SWAP5 SWAP4 SWAP3 SWAP2 SWAP1 PUSH2 0x47C JUMP JUMPDEST PUSH1 0x40 MLOAD DUP1 SWAP2 SUB SWAP1 RETURN JUMPDEST PUSH2 0x88 PUSH1 0x4 DUP1 CALLDATASIZE SUB DUP2 ADD SWAP1 PUSH2 0x83 SWAP2 SWAP1 PUSH2 0x384 JUMP JUMPDEST PUSH2 0x195 JUMP JUMPDEST STOP JUMPDEST PUSH1 0x60 PUSH1 0x0 DUP1 PUSH1 0x0 DUP1 PUSH1 0x0 DUP7 DUP2 SLOAD DUP2 LT PUSH2 0xA6 JUMPI PUSH2 0xA5 PUSH2 0x618 JUMP JUMPDEST JUMPDEST SWAP1 PUSH1 0x0 MSTORE PUSH1 0x20 PUSH1 0x0 KECCAK256 SWAP1 PUSH1 0x4 MUL ADD PUSH1 0x40 MLOAD DUP1 PUSH1 0x80 ADD PUSH1 0x40 MSTORE SWAP1 DUP2 PUSH1 0x0 DUP3 ADD DUP1 SLOAD PUSH2 0xCF SWAP1 PUSH2 0x586 JUMP JUMPDEST DUP1 PUSH1 0x1F ADD PUSH1 0x20 DUP1 SWAP2 DIV MUL PUSH1 0x20 ADD PUSH1 0x40 MLOAD SWAP1 DUP2 ADD PUSH1 0x40 MSTORE DUP1 SWAP3 SWAP2 SWAP1 DUP2 DUP2 MSTORE PUSH1 0x20 ADD DUP3 DUP1 SLOAD PUSH2 0xFB SWAP1 PUSH2 0x586 JUMP JUMPDEST DUP1 ISZERO PUSH2 0x148 JUMPI DUP1 PUSH1 0x1F LT PUSH2 0x11D JUMPI PUSH2 0x100 DUP1 DUP4 SLOAD DIV MUL DUP4 MSTORE SWAP2 PUSH1 0x20 ADD SWAP2 PUSH2 0x148 JUMP JUMPDEST DUP3 ADD SWAP2 SWAP1 PUSH1 0x0 MSTORE PUSH1 0x20 PUSH1 0x0 KECCAK256 SWAP1 JUMPDEST DUP2 SLOAD DUP2 MSTORE SWAP1 PUSH1 0x1 ADD SWAP1 PUSH1 0x20 ADD DUP1 DUP4 GT PUSH2 0x12B JUMPI DUP3 SWAP1 SUB PUSH1 0x1F AND DUP3 ADD SWAP2 JUMPDEST POP POP POP POP POP DUP2 MSTORE PUSH1 0x20 ADD PUSH1 0x1 DUP3 ADD SLOAD DUP2 MSTORE PUSH1 0x20 ADD PUSH1 0x2 DUP3 ADD SLOAD DUP2 MSTORE PUSH1 0x20 ADD PUSH1 0x3 DUP3 ADD SLOAD DUP2 MSTORE POP POP SWAP1 POP DUP1 PUSH1 0x0 ADD MLOAD DUP2 PUSH1 0x20 ADD MLOAD DUP3 PUSH1 0x40 ADD MLOAD DUP4 PUSH1 0x60 ADD MLOAD SWAP5 POP SWAP5 POP SWAP5 POP SWAP5 POP POP SWAP2 SWAP4 POP SWAP2 SWAP4 JUMP JUMPDEST PUSH2 0x19D PUSH2 0x234 JUMP JUMPDEST DUP5 DUP2 PUSH1 0x0 ADD DUP2 SWAP1 MSTORE POP DUP4 DUP2 PUSH1 0x20 ADD DUP2 DUP2 MSTORE POP POP DUP3 DUP2 PUSH1 0x40 ADD DUP2 DUP2 MSTORE POP POP DUP2 DUP2 PUSH1 0x60 ADD DUP2 DUP2 MSTORE POP POP PUSH1 0x0 DUP2 SWAP1 DUP1 PUSH1 0x1 DUP2 SLOAD ADD DUP1 DUP3 SSTORE DUP1 SWAP2 POP POP PUSH1 0x1 SWAP1 SUB SWAP1 PUSH1 0x0 MSTORE PUSH1 0x20 PUSH1 0x0 KECCAK256 SWAP1 PUSH1 0x4 MUL ADD PUSH1 0x0 SWAP1 SWAP2 SWAP1 SWAP2 SWAP1 SWAP2 POP PUSH1 0x0 DUP3 ADD MLOAD DUP2 PUSH1 0x0 ADD SWAP1 DUP1 MLOAD SWAP1 PUSH1 0x20 ADD SWAP1 PUSH2 0x20C SWAP3 SWAP2 SWAP1 PUSH2 0x25C JUMP JUMPDEST POP PUSH1 0x20 DUP3 ADD MLOAD DUP2 PUSH1 0x1 ADD SSTORE PUSH1 0x40 DUP3 ADD MLOAD DUP2 PUSH1 0x2 ADD SSTORE PUSH1 0x60 DUP3 ADD MLOAD DUP2 PUSH1 0x3 ADD SSTORE POP POP POP POP POP POP POP JUMP JUMPDEST PUSH1 0x40 MLOAD DUP1 PUSH1 0x80 ADD PUSH1 0x40 MSTORE DUP1 PUSH1 0x60 DUP2 MSTORE PUSH1 0x20 ADD PUSH1 0x0 DUP2 MSTORE PUSH1 0x20 ADD PUSH1 0x0 DUP2 MSTORE PUSH1 0x20 ADD PUSH1 0x0 DUP2 MSTORE POP SWAP1 JUMP JUMPDEST DUP3 DUP1 SLOAD PUSH2 0x268 SWAP1 PUSH2 0x586 JUMP JUMPDEST SWAP1 PUSH1 0x0 MSTORE PUSH1 0x20 PUSH1 0x0 KECCAK256 SWAP1 PUSH1 0x1F ADD PUSH1 0x20 SWAP1 DIV DUP2 ADD SWAP3 DUP3 PUSH2 0x28A JUMPI PUSH1 0x0 DUP6 SSTORE PUSH2 0x2D1 JUMP JUMPDEST DUP3 PUSH1 0x1F LT PUSH2 0x2A3 JUMPI DUP1 MLOAD PUSH1 0xFF NOT AND DUP4 DUP1 ADD OR DUP6 SSTORE PUSH2 0x2D1 JUMP JUMPDEST DUP3 DUP1 ADD PUSH1 0x1 ADD DUP6 SSTORE DUP3 ISZERO PUSH2 0x2D1 JUMPI SWAP2 DUP3 ADD JUMPDEST DUP3 DUP2 GT ISZERO PUSH2 0x2D0 JUMPI DUP3 MLOAD DUP3 SSTORE SWAP2 PUSH1 0x20 ADD SWAP2 SWAP1 PUSH1 0x1 ADD SWAP1 PUSH2 0x2B5 JUMP JUMPDEST JUMPDEST POP SWAP1 POP PUSH2 0x2DE SWAP2 SWAP1 PUSH2 0x2E2 JUMP JUMPDEST POP SWAP1 JUMP JUMPDEST JUMPDEST DUP1 DUP3 GT ISZERO PUSH2 0x2FB JUMPI PUSH1 0x0 DUP2 PUSH1 0x0 SWAP1 SSTORE POP PUSH1 0x1 ADD PUSH2 0x2E3 JUMP JUMPDEST POP SWAP1 JUMP JUMPDEST PUSH1 0x0 PUSH2 0x312 PUSH2 0x30D DUP5 PUSH2 0x4ED JUMP JUMPDEST PUSH2 0x4C8 JUMP JUMPDEST SWAP1 POP DUP3 DUP2 MSTORE PUSH1 0x20 DUP2 ADD DUP5 DUP5 DUP5 ADD GT ISZERO PUSH2 0x32E JUMPI PUSH2 0x32D PUSH2 0x67B JUMP JUMPDEST JUMPDEST PUSH2 0x339 DUP5 DUP3 DUP6 PUSH2 0x544 JUMP JUMPDEST POP SWAP4 SWAP3 POP POP POP JUMP JUMPDEST PUSH1 0x0 DUP3 PUSH1 0x1F DUP4 ADD SLT PUSH2 0x356 JUMPI PUSH2 0x355 PUSH2 0x676 JUMP JUMPDEST JUMPDEST DUP2 CALLDATALOAD PUSH2 0x366 DUP5 DUP3 PUSH1 0x20 DUP7 ADD PUSH2 0x2FF JUMP JUMPDEST SWAP2 POP POP SWAP3 SWAP2 POP POP JUMP JUMPDEST PUSH1 0x0 DUP2 CALLDATALOAD SWAP1 POP PUSH2 0x37E DUP2 PUSH2 0x69B JUMP JUMPDEST SWAP3 SWAP2 POP POP JUMP JUMPDEST PUSH1 0x0 DUP1 PUSH1 0x0 DUP1 PUSH1 0x80 DUP6 DUP8 SUB SLT ISZERO PUSH2 0x39E JUMPI PUSH2 0x39D PUSH2 0x685 JUMP JUMPDEST JUMPDEST PUSH1 0x0 DUP6 ADD CALLDATALOAD PUSH8 0xFFFFFFFFFFFFFFFF DUP2 GT ISZERO PUSH2 0x3BC JUMPI PUSH2 0x3BB PUSH2 0x680 JUMP JUMPDEST JUMPDEST PUSH2 0x3C8 DUP8 DUP3 DUP9 ADD PUSH2 0x341 JUMP JUMPDEST SWAP5 POP POP PUSH1 0x20 PUSH2 0x3D9 DUP8 DUP3 DUP9 ADD PUSH2 0x36F JUMP JUMPDEST SWAP4 POP POP PUSH1 0x40 PUSH2 0x3EA DUP8 DUP3 DUP9 ADD PUSH2 0x36F JUMP JUMPDEST SWAP3 POP POP PUSH1 0x60 PUSH2 0x3FB DUP8 DUP3 DUP9 ADD PUSH2 0x36F JUMP JUMPDEST SWAP2 POP POP SWAP3 SWAP6 SWAP2 SWAP5 POP SWAP3 POP JUMP JUMPDEST PUSH1 0x0 PUSH1 0x20 DUP3 DUP5 SUB SLT ISZERO PUSH2 0x41D JUMPI PUSH2 0x41C PUSH2 0x685 JUMP JUMPDEST JUMPDEST PUSH1 0x0 PUSH2 0x42B DUP5 DUP3 DUP6 ADD PUSH2 0x36F JUMP JUMPDEST SWAP2 POP POP SWAP3 SWAP2 POP POP JUMP JUMPDEST PUSH1 0x0 PUSH2 0x43F DUP3 PUSH2 0x51E JUMP JUMPDEST PUSH2 0x449 DUP2 DUP6 PUSH2 0x529 JUMP JUMPDEST SWAP4 POP PUSH2 0x459 DUP2 DUP6 PUSH1 0x20 DUP7 ADD PUSH2 0x553 JUMP JUMPDEST PUSH2 0x462 DUP2 PUSH2 0x68A JUMP JUMPDEST DUP5 ADD SWAP2 POP POP SWAP3 SWAP2 POP POP JUMP JUMPDEST PUSH2 0x476 DUP2 PUSH2 0x53A JUMP JUMPDEST DUP3 MSTORE POP POP JUMP JUMPDEST PUSH1 0x0 PUSH1 0x80 DUP3 ADD SWAP1 POP DUP2 DUP2 SUB PUSH1 0x0 DUP4 ADD MSTORE PUSH2 0x496 DUP2 DUP8 PUSH2 0x434 JUMP JUMPDEST SWAP1 POP PUSH2 0x4A5 PUSH1 0x20 DUP4 ADD DUP7 PUSH2 0x46D JUMP JUMPDEST PUSH2 0x4B2 PUSH1 0x40 DUP4 ADD DUP6 PUSH2 0x46D JUMP JUMPDEST PUSH2 0x4BF PUSH1 0x60 DUP4 ADD DUP5 PUSH2 0x46D JUMP JUMPDEST SWAP6 SWAP5 POP POP POP POP POP JUMP JUMPDEST PUSH1 0x0 PUSH2 0x4D2 PUSH2 0x4E3 JUMP JUMPDEST SWAP1 POP PUSH2 0x4DE DUP3 DUP3 PUSH2 0x5B8 JUMP JUMPDEST SWAP2 SWAP1 POP JUMP JUMPDEST PUSH1 0x0 PUSH1 0x40 MLOAD SWAP1 POP SWAP1 JUMP JUMPDEST PUSH1 0x0 PUSH8 0xFFFFFFFFFFFFFFFF DUP3 GT ISZERO PUSH2 0x508 JUMPI PUSH2 0x507 PUSH2 0x647 JUMP JUMPDEST JUMPDEST PUSH2 0x511 DUP3 PUSH2 0x68A JUMP JUMPDEST SWAP1 POP PUSH1 0x20 DUP2 ADD SWAP1 POP SWAP2 SWAP1 POP JUMP JUMPDEST PUSH1 0x0 DUP2 MLOAD SWAP1 POP SWAP2 SWAP1 POP JUMP JUMPDEST PUSH1 0x0 DUP3 DUP3 MSTORE PUSH1 0x20 DUP3 ADD SWAP1 POP SWAP3 SWAP2 POP POP JUMP JUMPDEST PUSH1 0x0 DUP2 SWAP1 POP SWAP2 SWAP1 POP JUMP JUMPDEST DUP3 DUP2 DUP4 CALLDATACOPY PUSH1 0x0 DUP4 DUP4 ADD MSTORE POP POP POP JUMP JUMPDEST PUSH1 0x0 JUMPDEST DUP4 DUP2 LT ISZERO PUSH2 0x571 JUMPI DUP1 DUP3 ADD MLOAD DUP2 DUP5 ADD MSTORE PUSH1 0x20 DUP2 ADD SWAP1 POP PUSH2 0x556 JUMP JUMPDEST DUP4 DUP2 GT ISZERO PUSH2 0x580 JUMPI PUSH1 0x0 DUP5 DUP5 ADD MSTORE JUMPDEST POP POP POP POP JUMP JUMPDEST PUSH1 0x0 PUSH1 0x2 DUP3 DIV SWAP1 POP PUSH1 0x1 DUP3 AND DUP1 PUSH2 0x59E JUMPI PUSH1 0x7F DUP3 AND SWAP2 POP JUMPDEST PUSH1 0x20 DUP3 LT DUP2 EQ ISZERO PUSH2 0x5B2 JUMPI PUSH2 0x5B1 PUSH2 0x5E9 JUMP JUMPDEST JUMPDEST POP SWAP2 SWAP1 POP JUMP JUMPDEST PUSH2 0x5C1 DUP3 PUSH2 0x68A JUMP JUMPDEST DUP2 ADD DUP2 DUP2 LT PUSH8 0xFFFFFFFFFFFFFFFF DUP3 GT OR ISZERO PUSH2 0x5E0 JUMPI PUSH2 0x5DF PUSH2 0x647 JUMP JUMPDEST JUMPDEST DUP1 PUSH1 0x40 MSTORE POP POP POP JUMP JUMPDEST PUSH32 0x4E487B7100000000000000000000000000000000000000000000000000000000 PUSH1 0x0 MSTORE PUSH1 0x22 PUSH1 0x4 MSTORE PUSH1 0x24 PUSH1 0x0 REVERT JUMPDEST PUSH32 0x4E487B7100000000000000000000000000000000000000000000000000000000 PUSH1 0x0 MSTORE PUSH1 0x32 PUSH1 0x4 MSTORE PUSH1 0x24 PUSH1 0x0 REVERT JUMPDEST PUSH32 0x4E487B7100000000000000000000000000000000000000000000000000000000 PUSH1 0x0 MSTORE PUSH1 0x41 PUSH1 0x4 MSTORE PUSH1 0x24 PUSH1 0x0 REVERT JUMPDEST PUSH1 0x0 DUP1 REVERT JUMPDEST PUSH1 0x0 DUP1 REVERT JUMPDEST PUSH1 0x0 DUP1 REVERT JUMPDEST PUSH1 0x0 DUP1 REVERT JUMPDEST PUSH1 0x0 PUSH1 0x1F NOT PUSH1 0x1F DUP4 ADD AND SWAP1 POP SWAP2 SWAP1 POP JUMP JUMPDEST PUSH2 0x6A4 DUP2 PUSH2 0x53A JUMP JUMPDEST DUP2 EQ PUSH2 0x6AF JUMPI PUSH1 0x0 DUP1 REVERT JUMPDEST POP JUMP INVALID LOG2 PUSH5 0x6970667358 0x22 SLT KECCAK256 DUP13 0xEF 0xD4 0xE8 SWAP11 0x23 0xE3 0xD6 MLOAD 0x49 0x4A SWAP5 CALLDATALOAD 0xE5 PUSH5 0xDF967D7E8D PUSH29 0xB0CCBD0343248CF852E27664736F6C6343000807003300000000000000 "
				},
				"gasEstimates": {
					"creation": {
						"codeDepositCost": "353600",
						"executionCost": "393",
						"totalCost": "353993"
					},
					"external": {
						"ConsultaPessoa(uint256)": "infinite",
						"CriarPessoa(string,uint256,uint256,uint256)": "infinite"
					}
				},
				"methodIdentifiers": {
					"ConsultaPessoa(uint256)": "07d5115d",
					"CriarPessoa(string,uint256,uint256,uint256)": "544378bb"
				}
			},
			"storageLayout": {
				"storage": [
					{
						"astId": 14,
						"contract": "contracts/Blockoffice.sol:Blockoffice",
						"label": "pessoas",
						"offset": 0,
						"slot": "0",
						"type": "t_array(t_struct(Pessoa)10_storage)dyn_storage"
					}
				],
				"types": {
					"t_array(t_struct(Pessoa)10_storage)dyn_storage": {
						"base": "t_struct(Pessoa)10_storage",
						"encoding": "dynamic_array",
						"label": "struct Blockoffice.Pessoa[]",
						"numberOfBytes": "32"
					},
					"t_string_storage": {
						"encoding": "bytes",
						"label": "string",
						"numberOfBytes": "32"
					},
					"t_struct(Pessoa)10_storage": {
						"encoding": "inplace",
						"label": "struct Blockoffice.Pessoa",
						"members": [
							{
								"astId": 3,
								"contract": "contracts/Blockoffice.sol:Blockoffice",
								"label": "nome",
								"offset": 0,
								"slot": "0",
								"type": "t_string_storage"
							},
							{
								"astId": 5,
								"contract": "contracts/Blockoffice.sol:Blockoffice",
								"label": "rg",
								"offset": 0,
								"slot": "1",
								"type": "t_uint256"
							},
							{
								"astId": 7,
								"contract": "contracts/Blockoffice.sol:Blockoffice",
								"label": "cpf",
								"offset": 0,
								"slot": "2",
								"type": "t_uint256"
							},
							{
								"astId": 9,
								"contract": "contracts/Blockoffice.sol:Blockoffice",
								"label": "data",
								"offset": 0,
								"slot": "3",
								"type": "t_uint256"
							}
						],
						"numberOfBytes": "128"
					},
					"t_uint256": {
						"encoding": "inplace",
						"label": "uint256",
						"numberOfBytes": "32"
					}
				}
			},
			"userdoc": {
				"kind": "user",
				"methods": {},
				"version": 1
			}
		}
	}
}