{
	"contracts/Blockoffice.sol": {
		"Blockoffice": {
			"abi": [
				{
					"inputs": [
						{
							"internalType": "uint256",
							"name": "id",
							"type": "uint256"
						}
					],
					"name": "ConsultaPessoa",
					"outputs": [
						{
							"internalType": "string",
							"name": "",
							"type": "string"
						},
						{
							"internalType": "uint256",
							"name": "",
							"type": "uint256"
						},
						{
							"internalType": "uint256",
							"name": "",
							"type": "uint256"
						},
						{
							"internalType": "uint256",
							"name": "",
							"type": "uint256"
						}
					],
					"stateMutability": "view",
					"type": "function"
				},
				{
					"inputs": [
						{
							"internalType": "string",
							"name": "_nome",
							"type": "string"
						},
						{
							"internalType": "uint256",
							"name": "_rg",
							"type": "uint256"
						},
						{
							"internalType": "uint256",
							"name": "_cpf",
							"type": "uint256"
						},
						{
							"internalType": "uint256",
							"name": "_data",
							"type": "uint256"
						}
					],
					"name": "CriarPessoa",
					"outputs": [],
					"stateMutability": "nonpayable",
					"type": "function"
				},
				{
					"inputs": [],
					"name": "owner",
					"outputs": [
						{
							"internalType": "address",
							"name": "",
							"type": "address"
						}
					],
					"stateMutability": "view",
					"type": "function"
				}
			],
			"devdoc": {
				"kind": "dev",
				"methods": {},
				"version": 1
			},
			"evm": {
				"assembly": "    /* \"contracts/Blockoffice.sol\":70:861  contract Blockoffice{\r... */\n  mstore(0x40, 0x80)\n    /* \"contracts/Blockoffice.sol\":126:136  msg.sender */\n  caller\n    /* \"contracts/Blockoffice.sol\":103:136  address public owner = msg.sender */\n  0x00\n  dup1\n  0x0100\n  exp\n  dup2\n  sload\n  dup2\n  0xffffffffffffffffffffffffffffffffffffffff\n  mul\n  not\n  and\n  swap1\n  dup4\n  0xffffffffffffffffffffffffffffffffffffffff\n  and\n  mul\n  or\n  swap1\n  sstore\n  pop\n    /* \"contracts/Blockoffice.sol\":70:861  contract Blockoffice{\r... */\n  callvalue\n  dup1\n  iszero\n  tag_1\n  jumpi\n  0x00\n  dup1\n  revert\ntag_1:\n  pop\n  dataSize(sub_0)\n  dup1\n  dataOffset(sub_0)\n  0x00\n  codecopy\n  0x00\n  return\nstop\n\nsub_0: assembly {\n        /* \"contracts/Blockoffice.sol\":70:861  contract Blockoffice{\r... */\n      mstore(0x40, 0x80)\n      callvalue\n      dup1\n      iszero\n      tag_1\n      jumpi\n      0x00\n      dup1\n      revert\n    tag_1:\n      pop\n      jumpi(tag_2, lt(calldatasize, 0x04))\n      shr(0xe0, calldataload(0x00))\n      dup1\n      0x07d5115d\n      eq\n      tag_3\n      jumpi\n      dup1\n      0x544378bb\n      eq\n      tag_4\n      jumpi\n      dup1\n      0x8da5cb5b\n      eq\n      tag_5\n      jumpi\n    tag_2:\n      0x00\n      dup1\n      revert\n        /* \"contracts/Blockoffice.sol\":632:849  function ConsultaPessoa (uint id) external view returns (string memory, uint, uint, uint) {\r... */\n    tag_3:\n      tag_6\n      0x04\n      dup1\n      calldatasize\n      sub\n      dup2\n      add\n      swap1\n      tag_7\n      swap2\n      swap1\n      tag_8\n      jump\t// in\n    tag_7:\n      tag_9\n      jump\t// in\n    tag_6:\n      mload(0x40)\n      tag_10\n      swap5\n      swap4\n      swap3\n      swap2\n      swap1\n      tag_11\n      jump\t// in\n    tag_10:\n      mload(0x40)\n      dup1\n      swap2\n      sub\n      swap1\n      return\n        /* \"contracts/Blockoffice.sol\":290:624  function  CriarPessoa(string memory _nome, uint _rg, uint _cpf, uint _data) external{\r... */\n    tag_4:\n      tag_12\n      0x04\n      dup1\n      calldatasize\n      sub\n      dup2\n      add\n      swap1\n      tag_13\n      swap2\n      swap1\n      tag_14\n      jump\t// in\n    tag_13:\n      tag_15\n      jump\t// in\n    tag_12:\n      stop\n        /* \"contracts/Blockoffice.sol\":103:136  address public owner = msg.sender */\n    tag_5:\n      tag_16\n      tag_17\n      jump\t// in\n    tag_16:\n      mload(0x40)\n      tag_18\n      swap2\n      swap1\n      tag_19\n      jump\t// in\n    tag_18:\n      mload(0x40)\n      dup1\n      swap2\n      sub\n      swap1\n      return\n        /* \"contracts/Blockoffice.sol\":632:849  function ConsultaPessoa (uint id) external view returns (string memory, uint, uint, uint) {\r... */\n    tag_9:\n        /* \"contracts/Blockoffice.sol\":689:702  string memory */\n      0x60\n        /* \"contracts/Blockoffice.sol\":704:708  uint */\n      0x00\n        /* \"contracts/Blockoffice.sol\":710:714  uint */\n      dup1\n        /* \"contracts/Blockoffice.sol\":716:720  uint */\n      0x00\n        /* \"contracts/Blockoffice.sol\":733:753  Pessoa memory pessoa */\n      dup1\n        /* \"contracts/Blockoffice.sol\":756:763  pessoas */\n      0x01\n        /* \"contracts/Blockoffice.sol\":764:766  id */\n      dup7\n        /* \"contracts/Blockoffice.sol\":756:767  pessoas[id] */\n      dup2\n      sload\n      dup2\n      lt\n      tag_21\n      jumpi\n      tag_22\n      tag_23\n      jump\t// in\n    tag_22:\n    tag_21:\n      swap1\n      0x00\n      mstore\n      keccak256(0x00, 0x20)\n      swap1\n      0x04\n      mul\n      add\n        /* \"contracts/Blockoffice.sol\":733:767  Pessoa memory pessoa = pessoas[id] */\n      mload(0x40)\n      dup1\n      0x80\n      add\n      0x40\n      mstore\n      swap1\n      dup2\n      0x00\n      dup3\n      add\n      dup1\n      sload\n      tag_25\n      swap1\n      tag_26\n      jump\t// in\n    tag_25:\n      dup1\n      0x1f\n      add\n      0x20\n      dup1\n      swap2\n      div\n      mul\n      0x20\n      add\n      mload(0x40)\n      swap1\n      dup2\n      add\n      0x40\n      mstore\n      dup1\n      swap3\n      swap2\n      swap1\n      dup2\n      dup2\n      mstore\n      0x20\n      add\n      dup3\n      dup1\n      sload\n      tag_27\n      swap1\n      tag_26\n      jump\t// in\n    tag_27:\n      dup1\n      iszero\n      tag_28\n      jumpi\n      dup1\n      0x1f\n      lt\n      tag_29\n      jumpi\n      0x0100\n      dup1\n      dup4\n      sload\n      div\n      mul\n      dup4\n      mstore\n      swap2\n      0x20\n      add\n      swap2\n      jump(tag_28)\n    tag_29:\n      dup3\n      add\n      swap2\n      swap1\n      0x00\n      mstore\n      keccak256(0x00, 0x20)\n      swap1\n    tag_30:\n      dup2\n      sload\n      dup2\n      mstore\n      swap1\n      0x01\n      add\n      swap1\n      0x20\n      add\n      dup1\n      dup4\n      gt\n      tag_30\n      jumpi\n      dup3\n      swap1\n      sub\n      0x1f\n      and\n      dup3\n      add\n      swap2\n    tag_28:\n      pop\n      pop\n      pop\n      pop\n      pop\n      dup2\n      mstore\n      0x20\n      add\n      0x01\n      dup3\n      add\n      sload\n      dup2\n      mstore\n      0x20\n      add\n      0x02\n      dup3\n      add\n      sload\n      dup2\n      mstore\n      0x20\n      add\n      0x03\n      dup3\n      add\n      sload\n      dup2\n      mstore\n      pop\n      pop\n      swap1\n      pop\n        /* \"contracts/Blockoffice.sol\":786:792  pessoa */\n      dup1\n        /* \"contracts/Blockoffice.sol\":786:797  pessoa.nome */\n      0x00\n      add\n      mload\n        /* \"contracts/Blockoffice.sol\":799:805  pessoa */\n      dup2\n        /* \"contracts/Blockoffice.sol\":799:808  pessoa.rg */\n      0x20\n      add\n      mload\n        /* \"contracts/Blockoffice.sol\":810:816  pessoa */\n      dup3\n        /* \"contracts/Blockoffice.sol\":810:820  pessoa.cpf */\n      0x40\n      add\n      mload\n        /* \"contracts/Blockoffice.sol\":822:828  pessoa */\n      dup4\n        /* \"contracts/Blockoffice.sol\":822:833  pessoa.data */\n      0x60\n      add\n      mload\n        /* \"contracts/Blockoffice.sol\":778:834  return (pessoa.nome, pessoa.rg, pessoa.cpf, pessoa.data) */\n      swap5\n      pop\n      swap5\n      pop\n      swap5\n      pop\n      swap5\n      pop\n      pop\n        /* \"contracts/Blockoffice.sol\":632:849  function ConsultaPessoa (uint id) external view returns (string memory, uint, uint, uint) {\r... */\n      swap2\n      swap4\n      pop\n      swap2\n      swap4\n      jump\t// out\n        /* \"contracts/Blockoffice.sol\":290:624  function  CriarPessoa(string memory _nome, uint _rg, uint _cpf, uint _data) external{\r... */\n    tag_15:\n        /* \"contracts/Blockoffice.sol\":385:409  Pessoa memory novaPessoa */\n      tag_32\n      tag_33\n      jump\t// in\n    tag_32:\n        /* \"contracts/Blockoffice.sol\":438:443  _nome */\n      dup5\n        /* \"contracts/Blockoffice.sol\":420:430  novaPessoa */\n      dup2\n        /* \"contracts/Blockoffice.sol\":420:435  novaPessoa.nome */\n      0x00\n      add\n        /* \"contracts/Blockoffice.sol\":420:443  novaPessoa.nome = _nome */\n      dup2\n      swap1\n      mstore\n      pop\n        /* \"contracts/Blockoffice.sol\":470:473  _rg */\n      dup4\n        /* \"contracts/Blockoffice.sol\":454:464  novaPessoa */\n      dup2\n        /* \"contracts/Blockoffice.sol\":454:467  novaPessoa.rg */\n      0x20\n      add\n        /* \"contracts/Blockoffice.sol\":454:473  novaPessoa.rg = _rg */\n      dup2\n      dup2\n      mstore\n      pop\n      pop\n        /* \"contracts/Blockoffice.sol\":501:505  _cpf */\n      dup3\n        /* \"contracts/Blockoffice.sol\":484:494  novaPessoa */\n      dup2\n        /* \"contracts/Blockoffice.sol\":484:498  novaPessoa.cpf */\n      0x40\n      add\n        /* \"contracts/Blockoffice.sol\":484:505  novaPessoa.cpf = _cpf */\n      dup2\n      dup2\n      mstore\n      pop\n      pop\n        /* \"contracts/Blockoffice.sol\":535:540  _data */\n      dup2\n        /* \"contracts/Blockoffice.sol\":517:527  novaPessoa */\n      dup2\n        /* \"contracts/Blockoffice.sol\":517:532  novaPessoa.data */\n      0x60\n      add\n        /* \"contracts/Blockoffice.sol\":517:540  novaPessoa.data = _data */\n      dup2\n      dup2\n      mstore\n      pop\n      pop\n        /* \"contracts/Blockoffice.sol\":553:560  pessoas */\n      0x01\n        /* \"contracts/Blockoffice.sol\":566:576  novaPessoa */\n      dup2\n        /* \"contracts/Blockoffice.sol\":553:577  pessoas.push(novaPessoa) */\n      swap1\n      dup1\n      0x01\n      dup2\n      sload\n      add\n      dup1\n      dup3\n      sstore\n      dup1\n      swap2\n      pop\n      pop\n      0x01\n      swap1\n      sub\n      swap1\n      0x00\n      mstore\n      keccak256(0x00, 0x20)\n      swap1\n      0x04\n      mul\n      add\n      0x00\n      swap1\n      swap2\n      swap1\n      swap2\n      swap1\n      swap2\n      pop\n      0x00\n      dup3\n      add\n      mload\n      dup2\n      0x00\n      add\n      swap1\n      dup1\n      mload\n      swap1\n      0x20\n      add\n      swap1\n      tag_35\n      swap3\n      swap2\n      swap1\n      tag_36\n      jump\t// in\n    tag_35:\n      pop\n      0x20\n      dup3\n      add\n      mload\n      dup2\n      0x01\n      add\n      sstore\n      0x40\n      dup3\n      add\n      mload\n      dup2\n      0x02\n      add\n      sstore\n      0x60\n      dup3\n      add\n      mload\n      dup2\n      0x03\n      add\n      sstore\n      pop\n      pop\n        /* \"contracts/Blockoffice.sol\":610:615  owner */\n      0x00\n      dup1\n      sload\n      swap1\n      0x0100\n      exp\n      swap1\n      div\n      0xffffffffffffffffffffffffffffffffffffffff\n      and\n        /* \"contracts/Blockoffice.sol\":596:615  msg.sender == owner */\n      0xffffffffffffffffffffffffffffffffffffffff\n      and\n        /* \"contracts/Blockoffice.sol\":596:606  msg.sender */\n      caller\n        /* \"contracts/Blockoffice.sol\":596:615  msg.sender == owner */\n      0xffffffffffffffffffffffffffffffffffffffff\n      and\n      eq\n        /* \"contracts/Blockoffice.sol\":588:616  require(msg.sender == owner) */\n      tag_37\n      jumpi\n      0x00\n      dup1\n      revert\n    tag_37:\n        /* \"contracts/Blockoffice.sol\":374:624  {\r... */\n      pop\n        /* \"contracts/Blockoffice.sol\":290:624  function  CriarPessoa(string memory _nome, uint _rg, uint _cpf, uint _data) external{\r... */\n      pop\n      pop\n      pop\n      pop\n      jump\t// out\n        /* \"contracts/Blockoffice.sol\":103:136  address public owner = msg.sender */\n    tag_17:\n      0x00\n      dup1\n      sload\n      swap1\n      0x0100\n      exp\n      swap1\n      div\n      0xffffffffffffffffffffffffffffffffffffffff\n      and\n      dup2\n      jump\t// out\n    tag_33:\n      mload(0x40)\n      dup1\n      0x80\n      add\n      0x40\n      mstore\n      dup1\n      0x60\n      dup2\n      mstore\n      0x20\n      add\n      0x00\n      dup2\n      mstore\n      0x20\n      add\n      0x00\n      dup2\n      mstore\n      0x20\n      add\n      0x00\n      dup2\n      mstore\n      pop\n      swap1\n      jump\t// out\n    tag_36:\n      dup3\n      dup1\n      sload\n      tag_38\n      swap1\n      tag_26\n      jump\t// in\n    tag_38:\n      swap1\n      0x00\n      mstore\n      keccak256(0x00, 0x20)\n      swap1\n      0x1f\n      add\n      0x20\n      swap1\n      div\n      dup2\n      add\n      swap3\n      dup3\n      tag_40\n      jumpi\n      0x00\n      dup6\n      sstore\n      jump(tag_39)\n    tag_40:\n      dup3\n      0x1f\n      lt\n      tag_41\n      jumpi\n      dup1\n      mload\n      not(0xff)\n      and\n      dup4\n      dup1\n      add\n      or\n      dup6\n      sstore\n      jump(tag_39)\n    tag_41:\n      dup3\n      dup1\n      add\n      0x01\n      add\n      dup6\n      sstore\n      dup3\n      iszero\n      tag_39\n      jumpi\n      swap2\n      dup3\n      add\n    tag_42:\n      dup3\n      dup2\n      gt\n      iszero\n      tag_43\n      jumpi\n      dup3\n      mload\n      dup3\n      sstore\n      swap2\n      0x20\n      add\n      swap2\n      swap1\n      0x01\n      add\n      swap1\n      jump(tag_42)\n    tag_43:\n    tag_39:\n      pop\n      swap1\n      pop\n      tag_44\n      swap2\n      swap1\n      tag_45\n      jump\t// in\n    tag_44:\n      pop\n      swap1\n      jump\t// out\n    tag_45:\n    tag_46:\n      dup1\n      dup3\n      gt\n      iszero\n      tag_47\n      jumpi\n      0x00\n      dup2\n      0x00\n      swap1\n      sstore\n      pop\n      0x01\n      add\n      jump(tag_46)\n    tag_47:\n      pop\n      swap1\n      jump\t// out\n        /* \"#utility.yul\":7:419   */\n    tag_49:\n        /* \"#utility.yul\":85:90   */\n      0x00\n        /* \"#utility.yul\":110:176   */\n      tag_51\n        /* \"#utility.yul\":126:175   */\n      tag_52\n        /* \"#utility.yul\":168:174   */\n      dup5\n        /* \"#utility.yul\":126:175   */\n      tag_53\n      jump\t// in\n    tag_52:\n        /* \"#utility.yul\":110:176   */\n      tag_54\n      jump\t// in\n    tag_51:\n        /* \"#utility.yul\":101:176   */\n      swap1\n      pop\n        /* \"#utility.yul\":199:205   */\n      dup3\n        /* \"#utility.yul\":192:197   */\n      dup2\n        /* \"#utility.yul\":185:206   */\n      mstore\n        /* \"#utility.yul\":237:241   */\n      0x20\n        /* \"#utility.yul\":230:235   */\n      dup2\n        /* \"#utility.yul\":226:242   */\n      add\n        /* \"#utility.yul\":275:278   */\n      dup5\n        /* \"#utility.yul\":266:272   */\n      dup5\n        /* \"#utility.yul\":261:264   */\n      dup5\n        /* \"#utility.yul\":257:273   */\n      add\n        /* \"#utility.yul\":254:279   */\n      gt\n        /* \"#utility.yul\":251:363   */\n      iszero\n      tag_55\n      jumpi\n        /* \"#utility.yul\":282:361   */\n      tag_56\n      tag_57\n      jump\t// in\n    tag_56:\n        /* \"#utility.yul\":251:363   */\n    tag_55:\n        /* \"#utility.yul\":372:413   */\n      tag_58\n        /* \"#utility.yul\":406:412   */\n      dup5\n        /* \"#utility.yul\":401:404   */\n      dup3\n        /* \"#utility.yul\":396:399   */\n      dup6\n        /* \"#utility.yul\":372:413   */\n      tag_59\n      jump\t// in\n    tag_58:\n        /* \"#utility.yul\":91:419   */\n      pop\n        /* \"#utility.yul\":7:419   */\n      swap4\n      swap3\n      pop\n      pop\n      pop\n      jump\t// out\n        /* \"#utility.yul\":439:779   */\n    tag_60:\n        /* \"#utility.yul\":495:500   */\n      0x00\n        /* \"#utility.yul\":544:547   */\n      dup3\n        /* \"#utility.yul\":537:541   */\n      0x1f\n        /* \"#utility.yul\":529:535   */\n      dup4\n        /* \"#utility.yul\":525:542   */\n      add\n        /* \"#utility.yul\":521:548   */\n      slt\n        /* \"#utility.yul\":511:633   */\n      tag_62\n      jumpi\n        /* \"#utility.yul\":552:631   */\n      tag_63\n      tag_64\n      jump\t// in\n    tag_63:\n        /* \"#utility.yul\":511:633   */\n    tag_62:\n        /* \"#utility.yul\":669:675   */\n      dup2\n        /* \"#utility.yul\":656:676   */\n      calldataload\n        /* \"#utility.yul\":694:773   */\n      tag_65\n        /* \"#utility.yul\":769:772   */\n      dup5\n        /* \"#utility.yul\":761:767   */\n      dup3\n        /* \"#utility.yul\":754:758   */\n      0x20\n        /* \"#utility.yul\":746:752   */\n      dup7\n        /* \"#utility.yul\":742:759   */\n      add\n        /* \"#utility.yul\":694:773   */\n      tag_49\n      jump\t// in\n    tag_65:\n        /* \"#utility.yul\":685:773   */\n      swap2\n      pop\n        /* \"#utility.yul\":501:779   */\n      pop\n        /* \"#utility.yul\":439:779   */\n      swap3\n      swap2\n      pop\n      pop\n      jump\t// out\n        /* \"#utility.yul\":785:924   */\n    tag_66:\n        /* \"#utility.yul\":831:836   */\n      0x00\n        /* \"#utility.yul\":869:875   */\n      dup2\n        /* \"#utility.yul\":856:876   */\n      calldataload\n        /* \"#utility.yul\":847:876   */\n      swap1\n      pop\n        /* \"#utility.yul\":885:918   */\n      tag_68\n        /* \"#utility.yul\":912:917   */\n      dup2\n        /* \"#utility.yul\":885:918   */\n      tag_69\n      jump\t// in\n    tag_68:\n        /* \"#utility.yul\":785:924   */\n      swap3\n      swap2\n      pop\n      pop\n      jump\t// out\n        /* \"#utility.yul\":930:1875   */\n    tag_14:\n        /* \"#utility.yul\":1026:1032   */\n      0x00\n        /* \"#utility.yul\":1034:1040   */\n      dup1\n        /* \"#utility.yul\":1042:1048   */\n      0x00\n        /* \"#utility.yul\":1050:1056   */\n      dup1\n        /* \"#utility.yul\":1099:1102   */\n      0x80\n        /* \"#utility.yul\":1087:1096   */\n      dup6\n        /* \"#utility.yul\":1078:1085   */\n      dup8\n        /* \"#utility.yul\":1074:1097   */\n      sub\n        /* \"#utility.yul\":1070:1103   */\n      slt\n        /* \"#utility.yul\":1067:1187   */\n      iszero\n      tag_71\n      jumpi\n        /* \"#utility.yul\":1106:1185   */\n      tag_72\n      tag_73\n      jump\t// in\n    tag_72:\n        /* \"#utility.yul\":1067:1187   */\n    tag_71:\n        /* \"#utility.yul\":1254:1255   */\n      0x00\n        /* \"#utility.yul\":1243:1252   */\n      dup6\n        /* \"#utility.yul\":1239:1256   */\n      add\n        /* \"#utility.yul\":1226:1257   */\n      calldataload\n        /* \"#utility.yul\":1284:1302   */\n      0xffffffffffffffff\n        /* \"#utility.yul\":1276:1282   */\n      dup2\n        /* \"#utility.yul\":1273:1303   */\n      gt\n        /* \"#utility.yul\":1270:1387   */\n      iszero\n      tag_74\n      jumpi\n        /* \"#utility.yul\":1306:1385   */\n      tag_75\n      tag_76\n      jump\t// in\n    tag_75:\n        /* \"#utility.yul\":1270:1387   */\n    tag_74:\n        /* \"#utility.yul\":1411:1474   */\n      tag_77\n        /* \"#utility.yul\":1466:1473   */\n      dup8\n        /* \"#utility.yul\":1457:1463   */\n      dup3\n        /* \"#utility.yul\":1446:1455   */\n      dup9\n        /* \"#utility.yul\":1442:1464   */\n      add\n        /* \"#utility.yul\":1411:1474   */\n      tag_60\n      jump\t// in\n    tag_77:\n        /* \"#utility.yul\":1401:1474   */\n      swap5\n      pop\n        /* \"#utility.yul\":1197:1484   */\n      pop\n        /* \"#utility.yul\":1523:1525   */\n      0x20\n        /* \"#utility.yul\":1549:1602   */\n      tag_78\n        /* \"#utility.yul\":1594:1601   */\n      dup8\n        /* \"#utility.yul\":1585:1591   */\n      dup3\n        /* \"#utility.yul\":1574:1583   */\n      dup9\n        /* \"#utility.yul\":1570:1592   */\n      add\n        /* \"#utility.yul\":1549:1602   */\n      tag_66\n      jump\t// in\n    tag_78:\n        /* \"#utility.yul\":1539:1602   */\n      swap4\n      pop\n        /* \"#utility.yul\":1494:1612   */\n      pop\n        /* \"#utility.yul\":1651:1653   */\n      0x40\n        /* \"#utility.yul\":1677:1730   */\n      tag_79\n        /* \"#utility.yul\":1722:1729   */\n      dup8\n        /* \"#utility.yul\":1713:1719   */\n      dup3\n        /* \"#utility.yul\":1702:1711   */\n      dup9\n        /* \"#utility.yul\":1698:1720   */\n      add\n        /* \"#utility.yul\":1677:1730   */\n      tag_66\n      jump\t// in\n    tag_79:\n        /* \"#utility.yul\":1667:1730   */\n      swap3\n      pop\n        /* \"#utility.yul\":1622:1740   */\n      pop\n        /* \"#utility.yul\":1779:1781   */\n      0x60\n        /* \"#utility.yul\":1805:1858   */\n      tag_80\n        /* \"#utility.yul\":1850:1857   */\n      dup8\n        /* \"#utility.yul\":1841:1847   */\n      dup3\n        /* \"#utility.yul\":1830:1839   */\n      dup9\n        /* \"#utility.yul\":1826:1848   */\n      add\n        /* \"#utility.yul\":1805:1858   */\n      tag_66\n      jump\t// in\n    tag_80:\n        /* \"#utility.yul\":1795:1858   */\n      swap2\n      pop\n        /* \"#utility.yul\":1750:1868   */\n      pop\n        /* \"#utility.yul\":930:1875   */\n      swap3\n      swap6\n      swap2\n      swap5\n      pop\n      swap3\n      pop\n      jump\t// out\n        /* \"#utility.yul\":1881:2210   */\n    tag_8:\n        /* \"#utility.yul\":1940:1946   */\n      0x00\n        /* \"#utility.yul\":1989:1991   */\n      0x20\n        /* \"#utility.yul\":1977:1986   */\n      dup3\n        /* \"#utility.yul\":1968:1975   */\n      dup5\n        /* \"#utility.yul\":1964:1987   */\n      sub\n        /* \"#utility.yul\":1960:1992   */\n      slt\n        /* \"#utility.yul\":1957:2076   */\n      iszero\n      tag_82\n      jumpi\n        /* \"#utility.yul\":1995:2074   */\n      tag_83\n      tag_73\n      jump\t// in\n    tag_83:\n        /* \"#utility.yul\":1957:2076   */\n    tag_82:\n        /* \"#utility.yul\":2115:2116   */\n      0x00\n        /* \"#utility.yul\":2140:2193   */\n      tag_84\n        /* \"#utility.yul\":2185:2192   */\n      dup5\n        /* \"#utility.yul\":2176:2182   */\n      dup3\n        /* \"#utility.yul\":2165:2174   */\n      dup6\n        /* \"#utility.yul\":2161:2183   */\n      add\n        /* \"#utility.yul\":2140:2193   */\n      tag_66\n      jump\t// in\n    tag_84:\n        /* \"#utility.yul\":2130:2193   */\n      swap2\n      pop\n        /* \"#utility.yul\":2086:2203   */\n      pop\n        /* \"#utility.yul\":1881:2210   */\n      swap3\n      swap2\n      pop\n      pop\n      jump\t// out\n        /* \"#utility.yul\":2216:2334   */\n    tag_85:\n        /* \"#utility.yul\":2303:2327   */\n      tag_87\n        /* \"#utility.yul\":2321:2326   */\n      dup2\n        /* \"#utility.yul\":2303:2327   */\n      tag_88\n      jump\t// in\n    tag_87:\n        /* \"#utility.yul\":2298:2301   */\n      dup3\n        /* \"#utility.yul\":2291:2328   */\n      mstore\n        /* \"#utility.yul\":2216:2334   */\n      pop\n      pop\n      jump\t// out\n        /* \"#utility.yul\":2340:2704   */\n    tag_89:\n        /* \"#utility.yul\":2428:2431   */\n      0x00\n        /* \"#utility.yul\":2456:2495   */\n      tag_91\n        /* \"#utility.yul\":2489:2494   */\n      dup3\n        /* \"#utility.yul\":2456:2495   */\n      tag_92\n      jump\t// in\n    tag_91:\n        /* \"#utility.yul\":2511:2582   */\n      tag_93\n        /* \"#utility.yul\":2575:2581   */\n      dup2\n        /* \"#utility.yul\":2570:2573   */\n      dup6\n        /* \"#utility.yul\":2511:2582   */\n      tag_94\n      jump\t// in\n    tag_93:\n        /* \"#utility.yul\":2504:2582   */\n      swap4\n      pop\n        /* \"#utility.yul\":2591:2643   */\n      tag_95\n        /* \"#utility.yul\":2636:2642   */\n      dup2\n        /* \"#utility.yul\":2631:2634   */\n      dup6\n        /* \"#utility.yul\":2624:2628   */\n      0x20\n        /* \"#utility.yul\":2617:2622   */\n      dup7\n        /* \"#utility.yul\":2613:2629   */\n      add\n        /* \"#utility.yul\":2591:2643   */\n      tag_96\n      jump\t// in\n    tag_95:\n        /* \"#utility.yul\":2668:2697   */\n      tag_97\n        /* \"#utility.yul\":2690:2696   */\n      dup2\n        /* \"#utility.yul\":2668:2697   */\n      tag_98\n      jump\t// in\n    tag_97:\n        /* \"#utility.yul\":2663:2666   */\n      dup5\n        /* \"#utility.yul\":2659:2698   */\n      add\n        /* \"#utility.yul\":2652:2698   */\n      swap2\n      pop\n        /* \"#utility.yul\":2432:2704   */\n      pop\n        /* \"#utility.yul\":2340:2704   */\n      swap3\n      swap2\n      pop\n      pop\n      jump\t// out\n        /* \"#utility.yul\":2710:2828   */\n    tag_99:\n        /* \"#utility.yul\":2797:2821   */\n      tag_101\n        /* \"#utility.yul\":2815:2820   */\n      dup2\n        /* \"#utility.yul\":2797:2821   */\n      tag_102\n      jump\t// in\n    tag_101:\n        /* \"#utility.yul\":2792:2795   */\n      dup3\n        /* \"#utility.yul\":2785:2822   */\n      mstore\n        /* \"#utility.yul\":2710:2828   */\n      pop\n      pop\n      jump\t// out\n        /* \"#utility.yul\":2834:3056   */\n    tag_19:\n        /* \"#utility.yul\":2927:2931   */\n      0x00\n        /* \"#utility.yul\":2965:2967   */\n      0x20\n        /* \"#utility.yul\":2954:2963   */\n      dup3\n        /* \"#utility.yul\":2950:2968   */\n      add\n        /* \"#utility.yul\":2942:2968   */\n      swap1\n      pop\n        /* \"#utility.yul\":2978:3049   */\n      tag_104\n        /* \"#utility.yul\":3046:3047   */\n      0x00\n        /* \"#utility.yul\":3035:3044   */\n      dup4\n        /* \"#utility.yul\":3031:3048   */\n      add\n        /* \"#utility.yul\":3022:3028   */\n      dup5\n        /* \"#utility.yul\":2978:3049   */\n      tag_85\n      jump\t// in\n    tag_104:\n        /* \"#utility.yul\":2834:3056   */\n      swap3\n      swap2\n      pop\n      pop\n      jump\t// out\n        /* \"#utility.yul\":3062:3706   */\n    tag_11:\n        /* \"#utility.yul\":3259:3263   */\n      0x00\n        /* \"#utility.yul\":3297:3300   */\n      0x80\n        /* \"#utility.yul\":3286:3295   */\n      dup3\n        /* \"#utility.yul\":3282:3301   */\n      add\n        /* \"#utility.yul\":3274:3301   */\n      swap1\n      pop\n        /* \"#utility.yul\":3347:3356   */\n      dup2\n        /* \"#utility.yul\":3341:3345   */\n      dup2\n        /* \"#utility.yul\":3337:3357   */\n      sub\n        /* \"#utility.yul\":3333:3334   */\n      0x00\n        /* \"#utility.yul\":3322:3331   */\n      dup4\n        /* \"#utility.yul\":3318:3335   */\n      add\n        /* \"#utility.yul\":3311:3358   */\n      mstore\n        /* \"#utility.yul\":3375:3453   */\n      tag_106\n        /* \"#utility.yul\":3448:3452   */\n      dup2\n        /* \"#utility.yul\":3439:3445   */\n      dup8\n        /* \"#utility.yul\":3375:3453   */\n      tag_89\n      jump\t// in\n    tag_106:\n        /* \"#utility.yul\":3367:3453   */\n      swap1\n      pop\n        /* \"#utility.yul\":3463:3535   */\n      tag_107\n        /* \"#utility.yul\":3531:3533   */\n      0x20\n        /* \"#utility.yul\":3520:3529   */\n      dup4\n        /* \"#utility.yul\":3516:3534   */\n      add\n        /* \"#utility.yul\":3507:3513   */\n      dup7\n        /* \"#utility.yul\":3463:3535   */\n      tag_99\n      jump\t// in\n    tag_107:\n        /* \"#utility.yul\":3545:3617   */\n      tag_108\n        /* \"#utility.yul\":3613:3615   */\n      0x40\n        /* \"#utility.yul\":3602:3611   */\n      dup4\n        /* \"#utility.yul\":3598:3616   */\n      add\n        /* \"#utility.yul\":3589:3595   */\n      dup6\n        /* \"#utility.yul\":3545:3617   */\n      tag_99\n      jump\t// in\n    tag_108:\n        /* \"#utility.yul\":3627:3699   */\n      tag_109\n        /* \"#utility.yul\":3695:3697   */\n      0x60\n        /* \"#utility.yul\":3684:3693   */\n      dup4\n        /* \"#utility.yul\":3680:3698   */\n      add\n        /* \"#utility.yul\":3671:3677   */\n      dup5\n        /* \"#utility.yul\":3627:3699   */\n      tag_99\n      jump\t// in\n    tag_109:\n        /* \"#utility.yul\":3062:3706   */\n      swap6\n      swap5\n      pop\n      pop\n      pop\n      pop\n      pop\n      jump\t// out\n        /* \"#utility.yul\":3712:3841   */\n    tag_54:\n        /* \"#utility.yul\":3746:3752   */\n      0x00\n        /* \"#utility.yul\":3773:3793   */\n      tag_111\n      tag_112\n      jump\t// in\n    tag_111:\n        /* \"#utility.yul\":3763:3793   */\n      swap1\n      pop\n        /* \"#utility.yul\":3802:3835   */\n      tag_113\n        /* \"#utility.yul\":3830:3834   */\n      dup3\n        /* \"#utility.yul\":3822:3828   */\n      dup3\n        /* \"#utility.yul\":3802:3835   */\n      tag_114\n      jump\t// in\n    tag_113:\n        /* \"#utility.yul\":3712:3841   */\n      swap2\n      swap1\n      pop\n      jump\t// out\n        /* \"#utility.yul\":3847:3922   */\n    tag_112:\n        /* \"#utility.yul\":3880:3886   */\n      0x00\n        /* \"#utility.yul\":3913:3915   */\n      0x40\n        /* \"#utility.yul\":3907:3916   */\n      mload\n        /* \"#utility.yul\":3897:3916   */\n      swap1\n      pop\n        /* \"#utility.yul\":3847:3922   */\n      swap1\n      jump\t// out\n        /* \"#utility.yul\":3928:4236   */\n    tag_53:\n        /* \"#utility.yul\":3990:3994   */\n      0x00\n        /* \"#utility.yul\":4080:4098   */\n      0xffffffffffffffff\n        /* \"#utility.yul\":4072:4078   */\n      dup3\n        /* \"#utility.yul\":4069:4099   */\n      gt\n        /* \"#utility.yul\":4066:4122   */\n      iszero\n      tag_117\n      jumpi\n        /* \"#utility.yul\":4102:4120   */\n      tag_118\n      tag_119\n      jump\t// in\n    tag_118:\n        /* \"#utility.yul\":4066:4122   */\n    tag_117:\n        /* \"#utility.yul\":4140:4169   */\n      tag_120\n        /* \"#utility.yul\":4162:4168   */\n      dup3\n        /* \"#utility.yul\":4140:4169   */\n      tag_98\n      jump\t// in\n    tag_120:\n        /* \"#utility.yul\":4132:4169   */\n      swap1\n      pop\n        /* \"#utility.yul\":4224:4228   */\n      0x20\n        /* \"#utility.yul\":4218:4222   */\n      dup2\n        /* \"#utility.yul\":4214:4229   */\n      add\n        /* \"#utility.yul\":4206:4229   */\n      swap1\n      pop\n        /* \"#utility.yul\":3928:4236   */\n      swap2\n      swap1\n      pop\n      jump\t// out\n        /* \"#utility.yul\":4242:4341   */\n    tag_92:\n        /* \"#utility.yul\":4294:4300   */\n      0x00\n        /* \"#utility.yul\":4328:4333   */\n      dup2\n        /* \"#utility.yul\":4322:4334   */\n      mload\n        /* \"#utility.yul\":4312:4334   */\n      swap1\n      pop\n        /* \"#utility.yul\":4242:4341   */\n      swap2\n      swap1\n      pop\n      jump\t// out\n        /* \"#utility.yul\":4347:4516   */\n    tag_94:\n        /* \"#utility.yul\":4431:4442   */\n      0x00\n        /* \"#utility.yul\":4465:4471   */\n      dup3\n        /* \"#utility.yul\":4460:4463   */\n      dup3\n        /* \"#utility.yul\":4453:4472   */\n      mstore\n        /* \"#utility.yul\":4505:4509   */\n      0x20\n        /* \"#utility.yul\":4500:4503   */\n      dup3\n        /* \"#utility.yul\":4496:4510   */\n      add\n        /* \"#utility.yul\":4481:4510   */\n      swap1\n      pop\n        /* \"#utility.yul\":4347:4516   */\n      swap3\n      swap2\n      pop\n      pop\n      jump\t// out\n        /* \"#utility.yul\":4522:4618   */\n    tag_88:\n        /* \"#utility.yul\":4559:4566   */\n      0x00\n        /* \"#utility.yul\":4588:4612   */\n      tag_124\n        /* \"#utility.yul\":4606:4611   */\n      dup3\n        /* \"#utility.yul\":4588:4612   */\n      tag_125\n      jump\t// in\n    tag_124:\n        /* \"#utility.yul\":4577:4612   */\n      swap1\n      pop\n        /* \"#utility.yul\":4522:4618   */\n      swap2\n      swap1\n      pop\n      jump\t// out\n        /* \"#utility.yul\":4624:4750   */\n    tag_125:\n        /* \"#utility.yul\":4661:4668   */\n      0x00\n        /* \"#utility.yul\":4701:4743   */\n      0xffffffffffffffffffffffffffffffffffffffff\n        /* \"#utility.yul\":4694:4699   */\n      dup3\n        /* \"#utility.yul\":4690:4744   */\n      and\n        /* \"#utility.yul\":4679:4744   */\n      swap1\n      pop\n        /* \"#utility.yul\":4624:4750   */\n      swap2\n      swap1\n      pop\n      jump\t// out\n        /* \"#utility.yul\":4756:4833   */\n    tag_102:\n        /* \"#utility.yul\":4793:4800   */\n      0x00\n        /* \"#utility.yul\":4822:4827   */\n      dup2\n        /* \"#utility.yul\":4811:4827   */\n      swap1\n      pop\n        /* \"#utility.yul\":4756:4833   */\n      swap2\n      swap1\n      pop\n      jump\t// out\n        /* \"#utility.yul\":4839:4993   */\n    tag_59:\n        /* \"#utility.yul\":4923:4929   */\n      dup3\n        /* \"#utility.yul\":4918:4921   */\n      dup2\n        /* \"#utility.yul\":4913:4916   */\n      dup4\n        /* \"#utility.yul\":4900:4930   */\n      calldatacopy\n        /* \"#utility.yul\":4985:4986   */\n      0x00\n        /* \"#utility.yul\":4976:4982   */\n      dup4\n        /* \"#utility.yul\":4971:4974   */\n      dup4\n        /* \"#utility.yul\":4967:4983   */\n      add\n        /* \"#utility.yul\":4960:4987   */\n      mstore\n        /* \"#utility.yul\":4839:4993   */\n      pop\n      pop\n      pop\n      jump\t// out\n        /* \"#utility.yul\":4999:5306   */\n    tag_96:\n        /* \"#utility.yul\":5067:5068   */\n      0x00\n        /* \"#utility.yul\":5077:5190   */\n    tag_130:\n        /* \"#utility.yul\":5091:5097   */\n      dup4\n        /* \"#utility.yul\":5088:5089   */\n      dup2\n        /* \"#utility.yul\":5085:5098   */\n      lt\n        /* \"#utility.yul\":5077:5190   */\n      iszero\n      tag_132\n      jumpi\n        /* \"#utility.yul\":5176:5177   */\n      dup1\n        /* \"#utility.yul\":5171:5174   */\n      dup3\n        /* \"#utility.yul\":5167:5178   */\n      add\n        /* \"#utility.yul\":5161:5179   */\n      mload\n        /* \"#utility.yul\":5157:5158   */\n      dup2\n        /* \"#utility.yul\":5152:5155   */\n      dup5\n        /* \"#utility.yul\":5148:5159   */\n      add\n        /* \"#utility.yul\":5141:5180   */\n      mstore\n        /* \"#utility.yul\":5113:5115   */\n      0x20\n        /* \"#utility.yul\":5110:5111   */\n      dup2\n        /* \"#utility.yul\":5106:5116   */\n      add\n        /* \"#utility.yul\":5101:5116   */\n      swap1\n      pop\n        /* \"#utility.yul\":5077:5190   */\n      jump(tag_130)\n    tag_132:\n        /* \"#utility.yul\":5208:5214   */\n      dup4\n        /* \"#utility.yul\":5205:5206   */\n      dup2\n        /* \"#utility.yul\":5202:5215   */\n      gt\n        /* \"#utility.yul\":5199:5300   */\n      iszero\n      tag_133\n      jumpi\n        /* \"#utility.yul\":5288:5289   */\n      0x00\n        /* \"#utility.yul\":5279:5285   */\n      dup5\n        /* \"#utility.yul\":5274:5277   */\n      dup5\n        /* \"#utility.yul\":5270:5286   */\n      add\n        /* \"#utility.yul\":5263:5290   */\n      mstore\n        /* \"#utility.yul\":5199:5300   */\n    tag_133:\n        /* \"#utility.yul\":5048:5306   */\n      pop\n        /* \"#utility.yul\":4999:5306   */\n      pop\n      pop\n      pop\n      jump\t// out\n        /* \"#utility.yul\":5312:5632   */\n    tag_26:\n        /* \"#utility.yul\":5356:5362   */\n      0x00\n        /* \"#utility.yul\":5393:5394   */\n      0x02\n        /* \"#utility.yul\":5387:5391   */\n      dup3\n        /* \"#utility.yul\":5383:5395   */\n      div\n        /* \"#utility.yul\":5373:5395   */\n      swap1\n      pop\n        /* \"#utility.yul\":5440:5441   */\n      0x01\n        /* \"#utility.yul\":5434:5438   */\n      dup3\n        /* \"#utility.yul\":5430:5442   */\n      and\n        /* \"#utility.yul\":5461:5479   */\n      dup1\n        /* \"#utility.yul\":5451:5532   */\n      tag_135\n      jumpi\n        /* \"#utility.yul\":5517:5521   */\n      0x7f\n        /* \"#utility.yul\":5509:5515   */\n      dup3\n        /* \"#utility.yul\":5505:5522   */\n      and\n        /* \"#utility.yul\":5495:5522   */\n      swap2\n      pop\n        /* \"#utility.yul\":5451:5532   */\n    tag_135:\n        /* \"#utility.yul\":5579:5581   */\n      0x20\n        /* \"#utility.yul\":5571:5577   */\n      dup3\n        /* \"#utility.yul\":5568:5582   */\n      lt\n        /* \"#utility.yul\":5548:5566   */\n      dup2\n        /* \"#utility.yul\":5545:5583   */\n      eq\n        /* \"#utility.yul\":5542:5626   */\n      iszero\n      tag_136\n      jumpi\n        /* \"#utility.yul\":5598:5616   */\n      tag_137\n      tag_138\n      jump\t// in\n    tag_137:\n        /* \"#utility.yul\":5542:5626   */\n    tag_136:\n        /* \"#utility.yul\":5363:5632   */\n      pop\n        /* \"#utility.yul\":5312:5632   */\n      swap2\n      swap1\n      pop\n      jump\t// out\n        /* \"#utility.yul\":5638:5919   */\n    tag_114:\n        /* \"#utility.yul\":5721:5748   */\n      tag_140\n        /* \"#utility.yul\":5743:5747   */\n      dup3\n        /* \"#utility.yul\":5721:5748   */\n      tag_98\n      jump\t// in\n    tag_140:\n        /* \"#utility.yul\":5713:5719   */\n      dup2\n        /* \"#utility.yul\":5709:5749   */\n      add\n        /* \"#utility.yul\":5851:5857   */\n      dup2\n        /* \"#utility.yul\":5839:5849   */\n      dup2\n        /* \"#utility.yul\":5836:5858   */\n      lt\n        /* \"#utility.yul\":5815:5833   */\n      0xffffffffffffffff\n        /* \"#utility.yul\":5803:5813   */\n      dup3\n        /* \"#utility.yul\":5800:5834   */\n      gt\n        /* \"#utility.yul\":5797:5859   */\n      or\n        /* \"#utility.yul\":5794:5882   */\n      iszero\n      tag_141\n      jumpi\n        /* \"#utility.yul\":5862:5880   */\n      tag_142\n      tag_119\n      jump\t// in\n    tag_142:\n        /* \"#utility.yul\":5794:5882   */\n    tag_141:\n        /* \"#utility.yul\":5902:5912   */\n      dup1\n        /* \"#utility.yul\":5898:5900   */\n      0x40\n        /* \"#utility.yul\":5891:5913   */\n      mstore\n        /* \"#utility.yul\":5681:5919   */\n      pop\n        /* \"#utility.yul\":5638:5919   */\n      pop\n      pop\n      jump\t// out\n        /* \"#utility.yul\":5925:6105   */\n    tag_138:\n        /* \"#utility.yul\":5973:6050   */\n      0x4e487b7100000000000000000000000000000000000000000000000000000000\n        /* \"#utility.yul\":5970:5971   */\n      0x00\n        /* \"#utility.yul\":5963:6051   */\n      mstore\n        /* \"#utility.yul\":6070:6074   */\n      0x22\n        /* \"#utility.yul\":6067:6068   */\n      0x04\n        /* \"#utility.yul\":6060:6075   */\n      mstore\n        /* \"#utility.yul\":6094:6098   */\n      0x24\n        /* \"#utility.yul\":6091:6092   */\n      0x00\n        /* \"#utility.yul\":6084:6099   */\n      revert\n        /* \"#utility.yul\":6111:6291   */\n    tag_23:\n        /* \"#utility.yul\":6159:6236   */\n      0x4e487b7100000000000000000000000000000000000000000000000000000000\n        /* \"#utility.yul\":6156:6157   */\n      0x00\n        /* \"#utility.yul\":6149:6237   */\n      mstore\n        /* \"#utility.yul\":6256:6260   */\n      0x32\n        /* \"#utility.yul\":6253:6254   */\n      0x04\n        /* \"#utility.yul\":6246:6261   */\n      mstore\n        /* \"#utility.yul\":6280:6284   */\n      0x24\n        /* \"#utility.yul\":6277:6278   */\n      0x00\n        /* \"#utility.yul\":6270:6285   */\n      revert\n        /* \"#utility.yul\":6297:6477   */\n    tag_119:\n        /* \"#utility.yul\":6345:6422   */\n      0x4e487b7100000000000000000000000000000000000000000000000000000000\n        /* \"#utility.yul\":6342:6343   */\n      0x00\n        /* \"#utility.yul\":6335:6423   */\n      mstore\n        /* \"#utility.yul\":6442:6446   */\n      0x41\n        /* \"#utility.yul\":6439:6440   */\n      0x04\n        /* \"#utility.yul\":6432:6447   */\n      mstore\n        /* \"#utility.yul\":6466:6470   */\n      0x24\n        /* \"#utility.yul\":6463:6464   */\n      0x00\n        /* \"#utility.yul\":6456:6471   */\n      revert\n        /* \"#utility.yul\":6483:6600   */\n    tag_64:\n        /* \"#utility.yul\":6592:6593   */\n      0x00\n        /* \"#utility.yul\":6589:6590   */\n      dup1\n        /* \"#utility.yul\":6582:6594   */\n      revert\n        /* \"#utility.yul\":6606:6723   */\n    tag_57:\n        /* \"#utility.yul\":6715:6716   */\n      0x00\n        /* \"#utility.yul\":6712:6713   */\n      dup1\n        /* \"#utility.yul\":6705:6717   */\n      revert\n        /* \"#utility.yul\":6729:6846   */\n    tag_76:\n        /* \"#utility.yul\":6838:6839   */\n      0x00\n        /* \"#utility.yul\":6835:6836   */\n      dup1\n        /* \"#utility.yul\":6828:6840   */\n      revert\n        /* \"#utility.yul\":6852:6969   */\n    tag_73:\n        /* \"#utility.yul\":6961:6962   */\n      0x00\n        /* \"#utility.yul\":6958:6959   */\n      dup1\n        /* \"#utility.yul\":6951:6963   */\n      revert\n        /* \"#utility.yul\":6975:7077   */\n    tag_98:\n        /* \"#utility.yul\":7016:7022   */\n      0x00\n        /* \"#utility.yul\":7067:7069   */\n      0x1f\n        /* \"#utility.yul\":7063:7070   */\n      not\n        /* \"#utility.yul\":7058:7060   */\n      0x1f\n        /* \"#utility.yul\":7051:7056   */\n      dup4\n        /* \"#utility.yul\":7047:7061   */\n      add\n        /* \"#utility.yul\":7043:7071   */\n      and\n        /* \"#utility.yul\":7033:7071   */\n      swap1\n      pop\n        /* \"#utility.yul\":6975:7077   */\n      swap2\n      swap1\n      pop\n      jump\t// out\n        /* \"#utility.yul\":7083:7205   */\n    tag_69:\n        /* \"#utility.yul\":7156:7180   */\n      tag_152\n        /* \"#utility.yul\":7174:7179   */\n      dup2\n        /* \"#utility.yul\":7156:7180   */\n      tag_102\n      jump\t// in\n    tag_152:\n        /* \"#utility.yul\":7149:7154   */\n      dup2\n        /* \"#utility.yul\":7146:7181   */\n      eq\n        /* \"#utility.yul\":7136:7199   */\n      tag_153\n      jumpi\n        /* \"#utility.yul\":7195:7196   */\n      0x00\n        /* \"#utility.yul\":7192:7193   */\n      dup1\n        /* \"#utility.yul\":7185:7197   */\n      revert\n        /* \"#utility.yul\":7136:7199   */\n    tag_153:\n        /* \"#utility.yul\":7083:7205   */\n      pop\n      jump\t// out\n\n    auxdata: 0xa264697066735822122000af63a789648df74000aa2916583617b91a3b925b29dee252c99ad51e9b0f4b64736f6c63430008070033\n}\n",
				"bytecode": {
					"linkReferences": {},
					"object": "6080604052336000806101000a81548173ffffffffffffffffffffffffffffffffffffffff021916908373ffffffffffffffffffffffffffffffffffffffff16021790555034801561005057600080fd5b506107e9806100606000396000f3fe608060405234801561001057600080fd5b50600436106100415760003560e01c806307d5115d14610046578063544378bb146100795780638da5cb5b14610095575b600080fd5b610060600480360381019061005b91906104ac565b6100b3565b604051610070949392919061054b565b60405180910390f35b610093600480360381019061008e9190610429565b6101be565b005b61009d6102b5565b6040516100aa9190610530565b60405180910390f35b6060600080600080600186815481106100cf576100ce610719565b5b90600052602060002090600402016040518060800160405290816000820180546100f890610687565b80601f016020809104026020016040519081016040528092919081815260200182805461012490610687565b80156101715780601f1061014657610100808354040283529160200191610171565b820191906000526020600020905b81548152906001019060200180831161015457829003601f168201915b505050505081526020016001820154815260200160028201548152602001600382015481525050905080600001518160200151826040015183606001519450945094509450509193509193565b6101c66102d9565b84816000018190525083816020018181525050828160400181815250508181606001818152505060018190806001815401808255809150506001900390600052602060002090600402016000909190919091506000820151816000019080519060200190610235929190610301565b50602082015181600101556040820151816002015560608201518160030155505060008054906101000a900473ffffffffffffffffffffffffffffffffffffffff1673ffffffffffffffffffffffffffffffffffffffff163373ffffffffffffffffffffffffffffffffffffffff16146102ae57600080fd5b5050505050565b60008054906101000a900473ffffffffffffffffffffffffffffffffffffffff1681565b6040518060800160405280606081526020016000815260200160008152602001600081525090565b82805461030d90610687565b90600052602060002090601f01602090048101928261032f5760008555610376565b82601f1061034857805160ff1916838001178555610376565b82800160010185558215610376579182015b8281111561037557825182559160200191906001019061035a565b5b5090506103839190610387565b5090565b5b808211156103a0576000816000905550600101610388565b5090565b60006103b76103b2846105bc565b610597565b9050828152602081018484840111156103d3576103d261077c565b5b6103de848285610645565b509392505050565b600082601f8301126103fb576103fa610777565b5b813561040b8482602086016103a4565b91505092915050565b6000813590506104238161079c565b92915050565b6000806000806080858703121561044357610442610786565b5b600085013567ffffffffffffffff81111561046157610460610781565b5b61046d878288016103e6565b945050602061047e87828801610414565b935050604061048f87828801610414565b92505060606104a087828801610414565b91505092959194509250565b6000602082840312156104c2576104c1610786565b5b60006104d084828501610414565b91505092915050565b6104e281610609565b82525050565b60006104f3826105ed565b6104fd81856105f8565b935061050d818560208601610654565b6105168161078b565b840191505092915050565b61052a8161063b565b82525050565b600060208201905061054560008301846104d9565b92915050565b6000608082019050818103600083015261056581876104e8565b90506105746020830186610521565b6105816040830185610521565b61058e6060830184610521565b95945050505050565b60006105a16105b2565b90506105ad82826106b9565b919050565b6000604051905090565b600067ffffffffffffffff8211156105d7576105d6610748565b5b6105e08261078b565b9050602081019050919050565b600081519050919050565b600082825260208201905092915050565b60006106148261061b565b9050919050565b600073ffffffffffffffffffffffffffffffffffffffff82169050919050565b6000819050919050565b82818337600083830152505050565b60005b83811015610672578082015181840152602081019050610657565b83811115610681576000848401525b50505050565b6000600282049050600182168061069f57607f821691505b602082108114156106b3576106b26106ea565b5b50919050565b6106c28261078b565b810181811067ffffffffffffffff821117156106e1576106e0610748565b5b80604052505050565b7f4e487b7100000000000000000000000000000000000000000000000000000000600052602260045260246000fd5b7f4e487b7100000000000000000000000000000000000000000000000000000000600052603260045260246000fd5b7f4e487b7100000000000000000000000000000000000000000000000000000000600052604160045260246000fd5b600080fd5b600080fd5b600080fd5b600080fd5b6000601f19601f8301169050919050565b6107a58161063b565b81146107b057600080fd5b5056fea264697066735822122000af63a789648df74000aa2916583617b91a3b925b29dee252c99ad51e9b0f4b64736f6c63430008070033",
					"opcodes": "PUSH1 0x80 PUSH1 0x40 MSTORE CALLER PUSH1 0x0 DUP1 PUSH2 0x100 EXP DUP2 SLOAD DUP2 PUSH20 0xFFFFFFFFFFFFFFFFFFFFFFFFFFFFFFFFFFFFFFFF MUL NOT AND SWAP1 DUP4 PUSH20 0xFFFFFFFFFFFFFFFFFFFFFFFFFFFFFFFFFFFFFFFF AND MUL OR SWAP1 SSTORE POP CALLVALUE DUP1 ISZERO PUSH2 0x50 JUMPI PUSH1 0x0 DUP1 REVERT JUMPDEST POP PUSH2 0x7E9 DUP1 PUSH2 0x60 PUSH1 0x0 CODECOPY PUSH1 0x0 RETURN INVALID PUSH1 0x80 PUSH1 0x40 MSTORE CALLVALUE DUP1 ISZERO PUSH2 0x10 JUMPI PUSH1 0x0 DUP1 REVERT JUMPDEST POP PUSH1 0x4 CALLDATASIZE LT PUSH2 0x41 JUMPI PUSH1 0x0 CALLDATALOAD PUSH1 0xE0 SHR DUP1 PUSH4 0x7D5115D EQ PUSH2 0x46 JUMPI DUP1 PUSH4 0x544378BB EQ PUSH2 0x79 JUMPI DUP1 PUSH4 0x8DA5CB5B EQ PUSH2 0x95 JUMPI JUMPDEST PUSH1 0x0 DUP1 REVERT JUMPDEST PUSH2 0x60 PUSH1 0x4 DUP1 CALLDATASIZE SUB DUP2 ADD SWAP1 PUSH2 0x5B SWAP2 SWAP1 PUSH2 0x4AC JUMP JUMPDEST PUSH2 0xB3 JUMP JUMPDEST PUSH1 0x40 MLOAD PUSH2 0x70 SWAP5 SWAP4 SWAP3 SWAP2 SWAP1 PUSH2 0x54B JUMP JUMPDEST PUSH1 0x40 MLOAD DUP1 SWAP2 SUB SWAP1 RETURN JUMPDEST PUSH2 0x93 PUSH1 0x4 DUP1 CALLDATASIZE SUB DUP2 ADD SWAP1 PUSH2 0x8E SWAP2 SWAP1 PUSH2 0x429 JUMP JUMPDEST PUSH2 0x1BE JUMP JUMPDEST STOP JUMPDEST PUSH2 0x9D PUSH2 0x2B5 JUMP JUMPDEST PUSH1 0x40 MLOAD PUSH2 0xAA SWAP2 SWAP1 PUSH2 0x530 JUMP JUMPDEST PUSH1 0x40 MLOAD DUP1 SWAP2 SUB SWAP1 RETURN JUMPDEST PUSH1 0x60 PUSH1 0x0 DUP1 PUSH1 0x0 DUP1 PUSH1 0x1 DUP7 DUP2 SLOAD DUP2 LT PUSH2 0xCF JUMPI PUSH2 0xCE PUSH2 0x719 JUMP JUMPDEST JUMPDEST SWAP1 PUSH1 0x0 MSTORE PUSH1 0x20 PUSH1 0x0 KECCAK256 SWAP1 PUSH1 0x4 MUL ADD PUSH1 0x40 MLOAD DUP1 PUSH1 0x80 ADD PUSH1 0x40 MSTORE SWAP1 DUP2 PUSH1 0x0 DUP3 ADD DUP1 SLOAD PUSH2 0xF8 SWAP1 PUSH2 0x687 JUMP JUMPDEST DUP1 PUSH1 0x1F ADD PUSH1 0x20 DUP1 SWAP2 DIV MUL PUSH1 0x20 ADD PUSH1 0x40 MLOAD SWAP1 DUP2 ADD PUSH1 0x40 MSTORE DUP1 SWAP3 SWAP2 SWAP1 DUP2 DUP2 MSTORE PUSH1 0x20 ADD DUP3 DUP1 SLOAD PUSH2 0x124 SWAP1 PUSH2 0x687 JUMP JUMPDEST DUP1 ISZERO PUSH2 0x171 JUMPI DUP1 PUSH1 0x1F LT PUSH2 0x146 JUMPI PUSH2 0x100 DUP1 DUP4 SLOAD DIV MUL DUP4 MSTORE SWAP2 PUSH1 0x20 ADD SWAP2 PUSH2 0x171 JUMP JUMPDEST DUP3 ADD SWAP2 SWAP1 PUSH1 0x0 MSTORE PUSH1 0x20 PUSH1 0x0 KECCAK256 SWAP1 JUMPDEST DUP2 SLOAD DUP2 MSTORE SWAP1 PUSH1 0x1 ADD SWAP1 PUSH1 0x20 ADD DUP1 DUP4 GT PUSH2 0x154 JUMPI DUP3 SWAP1 SUB PUSH1 0x1F AND DUP3 ADD SWAP2 JUMPDEST POP POP POP POP POP DUP2 MSTORE PUSH1 0x20 ADD PUSH1 0x1 DUP3 ADD SLOAD DUP2 MSTORE PUSH1 0x20 ADD PUSH1 0x2 DUP3 ADD SLOAD DUP2 MSTORE PUSH1 0x20 ADD PUSH1 0x3 DUP3 ADD SLOAD DUP2 MSTORE POP POP SWAP1 POP DUP1 PUSH1 0x0 ADD MLOAD DUP2 PUSH1 0x20 ADD MLOAD DUP3 PUSH1 0x40 ADD MLOAD DUP4 PUSH1 0x60 ADD MLOAD SWAP5 POP SWAP5 POP SWAP5 POP SWAP5 POP POP SWAP2 SWAP4 POP SWAP2 SWAP4 JUMP JUMPDEST PUSH2 0x1C6 PUSH2 0x2D9 JUMP JUMPDEST DUP5 DUP2 PUSH1 0x0 ADD DUP2 SWAP1 MSTORE POP DUP4 DUP2 PUSH1 0x20 ADD DUP2 DUP2 MSTORE POP POP DUP3 DUP2 PUSH1 0x40 ADD DUP2 DUP2 MSTORE POP POP DUP2 DUP2 PUSH1 0x60 ADD DUP2 DUP2 MSTORE POP POP PUSH1 0x1 DUP2 SWAP1 DUP1 PUSH1 0x1 DUP2 SLOAD ADD DUP1 DUP3 SSTORE DUP1 SWAP2 POP POP PUSH1 0x1 SWAP1 SUB SWAP1 PUSH1 0x0 MSTORE PUSH1 0x20 PUSH1 0x0 KECCAK256 SWAP1 PUSH1 0x4 MUL ADD PUSH1 0x0 SWAP1 SWAP2 SWAP1 SWAP2 SWAP1 SWAP2 POP PUSH1 0x0 DUP3 ADD MLOAD DUP2 PUSH1 0x0 ADD SWAP1 DUP1 MLOAD SWAP1 PUSH1 0x20 ADD SWAP1 PUSH2 0x235 SWAP3 SWAP2 SWAP1 PUSH2 0x301 JUMP JUMPDEST POP PUSH1 0x20 DUP3 ADD MLOAD DUP2 PUSH1 0x1 ADD SSTORE PUSH1 0x40 DUP3 ADD MLOAD DUP2 PUSH1 0x2 ADD SSTORE PUSH1 0x60 DUP3 ADD MLOAD DUP2 PUSH1 0x3 ADD SSTORE POP POP PUSH1 0x0 DUP1 SLOAD SWAP1 PUSH2 0x100 EXP SWAP1 DIV PUSH20 0xFFFFFFFFFFFFFFFFFFFFFFFFFFFFFFFFFFFFFFFF AND PUSH20 0xFFFFFFFFFFFFFFFFFFFFFFFFFFFFFFFFFFFFFFFF AND CALLER PUSH20 0xFFFFFFFFFFFFFFFFFFFFFFFFFFFFFFFFFFFFFFFF AND EQ PUSH2 0x2AE JUMPI PUSH1 0x0 DUP1 REVERT JUMPDEST POP POP POP POP POP JUMP JUMPDEST PUSH1 0x0 DUP1 SLOAD SWAP1 PUSH2 0x100 EXP SWAP1 DIV PUSH20 0xFFFFFFFFFFFFFFFFFFFFFFFFFFFFFFFFFFFFFFFF AND DUP2 JUMP JUMPDEST PUSH1 0x40 MLOAD DUP1 PUSH1 0x80 ADD PUSH1 0x40 MSTORE DUP1 PUSH1 0x60 DUP2 MSTORE PUSH1 0x20 ADD PUSH1 0x0 DUP2 MSTORE PUSH1 0x20 ADD PUSH1 0x0 DUP2 MSTORE PUSH1 0x20 ADD PUSH1 0x0 DUP2 MSTORE POP SWAP1 JUMP JUMPDEST DUP3 DUP1 SLOAD PUSH2 0x30D SWAP1 PUSH2 0x687 JUMP JUMPDEST SWAP1 PUSH1 0x0 MSTORE PUSH1 0x20 PUSH1 0x0 KECCAK256 SWAP1 PUSH1 0x1F ADD PUSH1 0x20 SWAP1 DIV DUP2 ADD SWAP3 DUP3 PUSH2 0x32F JUMPI PUSH1 0x0 DUP6 SSTORE PUSH2 0x376 JUMP JUMPDEST DUP3 PUSH1 0x1F LT PUSH2 0x348 JUMPI DUP1 MLOAD PUSH1 0xFF NOT AND DUP4 DUP1 ADD OR DUP6 SSTORE PUSH2 0x376 JUMP JUMPDEST DUP3 DUP1 ADD PUSH1 0x1 ADD DUP6 SSTORE DUP3 ISZERO PUSH2 0x376 JUMPI SWAP2 DUP3 ADD JUMPDEST DUP3 DUP2 GT ISZERO PUSH2 0x375 JUMPI DUP3 MLOAD DUP3 SSTORE SWAP2 PUSH1 0x20 ADD SWAP2 SWAP1 PUSH1 0x1 ADD SWAP1 PUSH2 0x35A JUMP JUMPDEST JUMPDEST POP SWAP1 POP PUSH2 0x383 SWAP2 SWAP1 PUSH2 0x387 JUMP JUMPDEST POP SWAP1 JUMP JUMPDEST JUMPDEST DUP1 DUP3 GT ISZERO PUSH2 0x3A0 JUMPI PUSH1 0x0 DUP2 PUSH1 0x0 SWAP1 SSTORE POP PUSH1 0x1 ADD PUSH2 0x388 JUMP JUMPDEST POP SWAP1 JUMP JUMPDEST PUSH1 0x0 PUSH2 0x3B7 PUSH2 0x3B2 DUP5 PUSH2 0x5BC JUMP JUMPDEST PUSH2 0x597 JUMP JUMPDEST SWAP1 POP DUP3 DUP2 MSTORE PUSH1 0x20 DUP2 ADD DUP5 DUP5 DUP5 ADD GT ISZERO PUSH2 0x3D3 JUMPI PUSH2 0x3D2 PUSH2 0x77C JUMP JUMPDEST JUMPDEST PUSH2 0x3DE DUP5 DUP3 DUP6 PUSH2 0x645 JUMP JUMPDEST POP SWAP4 SWAP3 POP POP POP JUMP JUMPDEST PUSH1 0x0 DUP3 PUSH1 0x1F DUP4 ADD SLT PUSH2 0x3FB JUMPI PUSH2 0x3FA PUSH2 0x777 JUMP JUMPDEST JUMPDEST DUP2 CALLDATALOAD PUSH2 0x40B DUP5 DUP3 PUSH1 0x20 DUP7 ADD PUSH2 0x3A4 JUMP JUMPDEST SWAP2 POP POP SWAP3 SWAP2 POP POP JUMP JUMPDEST PUSH1 0x0 DUP2 CALLDATALOAD SWAP1 POP PUSH2 0x423 DUP2 PUSH2 0x79C JUMP JUMPDEST SWAP3 SWAP2 POP POP JUMP JUMPDEST PUSH1 0x0 DUP1 PUSH1 0x0 DUP1 PUSH1 0x80 DUP6 DUP8 SUB SLT ISZERO PUSH2 0x443 JUMPI PUSH2 0x442 PUSH2 0x786 JUMP JUMPDEST JUMPDEST PUSH1 0x0 DUP6 ADD CALLDATALOAD PUSH8 0xFFFFFFFFFFFFFFFF DUP2 GT ISZERO PUSH2 0x461 JUMPI PUSH2 0x460 PUSH2 0x781 JUMP JUMPDEST JUMPDEST PUSH2 0x46D DUP8 DUP3 DUP9 ADD PUSH2 0x3E6 JUMP JUMPDEST SWAP5 POP POP PUSH1 0x20 PUSH2 0x47E DUP8 DUP3 DUP9 ADD PUSH2 0x414 JUMP JUMPDEST SWAP4 POP POP PUSH1 0x40 PUSH2 0x48F DUP8 DUP3 DUP9 ADD PUSH2 0x414 JUMP JUMPDEST SWAP3 POP POP PUSH1 0x60 PUSH2 0x4A0 DUP8 DUP3 DUP9 ADD PUSH2 0x414 JUMP JUMPDEST SWAP2 POP POP SWAP3 SWAP6 SWAP2 SWAP5 POP SWAP3 POP JUMP JUMPDEST PUSH1 0x0 PUSH1 0x20 DUP3 DUP5 SUB SLT ISZERO PUSH2 0x4C2 JUMPI PUSH2 0x4C1 PUSH2 0x786 JUMP JUMPDEST JUMPDEST PUSH1 0x0 PUSH2 0x4D0 DUP5 DUP3 DUP6 ADD PUSH2 0x414 JUMP JUMPDEST SWAP2 POP POP SWAP3 SWAP2 POP POP JUMP JUMPDEST PUSH2 0x4E2 DUP2 PUSH2 0x609 JUMP JUMPDEST DUP3 MSTORE POP POP JUMP JUMPDEST PUSH1 0x0 PUSH2 0x4F3 DUP3 PUSH2 0x5ED JUMP JUMPDEST PUSH2 0x4FD DUP2 DUP6 PUSH2 0x5F8 JUMP JUMPDEST SWAP4 POP PUSH2 0x50D DUP2 DUP6 PUSH1 0x20 DUP7 ADD PUSH2 0x654 JUMP JUMPDEST PUSH2 0x516 DUP2 PUSH2 0x78B JUMP JUMPDEST DUP5 ADD SWAP2 POP POP SWAP3 SWAP2 POP POP JUMP JUMPDEST PUSH2 0x52A DUP2 PUSH2 0x63B JUMP JUMPDEST DUP3 MSTORE POP POP JUMP JUMPDEST PUSH1 0x0 PUSH1 0x20 DUP3 ADD SWAP1 POP PUSH2 0x545 PUSH1 0x0 DUP4 ADD DUP5 PUSH2 0x4D9 JUMP JUMPDEST SWAP3 SWAP2 POP POP JUMP JUMPDEST PUSH1 0x0 PUSH1 0x80 DUP3 ADD SWAP1 POP DUP2 DUP2 SUB PUSH1 0x0 DUP4 ADD MSTORE PUSH2 0x565 DUP2 DUP8 PUSH2 0x4E8 JUMP JUMPDEST SWAP1 POP PUSH2 0x574 PUSH1 0x20 DUP4 ADD DUP7 PUSH2 0x521 JUMP JUMPDEST PUSH2 0x581 PUSH1 0x40 DUP4 ADD DUP6 PUSH2 0x521 JUMP JUMPDEST PUSH2 0x58E PUSH1 0x60 DUP4 ADD DUP5 PUSH2 0x521 JUMP JUMPDEST SWAP6 SWAP5 POP POP POP POP POP JUMP JUMPDEST PUSH1 0x0 PUSH2 0x5A1 PUSH2 0x5B2 JUMP JUMPDEST SWAP1 POP PUSH2 0x5AD DUP3 DUP3 PUSH2 0x6B9 JUMP JUMPDEST SWAP2 SWAP1 POP JUMP JUMPDEST PUSH1 0x0 PUSH1 0x40 MLOAD SWAP1 POP SWAP1 JUMP JUMPDEST PUSH1 0x0 PUSH8 0xFFFFFFFFFFFFFFFF DUP3 GT ISZERO PUSH2 0x5D7 JUMPI PUSH2 0x5D6 PUSH2 0x748 JUMP JUMPDEST JUMPDEST PUSH2 0x5E0 DUP3 PUSH2 0x78B JUMP JUMPDEST SWAP1 POP PUSH1 0x20 DUP2 ADD SWAP1 POP SWAP2 SWAP1 POP JUMP JUMPDEST PUSH1 0x0 DUP2 MLOAD SWAP1 POP SWAP2 SWAP1 POP JUMP JUMPDEST PUSH1 0x0 DUP3 DUP3 MSTORE PUSH1 0x20 DUP3 ADD SWAP1 POP SWAP3 SWAP2 POP POP JUMP JUMPDEST PUSH1 0x0 PUSH2 0x614 DUP3 PUSH2 0x61B JUMP JUMPDEST SWAP1 POP SWAP2 SWAP1 POP JUMP JUMPDEST PUSH1 0x0 PUSH20 0xFFFFFFFFFFFFFFFFFFFFFFFFFFFFFFFFFFFFFFFF DUP3 AND SWAP1 POP SWAP2 SWAP1 POP JUMP JUMPDEST PUSH1 0x0 DUP2 SWAP1 POP SWAP2 SWAP1 POP JUMP JUMPDEST DUP3 DUP2 DUP4 CALLDATACOPY PUSH1 0x0 DUP4 DUP4 ADD MSTORE POP POP POP JUMP JUMPDEST PUSH1 0x0 JUMPDEST DUP4 DUP2 LT ISZERO PUSH2 0x672 JUMPI DUP1 DUP3 ADD MLOAD DUP2 DUP5 ADD MSTORE PUSH1 0x20 DUP2 ADD SWAP1 POP PUSH2 0x657 JUMP JUMPDEST DUP4 DUP2 GT ISZERO PUSH2 0x681 JUMPI PUSH1 0x0 DUP5 DUP5 ADD MSTORE JUMPDEST POP POP POP POP JUMP JUMPDEST PUSH1 0x0 PUSH1 0x2 DUP3 DIV SWAP1 POP PUSH1 0x1 DUP3 AND DUP1 PUSH2 0x69F JUMPI PUSH1 0x7F DUP3 AND SWAP2 POP JUMPDEST PUSH1 0x20 DUP3 LT DUP2 EQ ISZERO PUSH2 0x6B3 JUMPI PUSH2 0x6B2 PUSH2 0x6EA JUMP JUMPDEST JUMPDEST POP SWAP2 SWAP1 POP JUMP JUMPDEST PUSH2 0x6C2 DUP3 PUSH2 0x78B JUMP JUMPDEST DUP2 ADD DUP2 DUP2 LT PUSH8 0xFFFFFFFFFFFFFFFF DUP3 GT OR ISZERO PUSH2 0x6E1 JUMPI PUSH2 0x6E0 PUSH2 0x748 JUMP JUMPDEST JUMPDEST DUP1 PUSH1 0x40 MSTORE POP POP POP JUMP JUMPDEST PUSH32 0x4E487B7100000000000000000000000000000000000000000000000000000000 PUSH1 0x0 MSTORE PUSH1 0x22 PUSH1 0x4 MSTORE PUSH1 0x24 PUSH1 0x0 REVERT JUMPDEST PUSH32 0x4E487B7100000000000000000000000000000000000000000000000000000000 PUSH1 0x0 MSTORE PUSH1 0x32 PUSH1 0x4 MSTORE PUSH1 0x24 PUSH1 0x0 REVERT JUMPDEST PUSH32 0x4E487B7100000000000000000000000000000000000000000000000000000000 PUSH1 0x0 MSTORE PUSH1 0x41 PUSH1 0x4 MSTORE PUSH1 0x24 PUSH1 0x0 REVERT JUMPDEST PUSH1 0x0 DUP1 REVERT JUMPDEST PUSH1 0x0 DUP1 REVERT JUMPDEST PUSH1 0x0 DUP1 REVERT JUMPDEST PUSH1 0x0 DUP1 REVERT JUMPDEST PUSH1 0x0 PUSH1 0x1F NOT PUSH1 0x1F DUP4 ADD AND SWAP1 POP SWAP2 SWAP1 POP JUMP JUMPDEST PUSH2 0x7A5 DUP2 PUSH2 0x63B JUMP JUMPDEST DUP2 EQ PUSH2 0x7B0 JUMPI PUSH1 0x0 DUP1 REVERT JUMPDEST POP JUMP INVALID LOG2 PUSH5 0x6970667358 0x22 SLT KECCAK256 STOP 0xAF PUSH4 0xA789648D 0xF7 BLOCKHASH STOP 0xAA 0x29 AND PC CALLDATASIZE OR 0xB9 BYTE EXTCODESIZE SWAP3 JUMPDEST 0x29 0xDE 0xE2 MSTORE 0xC9 SWAP11 0xD5 0x1E SWAP12 0xF 0x4B PUSH5 0x736F6C6343 STOP ADDMOD SMOD STOP CALLER "
				},
				"gasEstimates": {
					"creation": {
						"codeDepositCost": "405000",
						"executionCost": "24709",
						"totalCost": "429709"
					},
					"external": {
						"ConsultaPessoa(uint256)": "infinite",
						"CriarPessoa(string,uint256,uint256,uint256)": "infinite",
						"owner()": "2533"
					}
				},
				"methodIdentifiers": {
					"ConsultaPessoa(uint256)": "07d5115d",
					"CriarPessoa(string,uint256,uint256,uint256)": "544378bb",
					"owner()": "8da5cb5b"
				}
			},
			"storageLayout": {
				"storage": [
					{
						"astId": 5,
						"contract": "contracts/Blockoffice.sol:Blockoffice",
						"label": "owner",
						"offset": 0,
						"slot": "0",
						"type": "t_address"
					},
					{
						"astId": 18,
						"contract": "contracts/Blockoffice.sol:Blockoffice",
						"label": "pessoas",
						"offset": 0,
						"slot": "1",
						"type": "t_array(t_struct(Pessoa)14_storage)dyn_storage"
					}
				],
				"types": {
					"t_address": {
						"encoding": "inplace",
						"label": "address",
						"numberOfBytes": "20"
					},
					"t_array(t_struct(Pessoa)14_storage)dyn_storage": {
						"base": "t_struct(Pessoa)14_storage",
						"encoding": "dynamic_array",
						"label": "struct Blockoffice.Pessoa[]",
						"numberOfBytes": "32"
					},
					"t_string_storage": {
						"encoding": "bytes",
						"label": "string",
						"numberOfBytes": "32"
					},
					"t_struct(Pessoa)14_storage": {
						"encoding": "inplace",
						"label": "struct Blockoffice.Pessoa",
						"members": [
							{
								"astId": 7,
								"contract": "contracts/Blockoffice.sol:Blockoffice",
								"label": "nome",
								"offset": 0,
								"slot": "0",
								"type": "t_string_storage"
							},
							{
								"astId": 9,
								"contract": "contracts/Blockoffice.sol:Blockoffice",
								"label": "rg",
								"offset": 0,
								"slot": "1",
								"type": "t_uint256"
							},
							{
								"astId": 11,
								"contract": "contracts/Blockoffice.sol:Blockoffice",
								"label": "cpf",
								"offset": 0,
								"slot": "2",
								"type": "t_uint256"
							},
							{
								"astId": 13,
								"contract": "contracts/Blockoffice.sol:Blockoffice",
								"label": "data",
								"offset": 0,
								"slot": "3",
								"type": "t_uint256"
							}
						],
						"numberOfBytes": "128"
					},
					"t_uint256": {
						"encoding": "inplace",
						"label": "uint256",
						"numberOfBytes": "32"
					}
				}
			},
			"userdoc": {
				"kind": "user",
				"methods": {},
				"version": 1
			}
		}
	}
}