{
	"contracts/Blockoffice.sol": {
		"Blockoffice": {
			"abi": [
				{
					"inputs": [
						{
							"internalType": "uint256",
							"name": "id",
							"type": "uint256"
						}
					],
					"name": "ConsultaPessoa",
					"outputs": [
						{
							"internalType": "string",
							"name": "",
							"type": "string"
						},
						{
							"internalType": "uint256",
							"name": "",
							"type": "uint256"
						},
						{
							"internalType": "string",
							"name": "",
							"type": "string"
						},
						{
							"internalType": "uint256",
							"name": "",
							"type": "uint256"
						}
					],
					"stateMutability": "view",
					"type": "function"
				},
				{
					"inputs": [
						{
							"internalType": "string",
							"name": "_nome",
							"type": "string"
						},
						{
							"internalType": "uint256",
							"name": "_rg",
							"type": "uint256"
						},
						{
							"internalType": "string",
							"name": "_cpf",
							"type": "string"
						},
						{
							"internalType": "uint256",
							"name": "_data",
							"type": "uint256"
						}
					],
					"name": "CriarPessoa",
					"outputs": [],
					"stateMutability": "nonpayable",
					"type": "function"
				},
				{
					"inputs": [],
					"name": "owner",
					"outputs": [
						{
							"internalType": "address",
							"name": "",
							"type": "address"
						}
					],
					"stateMutability": "view",
					"type": "function"
				}
			],
			"devdoc": {
				"kind": "dev",
				"methods": {},
				"version": 1
			},
			"evm": {
				"assembly": "    /* \"contracts/Blockoffice.sol\":70:881  contract Blockoffice{\r... */\n  mstore(0x40, 0x80)\n    /* \"contracts/Blockoffice.sol\":126:136  msg.sender */\n  caller\n    /* \"contracts/Blockoffice.sol\":103:136  address public owner = msg.sender */\n  0x00\n  dup1\n  0x0100\n  exp\n  dup2\n  sload\n  dup2\n  0xffffffffffffffffffffffffffffffffffffffff\n  mul\n  not\n  and\n  swap1\n  dup4\n  0xffffffffffffffffffffffffffffffffffffffff\n  and\n  mul\n  or\n  swap1\n  sstore\n  pop\n    /* \"contracts/Blockoffice.sol\":70:881  contract Blockoffice{\r... */\n  callvalue\n  dup1\n  iszero\n  tag_1\n  jumpi\n  0x00\n  dup1\n  revert\ntag_1:\n  pop\n  dataSize(sub_0)\n  dup1\n  dataOffset(sub_0)\n  0x00\n  codecopy\n  0x00\n  return\nstop\n\nsub_0: assembly {\n        /* \"contracts/Blockoffice.sol\":70:881  contract Blockoffice{\r... */\n      mstore(0x40, 0x80)\n      callvalue\n      dup1\n      iszero\n      tag_1\n      jumpi\n      0x00\n      dup1\n      revert\n    tag_1:\n      pop\n      jumpi(tag_2, lt(calldatasize, 0x04))\n      shr(0xe0, calldataload(0x00))\n      dup1\n      0x07d5115d\n      eq\n      tag_3\n      jumpi\n      dup1\n      0x8da5cb5b\n      eq\n      tag_4\n      jumpi\n      dup1\n      0xa21e0217\n      eq\n      tag_5\n      jumpi\n    tag_2:\n      0x00\n      dup1\n      revert\n        /* \"contracts/Blockoffice.sol\":643:869  function ConsultaPessoa (uint id) external view returns (string memory, uint, string memory, uint) {\r... */\n    tag_3:\n      tag_6\n      0x04\n      dup1\n      calldatasize\n      sub\n      dup2\n      add\n      swap1\n      tag_7\n      swap2\n      swap1\n      tag_8\n      jump\t// in\n    tag_7:\n      tag_9\n      jump\t// in\n    tag_6:\n      mload(0x40)\n      tag_10\n      swap5\n      swap4\n      swap3\n      swap2\n      swap1\n      tag_11\n      jump\t// in\n    tag_10:\n      mload(0x40)\n      dup1\n      swap2\n      sub\n      swap1\n      return\n        /* \"contracts/Blockoffice.sol\":103:136  address public owner = msg.sender */\n    tag_4:\n      tag_12\n      tag_13\n      jump\t// in\n    tag_12:\n      mload(0x40)\n      tag_14\n      swap2\n      swap1\n      tag_15\n      jump\t// in\n    tag_14:\n      mload(0x40)\n      dup1\n      swap2\n      sub\n      swap1\n      return\n        /* \"contracts/Blockoffice.sol\":292:635  function  CriarPessoa(string memory _nome, uint _rg, string memory _cpf, uint _data) external{\r... */\n    tag_5:\n      tag_16\n      0x04\n      dup1\n      calldatasize\n      sub\n      dup2\n      add\n      swap1\n      tag_17\n      swap2\n      swap1\n      tag_18\n      jump\t// in\n    tag_17:\n      tag_19\n      jump\t// in\n    tag_16:\n      stop\n        /* \"contracts/Blockoffice.sol\":643:869  function ConsultaPessoa (uint id) external view returns (string memory, uint, string memory, uint) {\r... */\n    tag_9:\n        /* \"contracts/Blockoffice.sol\":700:713  string memory */\n      0x60\n        /* \"contracts/Blockoffice.sol\":715:719  uint */\n      0x00\n        /* \"contracts/Blockoffice.sol\":721:734  string memory */\n      0x60\n        /* \"contracts/Blockoffice.sol\":736:740  uint */\n      0x00\n        /* \"contracts/Blockoffice.sol\":753:773  Pessoa memory pessoa */\n      dup1\n        /* \"contracts/Blockoffice.sol\":776:783  pessoas */\n      0x01\n        /* \"contracts/Blockoffice.sol\":784:786  id */\n      dup7\n        /* \"contracts/Blockoffice.sol\":776:787  pessoas[id] */\n      dup2\n      sload\n      dup2\n      lt\n      tag_21\n      jumpi\n      tag_22\n      tag_23\n      jump\t// in\n    tag_22:\n    tag_21:\n      swap1\n      0x00\n      mstore\n      keccak256(0x00, 0x20)\n      swap1\n      0x04\n      mul\n      add\n        /* \"contracts/Blockoffice.sol\":753:787  Pessoa memory pessoa = pessoas[id] */\n      mload(0x40)\n      dup1\n      0x80\n      add\n      0x40\n      mstore\n      swap1\n      dup2\n      0x00\n      dup3\n      add\n      dup1\n      sload\n      tag_25\n      swap1\n      tag_26\n      jump\t// in\n    tag_25:\n      dup1\n      0x1f\n      add\n      0x20\n      dup1\n      swap2\n      div\n      mul\n      0x20\n      add\n      mload(0x40)\n      swap1\n      dup2\n      add\n      0x40\n      mstore\n      dup1\n      swap3\n      swap2\n      swap1\n      dup2\n      dup2\n      mstore\n      0x20\n      add\n      dup3\n      dup1\n      sload\n      tag_27\n      swap1\n      tag_26\n      jump\t// in\n    tag_27:\n      dup1\n      iszero\n      tag_28\n      jumpi\n      dup1\n      0x1f\n      lt\n      tag_29\n      jumpi\n      0x0100\n      dup1\n      dup4\n      sload\n      div\n      mul\n      dup4\n      mstore\n      swap2\n      0x20\n      add\n      swap2\n      jump(tag_28)\n    tag_29:\n      dup3\n      add\n      swap2\n      swap1\n      0x00\n      mstore\n      keccak256(0x00, 0x20)\n      swap1\n    tag_30:\n      dup2\n      sload\n      dup2\n      mstore\n      swap1\n      0x01\n      add\n      swap1\n      0x20\n      add\n      dup1\n      dup4\n      gt\n      tag_30\n      jumpi\n      dup3\n      swap1\n      sub\n      0x1f\n      and\n      dup3\n      add\n      swap2\n    tag_28:\n      pop\n      pop\n      pop\n      pop\n      pop\n      dup2\n      mstore\n      0x20\n      add\n      0x01\n      dup3\n      add\n      sload\n      dup2\n      mstore\n      0x20\n      add\n      0x02\n      dup3\n      add\n      dup1\n      sload\n      tag_31\n      swap1\n      tag_26\n      jump\t// in\n    tag_31:\n      dup1\n      0x1f\n      add\n      0x20\n      dup1\n      swap2\n      div\n      mul\n      0x20\n      add\n      mload(0x40)\n      swap1\n      dup2\n      add\n      0x40\n      mstore\n      dup1\n      swap3\n      swap2\n      swap1\n      dup2\n      dup2\n      mstore\n      0x20\n      add\n      dup3\n      dup1\n      sload\n      tag_32\n      swap1\n      tag_26\n      jump\t// in\n    tag_32:\n      dup1\n      iszero\n      tag_33\n      jumpi\n      dup1\n      0x1f\n      lt\n      tag_34\n      jumpi\n      0x0100\n      dup1\n      dup4\n      sload\n      div\n      mul\n      dup4\n      mstore\n      swap2\n      0x20\n      add\n      swap2\n      jump(tag_33)\n    tag_34:\n      dup3\n      add\n      swap2\n      swap1\n      0x00\n      mstore\n      keccak256(0x00, 0x20)\n      swap1\n    tag_35:\n      dup2\n      sload\n      dup2\n      mstore\n      swap1\n      0x01\n      add\n      swap1\n      0x20\n      add\n      dup1\n      dup4\n      gt\n      tag_35\n      jumpi\n      dup3\n      swap1\n      sub\n      0x1f\n      and\n      dup3\n      add\n      swap2\n    tag_33:\n      pop\n      pop\n      pop\n      pop\n      pop\n      dup2\n      mstore\n      0x20\n      add\n      0x03\n      dup3\n      add\n      sload\n      dup2\n      mstore\n      pop\n      pop\n      swap1\n      pop\n        /* \"contracts/Blockoffice.sol\":806:812  pessoa */\n      dup1\n        /* \"contracts/Blockoffice.sol\":806:817  pessoa.nome */\n      0x00\n      add\n      mload\n        /* \"contracts/Blockoffice.sol\":819:825  pessoa */\n      dup2\n        /* \"contracts/Blockoffice.sol\":819:828  pessoa.rg */\n      0x20\n      add\n      mload\n        /* \"contracts/Blockoffice.sol\":830:836  pessoa */\n      dup3\n        /* \"contracts/Blockoffice.sol\":830:840  pessoa.cpf */\n      0x40\n      add\n      mload\n        /* \"contracts/Blockoffice.sol\":842:848  pessoa */\n      dup4\n        /* \"contracts/Blockoffice.sol\":842:853  pessoa.data */\n      0x60\n      add\n      mload\n        /* \"contracts/Blockoffice.sol\":798:854  return (pessoa.nome, pessoa.rg, pessoa.cpf, pessoa.data) */\n      swap5\n      pop\n      swap5\n      pop\n      swap5\n      pop\n      swap5\n      pop\n      pop\n        /* \"contracts/Blockoffice.sol\":643:869  function ConsultaPessoa (uint id) external view returns (string memory, uint, string memory, uint) {\r... */\n      swap2\n      swap4\n      pop\n      swap2\n      swap4\n      jump\t// out\n        /* \"contracts/Blockoffice.sol\":103:136  address public owner = msg.sender */\n    tag_13:\n      0x00\n      dup1\n      sload\n      swap1\n      0x0100\n      exp\n      swap1\n      div\n      0xffffffffffffffffffffffffffffffffffffffff\n      and\n      dup2\n      jump\t// out\n        /* \"contracts/Blockoffice.sol\":292:635  function  CriarPessoa(string memory _nome, uint _rg, string memory _cpf, uint _data) external{\r... */\n    tag_19:\n        /* \"contracts/Blockoffice.sol\":396:420  Pessoa memory novaPessoa */\n      tag_37\n      tag_38\n      jump\t// in\n    tag_37:\n        /* \"contracts/Blockoffice.sol\":449:454  _nome */\n      dup5\n        /* \"contracts/Blockoffice.sol\":431:441  novaPessoa */\n      dup2\n        /* \"contracts/Blockoffice.sol\":431:446  novaPessoa.nome */\n      0x00\n      add\n        /* \"contracts/Blockoffice.sol\":431:454  novaPessoa.nome = _nome */\n      dup2\n      swap1\n      mstore\n      pop\n        /* \"contracts/Blockoffice.sol\":481:484  _rg */\n      dup4\n        /* \"contracts/Blockoffice.sol\":465:475  novaPessoa */\n      dup2\n        /* \"contracts/Blockoffice.sol\":465:478  novaPessoa.rg */\n      0x20\n      add\n        /* \"contracts/Blockoffice.sol\":465:484  novaPessoa.rg = _rg */\n      dup2\n      dup2\n      mstore\n      pop\n      pop\n        /* \"contracts/Blockoffice.sol\":512:516  _cpf */\n      dup3\n        /* \"contracts/Blockoffice.sol\":495:505  novaPessoa */\n      dup2\n        /* \"contracts/Blockoffice.sol\":495:509  novaPessoa.cpf */\n      0x40\n      add\n        /* \"contracts/Blockoffice.sol\":495:516  novaPessoa.cpf = _cpf */\n      dup2\n      swap1\n      mstore\n      pop\n        /* \"contracts/Blockoffice.sol\":546:551  _data */\n      dup2\n        /* \"contracts/Blockoffice.sol\":528:538  novaPessoa */\n      dup2\n        /* \"contracts/Blockoffice.sol\":528:543  novaPessoa.data */\n      0x60\n      add\n        /* \"contracts/Blockoffice.sol\":528:551  novaPessoa.data = _data */\n      dup2\n      dup2\n      mstore\n      pop\n      pop\n        /* \"contracts/Blockoffice.sol\":564:571  pessoas */\n      0x01\n        /* \"contracts/Blockoffice.sol\":577:587  novaPessoa */\n      dup2\n        /* \"contracts/Blockoffice.sol\":564:588  pessoas.push(novaPessoa) */\n      swap1\n      dup1\n      0x01\n      dup2\n      sload\n      add\n      dup1\n      dup3\n      sstore\n      dup1\n      swap2\n      pop\n      pop\n      0x01\n      swap1\n      sub\n      swap1\n      0x00\n      mstore\n      keccak256(0x00, 0x20)\n      swap1\n      0x04\n      mul\n      add\n      0x00\n      swap1\n      swap2\n      swap1\n      swap2\n      swap1\n      swap2\n      pop\n      0x00\n      dup3\n      add\n      mload\n      dup2\n      0x00\n      add\n      swap1\n      dup1\n      mload\n      swap1\n      0x20\n      add\n      swap1\n      tag_40\n      swap3\n      swap2\n      swap1\n      tag_41\n      jump\t// in\n    tag_40:\n      pop\n      0x20\n      dup3\n      add\n      mload\n      dup2\n      0x01\n      add\n      sstore\n      0x40\n      dup3\n      add\n      mload\n      dup2\n      0x02\n      add\n      swap1\n      dup1\n      mload\n      swap1\n      0x20\n      add\n      swap1\n      tag_42\n      swap3\n      swap2\n      swap1\n      tag_41\n      jump\t// in\n    tag_42:\n      pop\n      0x60\n      dup3\n      add\n      mload\n      dup2\n      0x03\n      add\n      sstore\n      pop\n      pop\n        /* \"contracts/Blockoffice.sol\":621:626  owner */\n      0x00\n      dup1\n      sload\n      swap1\n      0x0100\n      exp\n      swap1\n      div\n      0xffffffffffffffffffffffffffffffffffffffff\n      and\n        /* \"contracts/Blockoffice.sol\":607:626  msg.sender == owner */\n      0xffffffffffffffffffffffffffffffffffffffff\n      and\n        /* \"contracts/Blockoffice.sol\":607:617  msg.sender */\n      caller\n        /* \"contracts/Blockoffice.sol\":607:626  msg.sender == owner */\n      0xffffffffffffffffffffffffffffffffffffffff\n      and\n      eq\n        /* \"contracts/Blockoffice.sol\":599:627  require(msg.sender == owner) */\n      tag_43\n      jumpi\n      0x00\n      dup1\n      revert\n    tag_43:\n        /* \"contracts/Blockoffice.sol\":385:635  {\r... */\n      pop\n        /* \"contracts/Blockoffice.sol\":292:635  function  CriarPessoa(string memory _nome, uint _rg, string memory _cpf, uint _data) external{\r... */\n      pop\n      pop\n      pop\n      pop\n      jump\t// out\n    tag_38:\n      mload(0x40)\n      dup1\n      0x80\n      add\n      0x40\n      mstore\n      dup1\n      0x60\n      dup2\n      mstore\n      0x20\n      add\n      0x00\n      dup2\n      mstore\n      0x20\n      add\n      0x60\n      dup2\n      mstore\n      0x20\n      add\n      0x00\n      dup2\n      mstore\n      pop\n      swap1\n      jump\t// out\n    tag_41:\n      dup3\n      dup1\n      sload\n      tag_44\n      swap1\n      tag_26\n      jump\t// in\n    tag_44:\n      swap1\n      0x00\n      mstore\n      keccak256(0x00, 0x20)\n      swap1\n      0x1f\n      add\n      0x20\n      swap1\n      div\n      dup2\n      add\n      swap3\n      dup3\n      tag_46\n      jumpi\n      0x00\n      dup6\n      sstore\n      jump(tag_45)\n    tag_46:\n      dup3\n      0x1f\n      lt\n      tag_47\n      jumpi\n      dup1\n      mload\n      not(0xff)\n      and\n      dup4\n      dup1\n      add\n      or\n      dup6\n      sstore\n      jump(tag_45)\n    tag_47:\n      dup3\n      dup1\n      add\n      0x01\n      add\n      dup6\n      sstore\n      dup3\n      iszero\n      tag_45\n      jumpi\n      swap2\n      dup3\n      add\n    tag_48:\n      dup3\n      dup2\n      gt\n      iszero\n      tag_49\n      jumpi\n      dup3\n      mload\n      dup3\n      sstore\n      swap2\n      0x20\n      add\n      swap2\n      swap1\n      0x01\n      add\n      swap1\n      jump(tag_48)\n    tag_49:\n    tag_45:\n      pop\n      swap1\n      pop\n      tag_50\n      swap2\n      swap1\n      tag_51\n      jump\t// in\n    tag_50:\n      pop\n      swap1\n      jump\t// out\n    tag_51:\n    tag_52:\n      dup1\n      dup3\n      gt\n      iszero\n      tag_53\n      jumpi\n      0x00\n      dup2\n      0x00\n      swap1\n      sstore\n      pop\n      0x01\n      add\n      jump(tag_52)\n    tag_53:\n      pop\n      swap1\n      jump\t// out\n        /* \"#utility.yul\":7:419   */\n    tag_55:\n        /* \"#utility.yul\":85:90   */\n      0x00\n        /* \"#utility.yul\":110:176   */\n      tag_57\n        /* \"#utility.yul\":126:175   */\n      tag_58\n        /* \"#utility.yul\":168:174   */\n      dup5\n        /* \"#utility.yul\":126:175   */\n      tag_59\n      jump\t// in\n    tag_58:\n        /* \"#utility.yul\":110:176   */\n      tag_60\n      jump\t// in\n    tag_57:\n        /* \"#utility.yul\":101:176   */\n      swap1\n      pop\n        /* \"#utility.yul\":199:205   */\n      dup3\n        /* \"#utility.yul\":192:197   */\n      dup2\n        /* \"#utility.yul\":185:206   */\n      mstore\n        /* \"#utility.yul\":237:241   */\n      0x20\n        /* \"#utility.yul\":230:235   */\n      dup2\n        /* \"#utility.yul\":226:242   */\n      add\n        /* \"#utility.yul\":275:278   */\n      dup5\n        /* \"#utility.yul\":266:272   */\n      dup5\n        /* \"#utility.yul\":261:264   */\n      dup5\n        /* \"#utility.yul\":257:273   */\n      add\n        /* \"#utility.yul\":254:279   */\n      gt\n        /* \"#utility.yul\":251:363   */\n      iszero\n      tag_61\n      jumpi\n        /* \"#utility.yul\":282:361   */\n      tag_62\n      tag_63\n      jump\t// in\n    tag_62:\n        /* \"#utility.yul\":251:363   */\n    tag_61:\n        /* \"#utility.yul\":372:413   */\n      tag_64\n        /* \"#utility.yul\":406:412   */\n      dup5\n        /* \"#utility.yul\":401:404   */\n      dup3\n        /* \"#utility.yul\":396:399   */\n      dup6\n        /* \"#utility.yul\":372:413   */\n      tag_65\n      jump\t// in\n    tag_64:\n        /* \"#utility.yul\":91:419   */\n      pop\n        /* \"#utility.yul\":7:419   */\n      swap4\n      swap3\n      pop\n      pop\n      pop\n      jump\t// out\n        /* \"#utility.yul\":439:779   */\n    tag_66:\n        /* \"#utility.yul\":495:500   */\n      0x00\n        /* \"#utility.yul\":544:547   */\n      dup3\n        /* \"#utility.yul\":537:541   */\n      0x1f\n        /* \"#utility.yul\":529:535   */\n      dup4\n        /* \"#utility.yul\":525:542   */\n      add\n        /* \"#utility.yul\":521:548   */\n      slt\n        /* \"#utility.yul\":511:633   */\n      tag_68\n      jumpi\n        /* \"#utility.yul\":552:631   */\n      tag_69\n      tag_70\n      jump\t// in\n    tag_69:\n        /* \"#utility.yul\":511:633   */\n    tag_68:\n        /* \"#utility.yul\":669:675   */\n      dup2\n        /* \"#utility.yul\":656:676   */\n      calldataload\n        /* \"#utility.yul\":694:773   */\n      tag_71\n        /* \"#utility.yul\":769:772   */\n      dup5\n        /* \"#utility.yul\":761:767   */\n      dup3\n        /* \"#utility.yul\":754:758   */\n      0x20\n        /* \"#utility.yul\":746:752   */\n      dup7\n        /* \"#utility.yul\":742:759   */\n      add\n        /* \"#utility.yul\":694:773   */\n      tag_55\n      jump\t// in\n    tag_71:\n        /* \"#utility.yul\":685:773   */\n      swap2\n      pop\n        /* \"#utility.yul\":501:779   */\n      pop\n        /* \"#utility.yul\":439:779   */\n      swap3\n      swap2\n      pop\n      pop\n      jump\t// out\n        /* \"#utility.yul\":785:924   */\n    tag_72:\n        /* \"#utility.yul\":831:836   */\n      0x00\n        /* \"#utility.yul\":869:875   */\n      dup2\n        /* \"#utility.yul\":856:876   */\n      calldataload\n        /* \"#utility.yul\":847:876   */\n      swap1\n      pop\n        /* \"#utility.yul\":885:918   */\n      tag_74\n        /* \"#utility.yul\":912:917   */\n      dup2\n        /* \"#utility.yul\":885:918   */\n      tag_75\n      jump\t// in\n    tag_74:\n        /* \"#utility.yul\":785:924   */\n      swap3\n      swap2\n      pop\n      pop\n      jump\t// out\n        /* \"#utility.yul\":930:2055   */\n    tag_18:\n        /* \"#utility.yul\":1036:1042   */\n      0x00\n        /* \"#utility.yul\":1044:1050   */\n      dup1\n        /* \"#utility.yul\":1052:1058   */\n      0x00\n        /* \"#utility.yul\":1060:1066   */\n      dup1\n        /* \"#utility.yul\":1109:1112   */\n      0x80\n        /* \"#utility.yul\":1097:1106   */\n      dup6\n        /* \"#utility.yul\":1088:1095   */\n      dup8\n        /* \"#utility.yul\":1084:1107   */\n      sub\n        /* \"#utility.yul\":1080:1113   */\n      slt\n        /* \"#utility.yul\":1077:1197   */\n      iszero\n      tag_77\n      jumpi\n        /* \"#utility.yul\":1116:1195   */\n      tag_78\n      tag_79\n      jump\t// in\n    tag_78:\n        /* \"#utility.yul\":1077:1197   */\n    tag_77:\n        /* \"#utility.yul\":1264:1265   */\n      0x00\n        /* \"#utility.yul\":1253:1262   */\n      dup6\n        /* \"#utility.yul\":1249:1266   */\n      add\n        /* \"#utility.yul\":1236:1267   */\n      calldataload\n        /* \"#utility.yul\":1294:1312   */\n      0xffffffffffffffff\n        /* \"#utility.yul\":1286:1292   */\n      dup2\n        /* \"#utility.yul\":1283:1313   */\n      gt\n        /* \"#utility.yul\":1280:1397   */\n      iszero\n      tag_80\n      jumpi\n        /* \"#utility.yul\":1316:1395   */\n      tag_81\n      tag_82\n      jump\t// in\n    tag_81:\n        /* \"#utility.yul\":1280:1397   */\n    tag_80:\n        /* \"#utility.yul\":1421:1484   */\n      tag_83\n        /* \"#utility.yul\":1476:1483   */\n      dup8\n        /* \"#utility.yul\":1467:1473   */\n      dup3\n        /* \"#utility.yul\":1456:1465   */\n      dup9\n        /* \"#utility.yul\":1452:1474   */\n      add\n        /* \"#utility.yul\":1421:1484   */\n      tag_66\n      jump\t// in\n    tag_83:\n        /* \"#utility.yul\":1411:1484   */\n      swap5\n      pop\n        /* \"#utility.yul\":1207:1494   */\n      pop\n        /* \"#utility.yul\":1533:1535   */\n      0x20\n        /* \"#utility.yul\":1559:1612   */\n      tag_84\n        /* \"#utility.yul\":1604:1611   */\n      dup8\n        /* \"#utility.yul\":1595:1601   */\n      dup3\n        /* \"#utility.yul\":1584:1593   */\n      dup9\n        /* \"#utility.yul\":1580:1602   */\n      add\n        /* \"#utility.yul\":1559:1612   */\n      tag_72\n      jump\t// in\n    tag_84:\n        /* \"#utility.yul\":1549:1612   */\n      swap4\n      pop\n        /* \"#utility.yul\":1504:1622   */\n      pop\n        /* \"#utility.yul\":1689:1691   */\n      0x40\n        /* \"#utility.yul\":1678:1687   */\n      dup6\n        /* \"#utility.yul\":1674:1692   */\n      add\n        /* \"#utility.yul\":1661:1693   */\n      calldataload\n        /* \"#utility.yul\":1720:1738   */\n      0xffffffffffffffff\n        /* \"#utility.yul\":1712:1718   */\n      dup2\n        /* \"#utility.yul\":1709:1739   */\n      gt\n        /* \"#utility.yul\":1706:1823   */\n      iszero\n      tag_85\n      jumpi\n        /* \"#utility.yul\":1742:1821   */\n      tag_86\n      tag_82\n      jump\t// in\n    tag_86:\n        /* \"#utility.yul\":1706:1823   */\n    tag_85:\n        /* \"#utility.yul\":1847:1910   */\n      tag_87\n        /* \"#utility.yul\":1902:1909   */\n      dup8\n        /* \"#utility.yul\":1893:1899   */\n      dup3\n        /* \"#utility.yul\":1882:1891   */\n      dup9\n        /* \"#utility.yul\":1878:1900   */\n      add\n        /* \"#utility.yul\":1847:1910   */\n      tag_66\n      jump\t// in\n    tag_87:\n        /* \"#utility.yul\":1837:1910   */\n      swap3\n      pop\n        /* \"#utility.yul\":1632:1920   */\n      pop\n        /* \"#utility.yul\":1959:1961   */\n      0x60\n        /* \"#utility.yul\":1985:2038   */\n      tag_88\n        /* \"#utility.yul\":2030:2037   */\n      dup8\n        /* \"#utility.yul\":2021:2027   */\n      dup3\n        /* \"#utility.yul\":2010:2019   */\n      dup9\n        /* \"#utility.yul\":2006:2028   */\n      add\n        /* \"#utility.yul\":1985:2038   */\n      tag_72\n      jump\t// in\n    tag_88:\n        /* \"#utility.yul\":1975:2038   */\n      swap2\n      pop\n        /* \"#utility.yul\":1930:2048   */\n      pop\n        /* \"#utility.yul\":930:2055   */\n      swap3\n      swap6\n      swap2\n      swap5\n      pop\n      swap3\n      pop\n      jump\t// out\n        /* \"#utility.yul\":2061:2390   */\n    tag_8:\n        /* \"#utility.yul\":2120:2126   */\n      0x00\n        /* \"#utility.yul\":2169:2171   */\n      0x20\n        /* \"#utility.yul\":2157:2166   */\n      dup3\n        /* \"#utility.yul\":2148:2155   */\n      dup5\n        /* \"#utility.yul\":2144:2167   */\n      sub\n        /* \"#utility.yul\":2140:2172   */\n      slt\n        /* \"#utility.yul\":2137:2256   */\n      iszero\n      tag_90\n      jumpi\n        /* \"#utility.yul\":2175:2254   */\n      tag_91\n      tag_79\n      jump\t// in\n    tag_91:\n        /* \"#utility.yul\":2137:2256   */\n    tag_90:\n        /* \"#utility.yul\":2295:2296   */\n      0x00\n        /* \"#utility.yul\":2320:2373   */\n      tag_92\n        /* \"#utility.yul\":2365:2372   */\n      dup5\n        /* \"#utility.yul\":2356:2362   */\n      dup3\n        /* \"#utility.yul\":2345:2354   */\n      dup6\n        /* \"#utility.yul\":2341:2363   */\n      add\n        /* \"#utility.yul\":2320:2373   */\n      tag_72\n      jump\t// in\n    tag_92:\n        /* \"#utility.yul\":2310:2373   */\n      swap2\n      pop\n        /* \"#utility.yul\":2266:2383   */\n      pop\n        /* \"#utility.yul\":2061:2390   */\n      swap3\n      swap2\n      pop\n      pop\n      jump\t// out\n        /* \"#utility.yul\":2396:2514   */\n    tag_93:\n        /* \"#utility.yul\":2483:2507   */\n      tag_95\n        /* \"#utility.yul\":2501:2506   */\n      dup2\n        /* \"#utility.yul\":2483:2507   */\n      tag_96\n      jump\t// in\n    tag_95:\n        /* \"#utility.yul\":2478:2481   */\n      dup3\n        /* \"#utility.yul\":2471:2508   */\n      mstore\n        /* \"#utility.yul\":2396:2514   */\n      pop\n      pop\n      jump\t// out\n        /* \"#utility.yul\":2520:2884   */\n    tag_97:\n        /* \"#utility.yul\":2608:2611   */\n      0x00\n        /* \"#utility.yul\":2636:2675   */\n      tag_99\n        /* \"#utility.yul\":2669:2674   */\n      dup3\n        /* \"#utility.yul\":2636:2675   */\n      tag_100\n      jump\t// in\n    tag_99:\n        /* \"#utility.yul\":2691:2762   */\n      tag_101\n        /* \"#utility.yul\":2755:2761   */\n      dup2\n        /* \"#utility.yul\":2750:2753   */\n      dup6\n        /* \"#utility.yul\":2691:2762   */\n      tag_102\n      jump\t// in\n    tag_101:\n        /* \"#utility.yul\":2684:2762   */\n      swap4\n      pop\n        /* \"#utility.yul\":2771:2823   */\n      tag_103\n        /* \"#utility.yul\":2816:2822   */\n      dup2\n        /* \"#utility.yul\":2811:2814   */\n      dup6\n        /* \"#utility.yul\":2804:2808   */\n      0x20\n        /* \"#utility.yul\":2797:2802   */\n      dup7\n        /* \"#utility.yul\":2793:2809   */\n      add\n        /* \"#utility.yul\":2771:2823   */\n      tag_104\n      jump\t// in\n    tag_103:\n        /* \"#utility.yul\":2848:2877   */\n      tag_105\n        /* \"#utility.yul\":2870:2876   */\n      dup2\n        /* \"#utility.yul\":2848:2877   */\n      tag_106\n      jump\t// in\n    tag_105:\n        /* \"#utility.yul\":2843:2846   */\n      dup5\n        /* \"#utility.yul\":2839:2878   */\n      add\n        /* \"#utility.yul\":2832:2878   */\n      swap2\n      pop\n        /* \"#utility.yul\":2612:2884   */\n      pop\n        /* \"#utility.yul\":2520:2884   */\n      swap3\n      swap2\n      pop\n      pop\n      jump\t// out\n        /* \"#utility.yul\":2890:3008   */\n    tag_107:\n        /* \"#utility.yul\":2977:3001   */\n      tag_109\n        /* \"#utility.yul\":2995:3000   */\n      dup2\n        /* \"#utility.yul\":2977:3001   */\n      tag_110\n      jump\t// in\n    tag_109:\n        /* \"#utility.yul\":2972:2975   */\n      dup3\n        /* \"#utility.yul\":2965:3002   */\n      mstore\n        /* \"#utility.yul\":2890:3008   */\n      pop\n      pop\n      jump\t// out\n        /* \"#utility.yul\":3014:3236   */\n    tag_15:\n        /* \"#utility.yul\":3107:3111   */\n      0x00\n        /* \"#utility.yul\":3145:3147   */\n      0x20\n        /* \"#utility.yul\":3134:3143   */\n      dup3\n        /* \"#utility.yul\":3130:3148   */\n      add\n        /* \"#utility.yul\":3122:3148   */\n      swap1\n      pop\n        /* \"#utility.yul\":3158:3229   */\n      tag_112\n        /* \"#utility.yul\":3226:3227   */\n      0x00\n        /* \"#utility.yul\":3215:3224   */\n      dup4\n        /* \"#utility.yul\":3211:3228   */\n      add\n        /* \"#utility.yul\":3202:3208   */\n      dup5\n        /* \"#utility.yul\":3158:3229   */\n      tag_93\n      jump\t// in\n    tag_112:\n        /* \"#utility.yul\":3014:3236   */\n      swap3\n      swap2\n      pop\n      pop\n      jump\t// out\n        /* \"#utility.yul\":3242:3977   */\n    tag_11:\n        /* \"#utility.yul\":3459:3463   */\n      0x00\n        /* \"#utility.yul\":3497:3500   */\n      0x80\n        /* \"#utility.yul\":3486:3495   */\n      dup3\n        /* \"#utility.yul\":3482:3501   */\n      add\n        /* \"#utility.yul\":3474:3501   */\n      swap1\n      pop\n        /* \"#utility.yul\":3547:3556   */\n      dup2\n        /* \"#utility.yul\":3541:3545   */\n      dup2\n        /* \"#utility.yul\":3537:3557   */\n      sub\n        /* \"#utility.yul\":3533:3534   */\n      0x00\n        /* \"#utility.yul\":3522:3531   */\n      dup4\n        /* \"#utility.yul\":3518:3535   */\n      add\n        /* \"#utility.yul\":3511:3558   */\n      mstore\n        /* \"#utility.yul\":3575:3653   */\n      tag_114\n        /* \"#utility.yul\":3648:3652   */\n      dup2\n        /* \"#utility.yul\":3639:3645   */\n      dup8\n        /* \"#utility.yul\":3575:3653   */\n      tag_97\n      jump\t// in\n    tag_114:\n        /* \"#utility.yul\":3567:3653   */\n      swap1\n      pop\n        /* \"#utility.yul\":3663:3735   */\n      tag_115\n        /* \"#utility.yul\":3731:3733   */\n      0x20\n        /* \"#utility.yul\":3720:3729   */\n      dup4\n        /* \"#utility.yul\":3716:3734   */\n      add\n        /* \"#utility.yul\":3707:3713   */\n      dup7\n        /* \"#utility.yul\":3663:3735   */\n      tag_107\n      jump\t// in\n    tag_115:\n        /* \"#utility.yul\":3782:3791   */\n      dup2\n        /* \"#utility.yul\":3776:3780   */\n      dup2\n        /* \"#utility.yul\":3772:3792   */\n      sub\n        /* \"#utility.yul\":3767:3769   */\n      0x40\n        /* \"#utility.yul\":3756:3765   */\n      dup4\n        /* \"#utility.yul\":3752:3770   */\n      add\n        /* \"#utility.yul\":3745:3793   */\n      mstore\n        /* \"#utility.yul\":3810:3888   */\n      tag_116\n        /* \"#utility.yul\":3883:3887   */\n      dup2\n        /* \"#utility.yul\":3874:3880   */\n      dup6\n        /* \"#utility.yul\":3810:3888   */\n      tag_97\n      jump\t// in\n    tag_116:\n        /* \"#utility.yul\":3802:3888   */\n      swap1\n      pop\n        /* \"#utility.yul\":3898:3970   */\n      tag_117\n        /* \"#utility.yul\":3966:3968   */\n      0x60\n        /* \"#utility.yul\":3955:3964   */\n      dup4\n        /* \"#utility.yul\":3951:3969   */\n      add\n        /* \"#utility.yul\":3942:3948   */\n      dup5\n        /* \"#utility.yul\":3898:3970   */\n      tag_107\n      jump\t// in\n    tag_117:\n        /* \"#utility.yul\":3242:3977   */\n      swap6\n      swap5\n      pop\n      pop\n      pop\n      pop\n      pop\n      jump\t// out\n        /* \"#utility.yul\":3983:4112   */\n    tag_60:\n        /* \"#utility.yul\":4017:4023   */\n      0x00\n        /* \"#utility.yul\":4044:4064   */\n      tag_119\n      tag_120\n      jump\t// in\n    tag_119:\n        /* \"#utility.yul\":4034:4064   */\n      swap1\n      pop\n        /* \"#utility.yul\":4073:4106   */\n      tag_121\n        /* \"#utility.yul\":4101:4105   */\n      dup3\n        /* \"#utility.yul\":4093:4099   */\n      dup3\n        /* \"#utility.yul\":4073:4106   */\n      tag_122\n      jump\t// in\n    tag_121:\n        /* \"#utility.yul\":3983:4112   */\n      swap2\n      swap1\n      pop\n      jump\t// out\n        /* \"#utility.yul\":4118:4193   */\n    tag_120:\n        /* \"#utility.yul\":4151:4157   */\n      0x00\n        /* \"#utility.yul\":4184:4186   */\n      0x40\n        /* \"#utility.yul\":4178:4187   */\n      mload\n        /* \"#utility.yul\":4168:4187   */\n      swap1\n      pop\n        /* \"#utility.yul\":4118:4193   */\n      swap1\n      jump\t// out\n        /* \"#utility.yul\":4199:4507   */\n    tag_59:\n        /* \"#utility.yul\":4261:4265   */\n      0x00\n        /* \"#utility.yul\":4351:4369   */\n      0xffffffffffffffff\n        /* \"#utility.yul\":4343:4349   */\n      dup3\n        /* \"#utility.yul\":4340:4370   */\n      gt\n        /* \"#utility.yul\":4337:4393   */\n      iszero\n      tag_125\n      jumpi\n        /* \"#utility.yul\":4373:4391   */\n      tag_126\n      tag_127\n      jump\t// in\n    tag_126:\n        /* \"#utility.yul\":4337:4393   */\n    tag_125:\n        /* \"#utility.yul\":4411:4440   */\n      tag_128\n        /* \"#utility.yul\":4433:4439   */\n      dup3\n        /* \"#utility.yul\":4411:4440   */\n      tag_106\n      jump\t// in\n    tag_128:\n        /* \"#utility.yul\":4403:4440   */\n      swap1\n      pop\n        /* \"#utility.yul\":4495:4499   */\n      0x20\n        /* \"#utility.yul\":4489:4493   */\n      dup2\n        /* \"#utility.yul\":4485:4500   */\n      add\n        /* \"#utility.yul\":4477:4500   */\n      swap1\n      pop\n        /* \"#utility.yul\":4199:4507   */\n      swap2\n      swap1\n      pop\n      jump\t// out\n        /* \"#utility.yul\":4513:4612   */\n    tag_100:\n        /* \"#utility.yul\":4565:4571   */\n      0x00\n        /* \"#utility.yul\":4599:4604   */\n      dup2\n        /* \"#utility.yul\":4593:4605   */\n      mload\n        /* \"#utility.yul\":4583:4605   */\n      swap1\n      pop\n        /* \"#utility.yul\":4513:4612   */\n      swap2\n      swap1\n      pop\n      jump\t// out\n        /* \"#utility.yul\":4618:4787   */\n    tag_102:\n        /* \"#utility.yul\":4702:4713   */\n      0x00\n        /* \"#utility.yul\":4736:4742   */\n      dup3\n        /* \"#utility.yul\":4731:4734   */\n      dup3\n        /* \"#utility.yul\":4724:4743   */\n      mstore\n        /* \"#utility.yul\":4776:4780   */\n      0x20\n        /* \"#utility.yul\":4771:4774   */\n      dup3\n        /* \"#utility.yul\":4767:4781   */\n      add\n        /* \"#utility.yul\":4752:4781   */\n      swap1\n      pop\n        /* \"#utility.yul\":4618:4787   */\n      swap3\n      swap2\n      pop\n      pop\n      jump\t// out\n        /* \"#utility.yul\":4793:4889   */\n    tag_96:\n        /* \"#utility.yul\":4830:4837   */\n      0x00\n        /* \"#utility.yul\":4859:4883   */\n      tag_132\n        /* \"#utility.yul\":4877:4882   */\n      dup3\n        /* \"#utility.yul\":4859:4883   */\n      tag_133\n      jump\t// in\n    tag_132:\n        /* \"#utility.yul\":4848:4883   */\n      swap1\n      pop\n        /* \"#utility.yul\":4793:4889   */\n      swap2\n      swap1\n      pop\n      jump\t// out\n        /* \"#utility.yul\":4895:5021   */\n    tag_133:\n        /* \"#utility.yul\":4932:4939   */\n      0x00\n        /* \"#utility.yul\":4972:5014   */\n      0xffffffffffffffffffffffffffffffffffffffff\n        /* \"#utility.yul\":4965:4970   */\n      dup3\n        /* \"#utility.yul\":4961:5015   */\n      and\n        /* \"#utility.yul\":4950:5015   */\n      swap1\n      pop\n        /* \"#utility.yul\":4895:5021   */\n      swap2\n      swap1\n      pop\n      jump\t// out\n        /* \"#utility.yul\":5027:5104   */\n    tag_110:\n        /* \"#utility.yul\":5064:5071   */\n      0x00\n        /* \"#utility.yul\":5093:5098   */\n      dup2\n        /* \"#utility.yul\":5082:5098   */\n      swap1\n      pop\n        /* \"#utility.yul\":5027:5104   */\n      swap2\n      swap1\n      pop\n      jump\t// out\n        /* \"#utility.yul\":5110:5264   */\n    tag_65:\n        /* \"#utility.yul\":5194:5200   */\n      dup3\n        /* \"#utility.yul\":5189:5192   */\n      dup2\n        /* \"#utility.yul\":5184:5187   */\n      dup4\n        /* \"#utility.yul\":5171:5201   */\n      calldatacopy\n        /* \"#utility.yul\":5256:5257   */\n      0x00\n        /* \"#utility.yul\":5247:5253   */\n      dup4\n        /* \"#utility.yul\":5242:5245   */\n      dup4\n        /* \"#utility.yul\":5238:5254   */\n      add\n        /* \"#utility.yul\":5231:5258   */\n      mstore\n        /* \"#utility.yul\":5110:5264   */\n      pop\n      pop\n      pop\n      jump\t// out\n        /* \"#utility.yul\":5270:5577   */\n    tag_104:\n        /* \"#utility.yul\":5338:5339   */\n      0x00\n        /* \"#utility.yul\":5348:5461   */\n    tag_138:\n        /* \"#utility.yul\":5362:5368   */\n      dup4\n        /* \"#utility.yul\":5359:5360   */\n      dup2\n        /* \"#utility.yul\":5356:5369   */\n      lt\n        /* \"#utility.yul\":5348:5461   */\n      iszero\n      tag_140\n      jumpi\n        /* \"#utility.yul\":5447:5448   */\n      dup1\n        /* \"#utility.yul\":5442:5445   */\n      dup3\n        /* \"#utility.yul\":5438:5449   */\n      add\n        /* \"#utility.yul\":5432:5450   */\n      mload\n        /* \"#utility.yul\":5428:5429   */\n      dup2\n        /* \"#utility.yul\":5423:5426   */\n      dup5\n        /* \"#utility.yul\":5419:5430   */\n      add\n        /* \"#utility.yul\":5412:5451   */\n      mstore\n        /* \"#utility.yul\":5384:5386   */\n      0x20\n        /* \"#utility.yul\":5381:5382   */\n      dup2\n        /* \"#utility.yul\":5377:5387   */\n      add\n        /* \"#utility.yul\":5372:5387   */\n      swap1\n      pop\n        /* \"#utility.yul\":5348:5461   */\n      jump(tag_138)\n    tag_140:\n        /* \"#utility.yul\":5479:5485   */\n      dup4\n        /* \"#utility.yul\":5476:5477   */\n      dup2\n        /* \"#utility.yul\":5473:5486   */\n      gt\n        /* \"#utility.yul\":5470:5571   */\n      iszero\n      tag_141\n      jumpi\n        /* \"#utility.yul\":5559:5560   */\n      0x00\n        /* \"#utility.yul\":5550:5556   */\n      dup5\n        /* \"#utility.yul\":5545:5548   */\n      dup5\n        /* \"#utility.yul\":5541:5557   */\n      add\n        /* \"#utility.yul\":5534:5561   */\n      mstore\n        /* \"#utility.yul\":5470:5571   */\n    tag_141:\n        /* \"#utility.yul\":5319:5577   */\n      pop\n        /* \"#utility.yul\":5270:5577   */\n      pop\n      pop\n      pop\n      jump\t// out\n        /* \"#utility.yul\":5583:5903   */\n    tag_26:\n        /* \"#utility.yul\":5627:5633   */\n      0x00\n        /* \"#utility.yul\":5664:5665   */\n      0x02\n        /* \"#utility.yul\":5658:5662   */\n      dup3\n        /* \"#utility.yul\":5654:5666   */\n      div\n        /* \"#utility.yul\":5644:5666   */\n      swap1\n      pop\n        /* \"#utility.yul\":5711:5712   */\n      0x01\n        /* \"#utility.yul\":5705:5709   */\n      dup3\n        /* \"#utility.yul\":5701:5713   */\n      and\n        /* \"#utility.yul\":5732:5750   */\n      dup1\n        /* \"#utility.yul\":5722:5803   */\n      tag_143\n      jumpi\n        /* \"#utility.yul\":5788:5792   */\n      0x7f\n        /* \"#utility.yul\":5780:5786   */\n      dup3\n        /* \"#utility.yul\":5776:5793   */\n      and\n        /* \"#utility.yul\":5766:5793   */\n      swap2\n      pop\n        /* \"#utility.yul\":5722:5803   */\n    tag_143:\n        /* \"#utility.yul\":5850:5852   */\n      0x20\n        /* \"#utility.yul\":5842:5848   */\n      dup3\n        /* \"#utility.yul\":5839:5853   */\n      lt\n        /* \"#utility.yul\":5819:5837   */\n      dup2\n        /* \"#utility.yul\":5816:5854   */\n      eq\n        /* \"#utility.yul\":5813:5897   */\n      iszero\n      tag_144\n      jumpi\n        /* \"#utility.yul\":5869:5887   */\n      tag_145\n      tag_146\n      jump\t// in\n    tag_145:\n        /* \"#utility.yul\":5813:5897   */\n    tag_144:\n        /* \"#utility.yul\":5634:5903   */\n      pop\n        /* \"#utility.yul\":5583:5903   */\n      swap2\n      swap1\n      pop\n      jump\t// out\n        /* \"#utility.yul\":5909:6190   */\n    tag_122:\n        /* \"#utility.yul\":5992:6019   */\n      tag_148\n        /* \"#utility.yul\":6014:6018   */\n      dup3\n        /* \"#utility.yul\":5992:6019   */\n      tag_106\n      jump\t// in\n    tag_148:\n        /* \"#utility.yul\":5984:5990   */\n      dup2\n        /* \"#utility.yul\":5980:6020   */\n      add\n        /* \"#utility.yul\":6122:6128   */\n      dup2\n        /* \"#utility.yul\":6110:6120   */\n      dup2\n        /* \"#utility.yul\":6107:6129   */\n      lt\n        /* \"#utility.yul\":6086:6104   */\n      0xffffffffffffffff\n        /* \"#utility.yul\":6074:6084   */\n      dup3\n        /* \"#utility.yul\":6071:6105   */\n      gt\n        /* \"#utility.yul\":6068:6130   */\n      or\n        /* \"#utility.yul\":6065:6153   */\n      iszero\n      tag_149\n      jumpi\n        /* \"#utility.yul\":6133:6151   */\n      tag_150\n      tag_127\n      jump\t// in\n    tag_150:\n        /* \"#utility.yul\":6065:6153   */\n    tag_149:\n        /* \"#utility.yul\":6173:6183   */\n      dup1\n        /* \"#utility.yul\":6169:6171   */\n      0x40\n        /* \"#utility.yul\":6162:6184   */\n      mstore\n        /* \"#utility.yul\":5952:6190   */\n      pop\n        /* \"#utility.yul\":5909:6190   */\n      pop\n      pop\n      jump\t// out\n        /* \"#utility.yul\":6196:6376   */\n    tag_146:\n        /* \"#utility.yul\":6244:6321   */\n      0x4e487b7100000000000000000000000000000000000000000000000000000000\n        /* \"#utility.yul\":6241:6242   */\n      0x00\n        /* \"#utility.yul\":6234:6322   */\n      mstore\n        /* \"#utility.yul\":6341:6345   */\n      0x22\n        /* \"#utility.yul\":6338:6339   */\n      0x04\n        /* \"#utility.yul\":6331:6346   */\n      mstore\n        /* \"#utility.yul\":6365:6369   */\n      0x24\n        /* \"#utility.yul\":6362:6363   */\n      0x00\n        /* \"#utility.yul\":6355:6370   */\n      revert\n        /* \"#utility.yul\":6382:6562   */\n    tag_23:\n        /* \"#utility.yul\":6430:6507   */\n      0x4e487b7100000000000000000000000000000000000000000000000000000000\n        /* \"#utility.yul\":6427:6428   */\n      0x00\n        /* \"#utility.yul\":6420:6508   */\n      mstore\n        /* \"#utility.yul\":6527:6531   */\n      0x32\n        /* \"#utility.yul\":6524:6525   */\n      0x04\n        /* \"#utility.yul\":6517:6532   */\n      mstore\n        /* \"#utility.yul\":6551:6555   */\n      0x24\n        /* \"#utility.yul\":6548:6549   */\n      0x00\n        /* \"#utility.yul\":6541:6556   */\n      revert\n        /* \"#utility.yul\":6568:6748   */\n    tag_127:\n        /* \"#utility.yul\":6616:6693   */\n      0x4e487b7100000000000000000000000000000000000000000000000000000000\n        /* \"#utility.yul\":6613:6614   */\n      0x00\n        /* \"#utility.yul\":6606:6694   */\n      mstore\n        /* \"#utility.yul\":6713:6717   */\n      0x41\n        /* \"#utility.yul\":6710:6711   */\n      0x04\n        /* \"#utility.yul\":6703:6718   */\n      mstore\n        /* \"#utility.yul\":6737:6741   */\n      0x24\n        /* \"#utility.yul\":6734:6735   */\n      0x00\n        /* \"#utility.yul\":6727:6742   */\n      revert\n        /* \"#utility.yul\":6754:6871   */\n    tag_70:\n        /* \"#utility.yul\":6863:6864   */\n      0x00\n        /* \"#utility.yul\":6860:6861   */\n      dup1\n        /* \"#utility.yul\":6853:6865   */\n      revert\n        /* \"#utility.yul\":6877:6994   */\n    tag_63:\n        /* \"#utility.yul\":6986:6987   */\n      0x00\n        /* \"#utility.yul\":6983:6984   */\n      dup1\n        /* \"#utility.yul\":6976:6988   */\n      revert\n        /* \"#utility.yul\":7000:7117   */\n    tag_82:\n        /* \"#utility.yul\":7109:7110   */\n      0x00\n        /* \"#utility.yul\":7106:7107   */\n      dup1\n        /* \"#utility.yul\":7099:7111   */\n      revert\n        /* \"#utility.yul\":7123:7240   */\n    tag_79:\n        /* \"#utility.yul\":7232:7233   */\n      0x00\n        /* \"#utility.yul\":7229:7230   */\n      dup1\n        /* \"#utility.yul\":7222:7234   */\n      revert\n        /* \"#utility.yul\":7246:7348   */\n    tag_106:\n        /* \"#utility.yul\":7287:7293   */\n      0x00\n        /* \"#utility.yul\":7338:7340   */\n      0x1f\n        /* \"#utility.yul\":7334:7341   */\n      not\n        /* \"#utility.yul\":7329:7331   */\n      0x1f\n        /* \"#utility.yul\":7322:7327   */\n      dup4\n        /* \"#utility.yul\":7318:7332   */\n      add\n        /* \"#utility.yul\":7314:7342   */\n      and\n        /* \"#utility.yul\":7304:7342   */\n      swap1\n      pop\n        /* \"#utility.yul\":7246:7348   */\n      swap2\n      swap1\n      pop\n      jump\t// out\n        /* \"#utility.yul\":7354:7476   */\n    tag_75:\n        /* \"#utility.yul\":7427:7451   */\n      tag_160\n        /* \"#utility.yul\":7445:7450   */\n      dup2\n        /* \"#utility.yul\":7427:7451   */\n      tag_110\n      jump\t// in\n    tag_160:\n        /* \"#utility.yul\":7420:7425   */\n      dup2\n        /* \"#utility.yul\":7417:7452   */\n      eq\n        /* \"#utility.yul\":7407:7470   */\n      tag_161\n      jumpi\n        /* \"#utility.yul\":7466:7467   */\n      0x00\n        /* \"#utility.yul\":7463:7464   */\n      dup1\n        /* \"#utility.yul\":7456:7468   */\n      revert\n        /* \"#utility.yul\":7407:7470   */\n    tag_161:\n        /* \"#utility.yul\":7354:7476   */\n      pop\n      jump\t// out\n\n    auxdata: 0xa2646970667358221220c405747360aa24bbc1d23b9f006f719bf5cfe07ceb57712d15348f016c29acbe64736f6c63430008070033\n}\n",
				"bytecode": {
					"linkReferences": {},
					"object": "6080604052336000806101000a81548173ffffffffffffffffffffffffffffffffffffffff021916908373ffffffffffffffffffffffffffffffffffffffff16021790555034801561005057600080fd5b506108a7806100606000396000f3fe608060405234801561001057600080fd5b50600436106100415760003560e01c806307d5115d146100465780638da5cb5b14610079578063a21e021714610097575b600080fd5b610060600480360381019061005b9190610563565b6100b3565b6040516100709493929190610602565b60405180910390f35b610081610247565b60405161008e91906105e7565b60405180910390f35b6100b160048036038101906100ac91906104c4565b61026b565b005b606060006060600080600186815481106100d0576100cf6107d7565b5b90600052602060002090600402016040518060800160405290816000820180546100f990610745565b80601f016020809104026020016040519081016040528092919081815260200182805461012590610745565b80156101725780601f1061014757610100808354040283529160200191610172565b820191906000526020600020905b81548152906001019060200180831161015557829003601f168201915b505050505081526020016001820154815260200160028201805461019590610745565b80601f01602080910402602001604051908101604052809291908181526020018280546101c190610745565b801561020e5780601f106101e35761010080835404028352916020019161020e565b820191906000526020600020905b8154815290600101906020018083116101f157829003601f168201915b50505050508152602001600382015481525050905080600001518160200151826040015183606001519450945094509450509193509193565b60008054906101000a900473ffffffffffffffffffffffffffffffffffffffff1681565b610273610374565b8481600001819052508381602001818152505082816040018190525081816060018181525050600181908060018154018082558091505060019003906000526020600020906004020160009091909190915060008201518160000190805190602001906102e192919061039c565b5060208201518160010155604082015181600201908051906020019061030892919061039c565b5060608201518160030155505060008054906101000a900473ffffffffffffffffffffffffffffffffffffffff1673ffffffffffffffffffffffffffffffffffffffff163373ffffffffffffffffffffffffffffffffffffffff161461036d57600080fd5b5050505050565b6040518060800160405280606081526020016000815260200160608152602001600081525090565b8280546103a890610745565b90600052602060002090601f0160209004810192826103ca5760008555610411565b82601f106103e357805160ff1916838001178555610411565b82800160010185558215610411579182015b828111156104105782518255916020019190600101906103f5565b5b50905061041e9190610422565b5090565b5b8082111561043b576000816000905550600101610423565b5090565b600061045261044d8461067a565b610655565b90508281526020810184848401111561046e5761046d61083a565b5b610479848285610703565b509392505050565b600082601f83011261049657610495610835565b5b81356104a684826020860161043f565b91505092915050565b6000813590506104be8161085a565b92915050565b600080600080608085870312156104de576104dd610844565b5b600085013567ffffffffffffffff8111156104fc576104fb61083f565b5b61050887828801610481565b9450506020610519878288016104af565b935050604085013567ffffffffffffffff81111561053a5761053961083f565b5b61054687828801610481565b9250506060610557878288016104af565b91505092959194509250565b60006020828403121561057957610578610844565b5b6000610587848285016104af565b91505092915050565b610599816106c7565b82525050565b60006105aa826106ab565b6105b481856106b6565b93506105c4818560208601610712565b6105cd81610849565b840191505092915050565b6105e1816106f9565b82525050565b60006020820190506105fc6000830184610590565b92915050565b6000608082019050818103600083015261061c818761059f565b905061062b60208301866105d8565b818103604083015261063d818561059f565b905061064c60608301846105d8565b95945050505050565b600061065f610670565b905061066b8282610777565b919050565b6000604051905090565b600067ffffffffffffffff82111561069557610694610806565b5b61069e82610849565b9050602081019050919050565b600081519050919050565b600082825260208201905092915050565b60006106d2826106d9565b9050919050565b600073ffffffffffffffffffffffffffffffffffffffff82169050919050565b6000819050919050565b82818337600083830152505050565b60005b83811015610730578082015181840152602081019050610715565b8381111561073f576000848401525b50505050565b6000600282049050600182168061075d57607f821691505b60208210811415610771576107706107a8565b5b50919050565b61078082610849565b810181811067ffffffffffffffff8211171561079f5761079e610806565b5b80604052505050565b7f4e487b7100000000000000000000000000000000000000000000000000000000600052602260045260246000fd5b7f4e487b7100000000000000000000000000000000000000000000000000000000600052603260045260246000fd5b7f4e487b7100000000000000000000000000000000000000000000000000000000600052604160045260246000fd5b600080fd5b600080fd5b600080fd5b600080fd5b6000601f19601f8301169050919050565b610863816106f9565b811461086e57600080fd5b5056fea2646970667358221220c405747360aa24bbc1d23b9f006f719bf5cfe07ceb57712d15348f016c29acbe64736f6c63430008070033",
					"opcodes": "PUSH1 0x80 PUSH1 0x40 MSTORE CALLER PUSH1 0x0 DUP1 PUSH2 0x100 EXP DUP2 SLOAD DUP2 PUSH20 0xFFFFFFFFFFFFFFFFFFFFFFFFFFFFFFFFFFFFFFFF MUL NOT AND SWAP1 DUP4 PUSH20 0xFFFFFFFFFFFFFFFFFFFFFFFFFFFFFFFFFFFFFFFF AND MUL OR SWAP1 SSTORE POP CALLVALUE DUP1 ISZERO PUSH2 0x50 JUMPI PUSH1 0x0 DUP1 REVERT JUMPDEST POP PUSH2 0x8A7 DUP1 PUSH2 0x60 PUSH1 0x0 CODECOPY PUSH1 0x0 RETURN INVALID PUSH1 0x80 PUSH1 0x40 MSTORE CALLVALUE DUP1 ISZERO PUSH2 0x10 JUMPI PUSH1 0x0 DUP1 REVERT JUMPDEST POP PUSH1 0x4 CALLDATASIZE LT PUSH2 0x41 JUMPI PUSH1 0x0 CALLDATALOAD PUSH1 0xE0 SHR DUP1 PUSH4 0x7D5115D EQ PUSH2 0x46 JUMPI DUP1 PUSH4 0x8DA5CB5B EQ PUSH2 0x79 JUMPI DUP1 PUSH4 0xA21E0217 EQ PUSH2 0x97 JUMPI JUMPDEST PUSH1 0x0 DUP1 REVERT JUMPDEST PUSH2 0x60 PUSH1 0x4 DUP1 CALLDATASIZE SUB DUP2 ADD SWAP1 PUSH2 0x5B SWAP2 SWAP1 PUSH2 0x563 JUMP JUMPDEST PUSH2 0xB3 JUMP JUMPDEST PUSH1 0x40 MLOAD PUSH2 0x70 SWAP5 SWAP4 SWAP3 SWAP2 SWAP1 PUSH2 0x602 JUMP JUMPDEST PUSH1 0x40 MLOAD DUP1 SWAP2 SUB SWAP1 RETURN JUMPDEST PUSH2 0x81 PUSH2 0x247 JUMP JUMPDEST PUSH1 0x40 MLOAD PUSH2 0x8E SWAP2 SWAP1 PUSH2 0x5E7 JUMP JUMPDEST PUSH1 0x40 MLOAD DUP1 SWAP2 SUB SWAP1 RETURN JUMPDEST PUSH2 0xB1 PUSH1 0x4 DUP1 CALLDATASIZE SUB DUP2 ADD SWAP1 PUSH2 0xAC SWAP2 SWAP1 PUSH2 0x4C4 JUMP JUMPDEST PUSH2 0x26B JUMP JUMPDEST STOP JUMPDEST PUSH1 0x60 PUSH1 0x0 PUSH1 0x60 PUSH1 0x0 DUP1 PUSH1 0x1 DUP7 DUP2 SLOAD DUP2 LT PUSH2 0xD0 JUMPI PUSH2 0xCF PUSH2 0x7D7 JUMP JUMPDEST JUMPDEST SWAP1 PUSH1 0x0 MSTORE PUSH1 0x20 PUSH1 0x0 KECCAK256 SWAP1 PUSH1 0x4 MUL ADD PUSH1 0x40 MLOAD DUP1 PUSH1 0x80 ADD PUSH1 0x40 MSTORE SWAP1 DUP2 PUSH1 0x0 DUP3 ADD DUP1 SLOAD PUSH2 0xF9 SWAP1 PUSH2 0x745 JUMP JUMPDEST DUP1 PUSH1 0x1F ADD PUSH1 0x20 DUP1 SWAP2 DIV MUL PUSH1 0x20 ADD PUSH1 0x40 MLOAD SWAP1 DUP2 ADD PUSH1 0x40 MSTORE DUP1 SWAP3 SWAP2 SWAP1 DUP2 DUP2 MSTORE PUSH1 0x20 ADD DUP3 DUP1 SLOAD PUSH2 0x125 SWAP1 PUSH2 0x745 JUMP JUMPDEST DUP1 ISZERO PUSH2 0x172 JUMPI DUP1 PUSH1 0x1F LT PUSH2 0x147 JUMPI PUSH2 0x100 DUP1 DUP4 SLOAD DIV MUL DUP4 MSTORE SWAP2 PUSH1 0x20 ADD SWAP2 PUSH2 0x172 JUMP JUMPDEST DUP3 ADD SWAP2 SWAP1 PUSH1 0x0 MSTORE PUSH1 0x20 PUSH1 0x0 KECCAK256 SWAP1 JUMPDEST DUP2 SLOAD DUP2 MSTORE SWAP1 PUSH1 0x1 ADD SWAP1 PUSH1 0x20 ADD DUP1 DUP4 GT PUSH2 0x155 JUMPI DUP3 SWAP1 SUB PUSH1 0x1F AND DUP3 ADD SWAP2 JUMPDEST POP POP POP POP POP DUP2 MSTORE PUSH1 0x20 ADD PUSH1 0x1 DUP3 ADD SLOAD DUP2 MSTORE PUSH1 0x20 ADD PUSH1 0x2 DUP3 ADD DUP1 SLOAD PUSH2 0x195 SWAP1 PUSH2 0x745 JUMP JUMPDEST DUP1 PUSH1 0x1F ADD PUSH1 0x20 DUP1 SWAP2 DIV MUL PUSH1 0x20 ADD PUSH1 0x40 MLOAD SWAP1 DUP2 ADD PUSH1 0x40 MSTORE DUP1 SWAP3 SWAP2 SWAP1 DUP2 DUP2 MSTORE PUSH1 0x20 ADD DUP3 DUP1 SLOAD PUSH2 0x1C1 SWAP1 PUSH2 0x745 JUMP JUMPDEST DUP1 ISZERO PUSH2 0x20E JUMPI DUP1 PUSH1 0x1F LT PUSH2 0x1E3 JUMPI PUSH2 0x100 DUP1 DUP4 SLOAD DIV MUL DUP4 MSTORE SWAP2 PUSH1 0x20 ADD SWAP2 PUSH2 0x20E JUMP JUMPDEST DUP3 ADD SWAP2 SWAP1 PUSH1 0x0 MSTORE PUSH1 0x20 PUSH1 0x0 KECCAK256 SWAP1 JUMPDEST DUP2 SLOAD DUP2 MSTORE SWAP1 PUSH1 0x1 ADD SWAP1 PUSH1 0x20 ADD DUP1 DUP4 GT PUSH2 0x1F1 JUMPI DUP3 SWAP1 SUB PUSH1 0x1F AND DUP3 ADD SWAP2 JUMPDEST POP POP POP POP POP DUP2 MSTORE PUSH1 0x20 ADD PUSH1 0x3 DUP3 ADD SLOAD DUP2 MSTORE POP POP SWAP1 POP DUP1 PUSH1 0x0 ADD MLOAD DUP2 PUSH1 0x20 ADD MLOAD DUP3 PUSH1 0x40 ADD MLOAD DUP4 PUSH1 0x60 ADD MLOAD SWAP5 POP SWAP5 POP SWAP5 POP SWAP5 POP POP SWAP2 SWAP4 POP SWAP2 SWAP4 JUMP JUMPDEST PUSH1 0x0 DUP1 SLOAD SWAP1 PUSH2 0x100 EXP SWAP1 DIV PUSH20 0xFFFFFFFFFFFFFFFFFFFFFFFFFFFFFFFFFFFFFFFF AND DUP2 JUMP JUMPDEST PUSH2 0x273 PUSH2 0x374 JUMP JUMPDEST DUP5 DUP2 PUSH1 0x0 ADD DUP2 SWAP1 MSTORE POP DUP4 DUP2 PUSH1 0x20 ADD DUP2 DUP2 MSTORE POP POP DUP3 DUP2 PUSH1 0x40 ADD DUP2 SWAP1 MSTORE POP DUP2 DUP2 PUSH1 0x60 ADD DUP2 DUP2 MSTORE POP POP PUSH1 0x1 DUP2 SWAP1 DUP1 PUSH1 0x1 DUP2 SLOAD ADD DUP1 DUP3 SSTORE DUP1 SWAP2 POP POP PUSH1 0x1 SWAP1 SUB SWAP1 PUSH1 0x0 MSTORE PUSH1 0x20 PUSH1 0x0 KECCAK256 SWAP1 PUSH1 0x4 MUL ADD PUSH1 0x0 SWAP1 SWAP2 SWAP1 SWAP2 SWAP1 SWAP2 POP PUSH1 0x0 DUP3 ADD MLOAD DUP2 PUSH1 0x0 ADD SWAP1 DUP1 MLOAD SWAP1 PUSH1 0x20 ADD SWAP1 PUSH2 0x2E1 SWAP3 SWAP2 SWAP1 PUSH2 0x39C JUMP JUMPDEST POP PUSH1 0x20 DUP3 ADD MLOAD DUP2 PUSH1 0x1 ADD SSTORE PUSH1 0x40 DUP3 ADD MLOAD DUP2 PUSH1 0x2 ADD SWAP1 DUP1 MLOAD SWAP1 PUSH1 0x20 ADD SWAP1 PUSH2 0x308 SWAP3 SWAP2 SWAP1 PUSH2 0x39C JUMP JUMPDEST POP PUSH1 0x60 DUP3 ADD MLOAD DUP2 PUSH1 0x3 ADD SSTORE POP POP PUSH1 0x0 DUP1 SLOAD SWAP1 PUSH2 0x100 EXP SWAP1 DIV PUSH20 0xFFFFFFFFFFFFFFFFFFFFFFFFFFFFFFFFFFFFFFFF AND PUSH20 0xFFFFFFFFFFFFFFFFFFFFFFFFFFFFFFFFFFFFFFFF AND CALLER PUSH20 0xFFFFFFFFFFFFFFFFFFFFFFFFFFFFFFFFFFFFFFFF AND EQ PUSH2 0x36D JUMPI PUSH1 0x0 DUP1 REVERT JUMPDEST POP POP POP POP POP JUMP JUMPDEST PUSH1 0x40 MLOAD DUP1 PUSH1 0x80 ADD PUSH1 0x40 MSTORE DUP1 PUSH1 0x60 DUP2 MSTORE PUSH1 0x20 ADD PUSH1 0x0 DUP2 MSTORE PUSH1 0x20 ADD PUSH1 0x60 DUP2 MSTORE PUSH1 0x20 ADD PUSH1 0x0 DUP2 MSTORE POP SWAP1 JUMP JUMPDEST DUP3 DUP1 SLOAD PUSH2 0x3A8 SWAP1 PUSH2 0x745 JUMP JUMPDEST SWAP1 PUSH1 0x0 MSTORE PUSH1 0x20 PUSH1 0x0 KECCAK256 SWAP1 PUSH1 0x1F ADD PUSH1 0x20 SWAP1 DIV DUP2 ADD SWAP3 DUP3 PUSH2 0x3CA JUMPI PUSH1 0x0 DUP6 SSTORE PUSH2 0x411 JUMP JUMPDEST DUP3 PUSH1 0x1F LT PUSH2 0x3E3 JUMPI DUP1 MLOAD PUSH1 0xFF NOT AND DUP4 DUP1 ADD OR DUP6 SSTORE PUSH2 0x411 JUMP JUMPDEST DUP3 DUP1 ADD PUSH1 0x1 ADD DUP6 SSTORE DUP3 ISZERO PUSH2 0x411 JUMPI SWAP2 DUP3 ADD JUMPDEST DUP3 DUP2 GT ISZERO PUSH2 0x410 JUMPI DUP3 MLOAD DUP3 SSTORE SWAP2 PUSH1 0x20 ADD SWAP2 SWAP1 PUSH1 0x1 ADD SWAP1 PUSH2 0x3F5 JUMP JUMPDEST JUMPDEST POP SWAP1 POP PUSH2 0x41E SWAP2 SWAP1 PUSH2 0x422 JUMP JUMPDEST POP SWAP1 JUMP JUMPDEST JUMPDEST DUP1 DUP3 GT ISZERO PUSH2 0x43B JUMPI PUSH1 0x0 DUP2 PUSH1 0x0 SWAP1 SSTORE POP PUSH1 0x1 ADD PUSH2 0x423 JUMP JUMPDEST POP SWAP1 JUMP JUMPDEST PUSH1 0x0 PUSH2 0x452 PUSH2 0x44D DUP5 PUSH2 0x67A JUMP JUMPDEST PUSH2 0x655 JUMP JUMPDEST SWAP1 POP DUP3 DUP2 MSTORE PUSH1 0x20 DUP2 ADD DUP5 DUP5 DUP5 ADD GT ISZERO PUSH2 0x46E JUMPI PUSH2 0x46D PUSH2 0x83A JUMP JUMPDEST JUMPDEST PUSH2 0x479 DUP5 DUP3 DUP6 PUSH2 0x703 JUMP JUMPDEST POP SWAP4 SWAP3 POP POP POP JUMP JUMPDEST PUSH1 0x0 DUP3 PUSH1 0x1F DUP4 ADD SLT PUSH2 0x496 JUMPI PUSH2 0x495 PUSH2 0x835 JUMP JUMPDEST JUMPDEST DUP2 CALLDATALOAD PUSH2 0x4A6 DUP5 DUP3 PUSH1 0x20 DUP7 ADD PUSH2 0x43F JUMP JUMPDEST SWAP2 POP POP SWAP3 SWAP2 POP POP JUMP JUMPDEST PUSH1 0x0 DUP2 CALLDATALOAD SWAP1 POP PUSH2 0x4BE DUP2 PUSH2 0x85A JUMP JUMPDEST SWAP3 SWAP2 POP POP JUMP JUMPDEST PUSH1 0x0 DUP1 PUSH1 0x0 DUP1 PUSH1 0x80 DUP6 DUP8 SUB SLT ISZERO PUSH2 0x4DE JUMPI PUSH2 0x4DD PUSH2 0x844 JUMP JUMPDEST JUMPDEST PUSH1 0x0 DUP6 ADD CALLDATALOAD PUSH8 0xFFFFFFFFFFFFFFFF DUP2 GT ISZERO PUSH2 0x4FC JUMPI PUSH2 0x4FB PUSH2 0x83F JUMP JUMPDEST JUMPDEST PUSH2 0x508 DUP8 DUP3 DUP9 ADD PUSH2 0x481 JUMP JUMPDEST SWAP5 POP POP PUSH1 0x20 PUSH2 0x519 DUP8 DUP3 DUP9 ADD PUSH2 0x4AF JUMP JUMPDEST SWAP4 POP POP PUSH1 0x40 DUP6 ADD CALLDATALOAD PUSH8 0xFFFFFFFFFFFFFFFF DUP2 GT ISZERO PUSH2 0x53A JUMPI PUSH2 0x539 PUSH2 0x83F JUMP JUMPDEST JUMPDEST PUSH2 0x546 DUP8 DUP3 DUP9 ADD PUSH2 0x481 JUMP JUMPDEST SWAP3 POP POP PUSH1 0x60 PUSH2 0x557 DUP8 DUP3 DUP9 ADD PUSH2 0x4AF JUMP JUMPDEST SWAP2 POP POP SWAP3 SWAP6 SWAP2 SWAP5 POP SWAP3 POP JUMP JUMPDEST PUSH1 0x0 PUSH1 0x20 DUP3 DUP5 SUB SLT ISZERO PUSH2 0x579 JUMPI PUSH2 0x578 PUSH2 0x844 JUMP JUMPDEST JUMPDEST PUSH1 0x0 PUSH2 0x587 DUP5 DUP3 DUP6 ADD PUSH2 0x4AF JUMP JUMPDEST SWAP2 POP POP SWAP3 SWAP2 POP POP JUMP JUMPDEST PUSH2 0x599 DUP2 PUSH2 0x6C7 JUMP JUMPDEST DUP3 MSTORE POP POP JUMP JUMPDEST PUSH1 0x0 PUSH2 0x5AA DUP3 PUSH2 0x6AB JUMP JUMPDEST PUSH2 0x5B4 DUP2 DUP6 PUSH2 0x6B6 JUMP JUMPDEST SWAP4 POP PUSH2 0x5C4 DUP2 DUP6 PUSH1 0x20 DUP7 ADD PUSH2 0x712 JUMP JUMPDEST PUSH2 0x5CD DUP2 PUSH2 0x849 JUMP JUMPDEST DUP5 ADD SWAP2 POP POP SWAP3 SWAP2 POP POP JUMP JUMPDEST PUSH2 0x5E1 DUP2 PUSH2 0x6F9 JUMP JUMPDEST DUP3 MSTORE POP POP JUMP JUMPDEST PUSH1 0x0 PUSH1 0x20 DUP3 ADD SWAP1 POP PUSH2 0x5FC PUSH1 0x0 DUP4 ADD DUP5 PUSH2 0x590 JUMP JUMPDEST SWAP3 SWAP2 POP POP JUMP JUMPDEST PUSH1 0x0 PUSH1 0x80 DUP3 ADD SWAP1 POP DUP2 DUP2 SUB PUSH1 0x0 DUP4 ADD MSTORE PUSH2 0x61C DUP2 DUP8 PUSH2 0x59F JUMP JUMPDEST SWAP1 POP PUSH2 0x62B PUSH1 0x20 DUP4 ADD DUP7 PUSH2 0x5D8 JUMP JUMPDEST DUP2 DUP2 SUB PUSH1 0x40 DUP4 ADD MSTORE PUSH2 0x63D DUP2 DUP6 PUSH2 0x59F JUMP JUMPDEST SWAP1 POP PUSH2 0x64C PUSH1 0x60 DUP4 ADD DUP5 PUSH2 0x5D8 JUMP JUMPDEST SWAP6 SWAP5 POP POP POP POP POP JUMP JUMPDEST PUSH1 0x0 PUSH2 0x65F PUSH2 0x670 JUMP JUMPDEST SWAP1 POP PUSH2 0x66B DUP3 DUP3 PUSH2 0x777 JUMP JUMPDEST SWAP2 SWAP1 POP JUMP JUMPDEST PUSH1 0x0 PUSH1 0x40 MLOAD SWAP1 POP SWAP1 JUMP JUMPDEST PUSH1 0x0 PUSH8 0xFFFFFFFFFFFFFFFF DUP3 GT ISZERO PUSH2 0x695 JUMPI PUSH2 0x694 PUSH2 0x806 JUMP JUMPDEST JUMPDEST PUSH2 0x69E DUP3 PUSH2 0x849 JUMP JUMPDEST SWAP1 POP PUSH1 0x20 DUP2 ADD SWAP1 POP SWAP2 SWAP1 POP JUMP JUMPDEST PUSH1 0x0 DUP2 MLOAD SWAP1 POP SWAP2 SWAP1 POP JUMP JUMPDEST PUSH1 0x0 DUP3 DUP3 MSTORE PUSH1 0x20 DUP3 ADD SWAP1 POP SWAP3 SWAP2 POP POP JUMP JUMPDEST PUSH1 0x0 PUSH2 0x6D2 DUP3 PUSH2 0x6D9 JUMP JUMPDEST SWAP1 POP SWAP2 SWAP1 POP JUMP JUMPDEST PUSH1 0x0 PUSH20 0xFFFFFFFFFFFFFFFFFFFFFFFFFFFFFFFFFFFFFFFF DUP3 AND SWAP1 POP SWAP2 SWAP1 POP JUMP JUMPDEST PUSH1 0x0 DUP2 SWAP1 POP SWAP2 SWAP1 POP JUMP JUMPDEST DUP3 DUP2 DUP4 CALLDATACOPY PUSH1 0x0 DUP4 DUP4 ADD MSTORE POP POP POP JUMP JUMPDEST PUSH1 0x0 JUMPDEST DUP4 DUP2 LT ISZERO PUSH2 0x730 JUMPI DUP1 DUP3 ADD MLOAD DUP2 DUP5 ADD MSTORE PUSH1 0x20 DUP2 ADD SWAP1 POP PUSH2 0x715 JUMP JUMPDEST DUP4 DUP2 GT ISZERO PUSH2 0x73F JUMPI PUSH1 0x0 DUP5 DUP5 ADD MSTORE JUMPDEST POP POP POP POP JUMP JUMPDEST PUSH1 0x0 PUSH1 0x2 DUP3 DIV SWAP1 POP PUSH1 0x1 DUP3 AND DUP1 PUSH2 0x75D JUMPI PUSH1 0x7F DUP3 AND SWAP2 POP JUMPDEST PUSH1 0x20 DUP3 LT DUP2 EQ ISZERO PUSH2 0x771 JUMPI PUSH2 0x770 PUSH2 0x7A8 JUMP JUMPDEST JUMPDEST POP SWAP2 SWAP1 POP JUMP JUMPDEST PUSH2 0x780 DUP3 PUSH2 0x849 JUMP JUMPDEST DUP2 ADD DUP2 DUP2 LT PUSH8 0xFFFFFFFFFFFFFFFF DUP3 GT OR ISZERO PUSH2 0x79F JUMPI PUSH2 0x79E PUSH2 0x806 JUMP JUMPDEST JUMPDEST DUP1 PUSH1 0x40 MSTORE POP POP POP JUMP JUMPDEST PUSH32 0x4E487B7100000000000000000000000000000000000000000000000000000000 PUSH1 0x0 MSTORE PUSH1 0x22 PUSH1 0x4 MSTORE PUSH1 0x24 PUSH1 0x0 REVERT JUMPDEST PUSH32 0x4E487B7100000000000000000000000000000000000000000000000000000000 PUSH1 0x0 MSTORE PUSH1 0x32 PUSH1 0x4 MSTORE PUSH1 0x24 PUSH1 0x0 REVERT JUMPDEST PUSH32 0x4E487B7100000000000000000000000000000000000000000000000000000000 PUSH1 0x0 MSTORE PUSH1 0x41 PUSH1 0x4 MSTORE PUSH1 0x24 PUSH1 0x0 REVERT JUMPDEST PUSH1 0x0 DUP1 REVERT JUMPDEST PUSH1 0x0 DUP1 REVERT JUMPDEST PUSH1 0x0 DUP1 REVERT JUMPDEST PUSH1 0x0 DUP1 REVERT JUMPDEST PUSH1 0x0 PUSH1 0x1F NOT PUSH1 0x1F DUP4 ADD AND SWAP1 POP SWAP2 SWAP1 POP JUMP JUMPDEST PUSH2 0x863 DUP2 PUSH2 0x6F9 JUMP JUMPDEST DUP2 EQ PUSH2 0x86E JUMPI PUSH1 0x0 DUP1 REVERT JUMPDEST POP JUMP INVALID LOG2 PUSH5 0x6970667358 0x22 SLT KECCAK256 0xC4 SDIV PUSH21 0x7360AA24BBC1D23B9F006F719BF5CFE07CEB57712D ISZERO CALLVALUE DUP16 ADD PUSH13 0x29ACBE64736F6C634300080700 CALLER "
				},
				"gasEstimates": {
					"creation": {
						"codeDepositCost": "443000",
						"executionCost": "24746",
						"totalCost": "467746"
					},
					"external": {
						"ConsultaPessoa(uint256)": "infinite",
						"CriarPessoa(string,uint256,string,uint256)": "infinite",
						"owner()": "2511"
					}
				},
				"methodIdentifiers": {
					"ConsultaPessoa(uint256)": "07d5115d",
					"CriarPessoa(string,uint256,string,uint256)": "a21e0217",
					"owner()": "8da5cb5b"
				}
			},
			"storageLayout": {
				"storage": [
					{
						"astId": 5,
						"contract": "contracts/Blockoffice.sol:Blockoffice",
						"label": "owner",
						"offset": 0,
						"slot": "0",
						"type": "t_address"
					},
					{
						"astId": 18,
						"contract": "contracts/Blockoffice.sol:Blockoffice",
						"label": "pessoas",
						"offset": 0,
						"slot": "1",
						"type": "t_array(t_struct(Pessoa)14_storage)dyn_storage"
					}
				],
				"types": {
					"t_address": {
						"encoding": "inplace",
						"label": "address",
						"numberOfBytes": "20"
					},
					"t_array(t_struct(Pessoa)14_storage)dyn_storage": {
						"base": "t_struct(Pessoa)14_storage",
						"encoding": "dynamic_array",
						"label": "struct Blockoffice.Pessoa[]",
						"numberOfBytes": "32"
					},
					"t_string_storage": {
						"encoding": "bytes",
						"label": "string",
						"numberOfBytes": "32"
					},
					"t_struct(Pessoa)14_storage": {
						"encoding": "inplace",
						"label": "struct Blockoffice.Pessoa",
						"members": [
							{
								"astId": 7,
								"contract": "contracts/Blockoffice.sol:Blockoffice",
								"label": "nome",
								"offset": 0,
								"slot": "0",
								"type": "t_string_storage"
							},
							{
								"astId": 9,
								"contract": "contracts/Blockoffice.sol:Blockoffice",
								"label": "rg",
								"offset": 0,
								"slot": "1",
								"type": "t_uint256"
							},
							{
								"astId": 11,
								"contract": "contracts/Blockoffice.sol:Blockoffice",
								"label": "cpf",
								"offset": 0,
								"slot": "2",
								"type": "t_string_storage"
							},
							{
								"astId": 13,
								"contract": "contracts/Blockoffice.sol:Blockoffice",
								"label": "data",
								"offset": 0,
								"slot": "3",
								"type": "t_uint256"
							}
						],
						"numberOfBytes": "128"
					},
					"t_uint256": {
						"encoding": "inplace",
						"label": "uint256",
						"numberOfBytes": "32"
					}
				}
			},
			"userdoc": {
				"kind": "user",
				"methods": {},
				"version": 1
			}
		}
	}
}