{
	"contracts/Blockoffice.sol": {
		"Blockoffice": {
			"abi": [
				{
					"inputs": [
						{
							"internalType": "string",
							"name": "_nome",
							"type": "string"
						},
						{
							"internalType": "uint256",
							"name": "valor",
							"type": "uint256"
						}
					],
					"name": "escrevervalor",
					"outputs": [],
					"stateMutability": "nonpayable",
					"type": "function"
				},
				{
					"inputs": [
						{
							"internalType": "string",
							"name": "",
							"type": "string"
						}
					],
					"name": "valorrg",
					"outputs": [
						{
							"internalType": "uint256",
							"name": "",
							"type": "uint256"
						}
					],
					"stateMutability": "view",
					"type": "function"
				}
			],
			"devdoc": {
				"kind": "dev",
				"methods": {},
				"version": 1
			},
			"evm": {
				"assembly": "    /* \"contracts/Blockoffice.sol\":70:261  contract Blockoffice{\r... */\n  mstore(0x40, 0x80)\n  callvalue\n  dup1\n  iszero\n  tag_1\n  jumpi\n  0x00\n  dup1\n  revert\ntag_1:\n  pop\n  dataSize(sub_0)\n  dup1\n  dataOffset(sub_0)\n  0x00\n  codecopy\n  0x00\n  return\nstop\n\nsub_0: assembly {\n        /* \"contracts/Blockoffice.sol\":70:261  contract Blockoffice{\r... */\n      mstore(0x40, 0x80)\n      callvalue\n      dup1\n      iszero\n      tag_1\n      jumpi\n      0x00\n      dup1\n      revert\n    tag_1:\n      pop\n      jumpi(tag_2, lt(calldatasize, 0x04))\n      shr(0xe0, calldataload(0x00))\n      dup1\n      0x23cc8b82\n      eq\n      tag_3\n      jumpi\n      dup1\n      0x7d01245d\n      eq\n      tag_4\n      jumpi\n    tag_2:\n      0x00\n      dup1\n      revert\n        /* \"contracts/Blockoffice.sol\":152:256  function escrevervalor(string memory _nome, uint valor) public{\r... */\n    tag_3:\n      tag_5\n      0x04\n      dup1\n      calldatasize\n      sub\n      dup2\n      add\n      swap1\n      tag_6\n      swap2\n      swap1\n      tag_7\n      jump\t// in\n    tag_6:\n      tag_8\n      jump\t// in\n    tag_5:\n      stop\n        /* \"contracts/Blockoffice.sol\":99:139  mapping (string => uint ) public valorrg */\n    tag_4:\n      tag_9\n      0x04\n      dup1\n      calldatasize\n      sub\n      dup2\n      add\n      swap1\n      tag_10\n      swap2\n      swap1\n      tag_11\n      jump\t// in\n    tag_10:\n      tag_12\n      jump\t// in\n    tag_9:\n      mload(0x40)\n      tag_13\n      swap2\n      swap1\n      tag_14\n      jump\t// in\n    tag_13:\n      mload(0x40)\n      dup1\n      swap2\n      sub\n      swap1\n      return\n        /* \"contracts/Blockoffice.sol\":152:256  function escrevervalor(string memory _nome, uint valor) public{\r... */\n    tag_8:\n        /* \"contracts/Blockoffice.sol\":243:248  valor */\n      dup1\n        /* \"contracts/Blockoffice.sol\":225:232  valorrg */\n      0x00\n        /* \"contracts/Blockoffice.sol\":234:239  _nome */\n      dup4\n        /* \"contracts/Blockoffice.sol\":225:240  valorrg [_nome] */\n      mload(0x40)\n      tag_16\n      swap2\n      swap1\n      tag_17\n      jump\t// in\n    tag_16:\n      swap1\n      dup2\n      mstore\n      0x20\n      add\n      mload(0x40)\n      dup1\n      swap2\n      sub\n      swap1\n      keccak256\n        /* \"contracts/Blockoffice.sol\":225:248  valorrg [_nome] = valor */\n      dup2\n      swap1\n      sstore\n      pop\n        /* \"contracts/Blockoffice.sol\":152:256  function escrevervalor(string memory _nome, uint valor) public{\r... */\n      pop\n      pop\n      jump\t// out\n        /* \"contracts/Blockoffice.sol\":99:139  mapping (string => uint ) public valorrg */\n    tag_12:\n      0x00\n      dup2\n      dup1\n      mload\n      0x20\n      dup2\n      add\n      dup3\n      add\n      dup1\n      mload\n      dup5\n      dup3\n      mstore\n      0x20\n      dup4\n      add\n      0x20\n      dup6\n      add\n      keccak256\n      dup2\n      dup4\n      mstore\n      dup1\n      swap6\n      pop\n      pop\n      pop\n      pop\n      pop\n      pop\n      0x00\n      swap2\n      pop\n      swap1\n      pop\n      sload\n      dup2\n      jump\t// out\n        /* \"#utility.yul\":7:419   */\n    tag_19:\n        /* \"#utility.yul\":85:90   */\n      0x00\n        /* \"#utility.yul\":110:176   */\n      tag_21\n        /* \"#utility.yul\":126:175   */\n      tag_22\n        /* \"#utility.yul\":168:174   */\n      dup5\n        /* \"#utility.yul\":126:175   */\n      tag_23\n      jump\t// in\n    tag_22:\n        /* \"#utility.yul\":110:176   */\n      tag_24\n      jump\t// in\n    tag_21:\n        /* \"#utility.yul\":101:176   */\n      swap1\n      pop\n        /* \"#utility.yul\":199:205   */\n      dup3\n        /* \"#utility.yul\":192:197   */\n      dup2\n        /* \"#utility.yul\":185:206   */\n      mstore\n        /* \"#utility.yul\":237:241   */\n      0x20\n        /* \"#utility.yul\":230:235   */\n      dup2\n        /* \"#utility.yul\":226:242   */\n      add\n        /* \"#utility.yul\":275:278   */\n      dup5\n        /* \"#utility.yul\":266:272   */\n      dup5\n        /* \"#utility.yul\":261:264   */\n      dup5\n        /* \"#utility.yul\":257:273   */\n      add\n        /* \"#utility.yul\":254:279   */\n      gt\n        /* \"#utility.yul\":251:363   */\n      iszero\n      tag_25\n      jumpi\n        /* \"#utility.yul\":282:361   */\n      tag_26\n      tag_27\n      jump\t// in\n    tag_26:\n        /* \"#utility.yul\":251:363   */\n    tag_25:\n        /* \"#utility.yul\":372:413   */\n      tag_28\n        /* \"#utility.yul\":406:412   */\n      dup5\n        /* \"#utility.yul\":401:404   */\n      dup3\n        /* \"#utility.yul\":396:399   */\n      dup6\n        /* \"#utility.yul\":372:413   */\n      tag_29\n      jump\t// in\n    tag_28:\n        /* \"#utility.yul\":91:419   */\n      pop\n        /* \"#utility.yul\":7:419   */\n      swap4\n      swap3\n      pop\n      pop\n      pop\n      jump\t// out\n        /* \"#utility.yul\":439:779   */\n    tag_30:\n        /* \"#utility.yul\":495:500   */\n      0x00\n        /* \"#utility.yul\":544:547   */\n      dup3\n        /* \"#utility.yul\":537:541   */\n      0x1f\n        /* \"#utility.yul\":529:535   */\n      dup4\n        /* \"#utility.yul\":525:542   */\n      add\n        /* \"#utility.yul\":521:548   */\n      slt\n        /* \"#utility.yul\":511:633   */\n      tag_32\n      jumpi\n        /* \"#utility.yul\":552:631   */\n      tag_33\n      tag_34\n      jump\t// in\n    tag_33:\n        /* \"#utility.yul\":511:633   */\n    tag_32:\n        /* \"#utility.yul\":669:675   */\n      dup2\n        /* \"#utility.yul\":656:676   */\n      calldataload\n        /* \"#utility.yul\":694:773   */\n      tag_35\n        /* \"#utility.yul\":769:772   */\n      dup5\n        /* \"#utility.yul\":761:767   */\n      dup3\n        /* \"#utility.yul\":754:758   */\n      0x20\n        /* \"#utility.yul\":746:752   */\n      dup7\n        /* \"#utility.yul\":742:759   */\n      add\n        /* \"#utility.yul\":694:773   */\n      tag_19\n      jump\t// in\n    tag_35:\n        /* \"#utility.yul\":685:773   */\n      swap2\n      pop\n        /* \"#utility.yul\":501:779   */\n      pop\n        /* \"#utility.yul\":439:779   */\n      swap3\n      swap2\n      pop\n      pop\n      jump\t// out\n        /* \"#utility.yul\":785:924   */\n    tag_36:\n        /* \"#utility.yul\":831:836   */\n      0x00\n        /* \"#utility.yul\":869:875   */\n      dup2\n        /* \"#utility.yul\":856:876   */\n      calldataload\n        /* \"#utility.yul\":847:876   */\n      swap1\n      pop\n        /* \"#utility.yul\":885:918   */\n      tag_38\n        /* \"#utility.yul\":912:917   */\n      dup2\n        /* \"#utility.yul\":885:918   */\n      tag_39\n      jump\t// in\n    tag_38:\n        /* \"#utility.yul\":785:924   */\n      swap3\n      swap2\n      pop\n      pop\n      jump\t// out\n        /* \"#utility.yul\":930:1439   */\n    tag_11:\n        /* \"#utility.yul\":999:1005   */\n      0x00\n        /* \"#utility.yul\":1048:1050   */\n      0x20\n        /* \"#utility.yul\":1036:1045   */\n      dup3\n        /* \"#utility.yul\":1027:1034   */\n      dup5\n        /* \"#utility.yul\":1023:1046   */\n      sub\n        /* \"#utility.yul\":1019:1051   */\n      slt\n        /* \"#utility.yul\":1016:1135   */\n      iszero\n      tag_41\n      jumpi\n        /* \"#utility.yul\":1054:1133   */\n      tag_42\n      tag_43\n      jump\t// in\n    tag_42:\n        /* \"#utility.yul\":1016:1135   */\n    tag_41:\n        /* \"#utility.yul\":1202:1203   */\n      0x00\n        /* \"#utility.yul\":1191:1200   */\n      dup3\n        /* \"#utility.yul\":1187:1204   */\n      add\n        /* \"#utility.yul\":1174:1205   */\n      calldataload\n        /* \"#utility.yul\":1232:1250   */\n      0xffffffffffffffff\n        /* \"#utility.yul\":1224:1230   */\n      dup2\n        /* \"#utility.yul\":1221:1251   */\n      gt\n        /* \"#utility.yul\":1218:1335   */\n      iszero\n      tag_44\n      jumpi\n        /* \"#utility.yul\":1254:1333   */\n      tag_45\n      tag_46\n      jump\t// in\n    tag_45:\n        /* \"#utility.yul\":1218:1335   */\n    tag_44:\n        /* \"#utility.yul\":1359:1422   */\n      tag_47\n        /* \"#utility.yul\":1414:1421   */\n      dup5\n        /* \"#utility.yul\":1405:1411   */\n      dup3\n        /* \"#utility.yul\":1394:1403   */\n      dup6\n        /* \"#utility.yul\":1390:1412   */\n      add\n        /* \"#utility.yul\":1359:1422   */\n      tag_30\n      jump\t// in\n    tag_47:\n        /* \"#utility.yul\":1349:1422   */\n      swap2\n      pop\n        /* \"#utility.yul\":1145:1432   */\n      pop\n        /* \"#utility.yul\":930:1439   */\n      swap3\n      swap2\n      pop\n      pop\n      jump\t// out\n        /* \"#utility.yul\":1445:2099   */\n    tag_7:\n        /* \"#utility.yul\":1523:1529   */\n      0x00\n        /* \"#utility.yul\":1531:1537   */\n      dup1\n        /* \"#utility.yul\":1580:1582   */\n      0x40\n        /* \"#utility.yul\":1568:1577   */\n      dup4\n        /* \"#utility.yul\":1559:1566   */\n      dup6\n        /* \"#utility.yul\":1555:1578   */\n      sub\n        /* \"#utility.yul\":1551:1583   */\n      slt\n        /* \"#utility.yul\":1548:1667   */\n      iszero\n      tag_49\n      jumpi\n        /* \"#utility.yul\":1586:1665   */\n      tag_50\n      tag_43\n      jump\t// in\n    tag_50:\n        /* \"#utility.yul\":1548:1667   */\n    tag_49:\n        /* \"#utility.yul\":1734:1735   */\n      0x00\n        /* \"#utility.yul\":1723:1732   */\n      dup4\n        /* \"#utility.yul\":1719:1736   */\n      add\n        /* \"#utility.yul\":1706:1737   */\n      calldataload\n        /* \"#utility.yul\":1764:1782   */\n      0xffffffffffffffff\n        /* \"#utility.yul\":1756:1762   */\n      dup2\n        /* \"#utility.yul\":1753:1783   */\n      gt\n        /* \"#utility.yul\":1750:1867   */\n      iszero\n      tag_51\n      jumpi\n        /* \"#utility.yul\":1786:1865   */\n      tag_52\n      tag_46\n      jump\t// in\n    tag_52:\n        /* \"#utility.yul\":1750:1867   */\n    tag_51:\n        /* \"#utility.yul\":1891:1954   */\n      tag_53\n        /* \"#utility.yul\":1946:1953   */\n      dup6\n        /* \"#utility.yul\":1937:1943   */\n      dup3\n        /* \"#utility.yul\":1926:1935   */\n      dup7\n        /* \"#utility.yul\":1922:1944   */\n      add\n        /* \"#utility.yul\":1891:1954   */\n      tag_30\n      jump\t// in\n    tag_53:\n        /* \"#utility.yul\":1881:1954   */\n      swap3\n      pop\n        /* \"#utility.yul\":1677:1964   */\n      pop\n        /* \"#utility.yul\":2003:2005   */\n      0x20\n        /* \"#utility.yul\":2029:2082   */\n      tag_54\n        /* \"#utility.yul\":2074:2081   */\n      dup6\n        /* \"#utility.yul\":2065:2071   */\n      dup3\n        /* \"#utility.yul\":2054:2063   */\n      dup7\n        /* \"#utility.yul\":2050:2072   */\n      add\n        /* \"#utility.yul\":2029:2082   */\n      tag_36\n      jump\t// in\n    tag_54:\n        /* \"#utility.yul\":2019:2082   */\n      swap2\n      pop\n        /* \"#utility.yul\":1974:2092   */\n      pop\n        /* \"#utility.yul\":1445:2099   */\n      swap3\n      pop\n      swap3\n      swap1\n      pop\n      jump\t// out\n        /* \"#utility.yul\":2105:2482   */\n    tag_55:\n        /* \"#utility.yul\":2211:2214   */\n      0x00\n        /* \"#utility.yul\":2239:2278   */\n      tag_57\n        /* \"#utility.yul\":2272:2277   */\n      dup3\n        /* \"#utility.yul\":2239:2278   */\n      tag_58\n      jump\t// in\n    tag_57:\n        /* \"#utility.yul\":2294:2383   */\n      tag_59\n        /* \"#utility.yul\":2376:2382   */\n      dup2\n        /* \"#utility.yul\":2371:2374   */\n      dup6\n        /* \"#utility.yul\":2294:2383   */\n      tag_60\n      jump\t// in\n    tag_59:\n        /* \"#utility.yul\":2287:2383   */\n      swap4\n      pop\n        /* \"#utility.yul\":2392:2444   */\n      tag_61\n        /* \"#utility.yul\":2437:2443   */\n      dup2\n        /* \"#utility.yul\":2432:2435   */\n      dup6\n        /* \"#utility.yul\":2425:2429   */\n      0x20\n        /* \"#utility.yul\":2418:2423   */\n      dup7\n        /* \"#utility.yul\":2414:2430   */\n      add\n        /* \"#utility.yul\":2392:2444   */\n      tag_62\n      jump\t// in\n    tag_61:\n        /* \"#utility.yul\":2469:2475   */\n      dup1\n        /* \"#utility.yul\":2464:2467   */\n      dup5\n        /* \"#utility.yul\":2460:2476   */\n      add\n        /* \"#utility.yul\":2453:2476   */\n      swap2\n      pop\n        /* \"#utility.yul\":2215:2482   */\n      pop\n        /* \"#utility.yul\":2105:2482   */\n      swap3\n      swap2\n      pop\n      pop\n      jump\t// out\n        /* \"#utility.yul\":2488:2606   */\n    tag_63:\n        /* \"#utility.yul\":2575:2599   */\n      tag_65\n        /* \"#utility.yul\":2593:2598   */\n      dup2\n        /* \"#utility.yul\":2575:2599   */\n      tag_66\n      jump\t// in\n    tag_65:\n        /* \"#utility.yul\":2570:2573   */\n      dup3\n        /* \"#utility.yul\":2563:2600   */\n      mstore\n        /* \"#utility.yul\":2488:2606   */\n      pop\n      pop\n      jump\t// out\n        /* \"#utility.yul\":2612:2887   */\n    tag_17:\n        /* \"#utility.yul\":2744:2747   */\n      0x00\n        /* \"#utility.yul\":2766:2861   */\n      tag_68\n        /* \"#utility.yul\":2857:2860   */\n      dup3\n        /* \"#utility.yul\":2848:2854   */\n      dup5\n        /* \"#utility.yul\":2766:2861   */\n      tag_55\n      jump\t// in\n    tag_68:\n        /* \"#utility.yul\":2759:2861   */\n      swap2\n      pop\n        /* \"#utility.yul\":2878:2881   */\n      dup2\n        /* \"#utility.yul\":2871:2881   */\n      swap1\n      pop\n        /* \"#utility.yul\":2612:2887   */\n      swap3\n      swap2\n      pop\n      pop\n      jump\t// out\n        /* \"#utility.yul\":2893:3115   */\n    tag_14:\n        /* \"#utility.yul\":2986:2990   */\n      0x00\n        /* \"#utility.yul\":3024:3026   */\n      0x20\n        /* \"#utility.yul\":3013:3022   */\n      dup3\n        /* \"#utility.yul\":3009:3027   */\n      add\n        /* \"#utility.yul\":3001:3027   */\n      swap1\n      pop\n        /* \"#utility.yul\":3037:3108   */\n      tag_70\n        /* \"#utility.yul\":3105:3106   */\n      0x00\n        /* \"#utility.yul\":3094:3103   */\n      dup4\n        /* \"#utility.yul\":3090:3107   */\n      add\n        /* \"#utility.yul\":3081:3087   */\n      dup5\n        /* \"#utility.yul\":3037:3108   */\n      tag_63\n      jump\t// in\n    tag_70:\n        /* \"#utility.yul\":2893:3115   */\n      swap3\n      swap2\n      pop\n      pop\n      jump\t// out\n        /* \"#utility.yul\":3121:3250   */\n    tag_24:\n        /* \"#utility.yul\":3155:3161   */\n      0x00\n        /* \"#utility.yul\":3182:3202   */\n      tag_72\n      tag_73\n      jump\t// in\n    tag_72:\n        /* \"#utility.yul\":3172:3202   */\n      swap1\n      pop\n        /* \"#utility.yul\":3211:3244   */\n      tag_74\n        /* \"#utility.yul\":3239:3243   */\n      dup3\n        /* \"#utility.yul\":3231:3237   */\n      dup3\n        /* \"#utility.yul\":3211:3244   */\n      tag_75\n      jump\t// in\n    tag_74:\n        /* \"#utility.yul\":3121:3250   */\n      swap2\n      swap1\n      pop\n      jump\t// out\n        /* \"#utility.yul\":3256:3331   */\n    tag_73:\n        /* \"#utility.yul\":3289:3295   */\n      0x00\n        /* \"#utility.yul\":3322:3324   */\n      0x40\n        /* \"#utility.yul\":3316:3325   */\n      mload\n        /* \"#utility.yul\":3306:3325   */\n      swap1\n      pop\n        /* \"#utility.yul\":3256:3331   */\n      swap1\n      jump\t// out\n        /* \"#utility.yul\":3337:3645   */\n    tag_23:\n        /* \"#utility.yul\":3399:3403   */\n      0x00\n        /* \"#utility.yul\":3489:3507   */\n      0xffffffffffffffff\n        /* \"#utility.yul\":3481:3487   */\n      dup3\n        /* \"#utility.yul\":3478:3508   */\n      gt\n        /* \"#utility.yul\":3475:3531   */\n      iszero\n      tag_78\n      jumpi\n        /* \"#utility.yul\":3511:3529   */\n      tag_79\n      tag_80\n      jump\t// in\n    tag_79:\n        /* \"#utility.yul\":3475:3531   */\n    tag_78:\n        /* \"#utility.yul\":3549:3578   */\n      tag_81\n        /* \"#utility.yul\":3571:3577   */\n      dup3\n        /* \"#utility.yul\":3549:3578   */\n      tag_82\n      jump\t// in\n    tag_81:\n        /* \"#utility.yul\":3541:3578   */\n      swap1\n      pop\n        /* \"#utility.yul\":3633:3637   */\n      0x20\n        /* \"#utility.yul\":3627:3631   */\n      dup2\n        /* \"#utility.yul\":3623:3638   */\n      add\n        /* \"#utility.yul\":3615:3638   */\n      swap1\n      pop\n        /* \"#utility.yul\":3337:3645   */\n      swap2\n      swap1\n      pop\n      jump\t// out\n        /* \"#utility.yul\":3651:3750   */\n    tag_58:\n        /* \"#utility.yul\":3703:3709   */\n      0x00\n        /* \"#utility.yul\":3737:3742   */\n      dup2\n        /* \"#utility.yul\":3731:3743   */\n      mload\n        /* \"#utility.yul\":3721:3743   */\n      swap1\n      pop\n        /* \"#utility.yul\":3651:3750   */\n      swap2\n      swap1\n      pop\n      jump\t// out\n        /* \"#utility.yul\":3756:3904   */\n    tag_60:\n        /* \"#utility.yul\":3858:3869   */\n      0x00\n        /* \"#utility.yul\":3895:3898   */\n      dup2\n        /* \"#utility.yul\":3880:3898   */\n      swap1\n      pop\n        /* \"#utility.yul\":3756:3904   */\n      swap3\n      swap2\n      pop\n      pop\n      jump\t// out\n        /* \"#utility.yul\":3910:3987   */\n    tag_66:\n        /* \"#utility.yul\":3947:3954   */\n      0x00\n        /* \"#utility.yul\":3976:3981   */\n      dup2\n        /* \"#utility.yul\":3965:3981   */\n      swap1\n      pop\n        /* \"#utility.yul\":3910:3987   */\n      swap2\n      swap1\n      pop\n      jump\t// out\n        /* \"#utility.yul\":3993:4147   */\n    tag_29:\n        /* \"#utility.yul\":4077:4083   */\n      dup3\n        /* \"#utility.yul\":4072:4075   */\n      dup2\n        /* \"#utility.yul\":4067:4070   */\n      dup4\n        /* \"#utility.yul\":4054:4084   */\n      calldatacopy\n        /* \"#utility.yul\":4139:4140   */\n      0x00\n        /* \"#utility.yul\":4130:4136   */\n      dup4\n        /* \"#utility.yul\":4125:4128   */\n      dup4\n        /* \"#utility.yul\":4121:4137   */\n      add\n        /* \"#utility.yul\":4114:4141   */\n      mstore\n        /* \"#utility.yul\":3993:4147   */\n      pop\n      pop\n      pop\n      jump\t// out\n        /* \"#utility.yul\":4153:4460   */\n    tag_62:\n        /* \"#utility.yul\":4221:4222   */\n      0x00\n        /* \"#utility.yul\":4231:4344   */\n    tag_88:\n        /* \"#utility.yul\":4245:4251   */\n      dup4\n        /* \"#utility.yul\":4242:4243   */\n      dup2\n        /* \"#utility.yul\":4239:4252   */\n      lt\n        /* \"#utility.yul\":4231:4344   */\n      iszero\n      tag_90\n      jumpi\n        /* \"#utility.yul\":4330:4331   */\n      dup1\n        /* \"#utility.yul\":4325:4328   */\n      dup3\n        /* \"#utility.yul\":4321:4332   */\n      add\n        /* \"#utility.yul\":4315:4333   */\n      mload\n        /* \"#utility.yul\":4311:4312   */\n      dup2\n        /* \"#utility.yul\":4306:4309   */\n      dup5\n        /* \"#utility.yul\":4302:4313   */\n      add\n        /* \"#utility.yul\":4295:4334   */\n      mstore\n        /* \"#utility.yul\":4267:4269   */\n      0x20\n        /* \"#utility.yul\":4264:4265   */\n      dup2\n        /* \"#utility.yul\":4260:4270   */\n      add\n        /* \"#utility.yul\":4255:4270   */\n      swap1\n      pop\n        /* \"#utility.yul\":4231:4344   */\n      jump(tag_88)\n    tag_90:\n        /* \"#utility.yul\":4362:4368   */\n      dup4\n        /* \"#utility.yul\":4359:4360   */\n      dup2\n        /* \"#utility.yul\":4356:4369   */\n      gt\n        /* \"#utility.yul\":4353:4454   */\n      iszero\n      tag_91\n      jumpi\n        /* \"#utility.yul\":4442:4443   */\n      0x00\n        /* \"#utility.yul\":4433:4439   */\n      dup5\n        /* \"#utility.yul\":4428:4431   */\n      dup5\n        /* \"#utility.yul\":4424:4440   */\n      add\n        /* \"#utility.yul\":4417:4444   */\n      mstore\n        /* \"#utility.yul\":4353:4454   */\n    tag_91:\n        /* \"#utility.yul\":4202:4460   */\n      pop\n        /* \"#utility.yul\":4153:4460   */\n      pop\n      pop\n      pop\n      jump\t// out\n        /* \"#utility.yul\":4466:4747   */\n    tag_75:\n        /* \"#utility.yul\":4549:4576   */\n      tag_93\n        /* \"#utility.yul\":4571:4575   */\n      dup3\n        /* \"#utility.yul\":4549:4576   */\n      tag_82\n      jump\t// in\n    tag_93:\n        /* \"#utility.yul\":4541:4547   */\n      dup2\n        /* \"#utility.yul\":4537:4577   */\n      add\n        /* \"#utility.yul\":4679:4685   */\n      dup2\n        /* \"#utility.yul\":4667:4677   */\n      dup2\n        /* \"#utility.yul\":4664:4686   */\n      lt\n        /* \"#utility.yul\":4643:4661   */\n      0xffffffffffffffff\n        /* \"#utility.yul\":4631:4641   */\n      dup3\n        /* \"#utility.yul\":4628:4662   */\n      gt\n        /* \"#utility.yul\":4625:4687   */\n      or\n        /* \"#utility.yul\":4622:4710   */\n      iszero\n      tag_94\n      jumpi\n        /* \"#utility.yul\":4690:4708   */\n      tag_95\n      tag_80\n      jump\t// in\n    tag_95:\n        /* \"#utility.yul\":4622:4710   */\n    tag_94:\n        /* \"#utility.yul\":4730:4740   */\n      dup1\n        /* \"#utility.yul\":4726:4728   */\n      0x40\n        /* \"#utility.yul\":4719:4741   */\n      mstore\n        /* \"#utility.yul\":4509:4747   */\n      pop\n        /* \"#utility.yul\":4466:4747   */\n      pop\n      pop\n      jump\t// out\n        /* \"#utility.yul\":4753:4933   */\n    tag_80:\n        /* \"#utility.yul\":4801:4878   */\n      0x4e487b7100000000000000000000000000000000000000000000000000000000\n        /* \"#utility.yul\":4798:4799   */\n      0x00\n        /* \"#utility.yul\":4791:4879   */\n      mstore\n        /* \"#utility.yul\":4898:4902   */\n      0x41\n        /* \"#utility.yul\":4895:4896   */\n      0x04\n        /* \"#utility.yul\":4888:4903   */\n      mstore\n        /* \"#utility.yul\":4922:4926   */\n      0x24\n        /* \"#utility.yul\":4919:4920   */\n      0x00\n        /* \"#utility.yul\":4912:4927   */\n      revert\n        /* \"#utility.yul\":4939:5056   */\n    tag_34:\n        /* \"#utility.yul\":5048:5049   */\n      0x00\n        /* \"#utility.yul\":5045:5046   */\n      dup1\n        /* \"#utility.yul\":5038:5050   */\n      revert\n        /* \"#utility.yul\":5062:5179   */\n    tag_27:\n        /* \"#utility.yul\":5171:5172   */\n      0x00\n        /* \"#utility.yul\":5168:5169   */\n      dup1\n        /* \"#utility.yul\":5161:5173   */\n      revert\n        /* \"#utility.yul\":5185:5302   */\n    tag_46:\n        /* \"#utility.yul\":5294:5295   */\n      0x00\n        /* \"#utility.yul\":5291:5292   */\n      dup1\n        /* \"#utility.yul\":5284:5296   */\n      revert\n        /* \"#utility.yul\":5308:5425   */\n    tag_43:\n        /* \"#utility.yul\":5417:5418   */\n      0x00\n        /* \"#utility.yul\":5414:5415   */\n      dup1\n        /* \"#utility.yul\":5407:5419   */\n      revert\n        /* \"#utility.yul\":5431:5533   */\n    tag_82:\n        /* \"#utility.yul\":5472:5478   */\n      0x00\n        /* \"#utility.yul\":5523:5525   */\n      0x1f\n        /* \"#utility.yul\":5519:5526   */\n      not\n        /* \"#utility.yul\":5514:5516   */\n      0x1f\n        /* \"#utility.yul\":5507:5512   */\n      dup4\n        /* \"#utility.yul\":5503:5517   */\n      add\n        /* \"#utility.yul\":5499:5527   */\n      and\n        /* \"#utility.yul\":5489:5527   */\n      swap1\n      pop\n        /* \"#utility.yul\":5431:5533   */\n      swap2\n      swap1\n      pop\n      jump\t// out\n        /* \"#utility.yul\":5539:5661   */\n    tag_39:\n        /* \"#utility.yul\":5612:5636   */\n      tag_103\n        /* \"#utility.yul\":5630:5635   */\n      dup2\n        /* \"#utility.yul\":5612:5636   */\n      tag_66\n      jump\t// in\n    tag_103:\n        /* \"#utility.yul\":5605:5610   */\n      dup2\n        /* \"#utility.yul\":5602:5637   */\n      eq\n        /* \"#utility.yul\":5592:5655   */\n      tag_104\n      jumpi\n        /* \"#utility.yul\":5651:5652   */\n      0x00\n        /* \"#utility.yul\":5648:5649   */\n      dup1\n        /* \"#utility.yul\":5641:5653   */\n      revert\n        /* \"#utility.yul\":5592:5655   */\n    tag_104:\n        /* \"#utility.yul\":5539:5661   */\n      pop\n      jump\t// out\n\n    auxdata: 0xa2646970667358221220775e2ff612ac987357fab241d35ba665fa060c45b07957abf1a8f0b90c5ee45964736f6c63430008070033\n}\n",
				"bytecode": {
					"linkReferences": {},
					"object": "608060405234801561001057600080fd5b50610402806100206000396000f3fe608060405234801561001057600080fd5b50600436106100365760003560e01c806323cc8b821461003b5780637d01245d14610057575b600080fd5b610055600480360381019061005091906101aa565b610087565b005b610071600480360381019061006c9190610161565b6100ae565b60405161007e919061025d565b60405180910390f35b806000836040516100989190610246565b9081526020016040518091039020819055505050565b6000818051602081018201805184825260208301602085012081835280955050505050506000915090505481565b60006100ef6100ea8461029d565b610278565b90508281526020810184848401111561010b5761010a610395565b5b6101168482856102ee565b509392505050565b600082601f83011261013357610132610390565b5b81356101438482602086016100dc565b91505092915050565b60008135905061015b816103b5565b92915050565b6000602082840312156101775761017661039f565b5b600082013567ffffffffffffffff8111156101955761019461039a565b5b6101a18482850161011e565b91505092915050565b600080604083850312156101c1576101c061039f565b5b600083013567ffffffffffffffff8111156101df576101de61039a565b5b6101eb8582860161011e565b92505060206101fc8582860161014c565b9150509250929050565b6000610211826102ce565b61021b81856102d9565b935061022b8185602086016102fd565b80840191505092915050565b610240816102e4565b82525050565b60006102528284610206565b915081905092915050565b60006020820190506102726000830184610237565b92915050565b6000610282610293565b905061028e8282610330565b919050565b6000604051905090565b600067ffffffffffffffff8211156102b8576102b7610361565b5b6102c1826103a4565b9050602081019050919050565b600081519050919050565b600081905092915050565b6000819050919050565b82818337600083830152505050565b60005b8381101561031b578082015181840152602081019050610300565b8381111561032a576000848401525b50505050565b610339826103a4565b810181811067ffffffffffffffff8211171561035857610357610361565b5b80604052505050565b7f4e487b7100000000000000000000000000000000000000000000000000000000600052604160045260246000fd5b600080fd5b600080fd5b600080fd5b600080fd5b6000601f19601f8301169050919050565b6103be816102e4565b81146103c957600080fd5b5056fea2646970667358221220775e2ff612ac987357fab241d35ba665fa060c45b07957abf1a8f0b90c5ee45964736f6c63430008070033",
					"opcodes": "PUSH1 0x80 PUSH1 0x40 MSTORE CALLVALUE DUP1 ISZERO PUSH2 0x10 JUMPI PUSH1 0x0 DUP1 REVERT JUMPDEST POP PUSH2 0x402 DUP1 PUSH2 0x20 PUSH1 0x0 CODECOPY PUSH1 0x0 RETURN INVALID PUSH1 0x80 PUSH1 0x40 MSTORE CALLVALUE DUP1 ISZERO PUSH2 0x10 JUMPI PUSH1 0x0 DUP1 REVERT JUMPDEST POP PUSH1 0x4 CALLDATASIZE LT PUSH2 0x36 JUMPI PUSH1 0x0 CALLDATALOAD PUSH1 0xE0 SHR DUP1 PUSH4 0x23CC8B82 EQ PUSH2 0x3B JUMPI DUP1 PUSH4 0x7D01245D EQ PUSH2 0x57 JUMPI JUMPDEST PUSH1 0x0 DUP1 REVERT JUMPDEST PUSH2 0x55 PUSH1 0x4 DUP1 CALLDATASIZE SUB DUP2 ADD SWAP1 PUSH2 0x50 SWAP2 SWAP1 PUSH2 0x1AA JUMP JUMPDEST PUSH2 0x87 JUMP JUMPDEST STOP JUMPDEST PUSH2 0x71 PUSH1 0x4 DUP1 CALLDATASIZE SUB DUP2 ADD SWAP1 PUSH2 0x6C SWAP2 SWAP1 PUSH2 0x161 JUMP JUMPDEST PUSH2 0xAE JUMP JUMPDEST PUSH1 0x40 MLOAD PUSH2 0x7E SWAP2 SWAP1 PUSH2 0x25D JUMP JUMPDEST PUSH1 0x40 MLOAD DUP1 SWAP2 SUB SWAP1 RETURN JUMPDEST DUP1 PUSH1 0x0 DUP4 PUSH1 0x40 MLOAD PUSH2 0x98 SWAP2 SWAP1 PUSH2 0x246 JUMP JUMPDEST SWAP1 DUP2 MSTORE PUSH1 0x20 ADD PUSH1 0x40 MLOAD DUP1 SWAP2 SUB SWAP1 KECCAK256 DUP2 SWAP1 SSTORE POP POP POP JUMP JUMPDEST PUSH1 0x0 DUP2 DUP1 MLOAD PUSH1 0x20 DUP2 ADD DUP3 ADD DUP1 MLOAD DUP5 DUP3 MSTORE PUSH1 0x20 DUP4 ADD PUSH1 0x20 DUP6 ADD KECCAK256 DUP2 DUP4 MSTORE DUP1 SWAP6 POP POP POP POP POP POP PUSH1 0x0 SWAP2 POP SWAP1 POP SLOAD DUP2 JUMP JUMPDEST PUSH1 0x0 PUSH2 0xEF PUSH2 0xEA DUP5 PUSH2 0x29D JUMP JUMPDEST PUSH2 0x278 JUMP JUMPDEST SWAP1 POP DUP3 DUP2 MSTORE PUSH1 0x20 DUP2 ADD DUP5 DUP5 DUP5 ADD GT ISZERO PUSH2 0x10B JUMPI PUSH2 0x10A PUSH2 0x395 JUMP JUMPDEST JUMPDEST PUSH2 0x116 DUP5 DUP3 DUP6 PUSH2 0x2EE JUMP JUMPDEST POP SWAP4 SWAP3 POP POP POP JUMP JUMPDEST PUSH1 0x0 DUP3 PUSH1 0x1F DUP4 ADD SLT PUSH2 0x133 JUMPI PUSH2 0x132 PUSH2 0x390 JUMP JUMPDEST JUMPDEST DUP2 CALLDATALOAD PUSH2 0x143 DUP5 DUP3 PUSH1 0x20 DUP7 ADD PUSH2 0xDC JUMP JUMPDEST SWAP2 POP POP SWAP3 SWAP2 POP POP JUMP JUMPDEST PUSH1 0x0 DUP2 CALLDATALOAD SWAP1 POP PUSH2 0x15B DUP2 PUSH2 0x3B5 JUMP JUMPDEST SWAP3 SWAP2 POP POP JUMP JUMPDEST PUSH1 0x0 PUSH1 0x20 DUP3 DUP5 SUB SLT ISZERO PUSH2 0x177 JUMPI PUSH2 0x176 PUSH2 0x39F JUMP JUMPDEST JUMPDEST PUSH1 0x0 DUP3 ADD CALLDATALOAD PUSH8 0xFFFFFFFFFFFFFFFF DUP2 GT ISZERO PUSH2 0x195 JUMPI PUSH2 0x194 PUSH2 0x39A JUMP JUMPDEST JUMPDEST PUSH2 0x1A1 DUP5 DUP3 DUP6 ADD PUSH2 0x11E JUMP JUMPDEST SWAP2 POP POP SWAP3 SWAP2 POP POP JUMP JUMPDEST PUSH1 0x0 DUP1 PUSH1 0x40 DUP4 DUP6 SUB SLT ISZERO PUSH2 0x1C1 JUMPI PUSH2 0x1C0 PUSH2 0x39F JUMP JUMPDEST JUMPDEST PUSH1 0x0 DUP4 ADD CALLDATALOAD PUSH8 0xFFFFFFFFFFFFFFFF DUP2 GT ISZERO PUSH2 0x1DF JUMPI PUSH2 0x1DE PUSH2 0x39A JUMP JUMPDEST JUMPDEST PUSH2 0x1EB DUP6 DUP3 DUP7 ADD PUSH2 0x11E JUMP JUMPDEST SWAP3 POP POP PUSH1 0x20 PUSH2 0x1FC DUP6 DUP3 DUP7 ADD PUSH2 0x14C JUMP JUMPDEST SWAP2 POP POP SWAP3 POP SWAP3 SWAP1 POP JUMP JUMPDEST PUSH1 0x0 PUSH2 0x211 DUP3 PUSH2 0x2CE JUMP JUMPDEST PUSH2 0x21B DUP2 DUP6 PUSH2 0x2D9 JUMP JUMPDEST SWAP4 POP PUSH2 0x22B DUP2 DUP6 PUSH1 0x20 DUP7 ADD PUSH2 0x2FD JUMP JUMPDEST DUP1 DUP5 ADD SWAP2 POP POP SWAP3 SWAP2 POP POP JUMP JUMPDEST PUSH2 0x240 DUP2 PUSH2 0x2E4 JUMP JUMPDEST DUP3 MSTORE POP POP JUMP JUMPDEST PUSH1 0x0 PUSH2 0x252 DUP3 DUP5 PUSH2 0x206 JUMP JUMPDEST SWAP2 POP DUP2 SWAP1 POP SWAP3 SWAP2 POP POP JUMP JUMPDEST PUSH1 0x0 PUSH1 0x20 DUP3 ADD SWAP1 POP PUSH2 0x272 PUSH1 0x0 DUP4 ADD DUP5 PUSH2 0x237 JUMP JUMPDEST SWAP3 SWAP2 POP POP JUMP JUMPDEST PUSH1 0x0 PUSH2 0x282 PUSH2 0x293 JUMP JUMPDEST SWAP1 POP PUSH2 0x28E DUP3 DUP3 PUSH2 0x330 JUMP JUMPDEST SWAP2 SWAP1 POP JUMP JUMPDEST PUSH1 0x0 PUSH1 0x40 MLOAD SWAP1 POP SWAP1 JUMP JUMPDEST PUSH1 0x0 PUSH8 0xFFFFFFFFFFFFFFFF DUP3 GT ISZERO PUSH2 0x2B8 JUMPI PUSH2 0x2B7 PUSH2 0x361 JUMP JUMPDEST JUMPDEST PUSH2 0x2C1 DUP3 PUSH2 0x3A4 JUMP JUMPDEST SWAP1 POP PUSH1 0x20 DUP2 ADD SWAP1 POP SWAP2 SWAP1 POP JUMP JUMPDEST PUSH1 0x0 DUP2 MLOAD SWAP1 POP SWAP2 SWAP1 POP JUMP JUMPDEST PUSH1 0x0 DUP2 SWAP1 POP SWAP3 SWAP2 POP POP JUMP JUMPDEST PUSH1 0x0 DUP2 SWAP1 POP SWAP2 SWAP1 POP JUMP JUMPDEST DUP3 DUP2 DUP4 CALLDATACOPY PUSH1 0x0 DUP4 DUP4 ADD MSTORE POP POP POP JUMP JUMPDEST PUSH1 0x0 JUMPDEST DUP4 DUP2 LT ISZERO PUSH2 0x31B JUMPI DUP1 DUP3 ADD MLOAD DUP2 DUP5 ADD MSTORE PUSH1 0x20 DUP2 ADD SWAP1 POP PUSH2 0x300 JUMP JUMPDEST DUP4 DUP2 GT ISZERO PUSH2 0x32A JUMPI PUSH1 0x0 DUP5 DUP5 ADD MSTORE JUMPDEST POP POP POP POP JUMP JUMPDEST PUSH2 0x339 DUP3 PUSH2 0x3A4 JUMP JUMPDEST DUP2 ADD DUP2 DUP2 LT PUSH8 0xFFFFFFFFFFFFFFFF DUP3 GT OR ISZERO PUSH2 0x358 JUMPI PUSH2 0x357 PUSH2 0x361 JUMP JUMPDEST JUMPDEST DUP1 PUSH1 0x40 MSTORE POP POP POP JUMP JUMPDEST PUSH32 0x4E487B7100000000000000000000000000000000000000000000000000000000 PUSH1 0x0 MSTORE PUSH1 0x41 PUSH1 0x4 MSTORE PUSH1 0x24 PUSH1 0x0 REVERT JUMPDEST PUSH1 0x0 DUP1 REVERT JUMPDEST PUSH1 0x0 DUP1 REVERT JUMPDEST PUSH1 0x0 DUP1 REVERT JUMPDEST PUSH1 0x0 DUP1 REVERT JUMPDEST PUSH1 0x0 PUSH1 0x1F NOT PUSH1 0x1F DUP4 ADD AND SWAP1 POP SWAP2 SWAP1 POP JUMP JUMPDEST PUSH2 0x3BE DUP2 PUSH2 0x2E4 JUMP JUMPDEST DUP2 EQ PUSH2 0x3C9 JUMPI PUSH1 0x0 DUP1 REVERT JUMPDEST POP JUMP INVALID LOG2 PUSH5 0x6970667358 0x22 SLT KECCAK256 PUSH24 0x5E2FF612AC987357FAB241D35BA665FA060C45B07957ABF1 0xA8 CREATE 0xB9 0xC 0x5E 0xE4 MSIZE PUSH5 0x736F6C6343 STOP ADDMOD SMOD STOP CALLER "
				},
				"gasEstimates": {
					"creation": {
						"codeDepositCost": "205200",
						"executionCost": "251",
						"totalCost": "205451"
					},
					"external": {
						"escrevervalor(string,uint256)": "infinite",
						"valorrg(string)": "infinite"
					}
				},
				"methodIdentifiers": {
					"escrevervalor(string,uint256)": "23cc8b82",
					"valorrg(string)": "7d01245d"
				}
			},
			"storageLayout": {
				"storage": [
					{
						"astId": 5,
						"contract": "contracts/Blockoffice.sol:Blockoffice",
						"label": "valorrg",
						"offset": 0,
						"slot": "0",
						"type": "t_mapping(t_string_memory_ptr,t_uint256)"
					}
				],
				"types": {
					"t_mapping(t_string_memory_ptr,t_uint256)": {
						"encoding": "mapping",
						"key": "t_string_memory_ptr",
						"label": "mapping(string => uint256)",
						"numberOfBytes": "32",
						"value": "t_uint256"
					},
					"t_string_memory_ptr": {
						"encoding": "bytes",
						"label": "string",
						"numberOfBytes": "32"
					},
					"t_uint256": {
						"encoding": "inplace",
						"label": "uint256",
						"numberOfBytes": "32"
					}
				}
			},
			"userdoc": {
				"kind": "user",
				"methods": {},
				"version": 1
			}
		}
	}
}