{
	"contracts/Blockoffice.sol": {
		"Blockoffice": {
			"abi": [
				{
					"inputs": [
						{
							"internalType": "uint256",
							"name": "id",
							"type": "uint256"
						}
					],
					"name": "ConsultaPessoa",
					"outputs": [
						{
							"internalType": "string",
							"name": "",
							"type": "string"
						},
						{
							"internalType": "uint256",
							"name": "",
							"type": "uint256"
						},
						{
							"internalType": "string",
							"name": "",
							"type": "string"
						},
						{
							"internalType": "string",
							"name": "",
							"type": "string"
						}
					],
					"stateMutability": "view",
					"type": "function"
				},
				{
					"inputs": [
						{
							"internalType": "string",
							"name": "_nome",
							"type": "string"
						},
						{
							"internalType": "uint256",
							"name": "_rg",
							"type": "uint256"
						},
						{
							"internalType": "string",
							"name": "_cpf",
							"type": "string"
						},
						{
							"internalType": "string",
							"name": "_data",
							"type": "string"
						}
					],
					"name": "CriarPessoa",
					"outputs": [],
					"stateMutability": "nonpayable",
					"type": "function"
				},
				{
					"inputs": [],
					"name": "owner",
					"outputs": [
						{
							"internalType": "address",
							"name": "",
							"type": "address"
						}
					],
					"stateMutability": "view",
					"type": "function"
				}
			],
			"devdoc": {
				"kind": "dev",
				"methods": {},
				"version": 1
			},
			"evm": {
				"assembly": "    /* \"contracts/Blockoffice.sol\":70:901  contract Blockoffice{\r... */\n  mstore(0x40, 0x80)\n    /* \"contracts/Blockoffice.sol\":126:136  msg.sender */\n  caller\n    /* \"contracts/Blockoffice.sol\":103:136  address public owner = msg.sender */\n  0x00\n  dup1\n  0x0100\n  exp\n  dup2\n  sload\n  dup2\n  0xffffffffffffffffffffffffffffffffffffffff\n  mul\n  not\n  and\n  swap1\n  dup4\n  0xffffffffffffffffffffffffffffffffffffffff\n  and\n  mul\n  or\n  swap1\n  sstore\n  pop\n    /* \"contracts/Blockoffice.sol\":70:901  contract Blockoffice{\r... */\n  callvalue\n  dup1\n  iszero\n  tag_1\n  jumpi\n  0x00\n  dup1\n  revert\ntag_1:\n  pop\n  dataSize(sub_0)\n  dup1\n  dataOffset(sub_0)\n  0x00\n  codecopy\n  0x00\n  return\nstop\n\nsub_0: assembly {\n        /* \"contracts/Blockoffice.sol\":70:901  contract Blockoffice{\r... */\n      mstore(0x40, 0x80)\n      callvalue\n      dup1\n      iszero\n      tag_1\n      jumpi\n      0x00\n      dup1\n      revert\n    tag_1:\n      pop\n      jumpi(tag_2, lt(calldatasize, 0x04))\n      shr(0xe0, calldataload(0x00))\n      dup1\n      0x07d5115d\n      eq\n      tag_3\n      jumpi\n      dup1\n      0x8da5cb5b\n      eq\n      tag_4\n      jumpi\n      dup1\n      0xdd04b474\n      eq\n      tag_5\n      jumpi\n    tag_2:\n      0x00\n      dup1\n      revert\n        /* \"contracts/Blockoffice.sol\":654:889  function ConsultaPessoa (uint id) external view returns (string memory, uint, string memory, string memory) {\r... */\n    tag_3:\n      tag_6\n      0x04\n      dup1\n      calldatasize\n      sub\n      dup2\n      add\n      swap1\n      tag_7\n      swap2\n      swap1\n      tag_8\n      jump\t// in\n    tag_7:\n      tag_9\n      jump\t// in\n    tag_6:\n      mload(0x40)\n      tag_10\n      swap5\n      swap4\n      swap3\n      swap2\n      swap1\n      tag_11\n      jump\t// in\n    tag_10:\n      mload(0x40)\n      dup1\n      swap2\n      sub\n      swap1\n      return\n        /* \"contracts/Blockoffice.sol\":103:136  address public owner = msg.sender */\n    tag_4:\n      tag_12\n      tag_13\n      jump\t// in\n    tag_12:\n      mload(0x40)\n      tag_14\n      swap2\n      swap1\n      tag_15\n      jump\t// in\n    tag_14:\n      mload(0x40)\n      dup1\n      swap2\n      sub\n      swap1\n      return\n        /* \"contracts/Blockoffice.sol\":294:646  function  CriarPessoa(string memory _nome, uint _rg, string memory _cpf, string memory _data) external{\r... */\n    tag_5:\n      tag_16\n      0x04\n      dup1\n      calldatasize\n      sub\n      dup2\n      add\n      swap1\n      tag_17\n      swap2\n      swap1\n      tag_18\n      jump\t// in\n    tag_17:\n      tag_19\n      jump\t// in\n    tag_16:\n      stop\n        /* \"contracts/Blockoffice.sol\":654:889  function ConsultaPessoa (uint id) external view returns (string memory, uint, string memory, string memory) {\r... */\n    tag_9:\n        /* \"contracts/Blockoffice.sol\":711:724  string memory */\n      0x60\n        /* \"contracts/Blockoffice.sol\":726:730  uint */\n      0x00\n        /* \"contracts/Blockoffice.sol\":732:745  string memory */\n      0x60\n        /* \"contracts/Blockoffice.sol\":747:760  string memory */\n      dup1\n        /* \"contracts/Blockoffice.sol\":773:793  Pessoa memory pessoa */\n      0x00\n        /* \"contracts/Blockoffice.sol\":796:803  pessoas */\n      0x01\n        /* \"contracts/Blockoffice.sol\":804:806  id */\n      dup7\n        /* \"contracts/Blockoffice.sol\":796:807  pessoas[id] */\n      dup2\n      sload\n      dup2\n      lt\n      tag_21\n      jumpi\n      tag_22\n      tag_23\n      jump\t// in\n    tag_22:\n    tag_21:\n      swap1\n      0x00\n      mstore\n      keccak256(0x00, 0x20)\n      swap1\n      0x04\n      mul\n      add\n        /* \"contracts/Blockoffice.sol\":773:807  Pessoa memory pessoa = pessoas[id] */\n      mload(0x40)\n      dup1\n      0x80\n      add\n      0x40\n      mstore\n      swap1\n      dup2\n      0x00\n      dup3\n      add\n      dup1\n      sload\n      tag_25\n      swap1\n      tag_26\n      jump\t// in\n    tag_25:\n      dup1\n      0x1f\n      add\n      0x20\n      dup1\n      swap2\n      div\n      mul\n      0x20\n      add\n      mload(0x40)\n      swap1\n      dup2\n      add\n      0x40\n      mstore\n      dup1\n      swap3\n      swap2\n      swap1\n      dup2\n      dup2\n      mstore\n      0x20\n      add\n      dup3\n      dup1\n      sload\n      tag_27\n      swap1\n      tag_26\n      jump\t// in\n    tag_27:\n      dup1\n      iszero\n      tag_28\n      jumpi\n      dup1\n      0x1f\n      lt\n      tag_29\n      jumpi\n      0x0100\n      dup1\n      dup4\n      sload\n      div\n      mul\n      dup4\n      mstore\n      swap2\n      0x20\n      add\n      swap2\n      jump(tag_28)\n    tag_29:\n      dup3\n      add\n      swap2\n      swap1\n      0x00\n      mstore\n      keccak256(0x00, 0x20)\n      swap1\n    tag_30:\n      dup2\n      sload\n      dup2\n      mstore\n      swap1\n      0x01\n      add\n      swap1\n      0x20\n      add\n      dup1\n      dup4\n      gt\n      tag_30\n      jumpi\n      dup3\n      swap1\n      sub\n      0x1f\n      and\n      dup3\n      add\n      swap2\n    tag_28:\n      pop\n      pop\n      pop\n      pop\n      pop\n      dup2\n      mstore\n      0x20\n      add\n      0x01\n      dup3\n      add\n      sload\n      dup2\n      mstore\n      0x20\n      add\n      0x02\n      dup3\n      add\n      dup1\n      sload\n      tag_31\n      swap1\n      tag_26\n      jump\t// in\n    tag_31:\n      dup1\n      0x1f\n      add\n      0x20\n      dup1\n      swap2\n      div\n      mul\n      0x20\n      add\n      mload(0x40)\n      swap1\n      dup2\n      add\n      0x40\n      mstore\n      dup1\n      swap3\n      swap2\n      swap1\n      dup2\n      dup2\n      mstore\n      0x20\n      add\n      dup3\n      dup1\n      sload\n      tag_32\n      swap1\n      tag_26\n      jump\t// in\n    tag_32:\n      dup1\n      iszero\n      tag_33\n      jumpi\n      dup1\n      0x1f\n      lt\n      tag_34\n      jumpi\n      0x0100\n      dup1\n      dup4\n      sload\n      div\n      mul\n      dup4\n      mstore\n      swap2\n      0x20\n      add\n      swap2\n      jump(tag_33)\n    tag_34:\n      dup3\n      add\n      swap2\n      swap1\n      0x00\n      mstore\n      keccak256(0x00, 0x20)\n      swap1\n    tag_35:\n      dup2\n      sload\n      dup2\n      mstore\n      swap1\n      0x01\n      add\n      swap1\n      0x20\n      add\n      dup1\n      dup4\n      gt\n      tag_35\n      jumpi\n      dup3\n      swap1\n      sub\n      0x1f\n      and\n      dup3\n      add\n      swap2\n    tag_33:\n      pop\n      pop\n      pop\n      pop\n      pop\n      dup2\n      mstore\n      0x20\n      add\n      0x03\n      dup3\n      add\n      dup1\n      sload\n      tag_36\n      swap1\n      tag_26\n      jump\t// in\n    tag_36:\n      dup1\n      0x1f\n      add\n      0x20\n      dup1\n      swap2\n      div\n      mul\n      0x20\n      add\n      mload(0x40)\n      swap1\n      dup2\n      add\n      0x40\n      mstore\n      dup1\n      swap3\n      swap2\n      swap1\n      dup2\n      dup2\n      mstore\n      0x20\n      add\n      dup3\n      dup1\n      sload\n      tag_37\n      swap1\n      tag_26\n      jump\t// in\n    tag_37:\n      dup1\n      iszero\n      tag_38\n      jumpi\n      dup1\n      0x1f\n      lt\n      tag_39\n      jumpi\n      0x0100\n      dup1\n      dup4\n      sload\n      div\n      mul\n      dup4\n      mstore\n      swap2\n      0x20\n      add\n      swap2\n      jump(tag_38)\n    tag_39:\n      dup3\n      add\n      swap2\n      swap1\n      0x00\n      mstore\n      keccak256(0x00, 0x20)\n      swap1\n    tag_40:\n      dup2\n      sload\n      dup2\n      mstore\n      swap1\n      0x01\n      add\n      swap1\n      0x20\n      add\n      dup1\n      dup4\n      gt\n      tag_40\n      jumpi\n      dup3\n      swap1\n      sub\n      0x1f\n      and\n      dup3\n      add\n      swap2\n    tag_38:\n      pop\n      pop\n      pop\n      pop\n      pop\n      dup2\n      mstore\n      pop\n      pop\n      swap1\n      pop\n        /* \"contracts/Blockoffice.sol\":826:832  pessoa */\n      dup1\n        /* \"contracts/Blockoffice.sol\":826:837  pessoa.nome */\n      0x00\n      add\n      mload\n        /* \"contracts/Blockoffice.sol\":839:845  pessoa */\n      dup2\n        /* \"contracts/Blockoffice.sol\":839:848  pessoa.rg */\n      0x20\n      add\n      mload\n        /* \"contracts/Blockoffice.sol\":850:856  pessoa */\n      dup3\n        /* \"contracts/Blockoffice.sol\":850:860  pessoa.cpf */\n      0x40\n      add\n      mload\n        /* \"contracts/Blockoffice.sol\":862:868  pessoa */\n      dup4\n        /* \"contracts/Blockoffice.sol\":862:873  pessoa.data */\n      0x60\n      add\n      mload\n        /* \"contracts/Blockoffice.sol\":818:874  return (pessoa.nome, pessoa.rg, pessoa.cpf, pessoa.data) */\n      swap5\n      pop\n      swap5\n      pop\n      swap5\n      pop\n      swap5\n      pop\n      pop\n        /* \"contracts/Blockoffice.sol\":654:889  function ConsultaPessoa (uint id) external view returns (string memory, uint, string memory, string memory) {\r... */\n      swap2\n      swap4\n      pop\n      swap2\n      swap4\n      jump\t// out\n        /* \"contracts/Blockoffice.sol\":103:136  address public owner = msg.sender */\n    tag_13:\n      0x00\n      dup1\n      sload\n      swap1\n      0x0100\n      exp\n      swap1\n      div\n      0xffffffffffffffffffffffffffffffffffffffff\n      and\n      dup2\n      jump\t// out\n        /* \"contracts/Blockoffice.sol\":294:646  function  CriarPessoa(string memory _nome, uint _rg, string memory _cpf, string memory _data) external{\r... */\n    tag_19:\n        /* \"contracts/Blockoffice.sol\":407:431  Pessoa memory novaPessoa */\n      tag_42\n      tag_43\n      jump\t// in\n    tag_42:\n        /* \"contracts/Blockoffice.sol\":460:465  _nome */\n      dup5\n        /* \"contracts/Blockoffice.sol\":442:452  novaPessoa */\n      dup2\n        /* \"contracts/Blockoffice.sol\":442:457  novaPessoa.nome */\n      0x00\n      add\n        /* \"contracts/Blockoffice.sol\":442:465  novaPessoa.nome = _nome */\n      dup2\n      swap1\n      mstore\n      pop\n        /* \"contracts/Blockoffice.sol\":492:495  _rg */\n      dup4\n        /* \"contracts/Blockoffice.sol\":476:486  novaPessoa */\n      dup2\n        /* \"contracts/Blockoffice.sol\":476:489  novaPessoa.rg */\n      0x20\n      add\n        /* \"contracts/Blockoffice.sol\":476:495  novaPessoa.rg = _rg */\n      dup2\n      dup2\n      mstore\n      pop\n      pop\n        /* \"contracts/Blockoffice.sol\":523:527  _cpf */\n      dup3\n        /* \"contracts/Blockoffice.sol\":506:516  novaPessoa */\n      dup2\n        /* \"contracts/Blockoffice.sol\":506:520  novaPessoa.cpf */\n      0x40\n      add\n        /* \"contracts/Blockoffice.sol\":506:527  novaPessoa.cpf = _cpf */\n      dup2\n      swap1\n      mstore\n      pop\n        /* \"contracts/Blockoffice.sol\":557:562  _data */\n      dup2\n        /* \"contracts/Blockoffice.sol\":539:549  novaPessoa */\n      dup2\n        /* \"contracts/Blockoffice.sol\":539:554  novaPessoa.data */\n      0x60\n      add\n        /* \"contracts/Blockoffice.sol\":539:562  novaPessoa.data = _data */\n      dup2\n      swap1\n      mstore\n      pop\n        /* \"contracts/Blockoffice.sol\":575:582  pessoas */\n      0x01\n        /* \"contracts/Blockoffice.sol\":588:598  novaPessoa */\n      dup2\n        /* \"contracts/Blockoffice.sol\":575:599  pessoas.push(novaPessoa) */\n      swap1\n      dup1\n      0x01\n      dup2\n      sload\n      add\n      dup1\n      dup3\n      sstore\n      dup1\n      swap2\n      pop\n      pop\n      0x01\n      swap1\n      sub\n      swap1\n      0x00\n      mstore\n      keccak256(0x00, 0x20)\n      swap1\n      0x04\n      mul\n      add\n      0x00\n      swap1\n      swap2\n      swap1\n      swap2\n      swap1\n      swap2\n      pop\n      0x00\n      dup3\n      add\n      mload\n      dup2\n      0x00\n      add\n      swap1\n      dup1\n      mload\n      swap1\n      0x20\n      add\n      swap1\n      tag_45\n      swap3\n      swap2\n      swap1\n      tag_46\n      jump\t// in\n    tag_45:\n      pop\n      0x20\n      dup3\n      add\n      mload\n      dup2\n      0x01\n      add\n      sstore\n      0x40\n      dup3\n      add\n      mload\n      dup2\n      0x02\n      add\n      swap1\n      dup1\n      mload\n      swap1\n      0x20\n      add\n      swap1\n      tag_47\n      swap3\n      swap2\n      swap1\n      tag_46\n      jump\t// in\n    tag_47:\n      pop\n      0x60\n      dup3\n      add\n      mload\n      dup2\n      0x03\n      add\n      swap1\n      dup1\n      mload\n      swap1\n      0x20\n      add\n      swap1\n      tag_48\n      swap3\n      swap2\n      swap1\n      tag_46\n      jump\t// in\n    tag_48:\n      pop\n      pop\n      pop\n        /* \"contracts/Blockoffice.sol\":632:637  owner */\n      0x00\n      dup1\n      sload\n      swap1\n      0x0100\n      exp\n      swap1\n      div\n      0xffffffffffffffffffffffffffffffffffffffff\n      and\n        /* \"contracts/Blockoffice.sol\":618:637  msg.sender == owner */\n      0xffffffffffffffffffffffffffffffffffffffff\n      and\n        /* \"contracts/Blockoffice.sol\":618:628  msg.sender */\n      caller\n        /* \"contracts/Blockoffice.sol\":618:637  msg.sender == owner */\n      0xffffffffffffffffffffffffffffffffffffffff\n      and\n      eq\n        /* \"contracts/Blockoffice.sol\":610:638  require(msg.sender == owner) */\n      tag_49\n      jumpi\n      0x00\n      dup1\n      revert\n    tag_49:\n        /* \"contracts/Blockoffice.sol\":396:646  {\r... */\n      pop\n        /* \"contracts/Blockoffice.sol\":294:646  function  CriarPessoa(string memory _nome, uint _rg, string memory _cpf, string memory _data) external{\r... */\n      pop\n      pop\n      pop\n      pop\n      jump\t// out\n    tag_43:\n      mload(0x40)\n      dup1\n      0x80\n      add\n      0x40\n      mstore\n      dup1\n      0x60\n      dup2\n      mstore\n      0x20\n      add\n      0x00\n      dup2\n      mstore\n      0x20\n      add\n      0x60\n      dup2\n      mstore\n      0x20\n      add\n      0x60\n      dup2\n      mstore\n      pop\n      swap1\n      jump\t// out\n    tag_46:\n      dup3\n      dup1\n      sload\n      tag_50\n      swap1\n      tag_26\n      jump\t// in\n    tag_50:\n      swap1\n      0x00\n      mstore\n      keccak256(0x00, 0x20)\n      swap1\n      0x1f\n      add\n      0x20\n      swap1\n      div\n      dup2\n      add\n      swap3\n      dup3\n      tag_52\n      jumpi\n      0x00\n      dup6\n      sstore\n      jump(tag_51)\n    tag_52:\n      dup3\n      0x1f\n      lt\n      tag_53\n      jumpi\n      dup1\n      mload\n      not(0xff)\n      and\n      dup4\n      dup1\n      add\n      or\n      dup6\n      sstore\n      jump(tag_51)\n    tag_53:\n      dup3\n      dup1\n      add\n      0x01\n      add\n      dup6\n      sstore\n      dup3\n      iszero\n      tag_51\n      jumpi\n      swap2\n      dup3\n      add\n    tag_54:\n      dup3\n      dup2\n      gt\n      iszero\n      tag_55\n      jumpi\n      dup3\n      mload\n      dup3\n      sstore\n      swap2\n      0x20\n      add\n      swap2\n      swap1\n      0x01\n      add\n      swap1\n      jump(tag_54)\n    tag_55:\n    tag_51:\n      pop\n      swap1\n      pop\n      tag_56\n      swap2\n      swap1\n      tag_57\n      jump\t// in\n    tag_56:\n      pop\n      swap1\n      jump\t// out\n    tag_57:\n    tag_58:\n      dup1\n      dup3\n      gt\n      iszero\n      tag_59\n      jumpi\n      0x00\n      dup2\n      0x00\n      swap1\n      sstore\n      pop\n      0x01\n      add\n      jump(tag_58)\n    tag_59:\n      pop\n      swap1\n      jump\t// out\n        /* \"#utility.yul\":7:419   */\n    tag_61:\n        /* \"#utility.yul\":85:90   */\n      0x00\n        /* \"#utility.yul\":110:176   */\n      tag_63\n        /* \"#utility.yul\":126:175   */\n      tag_64\n        /* \"#utility.yul\":168:174   */\n      dup5\n        /* \"#utility.yul\":126:175   */\n      tag_65\n      jump\t// in\n    tag_64:\n        /* \"#utility.yul\":110:176   */\n      tag_66\n      jump\t// in\n    tag_63:\n        /* \"#utility.yul\":101:176   */\n      swap1\n      pop\n        /* \"#utility.yul\":199:205   */\n      dup3\n        /* \"#utility.yul\":192:197   */\n      dup2\n        /* \"#utility.yul\":185:206   */\n      mstore\n        /* \"#utility.yul\":237:241   */\n      0x20\n        /* \"#utility.yul\":230:235   */\n      dup2\n        /* \"#utility.yul\":226:242   */\n      add\n        /* \"#utility.yul\":275:278   */\n      dup5\n        /* \"#utility.yul\":266:272   */\n      dup5\n        /* \"#utility.yul\":261:264   */\n      dup5\n        /* \"#utility.yul\":257:273   */\n      add\n        /* \"#utility.yul\":254:279   */\n      gt\n        /* \"#utility.yul\":251:363   */\n      iszero\n      tag_67\n      jumpi\n        /* \"#utility.yul\":282:361   */\n      tag_68\n      tag_69\n      jump\t// in\n    tag_68:\n        /* \"#utility.yul\":251:363   */\n    tag_67:\n        /* \"#utility.yul\":372:413   */\n      tag_70\n        /* \"#utility.yul\":406:412   */\n      dup5\n        /* \"#utility.yul\":401:404   */\n      dup3\n        /* \"#utility.yul\":396:399   */\n      dup6\n        /* \"#utility.yul\":372:413   */\n      tag_71\n      jump\t// in\n    tag_70:\n        /* \"#utility.yul\":91:419   */\n      pop\n        /* \"#utility.yul\":7:419   */\n      swap4\n      swap3\n      pop\n      pop\n      pop\n      jump\t// out\n        /* \"#utility.yul\":439:779   */\n    tag_72:\n        /* \"#utility.yul\":495:500   */\n      0x00\n        /* \"#utility.yul\":544:547   */\n      dup3\n        /* \"#utility.yul\":537:541   */\n      0x1f\n        /* \"#utility.yul\":529:535   */\n      dup4\n        /* \"#utility.yul\":525:542   */\n      add\n        /* \"#utility.yul\":521:548   */\n      slt\n        /* \"#utility.yul\":511:633   */\n      tag_74\n      jumpi\n        /* \"#utility.yul\":552:631   */\n      tag_75\n      tag_76\n      jump\t// in\n    tag_75:\n        /* \"#utility.yul\":511:633   */\n    tag_74:\n        /* \"#utility.yul\":669:675   */\n      dup2\n        /* \"#utility.yul\":656:676   */\n      calldataload\n        /* \"#utility.yul\":694:773   */\n      tag_77\n        /* \"#utility.yul\":769:772   */\n      dup5\n        /* \"#utility.yul\":761:767   */\n      dup3\n        /* \"#utility.yul\":754:758   */\n      0x20\n        /* \"#utility.yul\":746:752   */\n      dup7\n        /* \"#utility.yul\":742:759   */\n      add\n        /* \"#utility.yul\":694:773   */\n      tag_61\n      jump\t// in\n    tag_77:\n        /* \"#utility.yul\":685:773   */\n      swap2\n      pop\n        /* \"#utility.yul\":501:779   */\n      pop\n        /* \"#utility.yul\":439:779   */\n      swap3\n      swap2\n      pop\n      pop\n      jump\t// out\n        /* \"#utility.yul\":785:924   */\n    tag_78:\n        /* \"#utility.yul\":831:836   */\n      0x00\n        /* \"#utility.yul\":869:875   */\n      dup2\n        /* \"#utility.yul\":856:876   */\n      calldataload\n        /* \"#utility.yul\":847:876   */\n      swap1\n      pop\n        /* \"#utility.yul\":885:918   */\n      tag_80\n        /* \"#utility.yul\":912:917   */\n      dup2\n        /* \"#utility.yul\":885:918   */\n      tag_81\n      jump\t// in\n    tag_80:\n        /* \"#utility.yul\":785:924   */\n      swap3\n      swap2\n      pop\n      pop\n      jump\t// out\n        /* \"#utility.yul\":930:2235   */\n    tag_18:\n        /* \"#utility.yul\":1046:1052   */\n      0x00\n        /* \"#utility.yul\":1054:1060   */\n      dup1\n        /* \"#utility.yul\":1062:1068   */\n      0x00\n        /* \"#utility.yul\":1070:1076   */\n      dup1\n        /* \"#utility.yul\":1119:1122   */\n      0x80\n        /* \"#utility.yul\":1107:1116   */\n      dup6\n        /* \"#utility.yul\":1098:1105   */\n      dup8\n        /* \"#utility.yul\":1094:1117   */\n      sub\n        /* \"#utility.yul\":1090:1123   */\n      slt\n        /* \"#utility.yul\":1087:1207   */\n      iszero\n      tag_83\n      jumpi\n        /* \"#utility.yul\":1126:1205   */\n      tag_84\n      tag_85\n      jump\t// in\n    tag_84:\n        /* \"#utility.yul\":1087:1207   */\n    tag_83:\n        /* \"#utility.yul\":1274:1275   */\n      0x00\n        /* \"#utility.yul\":1263:1272   */\n      dup6\n        /* \"#utility.yul\":1259:1276   */\n      add\n        /* \"#utility.yul\":1246:1277   */\n      calldataload\n        /* \"#utility.yul\":1304:1322   */\n      0xffffffffffffffff\n        /* \"#utility.yul\":1296:1302   */\n      dup2\n        /* \"#utility.yul\":1293:1323   */\n      gt\n        /* \"#utility.yul\":1290:1407   */\n      iszero\n      tag_86\n      jumpi\n        /* \"#utility.yul\":1326:1405   */\n      tag_87\n      tag_88\n      jump\t// in\n    tag_87:\n        /* \"#utility.yul\":1290:1407   */\n    tag_86:\n        /* \"#utility.yul\":1431:1494   */\n      tag_89\n        /* \"#utility.yul\":1486:1493   */\n      dup8\n        /* \"#utility.yul\":1477:1483   */\n      dup3\n        /* \"#utility.yul\":1466:1475   */\n      dup9\n        /* \"#utility.yul\":1462:1484   */\n      add\n        /* \"#utility.yul\":1431:1494   */\n      tag_72\n      jump\t// in\n    tag_89:\n        /* \"#utility.yul\":1421:1494   */\n      swap5\n      pop\n        /* \"#utility.yul\":1217:1504   */\n      pop\n        /* \"#utility.yul\":1543:1545   */\n      0x20\n        /* \"#utility.yul\":1569:1622   */\n      tag_90\n        /* \"#utility.yul\":1614:1621   */\n      dup8\n        /* \"#utility.yul\":1605:1611   */\n      dup3\n        /* \"#utility.yul\":1594:1603   */\n      dup9\n        /* \"#utility.yul\":1590:1612   */\n      add\n        /* \"#utility.yul\":1569:1622   */\n      tag_78\n      jump\t// in\n    tag_90:\n        /* \"#utility.yul\":1559:1622   */\n      swap4\n      pop\n        /* \"#utility.yul\":1514:1632   */\n      pop\n        /* \"#utility.yul\":1699:1701   */\n      0x40\n        /* \"#utility.yul\":1688:1697   */\n      dup6\n        /* \"#utility.yul\":1684:1702   */\n      add\n        /* \"#utility.yul\":1671:1703   */\n      calldataload\n        /* \"#utility.yul\":1730:1748   */\n      0xffffffffffffffff\n        /* \"#utility.yul\":1722:1728   */\n      dup2\n        /* \"#utility.yul\":1719:1749   */\n      gt\n        /* \"#utility.yul\":1716:1833   */\n      iszero\n      tag_91\n      jumpi\n        /* \"#utility.yul\":1752:1831   */\n      tag_92\n      tag_88\n      jump\t// in\n    tag_92:\n        /* \"#utility.yul\":1716:1833   */\n    tag_91:\n        /* \"#utility.yul\":1857:1920   */\n      tag_93\n        /* \"#utility.yul\":1912:1919   */\n      dup8\n        /* \"#utility.yul\":1903:1909   */\n      dup3\n        /* \"#utility.yul\":1892:1901   */\n      dup9\n        /* \"#utility.yul\":1888:1910   */\n      add\n        /* \"#utility.yul\":1857:1920   */\n      tag_72\n      jump\t// in\n    tag_93:\n        /* \"#utility.yul\":1847:1920   */\n      swap3\n      pop\n        /* \"#utility.yul\":1642:1930   */\n      pop\n        /* \"#utility.yul\":1997:1999   */\n      0x60\n        /* \"#utility.yul\":1986:1995   */\n      dup6\n        /* \"#utility.yul\":1982:2000   */\n      add\n        /* \"#utility.yul\":1969:2001   */\n      calldataload\n        /* \"#utility.yul\":2028:2046   */\n      0xffffffffffffffff\n        /* \"#utility.yul\":2020:2026   */\n      dup2\n        /* \"#utility.yul\":2017:2047   */\n      gt\n        /* \"#utility.yul\":2014:2131   */\n      iszero\n      tag_94\n      jumpi\n        /* \"#utility.yul\":2050:2129   */\n      tag_95\n      tag_88\n      jump\t// in\n    tag_95:\n        /* \"#utility.yul\":2014:2131   */\n    tag_94:\n        /* \"#utility.yul\":2155:2218   */\n      tag_96\n        /* \"#utility.yul\":2210:2217   */\n      dup8\n        /* \"#utility.yul\":2201:2207   */\n      dup3\n        /* \"#utility.yul\":2190:2199   */\n      dup9\n        /* \"#utility.yul\":2186:2208   */\n      add\n        /* \"#utility.yul\":2155:2218   */\n      tag_72\n      jump\t// in\n    tag_96:\n        /* \"#utility.yul\":2145:2218   */\n      swap2\n      pop\n        /* \"#utility.yul\":1940:2228   */\n      pop\n        /* \"#utility.yul\":930:2235   */\n      swap3\n      swap6\n      swap2\n      swap5\n      pop\n      swap3\n      pop\n      jump\t// out\n        /* \"#utility.yul\":2241:2570   */\n    tag_8:\n        /* \"#utility.yul\":2300:2306   */\n      0x00\n        /* \"#utility.yul\":2349:2351   */\n      0x20\n        /* \"#utility.yul\":2337:2346   */\n      dup3\n        /* \"#utility.yul\":2328:2335   */\n      dup5\n        /* \"#utility.yul\":2324:2347   */\n      sub\n        /* \"#utility.yul\":2320:2352   */\n      slt\n        /* \"#utility.yul\":2317:2436   */\n      iszero\n      tag_98\n      jumpi\n        /* \"#utility.yul\":2355:2434   */\n      tag_99\n      tag_85\n      jump\t// in\n    tag_99:\n        /* \"#utility.yul\":2317:2436   */\n    tag_98:\n        /* \"#utility.yul\":2475:2476   */\n      0x00\n        /* \"#utility.yul\":2500:2553   */\n      tag_100\n        /* \"#utility.yul\":2545:2552   */\n      dup5\n        /* \"#utility.yul\":2536:2542   */\n      dup3\n        /* \"#utility.yul\":2525:2534   */\n      dup6\n        /* \"#utility.yul\":2521:2543   */\n      add\n        /* \"#utility.yul\":2500:2553   */\n      tag_78\n      jump\t// in\n    tag_100:\n        /* \"#utility.yul\":2490:2553   */\n      swap2\n      pop\n        /* \"#utility.yul\":2446:2563   */\n      pop\n        /* \"#utility.yul\":2241:2570   */\n      swap3\n      swap2\n      pop\n      pop\n      jump\t// out\n        /* \"#utility.yul\":2576:2694   */\n    tag_101:\n        /* \"#utility.yul\":2663:2687   */\n      tag_103\n        /* \"#utility.yul\":2681:2686   */\n      dup2\n        /* \"#utility.yul\":2663:2687   */\n      tag_104\n      jump\t// in\n    tag_103:\n        /* \"#utility.yul\":2658:2661   */\n      dup3\n        /* \"#utility.yul\":2651:2688   */\n      mstore\n        /* \"#utility.yul\":2576:2694   */\n      pop\n      pop\n      jump\t// out\n        /* \"#utility.yul\":2700:3064   */\n    tag_105:\n        /* \"#utility.yul\":2788:2791   */\n      0x00\n        /* \"#utility.yul\":2816:2855   */\n      tag_107\n        /* \"#utility.yul\":2849:2854   */\n      dup3\n        /* \"#utility.yul\":2816:2855   */\n      tag_108\n      jump\t// in\n    tag_107:\n        /* \"#utility.yul\":2871:2942   */\n      tag_109\n        /* \"#utility.yul\":2935:2941   */\n      dup2\n        /* \"#utility.yul\":2930:2933   */\n      dup6\n        /* \"#utility.yul\":2871:2942   */\n      tag_110\n      jump\t// in\n    tag_109:\n        /* \"#utility.yul\":2864:2942   */\n      swap4\n      pop\n        /* \"#utility.yul\":2951:3003   */\n      tag_111\n        /* \"#utility.yul\":2996:3002   */\n      dup2\n        /* \"#utility.yul\":2991:2994   */\n      dup6\n        /* \"#utility.yul\":2984:2988   */\n      0x20\n        /* \"#utility.yul\":2977:2982   */\n      dup7\n        /* \"#utility.yul\":2973:2989   */\n      add\n        /* \"#utility.yul\":2951:3003   */\n      tag_112\n      jump\t// in\n    tag_111:\n        /* \"#utility.yul\":3028:3057   */\n      tag_113\n        /* \"#utility.yul\":3050:3056   */\n      dup2\n        /* \"#utility.yul\":3028:3057   */\n      tag_114\n      jump\t// in\n    tag_113:\n        /* \"#utility.yul\":3023:3026   */\n      dup5\n        /* \"#utility.yul\":3019:3058   */\n      add\n        /* \"#utility.yul\":3012:3058   */\n      swap2\n      pop\n        /* \"#utility.yul\":2792:3064   */\n      pop\n        /* \"#utility.yul\":2700:3064   */\n      swap3\n      swap2\n      pop\n      pop\n      jump\t// out\n        /* \"#utility.yul\":3070:3188   */\n    tag_115:\n        /* \"#utility.yul\":3157:3181   */\n      tag_117\n        /* \"#utility.yul\":3175:3180   */\n      dup2\n        /* \"#utility.yul\":3157:3181   */\n      tag_118\n      jump\t// in\n    tag_117:\n        /* \"#utility.yul\":3152:3155   */\n      dup3\n        /* \"#utility.yul\":3145:3182   */\n      mstore\n        /* \"#utility.yul\":3070:3188   */\n      pop\n      pop\n      jump\t// out\n        /* \"#utility.yul\":3194:3416   */\n    tag_15:\n        /* \"#utility.yul\":3287:3291   */\n      0x00\n        /* \"#utility.yul\":3325:3327   */\n      0x20\n        /* \"#utility.yul\":3314:3323   */\n      dup3\n        /* \"#utility.yul\":3310:3328   */\n      add\n        /* \"#utility.yul\":3302:3328   */\n      swap1\n      pop\n        /* \"#utility.yul\":3338:3409   */\n      tag_120\n        /* \"#utility.yul\":3406:3407   */\n      0x00\n        /* \"#utility.yul\":3395:3404   */\n      dup4\n        /* \"#utility.yul\":3391:3408   */\n      add\n        /* \"#utility.yul\":3382:3388   */\n      dup5\n        /* \"#utility.yul\":3338:3409   */\n      tag_101\n      jump\t// in\n    tag_120:\n        /* \"#utility.yul\":3194:3416   */\n      swap3\n      swap2\n      pop\n      pop\n      jump\t// out\n        /* \"#utility.yul\":3422:4248   */\n    tag_11:\n        /* \"#utility.yul\":3659:3663   */\n      0x00\n        /* \"#utility.yul\":3697:3700   */\n      0x80\n        /* \"#utility.yul\":3686:3695   */\n      dup3\n        /* \"#utility.yul\":3682:3701   */\n      add\n        /* \"#utility.yul\":3674:3701   */\n      swap1\n      pop\n        /* \"#utility.yul\":3747:3756   */\n      dup2\n        /* \"#utility.yul\":3741:3745   */\n      dup2\n        /* \"#utility.yul\":3737:3757   */\n      sub\n        /* \"#utility.yul\":3733:3734   */\n      0x00\n        /* \"#utility.yul\":3722:3731   */\n      dup4\n        /* \"#utility.yul\":3718:3735   */\n      add\n        /* \"#utility.yul\":3711:3758   */\n      mstore\n        /* \"#utility.yul\":3775:3853   */\n      tag_122\n        /* \"#utility.yul\":3848:3852   */\n      dup2\n        /* \"#utility.yul\":3839:3845   */\n      dup8\n        /* \"#utility.yul\":3775:3853   */\n      tag_105\n      jump\t// in\n    tag_122:\n        /* \"#utility.yul\":3767:3853   */\n      swap1\n      pop\n        /* \"#utility.yul\":3863:3935   */\n      tag_123\n        /* \"#utility.yul\":3931:3933   */\n      0x20\n        /* \"#utility.yul\":3920:3929   */\n      dup4\n        /* \"#utility.yul\":3916:3934   */\n      add\n        /* \"#utility.yul\":3907:3913   */\n      dup7\n        /* \"#utility.yul\":3863:3935   */\n      tag_115\n      jump\t// in\n    tag_123:\n        /* \"#utility.yul\":3982:3991   */\n      dup2\n        /* \"#utility.yul\":3976:3980   */\n      dup2\n        /* \"#utility.yul\":3972:3992   */\n      sub\n        /* \"#utility.yul\":3967:3969   */\n      0x40\n        /* \"#utility.yul\":3956:3965   */\n      dup4\n        /* \"#utility.yul\":3952:3970   */\n      add\n        /* \"#utility.yul\":3945:3993   */\n      mstore\n        /* \"#utility.yul\":4010:4088   */\n      tag_124\n        /* \"#utility.yul\":4083:4087   */\n      dup2\n        /* \"#utility.yul\":4074:4080   */\n      dup6\n        /* \"#utility.yul\":4010:4088   */\n      tag_105\n      jump\t// in\n    tag_124:\n        /* \"#utility.yul\":4002:4088   */\n      swap1\n      pop\n        /* \"#utility.yul\":4135:4144   */\n      dup2\n        /* \"#utility.yul\":4129:4133   */\n      dup2\n        /* \"#utility.yul\":4125:4145   */\n      sub\n        /* \"#utility.yul\":4120:4122   */\n      0x60\n        /* \"#utility.yul\":4109:4118   */\n      dup4\n        /* \"#utility.yul\":4105:4123   */\n      add\n        /* \"#utility.yul\":4098:4146   */\n      mstore\n        /* \"#utility.yul\":4163:4241   */\n      tag_125\n        /* \"#utility.yul\":4236:4240   */\n      dup2\n        /* \"#utility.yul\":4227:4233   */\n      dup5\n        /* \"#utility.yul\":4163:4241   */\n      tag_105\n      jump\t// in\n    tag_125:\n        /* \"#utility.yul\":4155:4241   */\n      swap1\n      pop\n        /* \"#utility.yul\":3422:4248   */\n      swap6\n      swap5\n      pop\n      pop\n      pop\n      pop\n      pop\n      jump\t// out\n        /* \"#utility.yul\":4254:4383   */\n    tag_66:\n        /* \"#utility.yul\":4288:4294   */\n      0x00\n        /* \"#utility.yul\":4315:4335   */\n      tag_127\n      tag_128\n      jump\t// in\n    tag_127:\n        /* \"#utility.yul\":4305:4335   */\n      swap1\n      pop\n        /* \"#utility.yul\":4344:4377   */\n      tag_129\n        /* \"#utility.yul\":4372:4376   */\n      dup3\n        /* \"#utility.yul\":4364:4370   */\n      dup3\n        /* \"#utility.yul\":4344:4377   */\n      tag_130\n      jump\t// in\n    tag_129:\n        /* \"#utility.yul\":4254:4383   */\n      swap2\n      swap1\n      pop\n      jump\t// out\n        /* \"#utility.yul\":4389:4464   */\n    tag_128:\n        /* \"#utility.yul\":4422:4428   */\n      0x00\n        /* \"#utility.yul\":4455:4457   */\n      0x40\n        /* \"#utility.yul\":4449:4458   */\n      mload\n        /* \"#utility.yul\":4439:4458   */\n      swap1\n      pop\n        /* \"#utility.yul\":4389:4464   */\n      swap1\n      jump\t// out\n        /* \"#utility.yul\":4470:4778   */\n    tag_65:\n        /* \"#utility.yul\":4532:4536   */\n      0x00\n        /* \"#utility.yul\":4622:4640   */\n      0xffffffffffffffff\n        /* \"#utility.yul\":4614:4620   */\n      dup3\n        /* \"#utility.yul\":4611:4641   */\n      gt\n        /* \"#utility.yul\":4608:4664   */\n      iszero\n      tag_133\n      jumpi\n        /* \"#utility.yul\":4644:4662   */\n      tag_134\n      tag_135\n      jump\t// in\n    tag_134:\n        /* \"#utility.yul\":4608:4664   */\n    tag_133:\n        /* \"#utility.yul\":4682:4711   */\n      tag_136\n        /* \"#utility.yul\":4704:4710   */\n      dup3\n        /* \"#utility.yul\":4682:4711   */\n      tag_114\n      jump\t// in\n    tag_136:\n        /* \"#utility.yul\":4674:4711   */\n      swap1\n      pop\n        /* \"#utility.yul\":4766:4770   */\n      0x20\n        /* \"#utility.yul\":4760:4764   */\n      dup2\n        /* \"#utility.yul\":4756:4771   */\n      add\n        /* \"#utility.yul\":4748:4771   */\n      swap1\n      pop\n        /* \"#utility.yul\":4470:4778   */\n      swap2\n      swap1\n      pop\n      jump\t// out\n        /* \"#utility.yul\":4784:4883   */\n    tag_108:\n        /* \"#utility.yul\":4836:4842   */\n      0x00\n        /* \"#utility.yul\":4870:4875   */\n      dup2\n        /* \"#utility.yul\":4864:4876   */\n      mload\n        /* \"#utility.yul\":4854:4876   */\n      swap1\n      pop\n        /* \"#utility.yul\":4784:4883   */\n      swap2\n      swap1\n      pop\n      jump\t// out\n        /* \"#utility.yul\":4889:5058   */\n    tag_110:\n        /* \"#utility.yul\":4973:4984   */\n      0x00\n        /* \"#utility.yul\":5007:5013   */\n      dup3\n        /* \"#utility.yul\":5002:5005   */\n      dup3\n        /* \"#utility.yul\":4995:5014   */\n      mstore\n        /* \"#utility.yul\":5047:5051   */\n      0x20\n        /* \"#utility.yul\":5042:5045   */\n      dup3\n        /* \"#utility.yul\":5038:5052   */\n      add\n        /* \"#utility.yul\":5023:5052   */\n      swap1\n      pop\n        /* \"#utility.yul\":4889:5058   */\n      swap3\n      swap2\n      pop\n      pop\n      jump\t// out\n        /* \"#utility.yul\":5064:5160   */\n    tag_104:\n        /* \"#utility.yul\":5101:5108   */\n      0x00\n        /* \"#utility.yul\":5130:5154   */\n      tag_140\n        /* \"#utility.yul\":5148:5153   */\n      dup3\n        /* \"#utility.yul\":5130:5154   */\n      tag_141\n      jump\t// in\n    tag_140:\n        /* \"#utility.yul\":5119:5154   */\n      swap1\n      pop\n        /* \"#utility.yul\":5064:5160   */\n      swap2\n      swap1\n      pop\n      jump\t// out\n        /* \"#utility.yul\":5166:5292   */\n    tag_141:\n        /* \"#utility.yul\":5203:5210   */\n      0x00\n        /* \"#utility.yul\":5243:5285   */\n      0xffffffffffffffffffffffffffffffffffffffff\n        /* \"#utility.yul\":5236:5241   */\n      dup3\n        /* \"#utility.yul\":5232:5286   */\n      and\n        /* \"#utility.yul\":5221:5286   */\n      swap1\n      pop\n        /* \"#utility.yul\":5166:5292   */\n      swap2\n      swap1\n      pop\n      jump\t// out\n        /* \"#utility.yul\":5298:5375   */\n    tag_118:\n        /* \"#utility.yul\":5335:5342   */\n      0x00\n        /* \"#utility.yul\":5364:5369   */\n      dup2\n        /* \"#utility.yul\":5353:5369   */\n      swap1\n      pop\n        /* \"#utility.yul\":5298:5375   */\n      swap2\n      swap1\n      pop\n      jump\t// out\n        /* \"#utility.yul\":5381:5535   */\n    tag_71:\n        /* \"#utility.yul\":5465:5471   */\n      dup3\n        /* \"#utility.yul\":5460:5463   */\n      dup2\n        /* \"#utility.yul\":5455:5458   */\n      dup4\n        /* \"#utility.yul\":5442:5472   */\n      calldatacopy\n        /* \"#utility.yul\":5527:5528   */\n      0x00\n        /* \"#utility.yul\":5518:5524   */\n      dup4\n        /* \"#utility.yul\":5513:5516   */\n      dup4\n        /* \"#utility.yul\":5509:5525   */\n      add\n        /* \"#utility.yul\":5502:5529   */\n      mstore\n        /* \"#utility.yul\":5381:5535   */\n      pop\n      pop\n      pop\n      jump\t// out\n        /* \"#utility.yul\":5541:5848   */\n    tag_112:\n        /* \"#utility.yul\":5609:5610   */\n      0x00\n        /* \"#utility.yul\":5619:5732   */\n    tag_146:\n        /* \"#utility.yul\":5633:5639   */\n      dup4\n        /* \"#utility.yul\":5630:5631   */\n      dup2\n        /* \"#utility.yul\":5627:5640   */\n      lt\n        /* \"#utility.yul\":5619:5732   */\n      iszero\n      tag_148\n      jumpi\n        /* \"#utility.yul\":5718:5719   */\n      dup1\n        /* \"#utility.yul\":5713:5716   */\n      dup3\n        /* \"#utility.yul\":5709:5720   */\n      add\n        /* \"#utility.yul\":5703:5721   */\n      mload\n        /* \"#utility.yul\":5699:5700   */\n      dup2\n        /* \"#utility.yul\":5694:5697   */\n      dup5\n        /* \"#utility.yul\":5690:5701   */\n      add\n        /* \"#utility.yul\":5683:5722   */\n      mstore\n        /* \"#utility.yul\":5655:5657   */\n      0x20\n        /* \"#utility.yul\":5652:5653   */\n      dup2\n        /* \"#utility.yul\":5648:5658   */\n      add\n        /* \"#utility.yul\":5643:5658   */\n      swap1\n      pop\n        /* \"#utility.yul\":5619:5732   */\n      jump(tag_146)\n    tag_148:\n        /* \"#utility.yul\":5750:5756   */\n      dup4\n        /* \"#utility.yul\":5747:5748   */\n      dup2\n        /* \"#utility.yul\":5744:5757   */\n      gt\n        /* \"#utility.yul\":5741:5842   */\n      iszero\n      tag_149\n      jumpi\n        /* \"#utility.yul\":5830:5831   */\n      0x00\n        /* \"#utility.yul\":5821:5827   */\n      dup5\n        /* \"#utility.yul\":5816:5819   */\n      dup5\n        /* \"#utility.yul\":5812:5828   */\n      add\n        /* \"#utility.yul\":5805:5832   */\n      mstore\n        /* \"#utility.yul\":5741:5842   */\n    tag_149:\n        /* \"#utility.yul\":5590:5848   */\n      pop\n        /* \"#utility.yul\":5541:5848   */\n      pop\n      pop\n      pop\n      jump\t// out\n        /* \"#utility.yul\":5854:6174   */\n    tag_26:\n        /* \"#utility.yul\":5898:5904   */\n      0x00\n        /* \"#utility.yul\":5935:5936   */\n      0x02\n        /* \"#utility.yul\":5929:5933   */\n      dup3\n        /* \"#utility.yul\":5925:5937   */\n      div\n        /* \"#utility.yul\":5915:5937   */\n      swap1\n      pop\n        /* \"#utility.yul\":5982:5983   */\n      0x01\n        /* \"#utility.yul\":5976:5980   */\n      dup3\n        /* \"#utility.yul\":5972:5984   */\n      and\n        /* \"#utility.yul\":6003:6021   */\n      dup1\n        /* \"#utility.yul\":5993:6074   */\n      tag_151\n      jumpi\n        /* \"#utility.yul\":6059:6063   */\n      0x7f\n        /* \"#utility.yul\":6051:6057   */\n      dup3\n        /* \"#utility.yul\":6047:6064   */\n      and\n        /* \"#utility.yul\":6037:6064   */\n      swap2\n      pop\n        /* \"#utility.yul\":5993:6074   */\n    tag_151:\n        /* \"#utility.yul\":6121:6123   */\n      0x20\n        /* \"#utility.yul\":6113:6119   */\n      dup3\n        /* \"#utility.yul\":6110:6124   */\n      lt\n        /* \"#utility.yul\":6090:6108   */\n      dup2\n        /* \"#utility.yul\":6087:6125   */\n      eq\n        /* \"#utility.yul\":6084:6168   */\n      iszero\n      tag_152\n      jumpi\n        /* \"#utility.yul\":6140:6158   */\n      tag_153\n      tag_154\n      jump\t// in\n    tag_153:\n        /* \"#utility.yul\":6084:6168   */\n    tag_152:\n        /* \"#utility.yul\":5905:6174   */\n      pop\n        /* \"#utility.yul\":5854:6174   */\n      swap2\n      swap1\n      pop\n      jump\t// out\n        /* \"#utility.yul\":6180:6461   */\n    tag_130:\n        /* \"#utility.yul\":6263:6290   */\n      tag_156\n        /* \"#utility.yul\":6285:6289   */\n      dup3\n        /* \"#utility.yul\":6263:6290   */\n      tag_114\n      jump\t// in\n    tag_156:\n        /* \"#utility.yul\":6255:6261   */\n      dup2\n        /* \"#utility.yul\":6251:6291   */\n      add\n        /* \"#utility.yul\":6393:6399   */\n      dup2\n        /* \"#utility.yul\":6381:6391   */\n      dup2\n        /* \"#utility.yul\":6378:6400   */\n      lt\n        /* \"#utility.yul\":6357:6375   */\n      0xffffffffffffffff\n        /* \"#utility.yul\":6345:6355   */\n      dup3\n        /* \"#utility.yul\":6342:6376   */\n      gt\n        /* \"#utility.yul\":6339:6401   */\n      or\n        /* \"#utility.yul\":6336:6424   */\n      iszero\n      tag_157\n      jumpi\n        /* \"#utility.yul\":6404:6422   */\n      tag_158\n      tag_135\n      jump\t// in\n    tag_158:\n        /* \"#utility.yul\":6336:6424   */\n    tag_157:\n        /* \"#utility.yul\":6444:6454   */\n      dup1\n        /* \"#utility.yul\":6440:6442   */\n      0x40\n        /* \"#utility.yul\":6433:6455   */\n      mstore\n        /* \"#utility.yul\":6223:6461   */\n      pop\n        /* \"#utility.yul\":6180:6461   */\n      pop\n      pop\n      jump\t// out\n        /* \"#utility.yul\":6467:6647   */\n    tag_154:\n        /* \"#utility.yul\":6515:6592   */\n      0x4e487b7100000000000000000000000000000000000000000000000000000000\n        /* \"#utility.yul\":6512:6513   */\n      0x00\n        /* \"#utility.yul\":6505:6593   */\n      mstore\n        /* \"#utility.yul\":6612:6616   */\n      0x22\n        /* \"#utility.yul\":6609:6610   */\n      0x04\n        /* \"#utility.yul\":6602:6617   */\n      mstore\n        /* \"#utility.yul\":6636:6640   */\n      0x24\n        /* \"#utility.yul\":6633:6634   */\n      0x00\n        /* \"#utility.yul\":6626:6641   */\n      revert\n        /* \"#utility.yul\":6653:6833   */\n    tag_23:\n        /* \"#utility.yul\":6701:6778   */\n      0x4e487b7100000000000000000000000000000000000000000000000000000000\n        /* \"#utility.yul\":6698:6699   */\n      0x00\n        /* \"#utility.yul\":6691:6779   */\n      mstore\n        /* \"#utility.yul\":6798:6802   */\n      0x32\n        /* \"#utility.yul\":6795:6796   */\n      0x04\n        /* \"#utility.yul\":6788:6803   */\n      mstore\n        /* \"#utility.yul\":6822:6826   */\n      0x24\n        /* \"#utility.yul\":6819:6820   */\n      0x00\n        /* \"#utility.yul\":6812:6827   */\n      revert\n        /* \"#utility.yul\":6839:7019   */\n    tag_135:\n        /* \"#utility.yul\":6887:6964   */\n      0x4e487b7100000000000000000000000000000000000000000000000000000000\n        /* \"#utility.yul\":6884:6885   */\n      0x00\n        /* \"#utility.yul\":6877:6965   */\n      mstore\n        /* \"#utility.yul\":6984:6988   */\n      0x41\n        /* \"#utility.yul\":6981:6982   */\n      0x04\n        /* \"#utility.yul\":6974:6989   */\n      mstore\n        /* \"#utility.yul\":7008:7012   */\n      0x24\n        /* \"#utility.yul\":7005:7006   */\n      0x00\n        /* \"#utility.yul\":6998:7013   */\n      revert\n        /* \"#utility.yul\":7025:7142   */\n    tag_76:\n        /* \"#utility.yul\":7134:7135   */\n      0x00\n        /* \"#utility.yul\":7131:7132   */\n      dup1\n        /* \"#utility.yul\":7124:7136   */\n      revert\n        /* \"#utility.yul\":7148:7265   */\n    tag_69:\n        /* \"#utility.yul\":7257:7258   */\n      0x00\n        /* \"#utility.yul\":7254:7255   */\n      dup1\n        /* \"#utility.yul\":7247:7259   */\n      revert\n        /* \"#utility.yul\":7271:7388   */\n    tag_88:\n        /* \"#utility.yul\":7380:7381   */\n      0x00\n        /* \"#utility.yul\":7377:7378   */\n      dup1\n        /* \"#utility.yul\":7370:7382   */\n      revert\n        /* \"#utility.yul\":7394:7511   */\n    tag_85:\n        /* \"#utility.yul\":7503:7504   */\n      0x00\n        /* \"#utility.yul\":7500:7501   */\n      dup1\n        /* \"#utility.yul\":7493:7505   */\n      revert\n        /* \"#utility.yul\":7517:7619   */\n    tag_114:\n        /* \"#utility.yul\":7558:7564   */\n      0x00\n        /* \"#utility.yul\":7609:7611   */\n      0x1f\n        /* \"#utility.yul\":7605:7612   */\n      not\n        /* \"#utility.yul\":7600:7602   */\n      0x1f\n        /* \"#utility.yul\":7593:7598   */\n      dup4\n        /* \"#utility.yul\":7589:7603   */\n      add\n        /* \"#utility.yul\":7585:7613   */\n      and\n        /* \"#utility.yul\":7575:7613   */\n      swap1\n      pop\n        /* \"#utility.yul\":7517:7619   */\n      swap2\n      swap1\n      pop\n      jump\t// out\n        /* \"#utility.yul\":7625:7747   */\n    tag_81:\n        /* \"#utility.yul\":7698:7722   */\n      tag_168\n        /* \"#utility.yul\":7716:7721   */\n      dup2\n        /* \"#utility.yul\":7698:7722   */\n      tag_118\n      jump\t// in\n    tag_168:\n        /* \"#utility.yul\":7691:7696   */\n      dup2\n        /* \"#utility.yul\":7688:7723   */\n      eq\n        /* \"#utility.yul\":7678:7741   */\n      tag_169\n      jumpi\n        /* \"#utility.yul\":7737:7738   */\n      0x00\n        /* \"#utility.yul\":7734:7735   */\n      dup1\n        /* \"#utility.yul\":7727:7739   */\n      revert\n        /* \"#utility.yul\":7678:7741   */\n    tag_169:\n        /* \"#utility.yul\":7625:7747   */\n      pop\n      jump\t// out\n\n    auxdata: 0xa26469706673582212201bef06d744634984d5084171281a039661c87e5447e511efa051de51f930ec8964736f6c63430008070033\n}\n",
				"bytecode": {
					"linkReferences": {},
					"object": "6080604052336000806101000a81548173ffffffffffffffffffffffffffffffffffffffff021916908373ffffffffffffffffffffffffffffffffffffffff16021790555034801561005057600080fd5b50610964806100606000396000f3fe608060405234801561001057600080fd5b50600436106100415760003560e01c806307d5115d146100465780638da5cb5b14610079578063dd04b47414610097575b600080fd5b610060600480360381019061005b9190610619565b6100b3565b60405161007094939291906106b8565b60405180910390f35b6100816102cf565b60405161008e919061069d565b60405180910390f35b6100b160048036038101906100ac919061055e565b6102f3565b005b606060006060806000600186815481106100d0576100cf610894565b5b90600052602060002090600402016040518060800160405290816000820180546100f990610802565b80601f016020809104026020016040519081016040528092919081815260200182805461012590610802565b80156101725780601f1061014757610100808354040283529160200191610172565b820191906000526020600020905b81548152906001019060200180831161015557829003601f168201915b505050505081526020016001820154815260200160028201805461019590610802565b80601f01602080910402602001604051908101604052809291908181526020018280546101c190610802565b801561020e5780601f106101e35761010080835404028352916020019161020e565b820191906000526020600020905b8154815290600101906020018083116101f157829003601f168201915b5050505050815260200160038201805461022790610802565b80601f016020809104026020016040519081016040528092919081815260200182805461025390610802565b80156102a05780601f10610275576101008083540402835291602001916102a0565b820191906000526020600020905b81548152906001019060200180831161028357829003601f168201915b505050505081525050905080600001518160200151826040015183606001519450945094509450509193509193565b60008054906101000a900473ffffffffffffffffffffffffffffffffffffffff1681565b6102fb61040e565b8481600001819052508381602001818152505082816040018190525081816060018190525060018190806001815401808255809150506001900390600052602060002090600402016000909190919091506000820151816000019080519060200190610368929190610436565b5060208201518160010155604082015181600201908051906020019061038f929190610436565b5060608201518160030190805190602001906103ac929190610436565b50505060008054906101000a900473ffffffffffffffffffffffffffffffffffffffff1673ffffffffffffffffffffffffffffffffffffffff163373ffffffffffffffffffffffffffffffffffffffff161461040757600080fd5b5050505050565b6040518060800160405280606081526020016000815260200160608152602001606081525090565b82805461044290610802565b90600052602060002090601f01602090048101928261046457600085556104ab565b82601f1061047d57805160ff19168380011785556104ab565b828001600101855582156104ab579182015b828111156104aa57825182559160200191906001019061048f565b5b5090506104b891906104bc565b5090565b5b808211156104d55760008160009055506001016104bd565b5090565b60006104ec6104e784610737565b610712565b905082815260208101848484011115610508576105076108f7565b5b6105138482856107c0565b509392505050565b600082601f8301126105305761052f6108f2565b5b81356105408482602086016104d9565b91505092915050565b60008135905061055881610917565b92915050565b6000806000806080858703121561057857610577610901565b5b600085013567ffffffffffffffff811115610596576105956108fc565b5b6105a28782880161051b565b94505060206105b387828801610549565b935050604085013567ffffffffffffffff8111156105d4576105d36108fc565b5b6105e08782880161051b565b925050606085013567ffffffffffffffff811115610601576106006108fc565b5b61060d8782880161051b565b91505092959194509250565b60006020828403121561062f5761062e610901565b5b600061063d84828501610549565b91505092915050565b61064f81610784565b82525050565b600061066082610768565b61066a8185610773565b935061067a8185602086016107cf565b61068381610906565b840191505092915050565b610697816107b6565b82525050565b60006020820190506106b26000830184610646565b92915050565b600060808201905081810360008301526106d28187610655565b90506106e1602083018661068e565b81810360408301526106f38185610655565b905081810360608301526107078184610655565b905095945050505050565b600061071c61072d565b90506107288282610834565b919050565b6000604051905090565b600067ffffffffffffffff821115610752576107516108c3565b5b61075b82610906565b9050602081019050919050565b600081519050919050565b600082825260208201905092915050565b600061078f82610796565b9050919050565b600073ffffffffffffffffffffffffffffffffffffffff82169050919050565b6000819050919050565b82818337600083830152505050565b60005b838110156107ed5780820151818401526020810190506107d2565b838111156107fc576000848401525b50505050565b6000600282049050600182168061081a57607f821691505b6020821081141561082e5761082d610865565b5b50919050565b61083d82610906565b810181811067ffffffffffffffff8211171561085c5761085b6108c3565b5b80604052505050565b7f4e487b7100000000000000000000000000000000000000000000000000000000600052602260045260246000fd5b7f4e487b7100000000000000000000000000000000000000000000000000000000600052603260045260246000fd5b7f4e487b7100000000000000000000000000000000000000000000000000000000600052604160045260246000fd5b600080fd5b600080fd5b600080fd5b600080fd5b6000601f19601f8301169050919050565b610920816107b6565b811461092b57600080fd5b5056fea26469706673582212201bef06d744634984d5084171281a039661c87e5447e511efa051de51f930ec8964736f6c63430008070033",
					"opcodes": "PUSH1 0x80 PUSH1 0x40 MSTORE CALLER PUSH1 0x0 DUP1 PUSH2 0x100 EXP DUP2 SLOAD DUP2 PUSH20 0xFFFFFFFFFFFFFFFFFFFFFFFFFFFFFFFFFFFFFFFF MUL NOT AND SWAP1 DUP4 PUSH20 0xFFFFFFFFFFFFFFFFFFFFFFFFFFFFFFFFFFFFFFFF AND MUL OR SWAP1 SSTORE POP CALLVALUE DUP1 ISZERO PUSH2 0x50 JUMPI PUSH1 0x0 DUP1 REVERT JUMPDEST POP PUSH2 0x964 DUP1 PUSH2 0x60 PUSH1 0x0 CODECOPY PUSH1 0x0 RETURN INVALID PUSH1 0x80 PUSH1 0x40 MSTORE CALLVALUE DUP1 ISZERO PUSH2 0x10 JUMPI PUSH1 0x0 DUP1 REVERT JUMPDEST POP PUSH1 0x4 CALLDATASIZE LT PUSH2 0x41 JUMPI PUSH1 0x0 CALLDATALOAD PUSH1 0xE0 SHR DUP1 PUSH4 0x7D5115D EQ PUSH2 0x46 JUMPI DUP1 PUSH4 0x8DA5CB5B EQ PUSH2 0x79 JUMPI DUP1 PUSH4 0xDD04B474 EQ PUSH2 0x97 JUMPI JUMPDEST PUSH1 0x0 DUP1 REVERT JUMPDEST PUSH2 0x60 PUSH1 0x4 DUP1 CALLDATASIZE SUB DUP2 ADD SWAP1 PUSH2 0x5B SWAP2 SWAP1 PUSH2 0x619 JUMP JUMPDEST PUSH2 0xB3 JUMP JUMPDEST PUSH1 0x40 MLOAD PUSH2 0x70 SWAP5 SWAP4 SWAP3 SWAP2 SWAP1 PUSH2 0x6B8 JUMP JUMPDEST PUSH1 0x40 MLOAD DUP1 SWAP2 SUB SWAP1 RETURN JUMPDEST PUSH2 0x81 PUSH2 0x2CF JUMP JUMPDEST PUSH1 0x40 MLOAD PUSH2 0x8E SWAP2 SWAP1 PUSH2 0x69D JUMP JUMPDEST PUSH1 0x40 MLOAD DUP1 SWAP2 SUB SWAP1 RETURN JUMPDEST PUSH2 0xB1 PUSH1 0x4 DUP1 CALLDATASIZE SUB DUP2 ADD SWAP1 PUSH2 0xAC SWAP2 SWAP1 PUSH2 0x55E JUMP JUMPDEST PUSH2 0x2F3 JUMP JUMPDEST STOP JUMPDEST PUSH1 0x60 PUSH1 0x0 PUSH1 0x60 DUP1 PUSH1 0x0 PUSH1 0x1 DUP7 DUP2 SLOAD DUP2 LT PUSH2 0xD0 JUMPI PUSH2 0xCF PUSH2 0x894 JUMP JUMPDEST JUMPDEST SWAP1 PUSH1 0x0 MSTORE PUSH1 0x20 PUSH1 0x0 KECCAK256 SWAP1 PUSH1 0x4 MUL ADD PUSH1 0x40 MLOAD DUP1 PUSH1 0x80 ADD PUSH1 0x40 MSTORE SWAP1 DUP2 PUSH1 0x0 DUP3 ADD DUP1 SLOAD PUSH2 0xF9 SWAP1 PUSH2 0x802 JUMP JUMPDEST DUP1 PUSH1 0x1F ADD PUSH1 0x20 DUP1 SWAP2 DIV MUL PUSH1 0x20 ADD PUSH1 0x40 MLOAD SWAP1 DUP2 ADD PUSH1 0x40 MSTORE DUP1 SWAP3 SWAP2 SWAP1 DUP2 DUP2 MSTORE PUSH1 0x20 ADD DUP3 DUP1 SLOAD PUSH2 0x125 SWAP1 PUSH2 0x802 JUMP JUMPDEST DUP1 ISZERO PUSH2 0x172 JUMPI DUP1 PUSH1 0x1F LT PUSH2 0x147 JUMPI PUSH2 0x100 DUP1 DUP4 SLOAD DIV MUL DUP4 MSTORE SWAP2 PUSH1 0x20 ADD SWAP2 PUSH2 0x172 JUMP JUMPDEST DUP3 ADD SWAP2 SWAP1 PUSH1 0x0 MSTORE PUSH1 0x20 PUSH1 0x0 KECCAK256 SWAP1 JUMPDEST DUP2 SLOAD DUP2 MSTORE SWAP1 PUSH1 0x1 ADD SWAP1 PUSH1 0x20 ADD DUP1 DUP4 GT PUSH2 0x155 JUMPI DUP3 SWAP1 SUB PUSH1 0x1F AND DUP3 ADD SWAP2 JUMPDEST POP POP POP POP POP DUP2 MSTORE PUSH1 0x20 ADD PUSH1 0x1 DUP3 ADD SLOAD DUP2 MSTORE PUSH1 0x20 ADD PUSH1 0x2 DUP3 ADD DUP1 SLOAD PUSH2 0x195 SWAP1 PUSH2 0x802 JUMP JUMPDEST DUP1 PUSH1 0x1F ADD PUSH1 0x20 DUP1 SWAP2 DIV MUL PUSH1 0x20 ADD PUSH1 0x40 MLOAD SWAP1 DUP2 ADD PUSH1 0x40 MSTORE DUP1 SWAP3 SWAP2 SWAP1 DUP2 DUP2 MSTORE PUSH1 0x20 ADD DUP3 DUP1 SLOAD PUSH2 0x1C1 SWAP1 PUSH2 0x802 JUMP JUMPDEST DUP1 ISZERO PUSH2 0x20E JUMPI DUP1 PUSH1 0x1F LT PUSH2 0x1E3 JUMPI PUSH2 0x100 DUP1 DUP4 SLOAD DIV MUL DUP4 MSTORE SWAP2 PUSH1 0x20 ADD SWAP2 PUSH2 0x20E JUMP JUMPDEST DUP3 ADD SWAP2 SWAP1 PUSH1 0x0 MSTORE PUSH1 0x20 PUSH1 0x0 KECCAK256 SWAP1 JUMPDEST DUP2 SLOAD DUP2 MSTORE SWAP1 PUSH1 0x1 ADD SWAP1 PUSH1 0x20 ADD DUP1 DUP4 GT PUSH2 0x1F1 JUMPI DUP3 SWAP1 SUB PUSH1 0x1F AND DUP3 ADD SWAP2 JUMPDEST POP POP POP POP POP DUP2 MSTORE PUSH1 0x20 ADD PUSH1 0x3 DUP3 ADD DUP1 SLOAD PUSH2 0x227 SWAP1 PUSH2 0x802 JUMP JUMPDEST DUP1 PUSH1 0x1F ADD PUSH1 0x20 DUP1 SWAP2 DIV MUL PUSH1 0x20 ADD PUSH1 0x40 MLOAD SWAP1 DUP2 ADD PUSH1 0x40 MSTORE DUP1 SWAP3 SWAP2 SWAP1 DUP2 DUP2 MSTORE PUSH1 0x20 ADD DUP3 DUP1 SLOAD PUSH2 0x253 SWAP1 PUSH2 0x802 JUMP JUMPDEST DUP1 ISZERO PUSH2 0x2A0 JUMPI DUP1 PUSH1 0x1F LT PUSH2 0x275 JUMPI PUSH2 0x100 DUP1 DUP4 SLOAD DIV MUL DUP4 MSTORE SWAP2 PUSH1 0x20 ADD SWAP2 PUSH2 0x2A0 JUMP JUMPDEST DUP3 ADD SWAP2 SWAP1 PUSH1 0x0 MSTORE PUSH1 0x20 PUSH1 0x0 KECCAK256 SWAP1 JUMPDEST DUP2 SLOAD DUP2 MSTORE SWAP1 PUSH1 0x1 ADD SWAP1 PUSH1 0x20 ADD DUP1 DUP4 GT PUSH2 0x283 JUMPI DUP3 SWAP1 SUB PUSH1 0x1F AND DUP3 ADD SWAP2 JUMPDEST POP POP POP POP POP DUP2 MSTORE POP POP SWAP1 POP DUP1 PUSH1 0x0 ADD MLOAD DUP2 PUSH1 0x20 ADD MLOAD DUP3 PUSH1 0x40 ADD MLOAD DUP4 PUSH1 0x60 ADD MLOAD SWAP5 POP SWAP5 POP SWAP5 POP SWAP5 POP POP SWAP2 SWAP4 POP SWAP2 SWAP4 JUMP JUMPDEST PUSH1 0x0 DUP1 SLOAD SWAP1 PUSH2 0x100 EXP SWAP1 DIV PUSH20 0xFFFFFFFFFFFFFFFFFFFFFFFFFFFFFFFFFFFFFFFF AND DUP2 JUMP JUMPDEST PUSH2 0x2FB PUSH2 0x40E JUMP JUMPDEST DUP5 DUP2 PUSH1 0x0 ADD DUP2 SWAP1 MSTORE POP DUP4 DUP2 PUSH1 0x20 ADD DUP2 DUP2 MSTORE POP POP DUP3 DUP2 PUSH1 0x40 ADD DUP2 SWAP1 MSTORE POP DUP2 DUP2 PUSH1 0x60 ADD DUP2 SWAP1 MSTORE POP PUSH1 0x1 DUP2 SWAP1 DUP1 PUSH1 0x1 DUP2 SLOAD ADD DUP1 DUP3 SSTORE DUP1 SWAP2 POP POP PUSH1 0x1 SWAP1 SUB SWAP1 PUSH1 0x0 MSTORE PUSH1 0x20 PUSH1 0x0 KECCAK256 SWAP1 PUSH1 0x4 MUL ADD PUSH1 0x0 SWAP1 SWAP2 SWAP1 SWAP2 SWAP1 SWAP2 POP PUSH1 0x0 DUP3 ADD MLOAD DUP2 PUSH1 0x0 ADD SWAP1 DUP1 MLOAD SWAP1 PUSH1 0x20 ADD SWAP1 PUSH2 0x368 SWAP3 SWAP2 SWAP1 PUSH2 0x436 JUMP JUMPDEST POP PUSH1 0x20 DUP3 ADD MLOAD DUP2 PUSH1 0x1 ADD SSTORE PUSH1 0x40 DUP3 ADD MLOAD DUP2 PUSH1 0x2 ADD SWAP1 DUP1 MLOAD SWAP1 PUSH1 0x20 ADD SWAP1 PUSH2 0x38F SWAP3 SWAP2 SWAP1 PUSH2 0x436 JUMP JUMPDEST POP PUSH1 0x60 DUP3 ADD MLOAD DUP2 PUSH1 0x3 ADD SWAP1 DUP1 MLOAD SWAP1 PUSH1 0x20 ADD SWAP1 PUSH2 0x3AC SWAP3 SWAP2 SWAP1 PUSH2 0x436 JUMP JUMPDEST POP POP POP PUSH1 0x0 DUP1 SLOAD SWAP1 PUSH2 0x100 EXP SWAP1 DIV PUSH20 0xFFFFFFFFFFFFFFFFFFFFFFFFFFFFFFFFFFFFFFFF AND PUSH20 0xFFFFFFFFFFFFFFFFFFFFFFFFFFFFFFFFFFFFFFFF AND CALLER PUSH20 0xFFFFFFFFFFFFFFFFFFFFFFFFFFFFFFFFFFFFFFFF AND EQ PUSH2 0x407 JUMPI PUSH1 0x0 DUP1 REVERT JUMPDEST POP POP POP POP POP JUMP JUMPDEST PUSH1 0x40 MLOAD DUP1 PUSH1 0x80 ADD PUSH1 0x40 MSTORE DUP1 PUSH1 0x60 DUP2 MSTORE PUSH1 0x20 ADD PUSH1 0x0 DUP2 MSTORE PUSH1 0x20 ADD PUSH1 0x60 DUP2 MSTORE PUSH1 0x20 ADD PUSH1 0x60 DUP2 MSTORE POP SWAP1 JUMP JUMPDEST DUP3 DUP1 SLOAD PUSH2 0x442 SWAP1 PUSH2 0x802 JUMP JUMPDEST SWAP1 PUSH1 0x0 MSTORE PUSH1 0x20 PUSH1 0x0 KECCAK256 SWAP1 PUSH1 0x1F ADD PUSH1 0x20 SWAP1 DIV DUP2 ADD SWAP3 DUP3 PUSH2 0x464 JUMPI PUSH1 0x0 DUP6 SSTORE PUSH2 0x4AB JUMP JUMPDEST DUP3 PUSH1 0x1F LT PUSH2 0x47D JUMPI DUP1 MLOAD PUSH1 0xFF NOT AND DUP4 DUP1 ADD OR DUP6 SSTORE PUSH2 0x4AB JUMP JUMPDEST DUP3 DUP1 ADD PUSH1 0x1 ADD DUP6 SSTORE DUP3 ISZERO PUSH2 0x4AB JUMPI SWAP2 DUP3 ADD JUMPDEST DUP3 DUP2 GT ISZERO PUSH2 0x4AA JUMPI DUP3 MLOAD DUP3 SSTORE SWAP2 PUSH1 0x20 ADD SWAP2 SWAP1 PUSH1 0x1 ADD SWAP1 PUSH2 0x48F JUMP JUMPDEST JUMPDEST POP SWAP1 POP PUSH2 0x4B8 SWAP2 SWAP1 PUSH2 0x4BC JUMP JUMPDEST POP SWAP1 JUMP JUMPDEST JUMPDEST DUP1 DUP3 GT ISZERO PUSH2 0x4D5 JUMPI PUSH1 0x0 DUP2 PUSH1 0x0 SWAP1 SSTORE POP PUSH1 0x1 ADD PUSH2 0x4BD JUMP JUMPDEST POP SWAP1 JUMP JUMPDEST PUSH1 0x0 PUSH2 0x4EC PUSH2 0x4E7 DUP5 PUSH2 0x737 JUMP JUMPDEST PUSH2 0x712 JUMP JUMPDEST SWAP1 POP DUP3 DUP2 MSTORE PUSH1 0x20 DUP2 ADD DUP5 DUP5 DUP5 ADD GT ISZERO PUSH2 0x508 JUMPI PUSH2 0x507 PUSH2 0x8F7 JUMP JUMPDEST JUMPDEST PUSH2 0x513 DUP5 DUP3 DUP6 PUSH2 0x7C0 JUMP JUMPDEST POP SWAP4 SWAP3 POP POP POP JUMP JUMPDEST PUSH1 0x0 DUP3 PUSH1 0x1F DUP4 ADD SLT PUSH2 0x530 JUMPI PUSH2 0x52F PUSH2 0x8F2 JUMP JUMPDEST JUMPDEST DUP2 CALLDATALOAD PUSH2 0x540 DUP5 DUP3 PUSH1 0x20 DUP7 ADD PUSH2 0x4D9 JUMP JUMPDEST SWAP2 POP POP SWAP3 SWAP2 POP POP JUMP JUMPDEST PUSH1 0x0 DUP2 CALLDATALOAD SWAP1 POP PUSH2 0x558 DUP2 PUSH2 0x917 JUMP JUMPDEST SWAP3 SWAP2 POP POP JUMP JUMPDEST PUSH1 0x0 DUP1 PUSH1 0x0 DUP1 PUSH1 0x80 DUP6 DUP8 SUB SLT ISZERO PUSH2 0x578 JUMPI PUSH2 0x577 PUSH2 0x901 JUMP JUMPDEST JUMPDEST PUSH1 0x0 DUP6 ADD CALLDATALOAD PUSH8 0xFFFFFFFFFFFFFFFF DUP2 GT ISZERO PUSH2 0x596 JUMPI PUSH2 0x595 PUSH2 0x8FC JUMP JUMPDEST JUMPDEST PUSH2 0x5A2 DUP8 DUP3 DUP9 ADD PUSH2 0x51B JUMP JUMPDEST SWAP5 POP POP PUSH1 0x20 PUSH2 0x5B3 DUP8 DUP3 DUP9 ADD PUSH2 0x549 JUMP JUMPDEST SWAP4 POP POP PUSH1 0x40 DUP6 ADD CALLDATALOAD PUSH8 0xFFFFFFFFFFFFFFFF DUP2 GT ISZERO PUSH2 0x5D4 JUMPI PUSH2 0x5D3 PUSH2 0x8FC JUMP JUMPDEST JUMPDEST PUSH2 0x5E0 DUP8 DUP3 DUP9 ADD PUSH2 0x51B JUMP JUMPDEST SWAP3 POP POP PUSH1 0x60 DUP6 ADD CALLDATALOAD PUSH8 0xFFFFFFFFFFFFFFFF DUP2 GT ISZERO PUSH2 0x601 JUMPI PUSH2 0x600 PUSH2 0x8FC JUMP JUMPDEST JUMPDEST PUSH2 0x60D DUP8 DUP3 DUP9 ADD PUSH2 0x51B JUMP JUMPDEST SWAP2 POP POP SWAP3 SWAP6 SWAP2 SWAP5 POP SWAP3 POP JUMP JUMPDEST PUSH1 0x0 PUSH1 0x20 DUP3 DUP5 SUB SLT ISZERO PUSH2 0x62F JUMPI PUSH2 0x62E PUSH2 0x901 JUMP JUMPDEST JUMPDEST PUSH1 0x0 PUSH2 0x63D DUP5 DUP3 DUP6 ADD PUSH2 0x549 JUMP JUMPDEST SWAP2 POP POP SWAP3 SWAP2 POP POP JUMP JUMPDEST PUSH2 0x64F DUP2 PUSH2 0x784 JUMP JUMPDEST DUP3 MSTORE POP POP JUMP JUMPDEST PUSH1 0x0 PUSH2 0x660 DUP3 PUSH2 0x768 JUMP JUMPDEST PUSH2 0x66A DUP2 DUP6 PUSH2 0x773 JUMP JUMPDEST SWAP4 POP PUSH2 0x67A DUP2 DUP6 PUSH1 0x20 DUP7 ADD PUSH2 0x7CF JUMP JUMPDEST PUSH2 0x683 DUP2 PUSH2 0x906 JUMP JUMPDEST DUP5 ADD SWAP2 POP POP SWAP3 SWAP2 POP POP JUMP JUMPDEST PUSH2 0x697 DUP2 PUSH2 0x7B6 JUMP JUMPDEST DUP3 MSTORE POP POP JUMP JUMPDEST PUSH1 0x0 PUSH1 0x20 DUP3 ADD SWAP1 POP PUSH2 0x6B2 PUSH1 0x0 DUP4 ADD DUP5 PUSH2 0x646 JUMP JUMPDEST SWAP3 SWAP2 POP POP JUMP JUMPDEST PUSH1 0x0 PUSH1 0x80 DUP3 ADD SWAP1 POP DUP2 DUP2 SUB PUSH1 0x0 DUP4 ADD MSTORE PUSH2 0x6D2 DUP2 DUP8 PUSH2 0x655 JUMP JUMPDEST SWAP1 POP PUSH2 0x6E1 PUSH1 0x20 DUP4 ADD DUP7 PUSH2 0x68E JUMP JUMPDEST DUP2 DUP2 SUB PUSH1 0x40 DUP4 ADD MSTORE PUSH2 0x6F3 DUP2 DUP6 PUSH2 0x655 JUMP JUMPDEST SWAP1 POP DUP2 DUP2 SUB PUSH1 0x60 DUP4 ADD MSTORE PUSH2 0x707 DUP2 DUP5 PUSH2 0x655 JUMP JUMPDEST SWAP1 POP SWAP6 SWAP5 POP POP POP POP POP JUMP JUMPDEST PUSH1 0x0 PUSH2 0x71C PUSH2 0x72D JUMP JUMPDEST SWAP1 POP PUSH2 0x728 DUP3 DUP3 PUSH2 0x834 JUMP JUMPDEST SWAP2 SWAP1 POP JUMP JUMPDEST PUSH1 0x0 PUSH1 0x40 MLOAD SWAP1 POP SWAP1 JUMP JUMPDEST PUSH1 0x0 PUSH8 0xFFFFFFFFFFFFFFFF DUP3 GT ISZERO PUSH2 0x752 JUMPI PUSH2 0x751 PUSH2 0x8C3 JUMP JUMPDEST JUMPDEST PUSH2 0x75B DUP3 PUSH2 0x906 JUMP JUMPDEST SWAP1 POP PUSH1 0x20 DUP2 ADD SWAP1 POP SWAP2 SWAP1 POP JUMP JUMPDEST PUSH1 0x0 DUP2 MLOAD SWAP1 POP SWAP2 SWAP1 POP JUMP JUMPDEST PUSH1 0x0 DUP3 DUP3 MSTORE PUSH1 0x20 DUP3 ADD SWAP1 POP SWAP3 SWAP2 POP POP JUMP JUMPDEST PUSH1 0x0 PUSH2 0x78F DUP3 PUSH2 0x796 JUMP JUMPDEST SWAP1 POP SWAP2 SWAP1 POP JUMP JUMPDEST PUSH1 0x0 PUSH20 0xFFFFFFFFFFFFFFFFFFFFFFFFFFFFFFFFFFFFFFFF DUP3 AND SWAP1 POP SWAP2 SWAP1 POP JUMP JUMPDEST PUSH1 0x0 DUP2 SWAP1 POP SWAP2 SWAP1 POP JUMP JUMPDEST DUP3 DUP2 DUP4 CALLDATACOPY PUSH1 0x0 DUP4 DUP4 ADD MSTORE POP POP POP JUMP JUMPDEST PUSH1 0x0 JUMPDEST DUP4 DUP2 LT ISZERO PUSH2 0x7ED JUMPI DUP1 DUP3 ADD MLOAD DUP2 DUP5 ADD MSTORE PUSH1 0x20 DUP2 ADD SWAP1 POP PUSH2 0x7D2 JUMP JUMPDEST DUP4 DUP2 GT ISZERO PUSH2 0x7FC JUMPI PUSH1 0x0 DUP5 DUP5 ADD MSTORE JUMPDEST POP POP POP POP JUMP JUMPDEST PUSH1 0x0 PUSH1 0x2 DUP3 DIV SWAP1 POP PUSH1 0x1 DUP3 AND DUP1 PUSH2 0x81A JUMPI PUSH1 0x7F DUP3 AND SWAP2 POP JUMPDEST PUSH1 0x20 DUP3 LT DUP2 EQ ISZERO PUSH2 0x82E JUMPI PUSH2 0x82D PUSH2 0x865 JUMP JUMPDEST JUMPDEST POP SWAP2 SWAP1 POP JUMP JUMPDEST PUSH2 0x83D DUP3 PUSH2 0x906 JUMP JUMPDEST DUP2 ADD DUP2 DUP2 LT PUSH8 0xFFFFFFFFFFFFFFFF DUP3 GT OR ISZERO PUSH2 0x85C JUMPI PUSH2 0x85B PUSH2 0x8C3 JUMP JUMPDEST JUMPDEST DUP1 PUSH1 0x40 MSTORE POP POP POP JUMP JUMPDEST PUSH32 0x4E487B7100000000000000000000000000000000000000000000000000000000 PUSH1 0x0 MSTORE PUSH1 0x22 PUSH1 0x4 MSTORE PUSH1 0x24 PUSH1 0x0 REVERT JUMPDEST PUSH32 0x4E487B7100000000000000000000000000000000000000000000000000000000 PUSH1 0x0 MSTORE PUSH1 0x32 PUSH1 0x4 MSTORE PUSH1 0x24 PUSH1 0x0 REVERT JUMPDEST PUSH32 0x4E487B7100000000000000000000000000000000000000000000000000000000 PUSH1 0x0 MSTORE PUSH1 0x41 PUSH1 0x4 MSTORE PUSH1 0x24 PUSH1 0x0 REVERT JUMPDEST PUSH1 0x0 DUP1 REVERT JUMPDEST PUSH1 0x0 DUP1 REVERT JUMPDEST PUSH1 0x0 DUP1 REVERT JUMPDEST PUSH1 0x0 DUP1 REVERT JUMPDEST PUSH1 0x0 PUSH1 0x1F NOT PUSH1 0x1F DUP4 ADD AND SWAP1 POP SWAP2 SWAP1 POP JUMP JUMPDEST PUSH2 0x920 DUP2 PUSH2 0x7B6 JUMP JUMPDEST DUP2 EQ PUSH2 0x92B JUMPI PUSH1 0x0 DUP1 REVERT JUMPDEST POP JUMP INVALID LOG2 PUSH5 0x6970667358 0x22 SLT KECCAK256 SHL 0xEF MOD 0xD7 DIFFICULTY PUSH4 0x4984D508 COINBASE PUSH18 0x281A039661C87E5447E511EFA051DE51F930 0xEC DUP10 PUSH5 0x736F6C6343 STOP ADDMOD SMOD STOP CALLER "
				},
				"gasEstimates": {
					"creation": {
						"codeDepositCost": "480800",
						"executionCost": "24784",
						"totalCost": "505584"
					},
					"external": {
						"ConsultaPessoa(uint256)": "infinite",
						"CriarPessoa(string,uint256,string,string)": "infinite",
						"owner()": "2511"
					}
				},
				"methodIdentifiers": {
					"ConsultaPessoa(uint256)": "07d5115d",
					"CriarPessoa(string,uint256,string,string)": "dd04b474",
					"owner()": "8da5cb5b"
				}
			},
			"storageLayout": {
				"storage": [
					{
						"astId": 5,
						"contract": "contracts/Blockoffice.sol:Blockoffice",
						"label": "owner",
						"offset": 0,
						"slot": "0",
						"type": "t_address"
					},
					{
						"astId": 18,
						"contract": "contracts/Blockoffice.sol:Blockoffice",
						"label": "pessoas",
						"offset": 0,
						"slot": "1",
						"type": "t_array(t_struct(Pessoa)14_storage)dyn_storage"
					}
				],
				"types": {
					"t_address": {
						"encoding": "inplace",
						"label": "address",
						"numberOfBytes": "20"
					},
					"t_array(t_struct(Pessoa)14_storage)dyn_storage": {
						"base": "t_struct(Pessoa)14_storage",
						"encoding": "dynamic_array",
						"label": "struct Blockoffice.Pessoa[]",
						"numberOfBytes": "32"
					},
					"t_string_storage": {
						"encoding": "bytes",
						"label": "string",
						"numberOfBytes": "32"
					},
					"t_struct(Pessoa)14_storage": {
						"encoding": "inplace",
						"label": "struct Blockoffice.Pessoa",
						"members": [
							{
								"astId": 7,
								"contract": "contracts/Blockoffice.sol:Blockoffice",
								"label": "nome",
								"offset": 0,
								"slot": "0",
								"type": "t_string_storage"
							},
							{
								"astId": 9,
								"contract": "contracts/Blockoffice.sol:Blockoffice",
								"label": "rg",
								"offset": 0,
								"slot": "1",
								"type": "t_uint256"
							},
							{
								"astId": 11,
								"contract": "contracts/Blockoffice.sol:Blockoffice",
								"label": "cpf",
								"offset": 0,
								"slot": "2",
								"type": "t_string_storage"
							},
							{
								"astId": 13,
								"contract": "contracts/Blockoffice.sol:Blockoffice",
								"label": "data",
								"offset": 0,
								"slot": "3",
								"type": "t_string_storage"
							}
						],
						"numberOfBytes": "128"
					},
					"t_uint256": {
						"encoding": "inplace",
						"label": "uint256",
						"numberOfBytes": "32"
					}
				}
			},
			"userdoc": {
				"kind": "user",
				"methods": {},
				"version": 1
			}
		}
	}
}