{
	"contracts/Blockoffice.sol": {
		"Blockoffice": {
			"abi": [
				{
					"inputs": [
						{
							"internalType": "string",
							"name": "_nome",
							"type": "string"
						},
						{
							"internalType": "uint256",
							"name": "_rg",
							"type": "uint256"
						},
						{
							"internalType": "uint256",
							"name": "_cpf",
							"type": "uint256"
						},
						{
							"internalType": "uint256",
							"name": "_data",
							"type": "uint256"
						}
					],
					"name": "criaPessoa",
					"outputs": [],
					"stateMutability": "nonpayable",
					"type": "function"
				}
			],
			"devdoc": {
				"kind": "dev",
				"methods": {},
				"version": 1
			},
			"evm": {
				"assembly": "    /* \"contracts/Blockoffice.sol\":70:509  contract Blockoffice{\r... */\n  mstore(0x40, 0x80)\n  callvalue\n  dup1\n  iszero\n  tag_1\n  jumpi\n  0x00\n  dup1\n  revert\ntag_1:\n  pop\n  dataSize(sub_0)\n  dup1\n  dataOffset(sub_0)\n  0x00\n  codecopy\n  0x00\n  return\nstop\n\nsub_0: assembly {\n        /* \"contracts/Blockoffice.sol\":70:509  contract Blockoffice{\r... */\n      mstore(0x40, 0x80)\n      callvalue\n      dup1\n      iszero\n      tag_1\n      jumpi\n      0x00\n      dup1\n      revert\n    tag_1:\n      pop\n      jumpi(tag_2, lt(calldatasize, 0x04))\n      shr(0xe0, calldataload(0x00))\n      dup1\n      0xa7047396\n      eq\n      tag_3\n      jumpi\n    tag_2:\n      0x00\n      dup1\n      revert\n        /* \"contracts/Blockoffice.sol\":236:495  function  criaPessoa(string memory _nome, uint _rg, uint _cpf, uint _data) external{\r... */\n    tag_3:\n      tag_4\n      0x04\n      dup1\n      calldatasize\n      sub\n      dup2\n      add\n      swap1\n      tag_5\n      swap2\n      swap1\n      tag_6\n      jump\t// in\n    tag_5:\n      tag_7\n      jump\t// in\n    tag_4:\n      stop\n    tag_7:\n        /* \"contracts/Blockoffice.sol\":330:354  Pessoa memory novaPessoa */\n      tag_9\n      tag_10\n      jump\t// in\n    tag_9:\n        /* \"contracts/Blockoffice.sol\":383:388  _nome */\n      dup5\n        /* \"contracts/Blockoffice.sol\":365:375  novaPessoa */\n      dup2\n        /* \"contracts/Blockoffice.sol\":365:380  novaPessoa.nome */\n      0x00\n      add\n        /* \"contracts/Blockoffice.sol\":365:388  novaPessoa.nome = _nome */\n      dup2\n      swap1\n      mstore\n      pop\n        /* \"contracts/Blockoffice.sol\":415:418  _rg */\n      dup4\n        /* \"contracts/Blockoffice.sol\":399:409  novaPessoa */\n      dup2\n        /* \"contracts/Blockoffice.sol\":399:412  novaPessoa.rg */\n      0x20\n      add\n        /* \"contracts/Blockoffice.sol\":399:418  novaPessoa.rg = _rg */\n      dup2\n      dup2\n      mstore\n      pop\n      pop\n        /* \"contracts/Blockoffice.sol\":446:450  _cpf */\n      dup3\n        /* \"contracts/Blockoffice.sol\":429:439  novaPessoa */\n      dup2\n        /* \"contracts/Blockoffice.sol\":429:443  novaPessoa.cpf */\n      0x40\n      add\n        /* \"contracts/Blockoffice.sol\":429:450  novaPessoa.cpf = _cpf */\n      dup2\n      dup2\n      mstore\n      pop\n      pop\n        /* \"contracts/Blockoffice.sol\":480:485  _data */\n      dup2\n        /* \"contracts/Blockoffice.sol\":462:472  novaPessoa */\n      dup2\n        /* \"contracts/Blockoffice.sol\":462:477  novaPessoa.data */\n      0x60\n      add\n        /* \"contracts/Blockoffice.sol\":462:485  novaPessoa.data = _data */\n      dup2\n      dup2\n      mstore\n      pop\n      pop\n        /* \"contracts/Blockoffice.sol\":319:495  {\r... */\n      pop\n        /* \"contracts/Blockoffice.sol\":236:495  function  criaPessoa(string memory _nome, uint _rg, uint _cpf, uint _data) external{\r... */\n      pop\n      pop\n      pop\n      pop\n      jump\t// out\n    tag_10:\n      mload(0x40)\n      dup1\n      0x80\n      add\n      0x40\n      mstore\n      dup1\n      0x60\n      dup2\n      mstore\n      0x20\n      add\n      0x00\n      dup2\n      mstore\n      0x20\n      add\n      0x00\n      dup2\n      mstore\n      0x20\n      add\n      0x00\n      dup2\n      mstore\n      pop\n      swap1\n      jump\t// out\n        /* \"#utility.yul\":7:419   */\n    tag_12:\n        /* \"#utility.yul\":85:90   */\n      0x00\n        /* \"#utility.yul\":110:176   */\n      tag_14\n        /* \"#utility.yul\":126:175   */\n      tag_15\n        /* \"#utility.yul\":168:174   */\n      dup5\n        /* \"#utility.yul\":126:175   */\n      tag_16\n      jump\t// in\n    tag_15:\n        /* \"#utility.yul\":110:176   */\n      tag_17\n      jump\t// in\n    tag_14:\n        /* \"#utility.yul\":101:176   */\n      swap1\n      pop\n        /* \"#utility.yul\":199:205   */\n      dup3\n        /* \"#utility.yul\":192:197   */\n      dup2\n        /* \"#utility.yul\":185:206   */\n      mstore\n        /* \"#utility.yul\":237:241   */\n      0x20\n        /* \"#utility.yul\":230:235   */\n      dup2\n        /* \"#utility.yul\":226:242   */\n      add\n        /* \"#utility.yul\":275:278   */\n      dup5\n        /* \"#utility.yul\":266:272   */\n      dup5\n        /* \"#utility.yul\":261:264   */\n      dup5\n        /* \"#utility.yul\":257:273   */\n      add\n        /* \"#utility.yul\":254:279   */\n      gt\n        /* \"#utility.yul\":251:363   */\n      iszero\n      tag_18\n      jumpi\n        /* \"#utility.yul\":282:361   */\n      tag_19\n      tag_20\n      jump\t// in\n    tag_19:\n        /* \"#utility.yul\":251:363   */\n    tag_18:\n        /* \"#utility.yul\":372:413   */\n      tag_21\n        /* \"#utility.yul\":406:412   */\n      dup5\n        /* \"#utility.yul\":401:404   */\n      dup3\n        /* \"#utility.yul\":396:399   */\n      dup6\n        /* \"#utility.yul\":372:413   */\n      tag_22\n      jump\t// in\n    tag_21:\n        /* \"#utility.yul\":91:419   */\n      pop\n        /* \"#utility.yul\":7:419   */\n      swap4\n      swap3\n      pop\n      pop\n      pop\n      jump\t// out\n        /* \"#utility.yul\":439:779   */\n    tag_23:\n        /* \"#utility.yul\":495:500   */\n      0x00\n        /* \"#utility.yul\":544:547   */\n      dup3\n        /* \"#utility.yul\":537:541   */\n      0x1f\n        /* \"#utility.yul\":529:535   */\n      dup4\n        /* \"#utility.yul\":525:542   */\n      add\n        /* \"#utility.yul\":521:548   */\n      slt\n        /* \"#utility.yul\":511:633   */\n      tag_25\n      jumpi\n        /* \"#utility.yul\":552:631   */\n      tag_26\n      tag_27\n      jump\t// in\n    tag_26:\n        /* \"#utility.yul\":511:633   */\n    tag_25:\n        /* \"#utility.yul\":669:675   */\n      dup2\n        /* \"#utility.yul\":656:676   */\n      calldataload\n        /* \"#utility.yul\":694:773   */\n      tag_28\n        /* \"#utility.yul\":769:772   */\n      dup5\n        /* \"#utility.yul\":761:767   */\n      dup3\n        /* \"#utility.yul\":754:758   */\n      0x20\n        /* \"#utility.yul\":746:752   */\n      dup7\n        /* \"#utility.yul\":742:759   */\n      add\n        /* \"#utility.yul\":694:773   */\n      tag_12\n      jump\t// in\n    tag_28:\n        /* \"#utility.yul\":685:773   */\n      swap2\n      pop\n        /* \"#utility.yul\":501:779   */\n      pop\n        /* \"#utility.yul\":439:779   */\n      swap3\n      swap2\n      pop\n      pop\n      jump\t// out\n        /* \"#utility.yul\":785:924   */\n    tag_29:\n        /* \"#utility.yul\":831:836   */\n      0x00\n        /* \"#utility.yul\":869:875   */\n      dup2\n        /* \"#utility.yul\":856:876   */\n      calldataload\n        /* \"#utility.yul\":847:876   */\n      swap1\n      pop\n        /* \"#utility.yul\":885:918   */\n      tag_31\n        /* \"#utility.yul\":912:917   */\n      dup2\n        /* \"#utility.yul\":885:918   */\n      tag_32\n      jump\t// in\n    tag_31:\n        /* \"#utility.yul\":785:924   */\n      swap3\n      swap2\n      pop\n      pop\n      jump\t// out\n        /* \"#utility.yul\":930:1875   */\n    tag_6:\n        /* \"#utility.yul\":1026:1032   */\n      0x00\n        /* \"#utility.yul\":1034:1040   */\n      dup1\n        /* \"#utility.yul\":1042:1048   */\n      0x00\n        /* \"#utility.yul\":1050:1056   */\n      dup1\n        /* \"#utility.yul\":1099:1102   */\n      0x80\n        /* \"#utility.yul\":1087:1096   */\n      dup6\n        /* \"#utility.yul\":1078:1085   */\n      dup8\n        /* \"#utility.yul\":1074:1097   */\n      sub\n        /* \"#utility.yul\":1070:1103   */\n      slt\n        /* \"#utility.yul\":1067:1187   */\n      iszero\n      tag_34\n      jumpi\n        /* \"#utility.yul\":1106:1185   */\n      tag_35\n      tag_36\n      jump\t// in\n    tag_35:\n        /* \"#utility.yul\":1067:1187   */\n    tag_34:\n        /* \"#utility.yul\":1254:1255   */\n      0x00\n        /* \"#utility.yul\":1243:1252   */\n      dup6\n        /* \"#utility.yul\":1239:1256   */\n      add\n        /* \"#utility.yul\":1226:1257   */\n      calldataload\n        /* \"#utility.yul\":1284:1302   */\n      0xffffffffffffffff\n        /* \"#utility.yul\":1276:1282   */\n      dup2\n        /* \"#utility.yul\":1273:1303   */\n      gt\n        /* \"#utility.yul\":1270:1387   */\n      iszero\n      tag_37\n      jumpi\n        /* \"#utility.yul\":1306:1385   */\n      tag_38\n      tag_39\n      jump\t// in\n    tag_38:\n        /* \"#utility.yul\":1270:1387   */\n    tag_37:\n        /* \"#utility.yul\":1411:1474   */\n      tag_40\n        /* \"#utility.yul\":1466:1473   */\n      dup8\n        /* \"#utility.yul\":1457:1463   */\n      dup3\n        /* \"#utility.yul\":1446:1455   */\n      dup9\n        /* \"#utility.yul\":1442:1464   */\n      add\n        /* \"#utility.yul\":1411:1474   */\n      tag_23\n      jump\t// in\n    tag_40:\n        /* \"#utility.yul\":1401:1474   */\n      swap5\n      pop\n        /* \"#utility.yul\":1197:1484   */\n      pop\n        /* \"#utility.yul\":1523:1525   */\n      0x20\n        /* \"#utility.yul\":1549:1602   */\n      tag_41\n        /* \"#utility.yul\":1594:1601   */\n      dup8\n        /* \"#utility.yul\":1585:1591   */\n      dup3\n        /* \"#utility.yul\":1574:1583   */\n      dup9\n        /* \"#utility.yul\":1570:1592   */\n      add\n        /* \"#utility.yul\":1549:1602   */\n      tag_29\n      jump\t// in\n    tag_41:\n        /* \"#utility.yul\":1539:1602   */\n      swap4\n      pop\n        /* \"#utility.yul\":1494:1612   */\n      pop\n        /* \"#utility.yul\":1651:1653   */\n      0x40\n        /* \"#utility.yul\":1677:1730   */\n      tag_42\n        /* \"#utility.yul\":1722:1729   */\n      dup8\n        /* \"#utility.yul\":1713:1719   */\n      dup3\n        /* \"#utility.yul\":1702:1711   */\n      dup9\n        /* \"#utility.yul\":1698:1720   */\n      add\n        /* \"#utility.yul\":1677:1730   */\n      tag_29\n      jump\t// in\n    tag_42:\n        /* \"#utility.yul\":1667:1730   */\n      swap3\n      pop\n        /* \"#utility.yul\":1622:1740   */\n      pop\n        /* \"#utility.yul\":1779:1781   */\n      0x60\n        /* \"#utility.yul\":1805:1858   */\n      tag_43\n        /* \"#utility.yul\":1850:1857   */\n      dup8\n        /* \"#utility.yul\":1841:1847   */\n      dup3\n        /* \"#utility.yul\":1830:1839   */\n      dup9\n        /* \"#utility.yul\":1826:1848   */\n      add\n        /* \"#utility.yul\":1805:1858   */\n      tag_29\n      jump\t// in\n    tag_43:\n        /* \"#utility.yul\":1795:1858   */\n      swap2\n      pop\n        /* \"#utility.yul\":1750:1868   */\n      pop\n        /* \"#utility.yul\":930:1875   */\n      swap3\n      swap6\n      swap2\n      swap5\n      pop\n      swap3\n      pop\n      jump\t// out\n        /* \"#utility.yul\":1881:2010   */\n    tag_17:\n        /* \"#utility.yul\":1915:1921   */\n      0x00\n        /* \"#utility.yul\":1942:1962   */\n      tag_45\n      tag_46\n      jump\t// in\n    tag_45:\n        /* \"#utility.yul\":1932:1962   */\n      swap1\n      pop\n        /* \"#utility.yul\":1971:2004   */\n      tag_47\n        /* \"#utility.yul\":1999:2003   */\n      dup3\n        /* \"#utility.yul\":1991:1997   */\n      dup3\n        /* \"#utility.yul\":1971:2004   */\n      tag_48\n      jump\t// in\n    tag_47:\n        /* \"#utility.yul\":1881:2010   */\n      swap2\n      swap1\n      pop\n      jump\t// out\n        /* \"#utility.yul\":2016:2091   */\n    tag_46:\n        /* \"#utility.yul\":2049:2055   */\n      0x00\n        /* \"#utility.yul\":2082:2084   */\n      0x40\n        /* \"#utility.yul\":2076:2085   */\n      mload\n        /* \"#utility.yul\":2066:2085   */\n      swap1\n      pop\n        /* \"#utility.yul\":2016:2091   */\n      swap1\n      jump\t// out\n        /* \"#utility.yul\":2097:2405   */\n    tag_16:\n        /* \"#utility.yul\":2159:2163   */\n      0x00\n        /* \"#utility.yul\":2249:2267   */\n      0xffffffffffffffff\n        /* \"#utility.yul\":2241:2247   */\n      dup3\n        /* \"#utility.yul\":2238:2268   */\n      gt\n        /* \"#utility.yul\":2235:2291   */\n      iszero\n      tag_51\n      jumpi\n        /* \"#utility.yul\":2271:2289   */\n      tag_52\n      tag_53\n      jump\t// in\n    tag_52:\n        /* \"#utility.yul\":2235:2291   */\n    tag_51:\n        /* \"#utility.yul\":2309:2338   */\n      tag_54\n        /* \"#utility.yul\":2331:2337   */\n      dup3\n        /* \"#utility.yul\":2309:2338   */\n      tag_55\n      jump\t// in\n    tag_54:\n        /* \"#utility.yul\":2301:2338   */\n      swap1\n      pop\n        /* \"#utility.yul\":2393:2397   */\n      0x20\n        /* \"#utility.yul\":2387:2391   */\n      dup2\n        /* \"#utility.yul\":2383:2398   */\n      add\n        /* \"#utility.yul\":2375:2398   */\n      swap1\n      pop\n        /* \"#utility.yul\":2097:2405   */\n      swap2\n      swap1\n      pop\n      jump\t// out\n        /* \"#utility.yul\":2411:2488   */\n    tag_56:\n        /* \"#utility.yul\":2448:2455   */\n      0x00\n        /* \"#utility.yul\":2477:2482   */\n      dup2\n        /* \"#utility.yul\":2466:2482   */\n      swap1\n      pop\n        /* \"#utility.yul\":2411:2488   */\n      swap2\n      swap1\n      pop\n      jump\t// out\n        /* \"#utility.yul\":2494:2648   */\n    tag_22:\n        /* \"#utility.yul\":2578:2584   */\n      dup3\n        /* \"#utility.yul\":2573:2576   */\n      dup2\n        /* \"#utility.yul\":2568:2571   */\n      dup4\n        /* \"#utility.yul\":2555:2585   */\n      calldatacopy\n        /* \"#utility.yul\":2640:2641   */\n      0x00\n        /* \"#utility.yul\":2631:2637   */\n      dup4\n        /* \"#utility.yul\":2626:2629   */\n      dup4\n        /* \"#utility.yul\":2622:2638   */\n      add\n        /* \"#utility.yul\":2615:2642   */\n      mstore\n        /* \"#utility.yul\":2494:2648   */\n      pop\n      pop\n      pop\n      jump\t// out\n        /* \"#utility.yul\":2654:2935   */\n    tag_48:\n        /* \"#utility.yul\":2737:2764   */\n      tag_60\n        /* \"#utility.yul\":2759:2763   */\n      dup3\n        /* \"#utility.yul\":2737:2764   */\n      tag_55\n      jump\t// in\n    tag_60:\n        /* \"#utility.yul\":2729:2735   */\n      dup2\n        /* \"#utility.yul\":2725:2765   */\n      add\n        /* \"#utility.yul\":2867:2873   */\n      dup2\n        /* \"#utility.yul\":2855:2865   */\n      dup2\n        /* \"#utility.yul\":2852:2874   */\n      lt\n        /* \"#utility.yul\":2831:2849   */\n      0xffffffffffffffff\n        /* \"#utility.yul\":2819:2829   */\n      dup3\n        /* \"#utility.yul\":2816:2850   */\n      gt\n        /* \"#utility.yul\":2813:2875   */\n      or\n        /* \"#utility.yul\":2810:2898   */\n      iszero\n      tag_61\n      jumpi\n        /* \"#utility.yul\":2878:2896   */\n      tag_62\n      tag_53\n      jump\t// in\n    tag_62:\n        /* \"#utility.yul\":2810:2898   */\n    tag_61:\n        /* \"#utility.yul\":2918:2928   */\n      dup1\n        /* \"#utility.yul\":2914:2916   */\n      0x40\n        /* \"#utility.yul\":2907:2929   */\n      mstore\n        /* \"#utility.yul\":2697:2935   */\n      pop\n        /* \"#utility.yul\":2654:2935   */\n      pop\n      pop\n      jump\t// out\n        /* \"#utility.yul\":2941:3121   */\n    tag_53:\n        /* \"#utility.yul\":2989:3066   */\n      0x4e487b7100000000000000000000000000000000000000000000000000000000\n        /* \"#utility.yul\":2986:2987   */\n      0x00\n        /* \"#utility.yul\":2979:3067   */\n      mstore\n        /* \"#utility.yul\":3086:3090   */\n      0x41\n        /* \"#utility.yul\":3083:3084   */\n      0x04\n        /* \"#utility.yul\":3076:3091   */\n      mstore\n        /* \"#utility.yul\":3110:3114   */\n      0x24\n        /* \"#utility.yul\":3107:3108   */\n      0x00\n        /* \"#utility.yul\":3100:3115   */\n      revert\n        /* \"#utility.yul\":3127:3244   */\n    tag_27:\n        /* \"#utility.yul\":3236:3237   */\n      0x00\n        /* \"#utility.yul\":3233:3234   */\n      dup1\n        /* \"#utility.yul\":3226:3238   */\n      revert\n        /* \"#utility.yul\":3250:3367   */\n    tag_20:\n        /* \"#utility.yul\":3359:3360   */\n      0x00\n        /* \"#utility.yul\":3356:3357   */\n      dup1\n        /* \"#utility.yul\":3349:3361   */\n      revert\n        /* \"#utility.yul\":3373:3490   */\n    tag_39:\n        /* \"#utility.yul\":3482:3483   */\n      0x00\n        /* \"#utility.yul\":3479:3480   */\n      dup1\n        /* \"#utility.yul\":3472:3484   */\n      revert\n        /* \"#utility.yul\":3496:3613   */\n    tag_36:\n        /* \"#utility.yul\":3605:3606   */\n      0x00\n        /* \"#utility.yul\":3602:3603   */\n      dup1\n        /* \"#utility.yul\":3595:3607   */\n      revert\n        /* \"#utility.yul\":3619:3721   */\n    tag_55:\n        /* \"#utility.yul\":3660:3666   */\n      0x00\n        /* \"#utility.yul\":3711:3713   */\n      0x1f\n        /* \"#utility.yul\":3707:3714   */\n      not\n        /* \"#utility.yul\":3702:3704   */\n      0x1f\n        /* \"#utility.yul\":3695:3700   */\n      dup4\n        /* \"#utility.yul\":3691:3705   */\n      add\n        /* \"#utility.yul\":3687:3715   */\n      and\n        /* \"#utility.yul\":3677:3715   */\n      swap1\n      pop\n        /* \"#utility.yul\":3619:3721   */\n      swap2\n      swap1\n      pop\n      jump\t// out\n        /* \"#utility.yul\":3727:3849   */\n    tag_32:\n        /* \"#utility.yul\":3800:3824   */\n      tag_70\n        /* \"#utility.yul\":3818:3823   */\n      dup2\n        /* \"#utility.yul\":3800:3824   */\n      tag_56\n      jump\t// in\n    tag_70:\n        /* \"#utility.yul\":3793:3798   */\n      dup2\n        /* \"#utility.yul\":3790:3825   */\n      eq\n        /* \"#utility.yul\":3780:3843   */\n      tag_71\n      jumpi\n        /* \"#utility.yul\":3839:3840   */\n      0x00\n        /* \"#utility.yul\":3836:3837   */\n      dup1\n        /* \"#utility.yul\":3829:3841   */\n      revert\n        /* \"#utility.yul\":3780:3843   */\n    tag_71:\n        /* \"#utility.yul\":3727:3849   */\n      pop\n      jump\t// out\n\n    auxdata: 0xa264697066735822122000480fca33e50fdee7c1a6151dc4d3a1ea22bab98ca06d1b4ffd00c22249061264736f6c63430008070033\n}\n",
				"bytecode": {
					"linkReferences": {},
					"object": "608060405234801561001057600080fd5b506102f3806100206000396000f3fe608060405234801561001057600080fd5b506004361061002b5760003560e01c8063a704739614610030575b600080fd5b61004a6004803603810190610045919061012f565b61004c565b005b610054610082565b8481600001819052508381602001818152505082816040018181525050818160600181815250505050505050565b6040518060800160405280606081526020016000815260200160008152602001600081525090565b60006100bd6100b8846101d7565b6101b2565b9050828152602081018484840111156100d9576100d8610286565b5b6100e4848285610212565b509392505050565b600082601f83011261010157610100610281565b5b81356101118482602086016100aa565b91505092915050565b600081359050610129816102a6565b92915050565b6000806000806080858703121561014957610148610290565b5b600085013567ffffffffffffffff8111156101675761016661028b565b5b610173878288016100ec565b94505060206101848782880161011a565b93505060406101958782880161011a565b92505060606101a68782880161011a565b91505092959194509250565b60006101bc6101cd565b90506101c88282610221565b919050565b6000604051905090565b600067ffffffffffffffff8211156101f2576101f1610252565b5b6101fb82610295565b9050602081019050919050565b6000819050919050565b82818337600083830152505050565b61022a82610295565b810181811067ffffffffffffffff8211171561024957610248610252565b5b80604052505050565b7f4e487b7100000000000000000000000000000000000000000000000000000000600052604160045260246000fd5b600080fd5b600080fd5b600080fd5b600080fd5b6000601f19601f8301169050919050565b6102af81610208565b81146102ba57600080fd5b5056fea264697066735822122000480fca33e50fdee7c1a6151dc4d3a1ea22bab98ca06d1b4ffd00c22249061264736f6c63430008070033",
					"opcodes": "PUSH1 0x80 PUSH1 0x40 MSTORE CALLVALUE DUP1 ISZERO PUSH2 0x10 JUMPI PUSH1 0x0 DUP1 REVERT JUMPDEST POP PUSH2 0x2F3 DUP1 PUSH2 0x20 PUSH1 0x0 CODECOPY PUSH1 0x0 RETURN INVALID PUSH1 0x80 PUSH1 0x40 MSTORE CALLVALUE DUP1 ISZERO PUSH2 0x10 JUMPI PUSH1 0x0 DUP1 REVERT JUMPDEST POP PUSH1 0x4 CALLDATASIZE LT PUSH2 0x2B JUMPI PUSH1 0x0 CALLDATALOAD PUSH1 0xE0 SHR DUP1 PUSH4 0xA7047396 EQ PUSH2 0x30 JUMPI JUMPDEST PUSH1 0x0 DUP1 REVERT JUMPDEST PUSH2 0x4A PUSH1 0x4 DUP1 CALLDATASIZE SUB DUP2 ADD SWAP1 PUSH2 0x45 SWAP2 SWAP1 PUSH2 0x12F JUMP JUMPDEST PUSH2 0x4C JUMP JUMPDEST STOP JUMPDEST PUSH2 0x54 PUSH2 0x82 JUMP JUMPDEST DUP5 DUP2 PUSH1 0x0 ADD DUP2 SWAP1 MSTORE POP DUP4 DUP2 PUSH1 0x20 ADD DUP2 DUP2 MSTORE POP POP DUP3 DUP2 PUSH1 0x40 ADD DUP2 DUP2 MSTORE POP POP DUP2 DUP2 PUSH1 0x60 ADD DUP2 DUP2 MSTORE POP POP POP POP POP POP POP JUMP JUMPDEST PUSH1 0x40 MLOAD DUP1 PUSH1 0x80 ADD PUSH1 0x40 MSTORE DUP1 PUSH1 0x60 DUP2 MSTORE PUSH1 0x20 ADD PUSH1 0x0 DUP2 MSTORE PUSH1 0x20 ADD PUSH1 0x0 DUP2 MSTORE PUSH1 0x20 ADD PUSH1 0x0 DUP2 MSTORE POP SWAP1 JUMP JUMPDEST PUSH1 0x0 PUSH2 0xBD PUSH2 0xB8 DUP5 PUSH2 0x1D7 JUMP JUMPDEST PUSH2 0x1B2 JUMP JUMPDEST SWAP1 POP DUP3 DUP2 MSTORE PUSH1 0x20 DUP2 ADD DUP5 DUP5 DUP5 ADD GT ISZERO PUSH2 0xD9 JUMPI PUSH2 0xD8 PUSH2 0x286 JUMP JUMPDEST JUMPDEST PUSH2 0xE4 DUP5 DUP3 DUP6 PUSH2 0x212 JUMP JUMPDEST POP SWAP4 SWAP3 POP POP POP JUMP JUMPDEST PUSH1 0x0 DUP3 PUSH1 0x1F DUP4 ADD SLT PUSH2 0x101 JUMPI PUSH2 0x100 PUSH2 0x281 JUMP JUMPDEST JUMPDEST DUP2 CALLDATALOAD PUSH2 0x111 DUP5 DUP3 PUSH1 0x20 DUP7 ADD PUSH2 0xAA JUMP JUMPDEST SWAP2 POP POP SWAP3 SWAP2 POP POP JUMP JUMPDEST PUSH1 0x0 DUP2 CALLDATALOAD SWAP1 POP PUSH2 0x129 DUP2 PUSH2 0x2A6 JUMP JUMPDEST SWAP3 SWAP2 POP POP JUMP JUMPDEST PUSH1 0x0 DUP1 PUSH1 0x0 DUP1 PUSH1 0x80 DUP6 DUP8 SUB SLT ISZERO PUSH2 0x149 JUMPI PUSH2 0x148 PUSH2 0x290 JUMP JUMPDEST JUMPDEST PUSH1 0x0 DUP6 ADD CALLDATALOAD PUSH8 0xFFFFFFFFFFFFFFFF DUP2 GT ISZERO PUSH2 0x167 JUMPI PUSH2 0x166 PUSH2 0x28B JUMP JUMPDEST JUMPDEST PUSH2 0x173 DUP8 DUP3 DUP9 ADD PUSH2 0xEC JUMP JUMPDEST SWAP5 POP POP PUSH1 0x20 PUSH2 0x184 DUP8 DUP3 DUP9 ADD PUSH2 0x11A JUMP JUMPDEST SWAP4 POP POP PUSH1 0x40 PUSH2 0x195 DUP8 DUP3 DUP9 ADD PUSH2 0x11A JUMP JUMPDEST SWAP3 POP POP PUSH1 0x60 PUSH2 0x1A6 DUP8 DUP3 DUP9 ADD PUSH2 0x11A JUMP JUMPDEST SWAP2 POP POP SWAP3 SWAP6 SWAP2 SWAP5 POP SWAP3 POP JUMP JUMPDEST PUSH1 0x0 PUSH2 0x1BC PUSH2 0x1CD JUMP JUMPDEST SWAP1 POP PUSH2 0x1C8 DUP3 DUP3 PUSH2 0x221 JUMP JUMPDEST SWAP2 SWAP1 POP JUMP JUMPDEST PUSH1 0x0 PUSH1 0x40 MLOAD SWAP1 POP SWAP1 JUMP JUMPDEST PUSH1 0x0 PUSH8 0xFFFFFFFFFFFFFFFF DUP3 GT ISZERO PUSH2 0x1F2 JUMPI PUSH2 0x1F1 PUSH2 0x252 JUMP JUMPDEST JUMPDEST PUSH2 0x1FB DUP3 PUSH2 0x295 JUMP JUMPDEST SWAP1 POP PUSH1 0x20 DUP2 ADD SWAP1 POP SWAP2 SWAP1 POP JUMP JUMPDEST PUSH1 0x0 DUP2 SWAP1 POP SWAP2 SWAP1 POP JUMP JUMPDEST DUP3 DUP2 DUP4 CALLDATACOPY PUSH1 0x0 DUP4 DUP4 ADD MSTORE POP POP POP JUMP JUMPDEST PUSH2 0x22A DUP3 PUSH2 0x295 JUMP JUMPDEST DUP2 ADD DUP2 DUP2 LT PUSH8 0xFFFFFFFFFFFFFFFF DUP3 GT OR ISZERO PUSH2 0x249 JUMPI PUSH2 0x248 PUSH2 0x252 JUMP JUMPDEST JUMPDEST DUP1 PUSH1 0x40 MSTORE POP POP POP JUMP JUMPDEST PUSH32 0x4E487B7100000000000000000000000000000000000000000000000000000000 PUSH1 0x0 MSTORE PUSH1 0x41 PUSH1 0x4 MSTORE PUSH1 0x24 PUSH1 0x0 REVERT JUMPDEST PUSH1 0x0 DUP1 REVERT JUMPDEST PUSH1 0x0 DUP1 REVERT JUMPDEST PUSH1 0x0 DUP1 REVERT JUMPDEST PUSH1 0x0 DUP1 REVERT JUMPDEST PUSH1 0x0 PUSH1 0x1F NOT PUSH1 0x1F DUP4 ADD AND SWAP1 POP SWAP2 SWAP1 POP JUMP JUMPDEST PUSH2 0x2AF DUP2 PUSH2 0x208 JUMP JUMPDEST DUP2 EQ PUSH2 0x2BA JUMPI PUSH1 0x0 DUP1 REVERT JUMPDEST POP JUMP INVALID LOG2 PUSH5 0x6970667358 0x22 SLT KECCAK256 STOP BASEFEE 0xF 0xCA CALLER 0xE5 0xF 0xDE 0xE7 0xC1 0xA6 ISZERO SAR 0xC4 0xD3 LOG1 0xEA 0x22 0xBA 0xB9 DUP13 LOG0 PUSH14 0x1B4FFD00C22249061264736F6C63 NUMBER STOP ADDMOD SMOD STOP CALLER "
				},
				"gasEstimates": {
					"creation": {
						"codeDepositCost": "151000",
						"executionCost": "196",
						"totalCost": "151196"
					},
					"external": {
						"criaPessoa(string,uint256,uint256,uint256)": "infinite"
					}
				},
				"methodIdentifiers": {
					"criaPessoa(string,uint256,uint256,uint256)": "a7047396"
				}
			},
			"storageLayout": {
				"storage": [
					{
						"astId": 14,
						"contract": "contracts/Blockoffice.sol:Blockoffice",
						"label": "pessoas",
						"offset": 0,
						"slot": "0",
						"type": "t_array(t_struct(Pessoa)10_storage)dyn_storage"
					}
				],
				"types": {
					"t_array(t_struct(Pessoa)10_storage)dyn_storage": {
						"base": "t_struct(Pessoa)10_storage",
						"encoding": "dynamic_array",
						"label": "struct Blockoffice.Pessoa[]",
						"numberOfBytes": "32"
					},
					"t_string_storage": {
						"encoding": "bytes",
						"label": "string",
						"numberOfBytes": "32"
					},
					"t_struct(Pessoa)10_storage": {
						"encoding": "inplace",
						"label": "struct Blockoffice.Pessoa",
						"members": [
							{
								"astId": 3,
								"contract": "contracts/Blockoffice.sol:Blockoffice",
								"label": "nome",
								"offset": 0,
								"slot": "0",
								"type": "t_string_storage"
							},
							{
								"astId": 5,
								"contract": "contracts/Blockoffice.sol:Blockoffice",
								"label": "rg",
								"offset": 0,
								"slot": "1",
								"type": "t_uint256"
							},
							{
								"astId": 7,
								"contract": "contracts/Blockoffice.sol:Blockoffice",
								"label": "cpf",
								"offset": 0,
								"slot": "2",
								"type": "t_uint256"
							},
							{
								"astId": 9,
								"contract": "contracts/Blockoffice.sol:Blockoffice",
								"label": "data",
								"offset": 0,
								"slot": "3",
								"type": "t_uint256"
							}
						],
						"numberOfBytes": "128"
					},
					"t_uint256": {
						"encoding": "inplace",
						"label": "uint256",
						"numberOfBytes": "32"
					}
				}
			},
			"userdoc": {
				"kind": "user",
				"methods": {},
				"version": 1
			}
		}
	}
}