{
	"contracts/Hello.sol": {
		"HelloWorld": {
			"abi": [
				{
					"inputs": [],
					"name": "name",
					"outputs": [
						{
							"internalType": "string",
							"name": "",
							"type": "string"
						}
					],
					"stateMutability": "view",
					"type": "function"
				},
				{
					"inputs": [],
					"name": "numeroEscolhido",
					"outputs": [
						{
							"internalType": "uint256",
							"name": "",
							"type": "uint256"
						}
					],
					"stateMutability": "view",
					"type": "function"
				},
				{
					"inputs": [
						{
							"internalType": "string",
							"name": "_qualquernome",
							"type": "string"
						}
					],
					"name": "setName",
					"outputs": [],
					"stateMutability": "nonpayable",
					"type": "function"
				},
				{
					"inputs": [
						{
							"internalType": "uint256",
							"name": "_numero",
							"type": "uint256"
						}
					],
					"name": "setNumeroEscolhido",
					"outputs": [],
					"stateMutability": "nonpayable",
					"type": "function"
				}
			],
			"devdoc": {
				"kind": "dev",
				"methods": {},
				"version": 1
			},
			"evm": {
				"assembly": "    /* \"contracts/Hello.sol\":31:330  contract    HelloWorld  {\r... */\n  mstore(0x40, 0x80)\n  callvalue\n  dup1\n  iszero\n  tag_1\n  jumpi\n  0x00\n  dup1\n  revert\ntag_1:\n  pop\n  dataSize(sub_0)\n  dup1\n  dataOffset(sub_0)\n  0x00\n  codecopy\n  0x00\n  return\nstop\n\nsub_0: assembly {\n        /* \"contracts/Hello.sol\":31:330  contract    HelloWorld  {\r... */\n      mstore(0x40, 0x80)\n      callvalue\n      dup1\n      iszero\n      tag_1\n      jumpi\n      0x00\n      dup1\n      revert\n    tag_1:\n      pop\n      jumpi(tag_2, lt(calldatasize, 0x04))\n      shr(0xe0, calldataload(0x00))\n      dup1\n      0x06fdde03\n      eq\n      tag_3\n      jumpi\n      dup1\n      0x7077eaf0\n      eq\n      tag_4\n      jumpi\n      dup1\n      0xc47f0027\n      eq\n      tag_5\n      jumpi\n      dup1\n      0xf45627d9\n      eq\n      tag_6\n      jumpi\n    tag_2:\n      0x00\n      dup1\n      revert\n        /* \"contracts/Hello.sol\":64:82  string public name */\n    tag_3:\n      tag_7\n      tag_8\n      jump\t// in\n    tag_7:\n      mload(0x40)\n      tag_9\n      swap2\n      swap1\n      tag_10\n      jump\t// in\n    tag_9:\n      mload(0x40)\n      dup1\n      swap2\n      sub\n      swap1\n      return\n        /* \"contracts/Hello.sol\":230:325  function setNumeroEscolhido(uint _numero) public {\r... */\n    tag_4:\n      tag_11\n      0x04\n      dup1\n      calldatasize\n      sub\n      dup2\n      add\n      swap1\n      tag_12\n      swap2\n      swap1\n      tag_13\n      jump\t// in\n    tag_12:\n      tag_14\n      jump\t// in\n    tag_11:\n      stop\n        /* \"contracts/Hello.sol\":125:218  function setName (string memory _qualquernome) public {\r... */\n    tag_5:\n      tag_15\n      0x04\n      dup1\n      calldatasize\n      sub\n      dup2\n      add\n      swap1\n      tag_16\n      swap2\n      swap1\n      tag_17\n      jump\t// in\n    tag_16:\n      tag_18\n      jump\t// in\n    tag_15:\n      stop\n        /* \"contracts/Hello.sol\":89:116  uint public numeroEscolhido */\n    tag_6:\n      tag_19\n      tag_20\n      jump\t// in\n    tag_19:\n      mload(0x40)\n      tag_21\n      swap2\n      swap1\n      tag_22\n      jump\t// in\n    tag_21:\n      mload(0x40)\n      dup1\n      swap2\n      sub\n      swap1\n      return\n        /* \"contracts/Hello.sol\":64:82  string public name */\n    tag_8:\n      0x00\n      dup1\n      sload\n      tag_23\n      swap1\n      tag_24\n      jump\t// in\n    tag_23:\n      dup1\n      0x1f\n      add\n      0x20\n      dup1\n      swap2\n      div\n      mul\n      0x20\n      add\n      mload(0x40)\n      swap1\n      dup2\n      add\n      0x40\n      mstore\n      dup1\n      swap3\n      swap2\n      swap1\n      dup2\n      dup2\n      mstore\n      0x20\n      add\n      dup3\n      dup1\n      sload\n      tag_25\n      swap1\n      tag_24\n      jump\t// in\n    tag_25:\n      dup1\n      iszero\n      tag_26\n      jumpi\n      dup1\n      0x1f\n      lt\n      tag_27\n      jumpi\n      0x0100\n      dup1\n      dup4\n      sload\n      div\n      mul\n      dup4\n      mstore\n      swap2\n      0x20\n      add\n      swap2\n      jump(tag_26)\n    tag_27:\n      dup3\n      add\n      swap2\n      swap1\n      0x00\n      mstore\n      keccak256(0x00, 0x20)\n      swap1\n    tag_28:\n      dup2\n      sload\n      dup2\n      mstore\n      swap1\n      0x01\n      add\n      swap1\n      0x20\n      add\n      dup1\n      dup4\n      gt\n      tag_28\n      jumpi\n      dup3\n      swap1\n      sub\n      0x1f\n      and\n      dup3\n      add\n      swap2\n    tag_26:\n      pop\n      pop\n      pop\n      pop\n      pop\n      dup2\n      jump\t// out\n        /* \"contracts/Hello.sol\":230:325  function setNumeroEscolhido(uint _numero) public {\r... */\n    tag_14:\n        /* \"contracts/Hello.sol\":308:315  _numero */\n      dup1\n        /* \"contracts/Hello.sol\":290:305  numeroEscolhido */\n      0x01\n        /* \"contracts/Hello.sol\":290:315  numeroEscolhido = _numero */\n      dup2\n      swap1\n      sstore\n      pop\n        /* \"contracts/Hello.sol\":230:325  function setNumeroEscolhido(uint _numero) public {\r... */\n      pop\n      jump\t// out\n        /* \"contracts/Hello.sol\":125:218  function setName (string memory _qualquernome) public {\r... */\n    tag_18:\n        /* \"contracts/Hello.sol\":197:210  _qualquernome */\n      dup1\n        /* \"contracts/Hello.sol\":190:194  name */\n      0x00\n        /* \"contracts/Hello.sol\":190:210  name = _qualquernome */\n      swap1\n      dup1\n      mload\n      swap1\n      0x20\n      add\n      swap1\n      tag_31\n      swap3\n      swap2\n      swap1\n      tag_32\n      jump\t// in\n    tag_31:\n      pop\n        /* \"contracts/Hello.sol\":125:218  function setName (string memory _qualquernome) public {\r... */\n      pop\n      jump\t// out\n        /* \"contracts/Hello.sol\":89:116  uint public numeroEscolhido */\n    tag_20:\n      sload(0x01)\n      dup2\n      jump\t// out\n    tag_32:\n      dup3\n      dup1\n      sload\n      tag_33\n      swap1\n      tag_24\n      jump\t// in\n    tag_33:\n      swap1\n      0x00\n      mstore\n      keccak256(0x00, 0x20)\n      swap1\n      0x1f\n      add\n      0x20\n      swap1\n      div\n      dup2\n      add\n      swap3\n      dup3\n      tag_35\n      jumpi\n      0x00\n      dup6\n      sstore\n      jump(tag_34)\n    tag_35:\n      dup3\n      0x1f\n      lt\n      tag_36\n      jumpi\n      dup1\n      mload\n      not(0xff)\n      and\n      dup4\n      dup1\n      add\n      or\n      dup6\n      sstore\n      jump(tag_34)\n    tag_36:\n      dup3\n      dup1\n      add\n      0x01\n      add\n      dup6\n      sstore\n      dup3\n      iszero\n      tag_34\n      jumpi\n      swap2\n      dup3\n      add\n    tag_37:\n      dup3\n      dup2\n      gt\n      iszero\n      tag_38\n      jumpi\n      dup3\n      mload\n      dup3\n      sstore\n      swap2\n      0x20\n      add\n      swap2\n      swap1\n      0x01\n      add\n      swap1\n      jump(tag_37)\n    tag_38:\n    tag_34:\n      pop\n      swap1\n      pop\n      tag_39\n      swap2\n      swap1\n      tag_40\n      jump\t// in\n    tag_39:\n      pop\n      swap1\n      jump\t// out\n    tag_40:\n    tag_41:\n      dup1\n      dup3\n      gt\n      iszero\n      tag_42\n      jumpi\n      0x00\n      dup2\n      0x00\n      swap1\n      sstore\n      pop\n      0x01\n      add\n      jump(tag_41)\n    tag_42:\n      pop\n      swap1\n      jump\t// out\n        /* \"#utility.yul\":7:419   */\n    tag_44:\n        /* \"#utility.yul\":85:90   */\n      0x00\n        /* \"#utility.yul\":110:176   */\n      tag_46\n        /* \"#utility.yul\":126:175   */\n      tag_47\n        /* \"#utility.yul\":168:174   */\n      dup5\n        /* \"#utility.yul\":126:175   */\n      tag_48\n      jump\t// in\n    tag_47:\n        /* \"#utility.yul\":110:176   */\n      tag_49\n      jump\t// in\n    tag_46:\n        /* \"#utility.yul\":101:176   */\n      swap1\n      pop\n        /* \"#utility.yul\":199:205   */\n      dup3\n        /* \"#utility.yul\":192:197   */\n      dup2\n        /* \"#utility.yul\":185:206   */\n      mstore\n        /* \"#utility.yul\":237:241   */\n      0x20\n        /* \"#utility.yul\":230:235   */\n      dup2\n        /* \"#utility.yul\":226:242   */\n      add\n        /* \"#utility.yul\":275:278   */\n      dup5\n        /* \"#utility.yul\":266:272   */\n      dup5\n        /* \"#utility.yul\":261:264   */\n      dup5\n        /* \"#utility.yul\":257:273   */\n      add\n        /* \"#utility.yul\":254:279   */\n      gt\n        /* \"#utility.yul\":251:363   */\n      iszero\n      tag_50\n      jumpi\n        /* \"#utility.yul\":282:361   */\n      tag_51\n      tag_52\n      jump\t// in\n    tag_51:\n        /* \"#utility.yul\":251:363   */\n    tag_50:\n        /* \"#utility.yul\":372:413   */\n      tag_53\n        /* \"#utility.yul\":406:412   */\n      dup5\n        /* \"#utility.yul\":401:404   */\n      dup3\n        /* \"#utility.yul\":396:399   */\n      dup6\n        /* \"#utility.yul\":372:413   */\n      tag_54\n      jump\t// in\n    tag_53:\n        /* \"#utility.yul\":91:419   */\n      pop\n        /* \"#utility.yul\":7:419   */\n      swap4\n      swap3\n      pop\n      pop\n      pop\n      jump\t// out\n        /* \"#utility.yul\":439:779   */\n    tag_55:\n        /* \"#utility.yul\":495:500   */\n      0x00\n        /* \"#utility.yul\":544:547   */\n      dup3\n        /* \"#utility.yul\":537:541   */\n      0x1f\n        /* \"#utility.yul\":529:535   */\n      dup4\n        /* \"#utility.yul\":525:542   */\n      add\n        /* \"#utility.yul\":521:548   */\n      slt\n        /* \"#utility.yul\":511:633   */\n      tag_57\n      jumpi\n        /* \"#utility.yul\":552:631   */\n      tag_58\n      tag_59\n      jump\t// in\n    tag_58:\n        /* \"#utility.yul\":511:633   */\n    tag_57:\n        /* \"#utility.yul\":669:675   */\n      dup2\n        /* \"#utility.yul\":656:676   */\n      calldataload\n        /* \"#utility.yul\":694:773   */\n      tag_60\n        /* \"#utility.yul\":769:772   */\n      dup5\n        /* \"#utility.yul\":761:767   */\n      dup3\n        /* \"#utility.yul\":754:758   */\n      0x20\n        /* \"#utility.yul\":746:752   */\n      dup7\n        /* \"#utility.yul\":742:759   */\n      add\n        /* \"#utility.yul\":694:773   */\n      tag_44\n      jump\t// in\n    tag_60:\n        /* \"#utility.yul\":685:773   */\n      swap2\n      pop\n        /* \"#utility.yul\":501:779   */\n      pop\n        /* \"#utility.yul\":439:779   */\n      swap3\n      swap2\n      pop\n      pop\n      jump\t// out\n        /* \"#utility.yul\":785:924   */\n    tag_61:\n        /* \"#utility.yul\":831:836   */\n      0x00\n        /* \"#utility.yul\":869:875   */\n      dup2\n        /* \"#utility.yul\":856:876   */\n      calldataload\n        /* \"#utility.yul\":847:876   */\n      swap1\n      pop\n        /* \"#utility.yul\":885:918   */\n      tag_63\n        /* \"#utility.yul\":912:917   */\n      dup2\n        /* \"#utility.yul\":885:918   */\n      tag_64\n      jump\t// in\n    tag_63:\n        /* \"#utility.yul\":785:924   */\n      swap3\n      swap2\n      pop\n      pop\n      jump\t// out\n        /* \"#utility.yul\":930:1439   */\n    tag_17:\n        /* \"#utility.yul\":999:1005   */\n      0x00\n        /* \"#utility.yul\":1048:1050   */\n      0x20\n        /* \"#utility.yul\":1036:1045   */\n      dup3\n        /* \"#utility.yul\":1027:1034   */\n      dup5\n        /* \"#utility.yul\":1023:1046   */\n      sub\n        /* \"#utility.yul\":1019:1051   */\n      slt\n        /* \"#utility.yul\":1016:1135   */\n      iszero\n      tag_66\n      jumpi\n        /* \"#utility.yul\":1054:1133   */\n      tag_67\n      tag_68\n      jump\t// in\n    tag_67:\n        /* \"#utility.yul\":1016:1135   */\n    tag_66:\n        /* \"#utility.yul\":1202:1203   */\n      0x00\n        /* \"#utility.yul\":1191:1200   */\n      dup3\n        /* \"#utility.yul\":1187:1204   */\n      add\n        /* \"#utility.yul\":1174:1205   */\n      calldataload\n        /* \"#utility.yul\":1232:1250   */\n      0xffffffffffffffff\n        /* \"#utility.yul\":1224:1230   */\n      dup2\n        /* \"#utility.yul\":1221:1251   */\n      gt\n        /* \"#utility.yul\":1218:1335   */\n      iszero\n      tag_69\n      jumpi\n        /* \"#utility.yul\":1254:1333   */\n      tag_70\n      tag_71\n      jump\t// in\n    tag_70:\n        /* \"#utility.yul\":1218:1335   */\n    tag_69:\n        /* \"#utility.yul\":1359:1422   */\n      tag_72\n        /* \"#utility.yul\":1414:1421   */\n      dup5\n        /* \"#utility.yul\":1405:1411   */\n      dup3\n        /* \"#utility.yul\":1394:1403   */\n      dup6\n        /* \"#utility.yul\":1390:1412   */\n      add\n        /* \"#utility.yul\":1359:1422   */\n      tag_55\n      jump\t// in\n    tag_72:\n        /* \"#utility.yul\":1349:1422   */\n      swap2\n      pop\n        /* \"#utility.yul\":1145:1432   */\n      pop\n        /* \"#utility.yul\":930:1439   */\n      swap3\n      swap2\n      pop\n      pop\n      jump\t// out\n        /* \"#utility.yul\":1445:1774   */\n    tag_13:\n        /* \"#utility.yul\":1504:1510   */\n      0x00\n        /* \"#utility.yul\":1553:1555   */\n      0x20\n        /* \"#utility.yul\":1541:1550   */\n      dup3\n        /* \"#utility.yul\":1532:1539   */\n      dup5\n        /* \"#utility.yul\":1528:1551   */\n      sub\n        /* \"#utility.yul\":1524:1556   */\n      slt\n        /* \"#utility.yul\":1521:1640   */\n      iszero\n      tag_74\n      jumpi\n        /* \"#utility.yul\":1559:1638   */\n      tag_75\n      tag_68\n      jump\t// in\n    tag_75:\n        /* \"#utility.yul\":1521:1640   */\n    tag_74:\n        /* \"#utility.yul\":1679:1680   */\n      0x00\n        /* \"#utility.yul\":1704:1757   */\n      tag_76\n        /* \"#utility.yul\":1749:1756   */\n      dup5\n        /* \"#utility.yul\":1740:1746   */\n      dup3\n        /* \"#utility.yul\":1729:1738   */\n      dup6\n        /* \"#utility.yul\":1725:1747   */\n      add\n        /* \"#utility.yul\":1704:1757   */\n      tag_61\n      jump\t// in\n    tag_76:\n        /* \"#utility.yul\":1694:1757   */\n      swap2\n      pop\n        /* \"#utility.yul\":1650:1767   */\n      pop\n        /* \"#utility.yul\":1445:1774   */\n      swap3\n      swap2\n      pop\n      pop\n      jump\t// out\n        /* \"#utility.yul\":1780:2144   */\n    tag_77:\n        /* \"#utility.yul\":1868:1871   */\n      0x00\n        /* \"#utility.yul\":1896:1935   */\n      tag_79\n        /* \"#utility.yul\":1929:1934   */\n      dup3\n        /* \"#utility.yul\":1896:1935   */\n      tag_80\n      jump\t// in\n    tag_79:\n        /* \"#utility.yul\":1951:2022   */\n      tag_81\n        /* \"#utility.yul\":2015:2021   */\n      dup2\n        /* \"#utility.yul\":2010:2013   */\n      dup6\n        /* \"#utility.yul\":1951:2022   */\n      tag_82\n      jump\t// in\n    tag_81:\n        /* \"#utility.yul\":1944:2022   */\n      swap4\n      pop\n        /* \"#utility.yul\":2031:2083   */\n      tag_83\n        /* \"#utility.yul\":2076:2082   */\n      dup2\n        /* \"#utility.yul\":2071:2074   */\n      dup6\n        /* \"#utility.yul\":2064:2068   */\n      0x20\n        /* \"#utility.yul\":2057:2062   */\n      dup7\n        /* \"#utility.yul\":2053:2069   */\n      add\n        /* \"#utility.yul\":2031:2083   */\n      tag_84\n      jump\t// in\n    tag_83:\n        /* \"#utility.yul\":2108:2137   */\n      tag_85\n        /* \"#utility.yul\":2130:2136   */\n      dup2\n        /* \"#utility.yul\":2108:2137   */\n      tag_86\n      jump\t// in\n    tag_85:\n        /* \"#utility.yul\":2103:2106   */\n      dup5\n        /* \"#utility.yul\":2099:2138   */\n      add\n        /* \"#utility.yul\":2092:2138   */\n      swap2\n      pop\n        /* \"#utility.yul\":1872:2144   */\n      pop\n        /* \"#utility.yul\":1780:2144   */\n      swap3\n      swap2\n      pop\n      pop\n      jump\t// out\n        /* \"#utility.yul\":2150:2268   */\n    tag_87:\n        /* \"#utility.yul\":2237:2261   */\n      tag_89\n        /* \"#utility.yul\":2255:2260   */\n      dup2\n        /* \"#utility.yul\":2237:2261   */\n      tag_90\n      jump\t// in\n    tag_89:\n        /* \"#utility.yul\":2232:2235   */\n      dup3\n        /* \"#utility.yul\":2225:2262   */\n      mstore\n        /* \"#utility.yul\":2150:2268   */\n      pop\n      pop\n      jump\t// out\n        /* \"#utility.yul\":2274:2587   */\n    tag_10:\n        /* \"#utility.yul\":2387:2391   */\n      0x00\n        /* \"#utility.yul\":2425:2427   */\n      0x20\n        /* \"#utility.yul\":2414:2423   */\n      dup3\n        /* \"#utility.yul\":2410:2428   */\n      add\n        /* \"#utility.yul\":2402:2428   */\n      swap1\n      pop\n        /* \"#utility.yul\":2474:2483   */\n      dup2\n        /* \"#utility.yul\":2468:2472   */\n      dup2\n        /* \"#utility.yul\":2464:2484   */\n      sub\n        /* \"#utility.yul\":2460:2461   */\n      0x00\n        /* \"#utility.yul\":2449:2458   */\n      dup4\n        /* \"#utility.yul\":2445:2462   */\n      add\n        /* \"#utility.yul\":2438:2485   */\n      mstore\n        /* \"#utility.yul\":2502:2580   */\n      tag_92\n        /* \"#utility.yul\":2575:2579   */\n      dup2\n        /* \"#utility.yul\":2566:2572   */\n      dup5\n        /* \"#utility.yul\":2502:2580   */\n      tag_77\n      jump\t// in\n    tag_92:\n        /* \"#utility.yul\":2494:2580   */\n      swap1\n      pop\n        /* \"#utility.yul\":2274:2587   */\n      swap3\n      swap2\n      pop\n      pop\n      jump\t// out\n        /* \"#utility.yul\":2593:2815   */\n    tag_22:\n        /* \"#utility.yul\":2686:2690   */\n      0x00\n        /* \"#utility.yul\":2724:2726   */\n      0x20\n        /* \"#utility.yul\":2713:2722   */\n      dup3\n        /* \"#utility.yul\":2709:2727   */\n      add\n        /* \"#utility.yul\":2701:2727   */\n      swap1\n      pop\n        /* \"#utility.yul\":2737:2808   */\n      tag_94\n        /* \"#utility.yul\":2805:2806   */\n      0x00\n        /* \"#utility.yul\":2794:2803   */\n      dup4\n        /* \"#utility.yul\":2790:2807   */\n      add\n        /* \"#utility.yul\":2781:2787   */\n      dup5\n        /* \"#utility.yul\":2737:2808   */\n      tag_87\n      jump\t// in\n    tag_94:\n        /* \"#utility.yul\":2593:2815   */\n      swap3\n      swap2\n      pop\n      pop\n      jump\t// out\n        /* \"#utility.yul\":2821:2950   */\n    tag_49:\n        /* \"#utility.yul\":2855:2861   */\n      0x00\n        /* \"#utility.yul\":2882:2902   */\n      tag_96\n      tag_97\n      jump\t// in\n    tag_96:\n        /* \"#utility.yul\":2872:2902   */\n      swap1\n      pop\n        /* \"#utility.yul\":2911:2944   */\n      tag_98\n        /* \"#utility.yul\":2939:2943   */\n      dup3\n        /* \"#utility.yul\":2931:2937   */\n      dup3\n        /* \"#utility.yul\":2911:2944   */\n      tag_99\n      jump\t// in\n    tag_98:\n        /* \"#utility.yul\":2821:2950   */\n      swap2\n      swap1\n      pop\n      jump\t// out\n        /* \"#utility.yul\":2956:3031   */\n    tag_97:\n        /* \"#utility.yul\":2989:2995   */\n      0x00\n        /* \"#utility.yul\":3022:3024   */\n      0x40\n        /* \"#utility.yul\":3016:3025   */\n      mload\n        /* \"#utility.yul\":3006:3025   */\n      swap1\n      pop\n        /* \"#utility.yul\":2956:3031   */\n      swap1\n      jump\t// out\n        /* \"#utility.yul\":3037:3345   */\n    tag_48:\n        /* \"#utility.yul\":3099:3103   */\n      0x00\n        /* \"#utility.yul\":3189:3207   */\n      0xffffffffffffffff\n        /* \"#utility.yul\":3181:3187   */\n      dup3\n        /* \"#utility.yul\":3178:3208   */\n      gt\n        /* \"#utility.yul\":3175:3231   */\n      iszero\n      tag_102\n      jumpi\n        /* \"#utility.yul\":3211:3229   */\n      tag_103\n      tag_104\n      jump\t// in\n    tag_103:\n        /* \"#utility.yul\":3175:3231   */\n    tag_102:\n        /* \"#utility.yul\":3249:3278   */\n      tag_105\n        /* \"#utility.yul\":3271:3277   */\n      dup3\n        /* \"#utility.yul\":3249:3278   */\n      tag_86\n      jump\t// in\n    tag_105:\n        /* \"#utility.yul\":3241:3278   */\n      swap1\n      pop\n        /* \"#utility.yul\":3333:3337   */\n      0x20\n        /* \"#utility.yul\":3327:3331   */\n      dup2\n        /* \"#utility.yul\":3323:3338   */\n      add\n        /* \"#utility.yul\":3315:3338   */\n      swap1\n      pop\n        /* \"#utility.yul\":3037:3345   */\n      swap2\n      swap1\n      pop\n      jump\t// out\n        /* \"#utility.yul\":3351:3450   */\n    tag_80:\n        /* \"#utility.yul\":3403:3409   */\n      0x00\n        /* \"#utility.yul\":3437:3442   */\n      dup2\n        /* \"#utility.yul\":3431:3443   */\n      mload\n        /* \"#utility.yul\":3421:3443   */\n      swap1\n      pop\n        /* \"#utility.yul\":3351:3450   */\n      swap2\n      swap1\n      pop\n      jump\t// out\n        /* \"#utility.yul\":3456:3625   */\n    tag_82:\n        /* \"#utility.yul\":3540:3551   */\n      0x00\n        /* \"#utility.yul\":3574:3580   */\n      dup3\n        /* \"#utility.yul\":3569:3572   */\n      dup3\n        /* \"#utility.yul\":3562:3581   */\n      mstore\n        /* \"#utility.yul\":3614:3618   */\n      0x20\n        /* \"#utility.yul\":3609:3612   */\n      dup3\n        /* \"#utility.yul\":3605:3619   */\n      add\n        /* \"#utility.yul\":3590:3619   */\n      swap1\n      pop\n        /* \"#utility.yul\":3456:3625   */\n      swap3\n      swap2\n      pop\n      pop\n      jump\t// out\n        /* \"#utility.yul\":3631:3708   */\n    tag_90:\n        /* \"#utility.yul\":3668:3675   */\n      0x00\n        /* \"#utility.yul\":3697:3702   */\n      dup2\n        /* \"#utility.yul\":3686:3702   */\n      swap1\n      pop\n        /* \"#utility.yul\":3631:3708   */\n      swap2\n      swap1\n      pop\n      jump\t// out\n        /* \"#utility.yul\":3714:3868   */\n    tag_54:\n        /* \"#utility.yul\":3798:3804   */\n      dup3\n        /* \"#utility.yul\":3793:3796   */\n      dup2\n        /* \"#utility.yul\":3788:3791   */\n      dup4\n        /* \"#utility.yul\":3775:3805   */\n      calldatacopy\n        /* \"#utility.yul\":3860:3861   */\n      0x00\n        /* \"#utility.yul\":3851:3857   */\n      dup4\n        /* \"#utility.yul\":3846:3849   */\n      dup4\n        /* \"#utility.yul\":3842:3858   */\n      add\n        /* \"#utility.yul\":3835:3862   */\n      mstore\n        /* \"#utility.yul\":3714:3868   */\n      pop\n      pop\n      pop\n      jump\t// out\n        /* \"#utility.yul\":3874:4181   */\n    tag_84:\n        /* \"#utility.yul\":3942:3943   */\n      0x00\n        /* \"#utility.yul\":3952:4065   */\n    tag_111:\n        /* \"#utility.yul\":3966:3972   */\n      dup4\n        /* \"#utility.yul\":3963:3964   */\n      dup2\n        /* \"#utility.yul\":3960:3973   */\n      lt\n        /* \"#utility.yul\":3952:4065   */\n      iszero\n      tag_113\n      jumpi\n        /* \"#utility.yul\":4051:4052   */\n      dup1\n        /* \"#utility.yul\":4046:4049   */\n      dup3\n        /* \"#utility.yul\":4042:4053   */\n      add\n        /* \"#utility.yul\":4036:4054   */\n      mload\n        /* \"#utility.yul\":4032:4033   */\n      dup2\n        /* \"#utility.yul\":4027:4030   */\n      dup5\n        /* \"#utility.yul\":4023:4034   */\n      add\n        /* \"#utility.yul\":4016:4055   */\n      mstore\n        /* \"#utility.yul\":3988:3990   */\n      0x20\n        /* \"#utility.yul\":3985:3986   */\n      dup2\n        /* \"#utility.yul\":3981:3991   */\n      add\n        /* \"#utility.yul\":3976:3991   */\n      swap1\n      pop\n        /* \"#utility.yul\":3952:4065   */\n      jump(tag_111)\n    tag_113:\n        /* \"#utility.yul\":4083:4089   */\n      dup4\n        /* \"#utility.yul\":4080:4081   */\n      dup2\n        /* \"#utility.yul\":4077:4090   */\n      gt\n        /* \"#utility.yul\":4074:4175   */\n      iszero\n      tag_114\n      jumpi\n        /* \"#utility.yul\":4163:4164   */\n      0x00\n        /* \"#utility.yul\":4154:4160   */\n      dup5\n        /* \"#utility.yul\":4149:4152   */\n      dup5\n        /* \"#utility.yul\":4145:4161   */\n      add\n        /* \"#utility.yul\":4138:4165   */\n      mstore\n        /* \"#utility.yul\":4074:4175   */\n    tag_114:\n        /* \"#utility.yul\":3923:4181   */\n      pop\n        /* \"#utility.yul\":3874:4181   */\n      pop\n      pop\n      pop\n      jump\t// out\n        /* \"#utility.yul\":4187:4507   */\n    tag_24:\n        /* \"#utility.yul\":4231:4237   */\n      0x00\n        /* \"#utility.yul\":4268:4269   */\n      0x02\n        /* \"#utility.yul\":4262:4266   */\n      dup3\n        /* \"#utility.yul\":4258:4270   */\n      div\n        /* \"#utility.yul\":4248:4270   */\n      swap1\n      pop\n        /* \"#utility.yul\":4315:4316   */\n      0x01\n        /* \"#utility.yul\":4309:4313   */\n      dup3\n        /* \"#utility.yul\":4305:4317   */\n      and\n        /* \"#utility.yul\":4336:4354   */\n      dup1\n        /* \"#utility.yul\":4326:4407   */\n      tag_116\n      jumpi\n        /* \"#utility.yul\":4392:4396   */\n      0x7f\n        /* \"#utility.yul\":4384:4390   */\n      dup3\n        /* \"#utility.yul\":4380:4397   */\n      and\n        /* \"#utility.yul\":4370:4397   */\n      swap2\n      pop\n        /* \"#utility.yul\":4326:4407   */\n    tag_116:\n        /* \"#utility.yul\":4454:4456   */\n      0x20\n        /* \"#utility.yul\":4446:4452   */\n      dup3\n        /* \"#utility.yul\":4443:4457   */\n      lt\n        /* \"#utility.yul\":4423:4441   */\n      dup2\n        /* \"#utility.yul\":4420:4458   */\n      eq\n        /* \"#utility.yul\":4417:4501   */\n      iszero\n      tag_117\n      jumpi\n        /* \"#utility.yul\":4473:4491   */\n      tag_118\n      tag_119\n      jump\t// in\n    tag_118:\n        /* \"#utility.yul\":4417:4501   */\n    tag_117:\n        /* \"#utility.yul\":4238:4507   */\n      pop\n        /* \"#utility.yul\":4187:4507   */\n      swap2\n      swap1\n      pop\n      jump\t// out\n        /* \"#utility.yul\":4513:4794   */\n    tag_99:\n        /* \"#utility.yul\":4596:4623   */\n      tag_121\n        /* \"#utility.yul\":4618:4622   */\n      dup3\n        /* \"#utility.yul\":4596:4623   */\n      tag_86\n      jump\t// in\n    tag_121:\n        /* \"#utility.yul\":4588:4594   */\n      dup2\n        /* \"#utility.yul\":4584:4624   */\n      add\n        /* \"#utility.yul\":4726:4732   */\n      dup2\n        /* \"#utility.yul\":4714:4724   */\n      dup2\n        /* \"#utility.yul\":4711:4733   */\n      lt\n        /* \"#utility.yul\":4690:4708   */\n      0xffffffffffffffff\n        /* \"#utility.yul\":4678:4688   */\n      dup3\n        /* \"#utility.yul\":4675:4709   */\n      gt\n        /* \"#utility.yul\":4672:4734   */\n      or\n        /* \"#utility.yul\":4669:4757   */\n      iszero\n      tag_122\n      jumpi\n        /* \"#utility.yul\":4737:4755   */\n      tag_123\n      tag_104\n      jump\t// in\n    tag_123:\n        /* \"#utility.yul\":4669:4757   */\n    tag_122:\n        /* \"#utility.yul\":4777:4787   */\n      dup1\n        /* \"#utility.yul\":4773:4775   */\n      0x40\n        /* \"#utility.yul\":4766:4788   */\n      mstore\n        /* \"#utility.yul\":4556:4794   */\n      pop\n        /* \"#utility.yul\":4513:4794   */\n      pop\n      pop\n      jump\t// out\n        /* \"#utility.yul\":4800:4980   */\n    tag_119:\n        /* \"#utility.yul\":4848:4925   */\n      0x4e487b7100000000000000000000000000000000000000000000000000000000\n        /* \"#utility.yul\":4845:4846   */\n      0x00\n        /* \"#utility.yul\":4838:4926   */\n      mstore\n        /* \"#utility.yul\":4945:4949   */\n      0x22\n        /* \"#utility.yul\":4942:4943   */\n      0x04\n        /* \"#utility.yul\":4935:4950   */\n      mstore\n        /* \"#utility.yul\":4969:4973   */\n      0x24\n        /* \"#utility.yul\":4966:4967   */\n      0x00\n        /* \"#utility.yul\":4959:4974   */\n      revert\n        /* \"#utility.yul\":4986:5166   */\n    tag_104:\n        /* \"#utility.yul\":5034:5111   */\n      0x4e487b7100000000000000000000000000000000000000000000000000000000\n        /* \"#utility.yul\":5031:5032   */\n      0x00\n        /* \"#utility.yul\":5024:5112   */\n      mstore\n        /* \"#utility.yul\":5131:5135   */\n      0x41\n        /* \"#utility.yul\":5128:5129   */\n      0x04\n        /* \"#utility.yul\":5121:5136   */\n      mstore\n        /* \"#utility.yul\":5155:5159   */\n      0x24\n        /* \"#utility.yul\":5152:5153   */\n      0x00\n        /* \"#utility.yul\":5145:5160   */\n      revert\n        /* \"#utility.yul\":5172:5289   */\n    tag_59:\n        /* \"#utility.yul\":5281:5282   */\n      0x00\n        /* \"#utility.yul\":5278:5279   */\n      dup1\n        /* \"#utility.yul\":5271:5283   */\n      revert\n        /* \"#utility.yul\":5295:5412   */\n    tag_52:\n        /* \"#utility.yul\":5404:5405   */\n      0x00\n        /* \"#utility.yul\":5401:5402   */\n      dup1\n        /* \"#utility.yul\":5394:5406   */\n      revert\n        /* \"#utility.yul\":5418:5535   */\n    tag_71:\n        /* \"#utility.yul\":5527:5528   */\n      0x00\n        /* \"#utility.yul\":5524:5525   */\n      dup1\n        /* \"#utility.yul\":5517:5529   */\n      revert\n        /* \"#utility.yul\":5541:5658   */\n    tag_68:\n        /* \"#utility.yul\":5650:5651   */\n      0x00\n        /* \"#utility.yul\":5647:5648   */\n      dup1\n        /* \"#utility.yul\":5640:5652   */\n      revert\n        /* \"#utility.yul\":5664:5766   */\n    tag_86:\n        /* \"#utility.yul\":5705:5711   */\n      0x00\n        /* \"#utility.yul\":5756:5758   */\n      0x1f\n        /* \"#utility.yul\":5752:5759   */\n      not\n        /* \"#utility.yul\":5747:5749   */\n      0x1f\n        /* \"#utility.yul\":5740:5745   */\n      dup4\n        /* \"#utility.yul\":5736:5750   */\n      add\n        /* \"#utility.yul\":5732:5760   */\n      and\n        /* \"#utility.yul\":5722:5760   */\n      swap1\n      pop\n        /* \"#utility.yul\":5664:5766   */\n      swap2\n      swap1\n      pop\n      jump\t// out\n        /* \"#utility.yul\":5772:5894   */\n    tag_64:\n        /* \"#utility.yul\":5845:5869   */\n      tag_132\n        /* \"#utility.yul\":5863:5868   */\n      dup2\n        /* \"#utility.yul\":5845:5869   */\n      tag_90\n      jump\t// in\n    tag_132:\n        /* \"#utility.yul\":5838:5843   */\n      dup2\n        /* \"#utility.yul\":5835:5870   */\n      eq\n        /* \"#utility.yul\":5825:5888   */\n      tag_133\n      jumpi\n        /* \"#utility.yul\":5884:5885   */\n      0x00\n        /* \"#utility.yul\":5881:5882   */\n      dup1\n        /* \"#utility.yul\":5874:5886   */\n      revert\n        /* \"#utility.yul\":5825:5888   */\n    tag_133:\n        /* \"#utility.yul\":5772:5894   */\n      pop\n      jump\t// out\n\n    auxdata: 0xa264697066735822122009a0a7d267e3748a1d6ac373049cfcf1525daf7e809d2b00adfb1126bfb1fdf064736f6c63430008070033\n}\n",
				"bytecode": {
					"linkReferences": {},
					"object": "608060405234801561001057600080fd5b50610591806100206000396000f3fe608060405234801561001057600080fd5b506004361061004c5760003560e01c806306fdde03146100515780637077eaf01461006f578063c47f00271461008b578063f45627d9146100a7575b600080fd5b6100596100c5565b6040516100669190610363565b60405180910390f35b610089600480360381019061008491906102ee565b610153565b005b6100a560048036038101906100a091906102a5565b61015d565b005b6100af610177565b6040516100bc9190610385565b60405180910390f35b600080546100d29061045e565b80601f01602080910402602001604051908101604052809291908181526020018280546100fe9061045e565b801561014b5780601f106101205761010080835404028352916020019161014b565b820191906000526020600020905b81548152906001019060200180831161012e57829003601f168201915b505050505081565b8060018190555050565b806000908051906020019061017392919061017d565b5050565b60015481565b8280546101899061045e565b90600052602060002090601f0160209004810192826101ab57600085556101f2565b82601f106101c457805160ff19168380011785556101f2565b828001600101855582156101f2579182015b828111156101f15782518255916020019190600101906101d6565b5b5090506101ff9190610203565b5090565b5b8082111561021c576000816000905550600101610204565b5090565b600061023361022e846103c5565b6103a0565b90508281526020810184848401111561024f5761024e610524565b5b61025a84828561041c565b509392505050565b600082601f8301126102775761027661051f565b5b8135610287848260208601610220565b91505092915050565b60008135905061029f81610544565b92915050565b6000602082840312156102bb576102ba61052e565b5b600082013567ffffffffffffffff8111156102d9576102d8610529565b5b6102e584828501610262565b91505092915050565b6000602082840312156103045761030361052e565b5b600061031284828501610290565b91505092915050565b6000610326826103f6565b6103308185610401565b935061034081856020860161042b565b61034981610533565b840191505092915050565b61035d81610412565b82525050565b6000602082019050818103600083015261037d818461031b565b905092915050565b600060208201905061039a6000830184610354565b92915050565b60006103aa6103bb565b90506103b68282610490565b919050565b6000604051905090565b600067ffffffffffffffff8211156103e0576103df6104f0565b5b6103e982610533565b9050602081019050919050565b600081519050919050565b600082825260208201905092915050565b6000819050919050565b82818337600083830152505050565b60005b8381101561044957808201518184015260208101905061042e565b83811115610458576000848401525b50505050565b6000600282049050600182168061047657607f821691505b6020821081141561048a576104896104c1565b5b50919050565b61049982610533565b810181811067ffffffffffffffff821117156104b8576104b76104f0565b5b80604052505050565b7f4e487b7100000000000000000000000000000000000000000000000000000000600052602260045260246000fd5b7f4e487b7100000000000000000000000000000000000000000000000000000000600052604160045260246000fd5b600080fd5b600080fd5b600080fd5b600080fd5b6000601f19601f8301169050919050565b61054d81610412565b811461055857600080fd5b5056fea264697066735822122009a0a7d267e3748a1d6ac373049cfcf1525daf7e809d2b00adfb1126bfb1fdf064736f6c63430008070033",
					"opcodes": "PUSH1 0x80 PUSH1 0x40 MSTORE CALLVALUE DUP1 ISZERO PUSH2 0x10 JUMPI PUSH1 0x0 DUP1 REVERT JUMPDEST POP PUSH2 0x591 DUP1 PUSH2 0x20 PUSH1 0x0 CODECOPY PUSH1 0x0 RETURN INVALID PUSH1 0x80 PUSH1 0x40 MSTORE CALLVALUE DUP1 ISZERO PUSH2 0x10 JUMPI PUSH1 0x0 DUP1 REVERT JUMPDEST POP PUSH1 0x4 CALLDATASIZE LT PUSH2 0x4C JUMPI PUSH1 0x0 CALLDATALOAD PUSH1 0xE0 SHR DUP1 PUSH4 0x6FDDE03 EQ PUSH2 0x51 JUMPI DUP1 PUSH4 0x7077EAF0 EQ PUSH2 0x6F JUMPI DUP1 PUSH4 0xC47F0027 EQ PUSH2 0x8B JUMPI DUP1 PUSH4 0xF45627D9 EQ PUSH2 0xA7 JUMPI JUMPDEST PUSH1 0x0 DUP1 REVERT JUMPDEST PUSH2 0x59 PUSH2 0xC5 JUMP JUMPDEST PUSH1 0x40 MLOAD PUSH2 0x66 SWAP2 SWAP1 PUSH2 0x363 JUMP JUMPDEST PUSH1 0x40 MLOAD DUP1 SWAP2 SUB SWAP1 RETURN JUMPDEST PUSH2 0x89 PUSH1 0x4 DUP1 CALLDATASIZE SUB DUP2 ADD SWAP1 PUSH2 0x84 SWAP2 SWAP1 PUSH2 0x2EE JUMP JUMPDEST PUSH2 0x153 JUMP JUMPDEST STOP JUMPDEST PUSH2 0xA5 PUSH1 0x4 DUP1 CALLDATASIZE SUB DUP2 ADD SWAP1 PUSH2 0xA0 SWAP2 SWAP1 PUSH2 0x2A5 JUMP JUMPDEST PUSH2 0x15D JUMP JUMPDEST STOP JUMPDEST PUSH2 0xAF PUSH2 0x177 JUMP JUMPDEST PUSH1 0x40 MLOAD PUSH2 0xBC SWAP2 SWAP1 PUSH2 0x385 JUMP JUMPDEST PUSH1 0x40 MLOAD DUP1 SWAP2 SUB SWAP1 RETURN JUMPDEST PUSH1 0x0 DUP1 SLOAD PUSH2 0xD2 SWAP1 PUSH2 0x45E JUMP JUMPDEST DUP1 PUSH1 0x1F ADD PUSH1 0x20 DUP1 SWAP2 DIV MUL PUSH1 0x20 ADD PUSH1 0x40 MLOAD SWAP1 DUP2 ADD PUSH1 0x40 MSTORE DUP1 SWAP3 SWAP2 SWAP1 DUP2 DUP2 MSTORE PUSH1 0x20 ADD DUP3 DUP1 SLOAD PUSH2 0xFE SWAP1 PUSH2 0x45E JUMP JUMPDEST DUP1 ISZERO PUSH2 0x14B JUMPI DUP1 PUSH1 0x1F LT PUSH2 0x120 JUMPI PUSH2 0x100 DUP1 DUP4 SLOAD DIV MUL DUP4 MSTORE SWAP2 PUSH1 0x20 ADD SWAP2 PUSH2 0x14B JUMP JUMPDEST DUP3 ADD SWAP2 SWAP1 PUSH1 0x0 MSTORE PUSH1 0x20 PUSH1 0x0 KECCAK256 SWAP1 JUMPDEST DUP2 SLOAD DUP2 MSTORE SWAP1 PUSH1 0x1 ADD SWAP1 PUSH1 0x20 ADD DUP1 DUP4 GT PUSH2 0x12E JUMPI DUP3 SWAP1 SUB PUSH1 0x1F AND DUP3 ADD SWAP2 JUMPDEST POP POP POP POP POP DUP2 JUMP JUMPDEST DUP1 PUSH1 0x1 DUP2 SWAP1 SSTORE POP POP JUMP JUMPDEST DUP1 PUSH1 0x0 SWAP1 DUP1 MLOAD SWAP1 PUSH1 0x20 ADD SWAP1 PUSH2 0x173 SWAP3 SWAP2 SWAP1 PUSH2 0x17D JUMP JUMPDEST POP POP JUMP JUMPDEST PUSH1 0x1 SLOAD DUP2 JUMP JUMPDEST DUP3 DUP1 SLOAD PUSH2 0x189 SWAP1 PUSH2 0x45E JUMP JUMPDEST SWAP1 PUSH1 0x0 MSTORE PUSH1 0x20 PUSH1 0x0 KECCAK256 SWAP1 PUSH1 0x1F ADD PUSH1 0x20 SWAP1 DIV DUP2 ADD SWAP3 DUP3 PUSH2 0x1AB JUMPI PUSH1 0x0 DUP6 SSTORE PUSH2 0x1F2 JUMP JUMPDEST DUP3 PUSH1 0x1F LT PUSH2 0x1C4 JUMPI DUP1 MLOAD PUSH1 0xFF NOT AND DUP4 DUP1 ADD OR DUP6 SSTORE PUSH2 0x1F2 JUMP JUMPDEST DUP3 DUP1 ADD PUSH1 0x1 ADD DUP6 SSTORE DUP3 ISZERO PUSH2 0x1F2 JUMPI SWAP2 DUP3 ADD JUMPDEST DUP3 DUP2 GT ISZERO PUSH2 0x1F1 JUMPI DUP3 MLOAD DUP3 SSTORE SWAP2 PUSH1 0x20 ADD SWAP2 SWAP1 PUSH1 0x1 ADD SWAP1 PUSH2 0x1D6 JUMP JUMPDEST JUMPDEST POP SWAP1 POP PUSH2 0x1FF SWAP2 SWAP1 PUSH2 0x203 JUMP JUMPDEST POP SWAP1 JUMP JUMPDEST JUMPDEST DUP1 DUP3 GT ISZERO PUSH2 0x21C JUMPI PUSH1 0x0 DUP2 PUSH1 0x0 SWAP1 SSTORE POP PUSH1 0x1 ADD PUSH2 0x204 JUMP JUMPDEST POP SWAP1 JUMP JUMPDEST PUSH1 0x0 PUSH2 0x233 PUSH2 0x22E DUP5 PUSH2 0x3C5 JUMP JUMPDEST PUSH2 0x3A0 JUMP JUMPDEST SWAP1 POP DUP3 DUP2 MSTORE PUSH1 0x20 DUP2 ADD DUP5 DUP5 DUP5 ADD GT ISZERO PUSH2 0x24F JUMPI PUSH2 0x24E PUSH2 0x524 JUMP JUMPDEST JUMPDEST PUSH2 0x25A DUP5 DUP3 DUP6 PUSH2 0x41C JUMP JUMPDEST POP SWAP4 SWAP3 POP POP POP JUMP JUMPDEST PUSH1 0x0 DUP3 PUSH1 0x1F DUP4 ADD SLT PUSH2 0x277 JUMPI PUSH2 0x276 PUSH2 0x51F JUMP JUMPDEST JUMPDEST DUP2 CALLDATALOAD PUSH2 0x287 DUP5 DUP3 PUSH1 0x20 DUP7 ADD PUSH2 0x220 JUMP JUMPDEST SWAP2 POP POP SWAP3 SWAP2 POP POP JUMP JUMPDEST PUSH1 0x0 DUP2 CALLDATALOAD SWAP1 POP PUSH2 0x29F DUP2 PUSH2 0x544 JUMP JUMPDEST SWAP3 SWAP2 POP POP JUMP JUMPDEST PUSH1 0x0 PUSH1 0x20 DUP3 DUP5 SUB SLT ISZERO PUSH2 0x2BB JUMPI PUSH2 0x2BA PUSH2 0x52E JUMP JUMPDEST JUMPDEST PUSH1 0x0 DUP3 ADD CALLDATALOAD PUSH8 0xFFFFFFFFFFFFFFFF DUP2 GT ISZERO PUSH2 0x2D9 JUMPI PUSH2 0x2D8 PUSH2 0x529 JUMP JUMPDEST JUMPDEST PUSH2 0x2E5 DUP5 DUP3 DUP6 ADD PUSH2 0x262 JUMP JUMPDEST SWAP2 POP POP SWAP3 SWAP2 POP POP JUMP JUMPDEST PUSH1 0x0 PUSH1 0x20 DUP3 DUP5 SUB SLT ISZERO PUSH2 0x304 JUMPI PUSH2 0x303 PUSH2 0x52E JUMP JUMPDEST JUMPDEST PUSH1 0x0 PUSH2 0x312 DUP5 DUP3 DUP6 ADD PUSH2 0x290 JUMP JUMPDEST SWAP2 POP POP SWAP3 SWAP2 POP POP JUMP JUMPDEST PUSH1 0x0 PUSH2 0x326 DUP3 PUSH2 0x3F6 JUMP JUMPDEST PUSH2 0x330 DUP2 DUP6 PUSH2 0x401 JUMP JUMPDEST SWAP4 POP PUSH2 0x340 DUP2 DUP6 PUSH1 0x20 DUP7 ADD PUSH2 0x42B JUMP JUMPDEST PUSH2 0x349 DUP2 PUSH2 0x533 JUMP JUMPDEST DUP5 ADD SWAP2 POP POP SWAP3 SWAP2 POP POP JUMP JUMPDEST PUSH2 0x35D DUP2 PUSH2 0x412 JUMP JUMPDEST DUP3 MSTORE POP POP JUMP JUMPDEST PUSH1 0x0 PUSH1 0x20 DUP3 ADD SWAP1 POP DUP2 DUP2 SUB PUSH1 0x0 DUP4 ADD MSTORE PUSH2 0x37D DUP2 DUP5 PUSH2 0x31B JUMP JUMPDEST SWAP1 POP SWAP3 SWAP2 POP POP JUMP JUMPDEST PUSH1 0x0 PUSH1 0x20 DUP3 ADD SWAP1 POP PUSH2 0x39A PUSH1 0x0 DUP4 ADD DUP5 PUSH2 0x354 JUMP JUMPDEST SWAP3 SWAP2 POP POP JUMP JUMPDEST PUSH1 0x0 PUSH2 0x3AA PUSH2 0x3BB JUMP JUMPDEST SWAP1 POP PUSH2 0x3B6 DUP3 DUP3 PUSH2 0x490 JUMP JUMPDEST SWAP2 SWAP1 POP JUMP JUMPDEST PUSH1 0x0 PUSH1 0x40 MLOAD SWAP1 POP SWAP1 JUMP JUMPDEST PUSH1 0x0 PUSH8 0xFFFFFFFFFFFFFFFF DUP3 GT ISZERO PUSH2 0x3E0 JUMPI PUSH2 0x3DF PUSH2 0x4F0 JUMP JUMPDEST JUMPDEST PUSH2 0x3E9 DUP3 PUSH2 0x533 JUMP JUMPDEST SWAP1 POP PUSH1 0x20 DUP2 ADD SWAP1 POP SWAP2 SWAP1 POP JUMP JUMPDEST PUSH1 0x0 DUP2 MLOAD SWAP1 POP SWAP2 SWAP1 POP JUMP JUMPDEST PUSH1 0x0 DUP3 DUP3 MSTORE PUSH1 0x20 DUP3 ADD SWAP1 POP SWAP3 SWAP2 POP POP JUMP JUMPDEST PUSH1 0x0 DUP2 SWAP1 POP SWAP2 SWAP1 POP JUMP JUMPDEST DUP3 DUP2 DUP4 CALLDATACOPY PUSH1 0x0 DUP4 DUP4 ADD MSTORE POP POP POP JUMP JUMPDEST PUSH1 0x0 JUMPDEST DUP4 DUP2 LT ISZERO PUSH2 0x449 JUMPI DUP1 DUP3 ADD MLOAD DUP2 DUP5 ADD MSTORE PUSH1 0x20 DUP2 ADD SWAP1 POP PUSH2 0x42E JUMP JUMPDEST DUP4 DUP2 GT ISZERO PUSH2 0x458 JUMPI PUSH1 0x0 DUP5 DUP5 ADD MSTORE JUMPDEST POP POP POP POP JUMP JUMPDEST PUSH1 0x0 PUSH1 0x2 DUP3 DIV SWAP1 POP PUSH1 0x1 DUP3 AND DUP1 PUSH2 0x476 JUMPI PUSH1 0x7F DUP3 AND SWAP2 POP JUMPDEST PUSH1 0x20 DUP3 LT DUP2 EQ ISZERO PUSH2 0x48A JUMPI PUSH2 0x489 PUSH2 0x4C1 JUMP JUMPDEST JUMPDEST POP SWAP2 SWAP1 POP JUMP JUMPDEST PUSH2 0x499 DUP3 PUSH2 0x533 JUMP JUMPDEST DUP2 ADD DUP2 DUP2 LT PUSH8 0xFFFFFFFFFFFFFFFF DUP3 GT OR ISZERO PUSH2 0x4B8 JUMPI PUSH2 0x4B7 PUSH2 0x4F0 JUMP JUMPDEST JUMPDEST DUP1 PUSH1 0x40 MSTORE POP POP POP JUMP JUMPDEST PUSH32 0x4E487B7100000000000000000000000000000000000000000000000000000000 PUSH1 0x0 MSTORE PUSH1 0x22 PUSH1 0x4 MSTORE PUSH1 0x24 PUSH1 0x0 REVERT JUMPDEST PUSH32 0x4E487B7100000000000000000000000000000000000000000000000000000000 PUSH1 0x0 MSTORE PUSH1 0x41 PUSH1 0x4 MSTORE PUSH1 0x24 PUSH1 0x0 REVERT JUMPDEST PUSH1 0x0 DUP1 REVERT JUMPDEST PUSH1 0x0 DUP1 REVERT JUMPDEST PUSH1 0x0 DUP1 REVERT JUMPDEST PUSH1 0x0 DUP1 REVERT JUMPDEST PUSH1 0x0 PUSH1 0x1F NOT PUSH1 0x1F DUP4 ADD AND SWAP1 POP SWAP2 SWAP1 POP JUMP JUMPDEST PUSH2 0x54D DUP2 PUSH2 0x412 JUMP JUMPDEST DUP2 EQ PUSH2 0x558 JUMPI PUSH1 0x0 DUP1 REVERT JUMPDEST POP JUMP INVALID LOG2 PUSH5 0x6970667358 0x22 SLT KECCAK256 MULMOD LOG0 0xA7 0xD2 PUSH8 0xE3748A1D6AC37304 SWAP13 0xFC CALL MSTORE 0x5D 0xAF PUSH31 0x809D2B00ADFB1126BFB1FDF064736F6C634300080700330000000000000000 "
				},
				"gasEstimates": {
					"creation": {
						"codeDepositCost": "285000",
						"executionCost": "324",
						"totalCost": "285324"
					},
					"external": {
						"name()": "infinite",
						"numeroEscolhido()": "2473",
						"setName(string)": "infinite",
						"setNumeroEscolhido(uint256)": "22520"
					}
				},
				"methodIdentifiers": {
					"name()": "06fdde03",
					"numeroEscolhido()": "f45627d9",
					"setName(string)": "c47f0027",
					"setNumeroEscolhido(uint256)": "7077eaf0"
				}
			},
			"storageLayout": {
				"storage": [
					{
						"astId": 3,
						"contract": "contracts/Hello.sol:HelloWorld",
						"label": "name",
						"offset": 0,
						"slot": "0",
						"type": "t_string_storage"
					},
					{
						"astId": 5,
						"contract": "contracts/Hello.sol:HelloWorld",
						"label": "numeroEscolhido",
						"offset": 0,
						"slot": "1",
						"type": "t_uint256"
					}
				],
				"types": {
					"t_string_storage": {
						"encoding": "bytes",
						"label": "string",
						"numberOfBytes": "32"
					},
					"t_uint256": {
						"encoding": "inplace",
						"label": "uint256",
						"numberOfBytes": "32"
					}
				}
			},
			"userdoc": {
				"kind": "user",
				"methods": {},
				"version": 1
			}
		}
	}
}