{
	"data": {
		"bytecode": {
			"linkReferences": {},
			"object": "608060405234801561001057600080fd5b5061022d806100206000396000f3fe608060405234801561001057600080fd5b50600436106100415760003560e01c806331a168a214610046578063a56dfe4a14610062578063d8cba1ce14610080575b600080fd5b610060600480360381019061005b91906100e2565b61009e565b005b61006a6100b0565b6040516100779190610131565b60405180910390f35b6100886100b6565b6040516100959190610131565b60405180910390f35b81600081905550806001819055505050565b60015481565b60006001546000546100c8919061014c565b905090565b6000813590506100dc816101e0565b92915050565b600080604083850312156100f9576100f86101db565b5b6000610107858286016100cd565b9250506020610118858286016100cd565b9150509250929050565b61012b816101a2565b82525050565b60006020820190506101466000830184610122565b92915050565b6000610157826101a2565b9150610162836101a2565b9250827fffffffffffffffffffffffffffffffffffffffffffffffffffffffffffffffff03821115610197576101966101ac565b5b828201905092915050565b6000819050919050565b7f4e487b7100000000000000000000000000000000000000000000000000000000600052601160045260246000fd5b600080fd5b6101e9816101a2565b81146101f457600080fd5b5056fea2646970667358221220fd48bad017caa1eea0e71e5ce2e910ba553ed9515141f37ad92cfd95f1984e6464736f6c63430008070033",
			"opcodes": "PUSH1 0x80 PUSH1 0x40 MSTORE CALLVALUE DUP1 ISZERO PUSH2 0x10 JUMPI PUSH1 0x0 DUP1 REVERT JUMPDEST POP PUSH2 0x22D DUP1 PUSH2 0x20 PUSH1 0x0 CODECOPY PUSH1 0x0 RETURN INVALID PUSH1 0x80 PUSH1 0x40 MSTORE CALLVALUE DUP1 ISZERO PUSH2 0x10 JUMPI PUSH1 0x0 DUP1 REVERT JUMPDEST POP PUSH1 0x4 CALLDATASIZE LT PUSH2 0x41 JUMPI PUSH1 0x0 CALLDATALOAD PUSH1 0xE0 SHR DUP1 PUSH4 0x31A168A2 EQ PUSH2 0x46 JUMPI DUP1 PUSH4 0xA56DFE4A EQ PUSH2 0x62 JUMPI DUP1 PUSH4 0xD8CBA1CE EQ PUSH2 0x80 JUMPI JUMPDEST PUSH1 0x0 DUP1 REVERT JUMPDEST PUSH2 0x60 PUSH1 0x4 DUP1 CALLDATASIZE SUB DUP2 ADD SWAP1 PUSH2 0x5B SWAP2 SWAP1 PUSH2 0xE2 JUMP JUMPDEST PUSH2 0x9E JUMP JUMPDEST STOP JUMPDEST PUSH2 0x6A PUSH2 0xB0 JUMP JUMPDEST PUSH1 0x40 MLOAD PUSH2 0x77 SWAP2 SWAP1 PUSH2 0x131 JUMP JUMPDEST PUSH1 0x40 MLOAD DUP1 SWAP2 SUB SWAP1 RETURN JUMPDEST PUSH2 0x88 PUSH2 0xB6 JUMP JUMPDEST PUSH1 0x40 MLOAD PUSH2 0x95 SWAP2 SWAP1 PUSH2 0x131 JUMP JUMPDEST PUSH1 0x40 MLOAD DUP1 SWAP2 SUB SWAP1 RETURN JUMPDEST DUP2 PUSH1 0x0 DUP2 SWAP1 SSTORE POP DUP1 PUSH1 0x1 DUP2 SWAP1 SSTORE POP POP POP JUMP JUMPDEST PUSH1 0x1 SLOAD DUP2 JUMP JUMPDEST PUSH1 0x0 PUSH1 0x1 SLOAD PUSH1 0x0 SLOAD PUSH2 0xC8 SWAP2 SWAP1 PUSH2 0x14C JUMP JUMPDEST SWAP1 POP SWAP1 JUMP JUMPDEST PUSH1 0x0 DUP2 CALLDATALOAD SWAP1 POP PUSH2 0xDC DUP2 PUSH2 0x1E0 JUMP JUMPDEST SWAP3 SWAP2 POP POP JUMP JUMPDEST PUSH1 0x0 DUP1 PUSH1 0x40 DUP4 DUP6 SUB SLT ISZERO PUSH2 0xF9 JUMPI PUSH2 0xF8 PUSH2 0x1DB JUMP JUMPDEST JUMPDEST PUSH1 0x0 PUSH2 0x107 DUP6 DUP3 DUP7 ADD PUSH2 0xCD JUMP JUMPDEST SWAP3 POP POP PUSH1 0x20 PUSH2 0x118 DUP6 DUP3 DUP7 ADD PUSH2 0xCD JUMP JUMPDEST SWAP2 POP POP SWAP3 POP SWAP3 SWAP1 POP JUMP JUMPDEST PUSH2 0x12B DUP2 PUSH2 0x1A2 JUMP JUMPDEST DUP3 MSTORE POP POP JUMP JUMPDEST PUSH1 0x0 PUSH1 0x20 DUP3 ADD SWAP1 POP PUSH2 0x146 PUSH1 0x0 DUP4 ADD DUP5 PUSH2 0x122 JUMP JUMPDEST SWAP3 SWAP2 POP POP JUMP JUMPDEST PUSH1 0x0 PUSH2 0x157 DUP3 PUSH2 0x1A2 JUMP JUMPDEST SWAP2 POP PUSH2 0x162 DUP4 PUSH2 0x1A2 JUMP JUMPDEST SWAP3 POP DUP3 PUSH32 0xFFFFFFFFFFFFFFFFFFFFFFFFFFFFFFFFFFFFFFFFFFFFFFFFFFFFFFFFFFFFFFFF SUB DUP3 GT ISZERO PUSH2 0x197 JUMPI PUSH2 0x196 PUSH2 0x1AC JUMP JUMPDEST JUMPDEST DUP3 DUP3 ADD SWAP1 POP SWAP3 SWAP2 POP POP JUMP JUMPDEST PUSH1 0x0 DUP2 SWAP1 POP SWAP2 SWAP1 POP JUMP JUMPDEST PUSH32 0x4E487B7100000000000000000000000000000000000000000000000000000000 PUSH1 0x0 MSTORE PUSH1 0x11 PUSH1 0x4 MSTORE PUSH1 0x24 PUSH1 0x0 REVERT JUMPDEST PUSH1 0x0 DUP1 REVERT JUMPDEST PUSH2 0x1E9 DUP2 PUSH2 0x1A2 JUMP JUMPDEST DUP2 EQ PUSH2 0x1F4 JUMPI PUSH1 0x0 DUP1 REVERT JUMPDEST POP JUMP INVALID LOG2 PUSH5 0x6970667358 0x22 SLT KECCAK256 REVERT BASEFEE 0xBA 0xD0 OR 0xCA LOG1 0xEE LOG0 0xE7 0x1E 0x5C 0xE2 0xE9 LT 0xBA SSTORE RETURNDATACOPY 0xD9 MLOAD MLOAD COINBASE RETURN PUSH27 0xD92CFD95F1984E6464736F6C634300080700330000000000000000 "
		},
		"gasEstimates": {
			"creation": {
				"codeDepositCost": "111400",
				"executionCost": "159",
				"totalCost": "111559"
			},
			"external": {
				"Soma()": "infinite",
				"setXY(uint256,uint256)": "infinite",
				"y()": "2429"
			}
		},
		"methodIdentifiers": {
			"Soma()": "d8cba1ce",
			"setXY(uint256,uint256)": "31a168a2",
			"y()": "a56dfe4a"
		}
	},
	"abi": [
		{
			"inputs": [],
			"name": "Soma",
			"outputs": [
				{
					"internalType": "uint256",
					"name": "",
					"type": "uint256"
				}
			],
			"stateMutability": "view",
			"type": "function"
		},
		{
			"inputs": [
				{
					"internalType": "uint256",
					"name": "_x",
					"type": "uint256"
				},
				{
					"internalType": "uint256",
					"name": "_y",
					"type": "uint256"
				}
			],
			"name": "setXY",
			"outputs": [],
			"stateMutability": "nonpayable",
			"type": "function"
		},
		{
			"inputs": [],
			"name": "y",
			"outputs": [
				{
					"internalType": "uint256",
					"name": "",
					"type": "uint256"
				}
			],
			"stateMutability": "view",
			"type": "function"
		}
	]
}